:040000006F00D04479
:10000400000000000000000038690000D002002059
:10001400A9BDF9F3386900000000000000000000E9
:10002400386900003869000000000000000000008A
:10003400386900000000000038690000000000007A
:10004400000000003869000000000000386900006A
:1000540038690000386900003869000000000000B9
:10006400386900000000000000000000386900004A
:100074007A030020386900003869000038690000FC
:10008400000000003869000000000000386900002A
:100094009307000C01116314F50493078008F3B768
:1000A400078093F787083EC00F100000B717004081
:1000B400130770052380E704130780FA2380E704FD
:1000C4000F10000098271367070C98A723800704D4
:1000D4008247F3A707800F10000005618280B717DD
:1000E4000040B827118B69EB83C6E7041307800827
:1000F40093F6F60F733607801376860832C20F1014
:1001040000001308700523800705930580FA2380F7
:10011400B7040F10000003C6E704136636002387F4
:10012400C704B02713664600B0A72380070412460D
:10013400732606800F10000090271376F60F73378E
:100144000780137787083AC40F100000238007053F
:100154002380B7040F10000098271367070C98A793
:1001640023800704A247F3A707800F100000A547C8
:100174000100FD1793F7F70FE5FF93078008F3B726
:10018400078093F787083EC60F100000B71700409A
:10019400130770052380E704130780FA2380E7041C
:1001A4000F10000090A72387D70423800704B247C9
:1001B400F3A707800F1000009377050C13070004C2
:1001C4006399E70893078008F3B7078093F78708D4
:1001D4003EC80F100000B7170040130770052380B6
:1001E400E704130780FA2380E7040F100000B82700
:1001F400854613670701B8A737270040A303D780B4
:100204008346578093E60601A302D7802380070420
:10021400C247F3A707800F10000093078008F3B7C5
:10022400078093F787083ECE0F100000B7170040F1
:10023400130770052380E704130780FA2380E7047B
:100244000F1000001375F50F88A723800704F247E9
:1002540049B59377F5019DCF93078008F3B70780DD
:1002640093F787083ECA0F100000B7170040130722
:1002740070052380E704130780FA2380E7040F1036
:100284000000372700408946A303D7802380070452
:10029400D24741B793078008F3B7078093F78708DD
:1002A4003ECC0F100000B7170040130770052380E1
:1002B400E704130780FA2380E7040F1000003727B0
:1002C40000409D46A303D78023800704E24791B7EB
:1002D40041118146014681451145971000E0E780B0
:1002E400C06713078008F337078093F787083EC475
:1002F4000F100000B7170040130670052380C704D1
:10030400930680FA2380D7040F100000FD55CEB762
:1003140023800704A245F3A505800F10000073375E
:100324000780137787083AC60F1000002380C7049C
:100334002380D7040F10000003C767041367170056
:100344002383E70423800704B247F3A707800F1031
:10035400000001A04111B7170040985F3AC6945FAE
:100364003247E39CE6FE324541018280B7E700E074
:100374003707001023A0E7208280B7170040130737
:1003840000032388E702854723AEF18273002030FF
:1003940061678147938631841307076A85459022F4
:1003A40011C28280850701000100E37AF7FE8CA266
:1003B400FDB761678147938621841307076A8545E2
:1003C400902211C28280850701000100E37AF7FEC2
:1003D4008CA2FDB7411106C6CD26FDBF23030480C0
:1003E4001547A2872303E480010001002302A480AF
:1003F40003C7678062076187E34C07FE2382A780F7
:10040400228783476780E207E187E3CC07FE828087
:100414002303048015472303E48001000100230221
:10042400A480828083076480E3CE07FE23030480D4
:10043400828083076480E3CE07FE03454480828084
:1004440083076480E3CE07FE2302A48082804111E7
:1004540026C44AC24EC006C61377F50BAD47AA8917
:100464002E8995446306F70019455D37653F8D4431
:100474004E85793FFD59FD1463983401B240A2447E
:100484001249824941018280135509011375F50F00
:10049400453F2209CDB7011126CC06CEB70408008A
:1004A40051371545B537713769372AC6A53F3245E7
:1004B4009377150089EB136515001375F50FF2405A
:1004C400E24405618280FD14E9FC0145CDBF411180
:1004D40006C6B7170040130770052380E704130707
:1004E40080FA2380E70403C747041305F00F13675A
:1004F400070E2382E70491472303F480C535B240F5
:1005040041010DB7011126CC4ACA4EC852C606CEC7
:100514002A89AE89B284554A5D3F91E82137F24079
:1005240026855249E244C249324A05618280CA851D
:100534000945313F910903A7C9FF91472320E4806E
:1005440003076480E34E07FE23034481FD17EDFB9C
:10055400FD14110981C49377F90FE9FF2D3F55FD6F
:10056400FD5475BF011126CC4ACA4EC852C656C4A2
:100574005AC206CE2A89328A8D49913FC164C16A22
:10058400056B9387F4FFB3F7270199E363719A022C
:10059400FD199180E39709FE71350145F240E2446B
:1005A4005249C249324AA24A124B0561828013055C
:1005B400800D6388540113050002638464011305EC
:1005C4001008CA856935C13D09C52699330A9A4080
:1005D40075BF7D55E1B7011106CE26CC4ACAB28457
:1005E4004EC82AC62E89E5353245FD14FD59AA8523
:1005F4002D45B13D639A34013535F2402685524983
:10060400E244C249056182802D3593F7340091EBB1
:10061400832604800327090093074900E39EE6FC30
:100624003E89FD14C1BF011106CE2AC64D3532459F
:10063400C533F2400561FDB3011106CE26CC4ACA8A
:100644004EC852C6AA8956C42E895135B70504002E
:10065400B3E5B9002D45E53B81448D4A214AD13BA0
:1006640063965401832704802320F9008504E398CA
:1006740044FF8327048013972901635C0700231236
:10068400F900F240E2445249C249324AA24A0561A1
:1006940051BB2322F900F5B7411106C626C44AC24C
:1006A4004EC0AE892D3581451305B0044D33BD448C
:1006B4007D59413393F77400CE9703C70700FD14A7
:1006C400398D2380A700E39624FFB240A244124947
:1006D4008249410181BB411106C6D53B1305600621
:1006E400053B8933130590092533B24041011DBBF5
:1006F400B7E700E09843B706200023A0D718758F0A
:100704000F10000001C599C1814711E6B7E700E069
:1007140023A0E7108280B386F50003C80600B30661
:10072400F500850723800601E317F6FEC5B74111DE
:1007340026C2B7E400E022C48040B706200006C603
:10074400758C23A0D4180F10000011C111EAB7E76B
:1007540000E023A08710B2402244924441018280E9
:10076400970000E0E780405B23A08410EDB737E7F3
:1007740000E01C43B70620002320D718F58F0F1084
:10078400000001C599C1014711EA37E700E02320C1
:10079400F710054582800507E309E6FE3308E50006
:1007A400B386E500034808009422E306D8FE37E741
:1007B40000E02320F71001458280797122D406D607
:1007C40026D24AD04ECE52CC56CA5AC85EC662C44D
:1007D400138401851C40C1EF9384416C1389018605
:1007E400032709009C2094300146B3A5E7208E21FD
:1007F400C9C111C29CA088206364D5082382016CFE
:100804001C40D5EF9389818583A70900CDCB138A3A
:10081400C18403240A0045C4938B817183A74B00D0
:1008240037C9C901014B9CC41309F937938A416E36
:100834003E20CDE75C4463100B0A2320FA00032C0E
:10084400C40022859926628465F483A78170A5CBB0
:100854002254B25092540259F249624AD24A424B4B
:10086400B24B224C4561171300E06700A3578297EF
:1008740095B7850793F7F70F0546E3E8D7F69DBFCD
:100884003327E5200E23231007002395016C83A74B
:10089400C185B347F5209C4382979C208326090099
:1008A400FA20B3A6D72092223377E540518F9AA23B
:1008B40099C385079CA098209C30E371F7F4B2504B
:1008C400225492540259F249624AD24A424BB24BE0
:1008D400224C456182802326FB0095B783A709003B
:1008E40082971C443307F5406376F50003A74B0059
:1008F4001D8F2A976369E9022E200820976000E083
:10090400E78080285C409DD7104483A64B00B297B3
:100914003E8763E4C70063E4D7003387D74018C435
:10092400228B404415B703A74A027DDB63E9A70283
:100934003385A7401C2099EF03C76A0183A64B00A7
:100944005117B307A7003E8563E4E70063E4D700CB
:100954003385D7409C44E375F5FC88C4D1B703A71D
:100964004B00BA97F1B7B7C700401387C7201443A9
:100974001396264910C30F1000009387872603A5FA
:10098400816D9C436A0514C393C7F7FF99835D8DFA
:100994008280411126C293848186984006C622C46F
:1009A4003C4393D7674895CB930700063CC383C762
:1009B400C17293F707041384C17289CB83A7817131
:1009C400829748C41C2093F7F70B1CA01E2491C7E0
:1009D40003A701887CD3239A017298403C4393D7A0
:1009E400474899C7C1473CC383A7018823A2070688
:1009F40003A7818A5C4393D7174899C3232207002E
:100A0400B240224492444101828061377300203015
:100A14001431AA871387260089CA03A60188304A9D
:100A24001356564819C21387660093063700BE96BC
:100A34009022054805451376F607631C060381C515
:100A44003E97382398A188330DC583A70188BC4BF2
:100A5400014593D7574891CF9C22054793F6F70653
:100A64006398E6009397476063D507003945828011
:100A74001945828083A701889847D447758FB706A4
:100A8400040098C7F98E81CAFD56B4D71386416C09
:100A9400544A850654CA9376870091CE83C6E17280
:100AA40093E616002387D17203A68186545AF19ADD
:100AB40093E6160054DA9376170091CE83C6D1726A
:100AC40093E61600A386D17203A68186545AF19A3E
:100AD40093E6160054DA9376670095CA118B03A641
:100AE40081869386C17259C3184221830D8B25EFE9
:100AF400D84A183321E313077006D8CF9C2293E712
:100B040017009CA25C5AF19B93E717005CDA83C739
:100B1400C187A5CB238E018683A78187A9CF4111E5
:100B240006C6829783C7C18799E323AC0186B24086
:100B340041018280AC4B93F5050281C51307500730
:100B44006DBF85456315B7001307B0067DB78945AA
:100B54006315B7001307F0064DB78D45E310B7FED4
:100B64001307300759BF1307600741BFBC3293E72F
:100B74001700BCB241BF83C7C18781E723AC01869C
:100B840082808280C53D73002030B7E700E003A86F
:100B940007003707200023A0E7183378E8000F1078
:100BA400000003AE018A03A38189F287814663F4BE
:100BB400670883A807006365F50863E3A80813873B
:100BC4008700636AE506F223216705076317E600D9
:100BD4001386418A1822050718A29385416CD223F3
:100BE400DA2123930700329733470708DAA1638198
:100BF400C70303A5C189630DF500EA2211E9DE22CA
:100C040023A0160121073E962106D2A2DAA1B687B7
:100C140098436302670283A6C189630ED7007623D3
:100C240099EAD62352231843A106B296D6A398C3B1
:100C3400DE21A107DEA1B7E700E023A0071182802F
:080C4400BE86C687ADB70000B3
:100C4C00971100209381C186172100201301C13A0E
:100C5C001305400097F5FF1F9385053A17060020F2
:100C6C00130606FE63FAC5008322050023A0550077
:100C7C0011059105E3EAC5FE1765000013058536DD
:100C8C00970500209385C5FB1386C18263FAC500C6
:100C9C008322050023A0550011059105E3EAC5FE4A
:100CAC001385C1829385017C6377B50023200500F1
:100CBC001105E36DB5FE93025002739002BC8D4298
:100CCC00739042808542739012BC9302800873909B
:100CDC00023097F2FF1F9382223293E2320073901C
:100CEC00523097120000938282C0739012347300BA
:100CFC0020302A8309CA83830500230073007D16E4
:100D0C00050385056DFA82802A8311C62300B30082
:100D1C007D16050365FE8280371700408347E70484
:100D2C0012054111BD8BC98F93F7F70F93068008FD
:100D3C00F3B6068093F6860836C60F1000009306AD
:100D4C0070052300D704930680FA2300D7040F10F4
:100D5C0000002307F70423000704B247F3A707801A
:100D6C000F10000041018280011126CA06CE22CC50
:100D7C008947B314A02863F9A700954763EAA70A2B
:100D8C0093042500B3149028B717004003D7070528
:100D9C00B166558F2398E7041307800873370780D3
:100DAC00137787083AC60F100000130770052380CD
:100DBC00E704130780FA2380E7040F10000003C731
:100DCC0037051375F50F13670708A389E704A38983
:100DDC00A70403C7370513670702A389E704238019
:100DEC000704B247F3A707800F10000081470146A4
:100DFC00B716004003D70605131757606352070454
:100E0C0003D7060583C6260513948700931727017D
:100E1C003694C9833A043E94C12C33549402F24064
:100E2C00D24433558502624423A6A1820561828097
:100E3C00994793040040E309F5F49304F07FA9B7B4
:100E4C0003C726059375F70F6373C70085072E86B6
:100E5C0055B741113A8E2A838148930E407E130F69
:100E6C000019930F400663EF6E14130700193377C4
:100E7C00E502854E0D4F994FFD4263E1BE18614767
:100E8C007D1603A5C1824696AA85B3F6E602130722
:100E9C0080703387E602F946330EDE0293D61700D4
:100EAC00858B7297369791E38145B307A602A166AD
:100EBC00FD161306302A13D8F700F58FB387C70237
:100ECC001166B385A5023307A702B29513F6F71F77
:100EDC001E06BD81A583F98EB3A6C6203D83AE96B2
:100EEC00BA9713D70601BA972D671307078C33D619
:100EFC00E702B3C6060833F7E70242964207558F5E
:100F0C00B716004083C7F60293F70708DC838C837F
:100F1C0083C7F60293F70708E396F5FE9C83B71692
:100F2C0000406381071293078008F3B7078093F79B
:100F3C0087083EC40F100000B717004093067005D9
:100F4C002380D704930680FA2380D7040F10000067
:100F5C00D0DB83C6170393E60608A388D702238049
:100F6C000704A247F3A707800F1000001166B717FC
:100F7C0000407D16D45BCC5FAD8EF18EE5FE930602
:100F8C008008F3B6068093F6860836C60F1000006C
:100F9C00930670052380D704930680FA2380D70428
:100FAC000F100000D8DB03C7170313670704A388CF
:100FBC00E70223800704B247F3A707800F10000055
:100FCC00410182807D133377E3031308E01601CFD0
:100FDC003377F3031308D01619C71378330013387B
:100FEC0018001308D816C298BDBD13F81500F915D2
:100FFC0063FBBF029305E801AE989A851383F5FF56
:10100C00E395E5FF854501CF1308400633780503CA
:10101C008145630608009375350093B51500F105FD
:10102C00AE989A8599BDB3850241DDBF83C7F602A0
:10103C0093F70708DC838C8383C7F60293F70708C2
:10104C00E396F5FE9C83FDD3F9BD0D06719A81479D
:10105C003307F5006393C700828014433387F50090
:10106C00910714C3F5B7914763ECB7049757000089
:10107C0093878757B3C5F52098413E97B717004023
:10108C009387470B0287944337170040B3F6A6406B
:10109C0094C39306070B9C42B3F7A74019A894433B
:1010AC0037170040B3F6A64094C39306070B9C4237
:1010BC00C98F9CC29307070A98433377A74098C3FC
:1010CC008280944337170040C98ED9B79843337741
:1010DC00A74098C3B71700409387070A9843498FD6
:1010EC00F9BF9843498FF5B7B71700409827930677
:1010FC00000C1377070C6315D70003A5C1828280FF
:10110C009827930600041377070C6310D7029427D3
:10111C0013070002FD8A99C298277D8B3745C3239C
:10112C00130505603345E5028280942713070002FE
:10113C00FD8A99C298277D8B3755E80113050580E8
:10114C00D5B7B7F700E088478280328581473737BB
:10115C000040A14663C3A70082800346B740E30E5C
:10116C00D6FE3386F500102285072304C740DDB771
:10117C00970600209386C6B3AA8788421387017C02
:10118C00AA9763E9E7000A87130707FC6364F70073
:10119C009CC282807D558280411122C406C62A845D
:1011AC00A1372947B307E502B2408D83B3D7870235
:1011BC0022449507B3D7E70237370040B3C7070877
:1011CC002316F740410182807165411113050520FA
:1011DC0006C6D937B7370040130710F82381E7400C
:1011EC000D47A381E74013070004A380E7400547A0
:1011FC002387E740B24041018280371700403E2FE1
:10120C00B3C7070893F707FCB3C707083EAF09C974
:10121C003E2F8E055D8ED18DB3C505082EAF828015
:10122C008280B287411113962500BE8506C6313DDA
:10123C00B240014541018280011122CC26CA93960D
:10124C0025002A84B284AA850146054506CE36C6F9
:10125C00EF00A06FB2462686A2850945EF00E06E2E
:10126C00F2406244D2440145056182805D71A2C4A2
:10127C0086C62E849397556063DD0700EF007005DA
:10128C0019C1EF00E07F1315F468B6402644616184
:10129C00828093F7150013C51500E5FB8967ED8F68
:1012AC00A1C3EF00F07D1945C134AA8523ACA182FE
:1012BC000A85F92251468A856810253C6810EF0092
:1012CC00B062D52437F602002390A184130606E001
:1012DC00896503C54183EF0010141315D46875B7E5
:1012EC0011656D8D5DD11755000013052531EF404B
:1012FC00601813060064916503C54183EF00B011BB
:10130C001315E46859B75D715D46975500009385D8
:10131C00252F175500001305A53C86C6A2C497F0CF
:10132C00FF1FE780404401E9175500001305C52E47
:10133C00EF40401401A0B7F700E023A40700795751
:10134C0098CB3D4798C393078008F3B7078093F772
:10135C0087083EC00F100000B71700401307700538
:10136C002380E704130780FA2380E7040F100000A2
:10137C00B847B70600C1FD16758FB706000E558F1E
:10138C00B8C7238007048247F3A707800F1000001B
:10139C0097F7FF1F9387876D23A8F182130700F837
:1013AC00B7E700E0A38AE7401306400381456800D5
:1013BC0097F0FF1FE7802037970700209387879BC4
:1013CC0005643EC6930704E0FC80E17793C7278150
:1013DC002310F102B7B703003ECAB7070103938786
:1013EC0007103ECCED47FC868547230FF10097078D
:1013FC000000938747E33EDCB7F503009707000036
:10140C009387C7E33EDE8146970700009387A7D3F7
:10141C005000E10519453ED60D2B19464C0013051D
:10142C003102C138B24791C7BC801304F4BF636367
:10143C00F40001A06800EF003037AA8501C91755E8
:10144C0000001305A51EEF30D06001A0B640264465
:10145C0061618280411117050000130565E106C624
:10146C0022C4EF0010321384418308A02D280820D9
:10147C002244B24013060032896541016F00A07905
:10148C0017F7FF1F130787EC18C13707C0A858C1FF
:10149C0005671307479C3AA517F7FF1F130787EC3F
:1014AC000EA518C98280397126DA06DE22DC4AD8EC
:1014BC004ED652D493048008F3B7048093F7870870
:1014CC003EC20F1000003714004093097005230032
:1014DC003405130980FA230024050F1000008347FC
:1014EC00F40293E71700A307F402230004049247C5
:1014FC00F3A707800F1000001945EFF0FF86138A41
:10150C008183AA852320AA00175500001305051412
:10151C00EF303054814671468545814701471305AC
:10152C00507E053A83570A0017F7FF1F130707E28F
:10153C003AC6FC8285679387479C3707C0A8FC8313
:10154C00680097F7FF1F9387E7E13AC83ECEEF009C
:10155C00903CF3B4048093F4840826C40F1000006C
:10156C0023003405230024050F10000001000100A6
:10157C008347140393E70702A308F402230004042F
:10158C00A247F3A707800F100000F2506254B7E790
:10159C0000E03707001023A0E710D2544259B2598B
:1015AC00225A21618280411103A5C18206C622C440
:1015BC0026C24AC0EF30D04417F9FF1F1309C96F78
:1015CC002A86AE86032509008325490017F4FF1FE0
:1015DC001304046FEF30000F10405440EF3060657F
:1015EC0010405440EF30E0642A86AE860325090093
:1015FC0083254900EF30000DAA842E842A86AE86FE
:10160C00032509008325490017F9FF1F1309496CAD
:10161C00EF30400B97F7FF1F9387076B9043D44332
:10162C00EF3020610326090083264900EF20301992
:10163C00EF30B0309307850CB3C70708130500646F
:10164C0033F5A70AEF30D0342686A286EF30605EE1
:10165C000326090083264900EF207016EF30F02D89
:10166C00B24022443345050892440249410182802C
:10167C00411122C406C62E849397556063DB070084
:10168C00892911C1F52E1315F468B2402244410189
:10169C00828093F7150091CB1306803E894503C5D4
:1016AC004184952B13451400CDB793F7250095CFA6
:1016BC00EF10806B9306F00F1306F00FA94517F58A
:1016CC00FF1F1305E557A3810184EF10800309E583
:1016DC0097F0FF1FE78040CB1306803E894503C57A
:1016EC004184152B134524004DB713F5450051DDEE
:1016FC00EF10806717F5FF1F130585541C21930607
:10170C00F00F1306F00F8507A9451CA12381018456
:10171C00EF100015AA8517550000130525F4EF30BE
:10172C0050331345440095B7C5476303F50C63E884
:10173C00A702411122C426C206C64AC08D472E8478
:10174C00B284630BF50A9147630DF50E8947630F5D
:10175C00F500B24022449244024941018280C947BB
:10176C006308F508D147630BF50E82808547A3818A
:10177C00F184A9E98305060017550000130545EF10
:10178C0017590000130989F0EF30B02C8C30175525
:10179C000000130525EFEF30D02B9C30636AF4006A
:1017AC002244B24092440249294541016F30502EE7
:1017BC00B3878400AC234A850504EF309029137459
:1017CC00F40FE1BF9377140099C717550000130568
:1017DC0025ECEF30304A09882DDC2244B24092448B
:1017EC00024917550000130565EB41016F30904815
:1017FC008547A381F1848280F1F597F0FF1FE78084
:10180C00C0BA8385040017550000130565EA175903
:10181C0000001309A9E7EF30D0238C3017550000D6
:10182C00130545E6EF30F0229C30E37BF4F6B387EA
:10183C008400AC234A850504EF30B0211374F40FF7
:10184C00E5B7224485472381F184B2409244024992
:10185C0003C54184914541016F5000328547238176
:10186C00F184914503C54184C5BF797161468145B9
:10187C00280006D622D497F0FF1FE780C0EA170590
:10188C000000130525DFEF00C06FB7477671938713
:10189C0097123EC8B7575500938757553ECAB7D7CE
:1018AC002500938707783EC6896793871770138442
:1018BC0041847C8497070000938747E708A03ECCBF
:1018CC002800ED57230EF100EF009053AA85175511
:1018DC000000130525DFEF30D01708208945EF50A5
:1018EC00A029B2502254456182804111194506C687
:1018FC00EFF08FC21305600497E0FF1FE780C078FC
:10190C00B7170040214723ACE70A8D452145EFF07E
:10191C008FF5014681450545EFF03F8EEFF0DF8AEC
:10192C0017550000130545DBEF30D0341755000078
:10193C00130505DBEF301034F932293EEF108049E6
:10194C002D3797F0FF1FE78060A801112A8706CE7C
:10195C002E8526CCB2854ACA368622C6372400404C
:10196C00B7E700E0FD5603A90700C44323A0D7182E
:10197C0023A2D7189307F7FF93F7F70F894663E075
:10198C00F60AB717004083C75704B706040093F74D
:10199C00070299E3B7C60300F9576375D5043308FA
:1019AC00C50063E1060589476314F704098297F0C3
:1019BC00FF1FE780A0B4AA87371700409306700575
:1019CC002300D704930680FA2300D70483464704E8
:1019DC00C18A2302D70437E700E0232027112322F2
:1019EC0097103244F240E24452493E8505618280B0
:1019FC008547631FF7008567FD173E96E98F3E9676
:101A0C00FD777D8E7D8D97F0FF1FE78020B565B744
:101A1C0097F0FF1FE780A0BB9307150071BFB54778
:101A2C00631AF7001305900B97F0FF1FE78020BF98
:101A3C00814759B7B1476315F7001305B00AEDB7E5
:101A4C0099476317F70097F0FF1FE78060BECDB78B
:101A5C009D47631BF70023A0050023A2050097F008
:101A6C00FF1FE780E0C2E9B791476317F70097F0D3
:101A7C00FF1FE780C0C56DBF81471DDFF1572DBF2C
:101A8C00411122C437E400E026C20440370720008D
:101A9C0006C6F98C2320E4180F10000009E9232056
:101AAC0094101545B2402244924441018280034770
:101ABC00E5FF9307F00F6306F70023209410114500
:101ACC00D5B797F0FF1FE780C00B0145232094107A
:101ADC00D1BF4111B7E700E026C28443370720008D
:101AEC0006C622C4F98C23A0E7180F1000009386B9
:101AFC008184904201440147B28799EF19C883272A
:101B0C0084FF6311C4069CC2FD57232C04FE230FD3
:101B1C00F4FEA1651D2C1DA083C5E7FF639DA502E6
:101B2C0021C0832784FF6315C4029CC2FD57232C5C
:101B3C0004FE230FF4FEA165EF500004B240228591
:101B4C002244B7E700E023A0971092444101828021
:101B5C00232CF7FEE1BF11E03E8783A787FF71BFFF
:101B6C003E84E5BF232CF7FE45B723A40184828075
:101B7C002A8713F5F50F2DC1411122C426C206C6C2
:101B8C004AC013F41500AE8419C0814709A88147D7
:101B9C00A1468507638AD70233D6F4487DDAB1466D
:101BAC003367F7203307D70203A94186B317F02810
:101BBC0033C407083A998327090003254900829703
:101BCC00232009002322090033459400B24022440B
:101BDC0092440249410182808280B7E700E0984339
:101BEC00B706200023A0D718758F0F10000083C6EE
:101BFC00516C637ED50083A601863325D520162132
:101C0C00B3F5B6400EA123A0E7100145828023A0B6
:101C1C00E7100D458280797122D437E400E04AD078
:101C2C0003290400B707200006D626D24ECE52CC8C
:101C3C0056CA5AC85EC63379F9002320F4180F101F
:101C4C00000083C7516C6376F50083AB8185639785
:101C5C000B00B7E700E023A0271189A0938A8171BC
:101C6C0003AB4A00B74736FE938707C83E9B83D722
:101C7C008A002E8AAA84B385C702B2898146B3B77B
:101C8C00C70213850532B335B50013060064BE9543
:101C9C00EF1050796370AB02232024110145B25030
:101CAC00225492540259F249624AD24A424BB24BE4
:101CBC0045618280829B83D78A002A841306006444
:101CCC00B38537038146B3B7370313850532B33574
:101CDC00B500BE95EF101075B307850003A74A0039
:101CEC003E8463E4A70063E4E7003384E740D285D5
:101CFC002685EF40D04301C900C5B7E700E023A01B
:101D0C002711054569BF93E504F04145B3C50508A6
:101D1C00EF50600F01E983A7C17085DFA6851145DF
:101D2C00829705BF1387C1841C4399EB08C32326F4
:101D3C00050000C52311450104A12322050075BF30
:101D4C003E87DC47F5FF48C7DDB7011126CAB7E46B
:101D5C0000E04EC683A9040022CC52C4B707200071
:101D6C0006CE4AC82A8A2E84B3F9F90023A0F418A7
:101D7C000F100000EF40B03B1389416C1DE1A285B0
:101D8C005285A13D834709006380470523A0341188
:101D9C001945F2406244D2444249B249224A056193
:101DAC00828023110500A2855285053D83470900D9
:101DBC006386470123A034110145E1BF83576900B5
:101DCC00C18F2313F900FDB7835769005D8C231372
:101DDC0089006DBF41114AC01389416C03278900EA
:101DEC0006C622C426C241CB8346190003A601862F
:101DFC00814763C8D70883C6117395479384C17212
:101E0C0063EBD70683C7C187BDE713848171544048
:101E1C0083A78185631DD70682975440374736FECA
:101E2C00130707C83697B307A7003E8563E4E7009E
:101E3C0063E4D7003385D740DC4889CB83A601897E
:101E4C009C463707CDFF7D17F98F9CC611E14840A2
:101E5C0083A78170829719E5DC4891CFEF50A00FD2
:101E6C00EF504006DC4881CB03A701891C47B7061D
:101E7C003300D58F1CC7B240224492440249410121
:101E8C008280B3A5C7208E21FDF585079DB782976B
:101E9C00832689005840B387A6003E8563E4D700AB
:101EAC00E3ECE7F83385E74041BF411106C623AAAE
:101EBC00A1840295B24023AAA16C01454101828004
:101ECC0023ACA184014582804111114681451385C3
:101EDC00018506C622C426C223A6018423AA018436
:101EEC0023AC018497F0FF1FE780E0831306000208
:101EFC0081451385416C97F0FF1FE780C082EF107E
:101F0C00F04CC1471384416C8545130500123CA06D
:101F1C0093844186EF40306F88C039CD302099478B
:101F2C0081453306F6021306060C97E0FF1FE78087
:101F3C00807F9C4038209384C1859387070C9CC07C
:101F4C00B347F72023A0F1860D31A52C1C30984007
:101F5C00175600001306869FB3C6E72090C29386DF
:101F6C002700850793F7F70FB3C7E72014B01707BF
:101F7C000000130727C098C3B24022449244410189
:101F8C0082809386416C2A87BC228832637BF50061
:101F9C001306150083A7C18590B2B347F52098C3EB
:101FAC0082801305F00F82801C41E1C3370700F0DB
:101FBC007D8FB70600208947631AD70A5A21411131
:101FCC0022C406C62A8449CF19469305F00F5D0535
:101FDC00EF40F02605478D476304E5081C4491C784
:101FEC005854994735CF185825CF130640038145CF
:101FFC001385416E97E0FF1FE780E07213064003E4
:10200C00A2851385416E97E0FF1FE780E06D9387F3
:10201C00416EDA2701E713070010DAA7F82719E356
:10202C000547F8A79A2B19E36D479AABF83719E3D4
:10203C000D47F8B7B82B19E30547B8ABB83B19E314
:10204C00F837B8BBD82B19E34947D8AB583801E758
:10205C0013074006D8BBFD57238AF188B535814755
:10206C00B24022443E854101828089473E85828070
:10207C0079714ECE9389817183A7090006D622D43B
:10208C0026D24AD052CC829713090064B33525036B
:10209C0003D689008146138A416C32C63305250369
:1020AC00EF10503883240A012A8401456386840288
:1020BC0032463305944063EF840003A54900814602
:1020CC00B335A9023305A902EF10D035B3079540FB
:1020DC003385870023288A00B25022549254025927
:1020EC00F249624A45618280AA8513858171184143
:1020FC0097F7FF1F9387A786630DF7004111514691
:10210C0006C697E0FF1FE780205EB2400145410103
:10211C00828005458280411106C622C426C23DC973
:10212C001C41AA850545B5C3DC41A5C39E25B1CF8D
:10213C00BE25A1CF51461385817197E0FF1FE78023
:10214C00A05A238201729384817188401384416E5A
:10215C00853B7C2899EF8A249307807037460F00C3
:10216C003305F5021306062481468145EF10902BAA
:10217C0068A87828AD4763E4E700B1477CA8170549
:10218C000000130525EF15330145B240224492445B
:10219C004101828023AC016C9387817117E7FF1F8B
:1021AC001307E77B98C337873200FD56130727A127
:1021BC00D4C398C723820172B7C7004023A4D72683
:1021CC0059B7011122CC1384416E084406CE26CA9D
:1021DC004AC801E90545F2406244D24442490561CE
:1021EC0082805C54E5DB185875D770008545829762
:1021FC001844B247E300F7FE4A249305E004138920
:10220C00416CEF405040232CA90069D55224930512
:10221C00F00F814497E0FF1FE780E0507C240326F9
:10222C00890163CDF400328597F0FF1FE78060953C
:10223C00014523AE016C23A0016E71BF4E241844DE
:10224C00B3879502898185043385E7001C5808C241
:10225C008297E9B7938701889443D8461316174998
:10226C00D0C60F1000009C43B7060200060594C7A9
:10227C00E8D3D8C782802388A18623A6B186828022
:10228C0003C711739147630FF704B7C7004003A747
:10229C00818A938707306317F7044111354506C6C9
:1022AC00EF407031EF40304BEF00F036EF40904193
:1022BC0003A781861C431305805593F7F7CF1CC3E6
:1022CC00EF40D044EF00F048EF10B00DEF00503C61
:1022DC00EF00D0440145EF407043B240A388017237
:1022EC00410182808280FD572388F18623AA0186D2
:1022FC00B7C700401387073023A4E18A1387072050
:10230C0023A0E1889387071037D70040411123A8F9
:10231C00E18823A4F18606C61387C17285475CB396
:10232C0083A7416E5CCB9387C7101CCB913FB7E75B
:10233C0000E003C7574113670708A38AE740B24080
:10234C003707100023A0E7103707200023A0E71061
:10235C004101828023ACA18601C58547238EF1867D
:10236C008280138841740345180003A7018983A652
:10237C0081861375F507D1C59042832748001376E3
:10238C0006F8498E90C213F6150001CA93F50503A1
:10239C0041466385C506938787C14165130505A032
:1023AC00B3D5A7025057B70810FEFD1813662600C8
:1023BC0050D7704333761601B3F7A702FD89D205C7
:1023CC004D8E70C31306A00FB705FCFFAA07B3D739
:1023DC00C70270436D8EBA07B983D18F7CC3834714
:1023EC000800898B99CB98429C421377F7071367A7
:1023FC00070493F707F8D98F9CC2828093870783D1
:10240C0069BF5C57F59B5CD79C4293F707F8C98F63
:10241C009CC2F1B7411106C623820176EF40B0157C
:10242C00B240014541018280411183C7F17206C659
:10243C00858B81CFC537A387017283A74175014670
:10244C0081450545B2404101828783A70188FC5331
:10245C0081EBC93783A74175014681454545DDB7F9
:10246C0003C711738D476315F7008547238EF186DB
:10247C00B24041018280411183C7E17226C206C677
:10248C0022C4858B93840188D5C72387017203A747
:10249C0001895C5713844174082093D71748A9CB42
:1024AC00504093760503C145930786C16394B600EB
:1024BC0093070683C165938505A033D6B702744391
:1024CC00370810FE7D18B3F60601B3F7B7027D8A04
:1024DC005206D18E74C39306A00F3706FCFFAA07D1
:1024EC00B3D7D7027443F18EBA07B983D58F7CC3A7
:1024FC004C28118501460D89EF40E0791705000045
:10250C0013056506813D83A781869C43A1838D8B32
:10251C0091EF9C4013076019F8D31C480146814584
:10252C0005452244B2409244410182879C401307E6
:10253C00E01BDDB79C40FC5381EBE93D83A7417563
:10254C00014681454545F1BF03C711738D4763159E
:10255C00F7008547238EF186B24022449244410114
:10256C008280011183C7F17222CC06CE858B138435
:10257C00C172ADC3453548489305F1000146A387A8
:10258C00017297E0FF1FE78020489315456085E1B5
:10259C005C489306F00F9823630BD70083C7D17563
:1025AC006387D700998FB337F00093951700938703
:1025BC00417403870700634507005848948714A3A8
:1025CC009C4B504893F5F50F09458297F2406244B5
:1025DC000561828083A70188FC5399EB253D6244F9
:1025EC00F24083A7417501468145494505618287C3
:1025FC0058308D47E31CF7FC8547238EF186F9B7DD
:10260C001C49638E070E411126C206C622C41C212A
:10261C00AA8493F7070481C75C410945C1C361468D
:10262C0081451385417497E0FF1FE780C00F614619
:10263C00A6851385417497E0FF1FE780E00A138499
:10264C0041745C2899E3ED575CA85C3899E3ED572D
:10265C005CB89C2093F7070499CB5C4037B72400F7
:10266C001307F7E96361F704930750021CB09384D6
:10267C00C175C84009C597E0FF1FE780805023A0B3
:10268C0001761C20858B81CB483893059004090575
:10269C00EF406077C8C01C3001459CB4B240224466
:1026AC00924441018280370725009306F74863ED79
:1026BC00F6003767DBFF13070793BA971307007D04
:1026CC00B3D7E702FD175DB7130707496395E7001A
:1026DC009307600261BF37D725001307F777636D47
:1026EC00F7003767DBFF13070793BA971307007DD3
:1026FC00B3D7E702F9179DBF9307700285BF054555
:10270C008280797122D4138441741C4406D626D25B
:10271C004AD04ECE52CC56CA5AC85EC663800714F5
:10272C0003C7117395472A8A9389C17209456303BC
:10273C00F7100D45AE843289368B938A8186EF4033
:10274C00806703A70A005C5BF19B93E717005CDBD7
:10275C001C2093F70704639A070E0830814511314A
:10276C0013058025EF40807A83A70A0018443706AA
:10277C0000FFB7068000D8C7B8D358449386D6322A
:10278C00938B0188D8C3B8CF9847718F558F98C752
:10279C00F84F718F558FF8CF83A60B001820DC42B1
:1027AC00058BF99BD98FDCC29387C1759827238041
:1027BC002701A38067011367270098A7630A0A08FB
:1027CC0003A509012686D2852300250104B109053C
:1027DC0097E0FF1FE78040F183A70B0003A70901D7
:1027EC000820A685B8DF23870172A38701721185A3
:1027FC008D470D89A382F900EF4040431C2017053B
:10280C000000130585C7858B89E7170500001305A4
:10281C00E5C1893683A70A00014598431317872918
:10282C0098C3D85B719BD8DBA386017283A70B007E
:10283C00094798C3B250225492540259F249624A41
:10284C00D24A424BB24B456182804840894501BF18
:10285C0083A70901814423A02701BDBF0545D9BF2A
:10286C007971B7E700E04AD003A9070037072000C9
:10287C0006D622D426D24ECE52CC56CA5AC85EC6E2
:10288C003379E90023A0E7180F10000093844174FA
:10289C00984419EF23A027110545B25022549254A5
:1028AC000259F249624AD24A424BB24B456182808C
:1028BC0003A7017909C723A027110945F9BF9C205B
:1028CC00328BB68A858B1384C175A9C75C402A8A62
:1028DC00AE8981EBC838930590040905EF40A052EE
:1028EC0048C05C4099E7B7E700E023A027110D45ED
:1028FC006DB7382098A35C4063030A046381090414
:10290C00A380370148404E86D285090597E0FF1F0A
:10291C00E78080DD03C711739547138AC172631377
:10292C00F7022824A147930500022303FA00EF4085
:10293C00A024B7E700E023A027110145B9BFA3806D
:10294C000700C9BF9389018883A7090098430D8BA1
:10295C001DC3238E0186B84B1377F78FB8CB9843E2
:10296C001367870098C39C4393D7374889C70100E6
:10297C0001000100010083A7090083CB040023A2FE
:10298C00070693F70B04CDE788308145EFF07F9D68
:10299C00CC2813D54B4001460D89EF40C02F9844ED
:1029AC0083A78186370600FFB8D3D8C7D844B706AB
:1029BC0080009386D632B8CFD8C3F84F17050000E5
:1029CC0013050514718F558FF8CF9847718F558F5C
:1029DC0098C703A7090094205C43858AF99BD58F7F
:1029EC005CC35C40A3016401230154013CDF1C2443
:1029FC0093E747001CA4930700042300FA00A147A7
:102A0C00A302FA00238901725C43858B89E71705C1
:102A1C0000001305E502EFF0FF9313058015EF405E
:102A2C00E04EA386017283A70900054798C311B72E
:102A3C0093F50B03C84093E5150089BF011183C7BB
:102A4C00D17222CC06CE26CA858B1384C172BDC727
:102A5C00A38601724448A3070100EFF0BF9B4848CE
:102A6C0001469305F10097E0FF1FE780E0F95C4811
:102A7C001306F00F9423938741746387C60203C730
:102A8C00F1756303C7026381E60293652500939594
:102A9C0045609C4B504893F5F50F0D458297F240DD
:102AAC006244D24405618280038707009315456018
:102ABC00E34107FEF9FD988798A0E1BF83A7018841
:102ACC00FC538DE7EFF01F9583A7C17089C785452F
:102ADC0013051008829762449387C175F240D24463
:102AEC00B423B0338145014505619DBB5830A147E6
:102AFC00E317F7FA8547238EF18655B7797183C7AB
:102B0C00C17226D206D622D44AD04ECE52CC858B58
:102B1C009384C172638D071003AA44010146930587
:102B2C00F1005285A30701002386017297E0FF1F75
:102B3C00E78080ED1389C175138441749319456046
:102B4C00639A090A834739009306F00F6389D7000B
:102B5C00D84818236305D7008949631DF7088307F4
:102B6C00040063C507009C872300FA0003A70189B2
:102B7C005C5793D717489DCF5C40C165938505A0E2
:102B8C0033D6B7027443370510FE7D15E98EB3F7C3
:102B9C00B7027D8A5206D18E74C39306A00F3706F6
:102BAC00FCFFAA07B3D7D7027443F18EBA07B983D7
:102BBC00D58F7CC38327490008208C3311850D8960
:102BCC00EF40C006170500001305A50BEFF08FF8BA
:102BDC0083A7818698431317872998C3D85B719B69
:102BEC00D8DB1C20A18B8DEB1C48D04881450D45B2
:102BFC0082971DA0EF402018D0481C480D4593F536
:102C0C00F90F8297032549008346290003463900B2
:102C1C0001CD0C310905A931B250225492540259FC
:102C2C00F249624A4561828081450145EDB783A72F
:102C3C000188FC538DEFEFF0EFFD83A7C17089C7BE
:102C4C0089451305100882979387C175C843B03323
:102C5C00B42319C90C3109052254B25092540259AB
:102C6C00F249624A4561EDBE81450145F5B7D83060
:102C7C00A147E313F7FA8547238EF18671BF411103
:102C8C0083C7D17206C622C4858B95C3A3860172F5
:102C9C0013844174EFF00FF81C20A18B9DE71C48A6
:102CAC000146814511452244B2404101828783A7E8
:102CBC000188FC5395EF138441741C20A18B91E780
:102CCC001C48014681455145F9BF9387C175C843DE
:102CDC00B033B42319C90C31090559361C20DD9BBE
:102CEC001CA0B24022444101828081450145F5B7C8
:102CFC008547238EF186F5B7411122C406C626C23C
:102D0C0093F705012E8485C703C71173A147631977
:102D1C00F70013060064C14503C56176EFE0BFEF11
:102D2C0013450401B240224492444101828013F5C0
:102D3C0005026DD983C741749384C175858BB030FE
:102D4C00B42085C3C84011CD0C310905EFF05FB13B
:102D5C0011C5A82493050002EF301062134504023C
:102D6C00D1B781450145DDB74111B7E700E022C479
:102D7C0080433707200006C626C2798C23A0E718AB
:102D8C000F1000009384C175C8402382017609C5D9
:102D9C0097E0FF1FE780E0DE23A0017603C72173D5
:102DAC00A1476317F700A82493050002EFE0FFE2A8
:102DBC00EF30707CA824C145238E0186EFE0FFF82C
:102DCC00B7E700E0B24023A08710224492440145AB
:102DDC0041018280411106C622C4EFF0CFD03146AA
:102DEC0081451385C17597E0FF1FE780C09313845D
:102DFC00C175FD5717050000130545F01CC0EFF019
:102E0C004F9883A5417528A4EFF0EFC6B240224439
:102E1C0001454101828083A701891307004898D797
:102E2C00D85FB70600F9FD16758F13179729D8DFF1
:102E3C00D85FB706FAFFFD160E070D831317E729A7
:102E4C00D8DF985B758F98DB985BB7060090FD1602
:102E5C00758F1317E72998DBB847B706F9FFFD16EE
:102E6C00758FB8C7B84BB70607001377F78F136782
:102E7C000730B8CBF84F558FF8CFF84FB70600078F
:102E8C00558FF8CF930740060100FD17F5FF8280A0
:102E9C00138701891C43B44B93960649B4CB9447D2
:102EAC009396562994C7D44793E60601D4C7D447C2
:102EBC00BD9AD4C701000100010001001C43D44796
:102ECC0093E60601D4C7D4439396C628D4C303A66D
:102EDC0001889306400674D2745291C683A6C70922
:102EEC0093D68648F5DA0100010001000100184371
:102EFC0093070708DC4FFD8BA382F188344B939624
:102F0C00062934CB344B819ADD8E34CB1447F5171C
:102F1C009396564914C72382F188828083A701892E
:102F2C00B44F41777D17F98EB4CF94479396062909
:102F3C0094C7D44793F6F6EFD4C7D443758FD8C350
:102F4C00D84713670710D8C7D84313170729D8C316
:102F5C0082805D71A2C44EDE52DC86C6A6C2CAC097
:102F6C0056DA5AD85ED662D466D26AD06ECE03A434
:102F7C0001895C409389D188138AB18893F7F7EF64
:102F8C005CC01C549397C7481CD45C54BD9B5CD448
:102F9C001C44939717291CC45C4093E707015CC041
:102FAC00856703D7618893874723E308F73E5C4026
:102FBC0001791309F90FF99B5CC01C5C316713078D
:102FCC0007F0B3F72701D98F1CDC5C40930404088D
:102FDC0093E717005CC0EF30F07D9C4893F7F70344
:102FEC002380F900DC48A98393F7F7072386F1883F
:102FFC005C40396713070770F99B5CC01C5CB3F726
:10300C002701D98F1CDC5C4093E717005CC0EF30C4
:10301C00707A9C4893F7F703A384F188DC48A98362
:10302C0093F7F7072384F1885C4035671307073063
:10303C00F99B5CC01C5CB3F72701D98F1CDC5C408E
:10304C0093E717005CC0EF30F0769C4893F7F703DA
:10305C002300FA00DC48A98393F7F7072385F1884E
:10306C0083470A0083C609007D7E3EC69D8E93076A
:10307C000408985313F6F600130EFE0F419B518F64
:10308C0098D3130760023387E602130670028C5341
:10309C0013054002457393F5F5F07D13930430024C
:1030AC00B708F1FFFD183347C70213082002930E2F
:1030BC0010027D4FF94FF542F1436D4D514CC54B0C
:1030CC003D49B949B14A2D4B354A3D8B12074D8FBD
:1030DC009305500298D33387B6028C53B3F5C501D0
:1030EC003347C7023D8B22074D8F98D33387A602F7
:1030FC008C53370500F17D15B3F565003347C702D6
:10310C003D8B32074D8F98D3338796028C53E14415
:10311C00B3F515013347C7023D8B42074D8F98D34A
:10312C00338706038C53370810FF7D18B3F5050160
:10313C003347C7023D8B52074D8F98D33387D60345
:10314C008C53B70E0010FD1EE98D3347C7023D8B23
:10315C0062074D8F93955600B3C5C50298D398530B
:10316C003377D701F2054D8FB385E60398D3D85347
:10317C005D4F419BB3C5C502BD894D8FD8D33387F5
:10318C00F603CC53D94F93F5F5F03347C7023D8B7B
:10319C0012074D8FD8D333875602CC53D542B3F593
:1031AC00C5013347C7023D8B22074D8FD8D33387D8
:1031BC007602CC53CD43B3F565003347C7023D8B44
:1031CC0032074D8FD8D33387A603CC53494DB3F573
:1031DC0015013347C7023D8B42074D8FD8D3694742
:1031EC003387E602CC53B3F505013347C7023D8B59
:1031FC0052074D8FE545D8D33387B602CC53E98DB2
:10320C003347C7023D8B62074D8FB3859602D8D3E7
:10321C00D8538D443377D701B3C5C502F2054D8F12
:10322C00B385E603D8D39857254F419BB3C5C50248
:10323C00BD894D8F98D73387F6038C579D4F93F5E7
:10324C00F5F03347C7023D8B1207D98D33875602F1
:10325C008CD78C579942B3F5C5013347C7023D8BC8
:10326C002207D98D338786038CD78C57B3F565002D
:10327C003347C7023D8B3207D98D338776028CD703
:10328C008C579543B3F515013347C7023D8B420765
:10329C00D98D3387A6038CD78C57294DB3F50501EF
:1032AC003347C7023D8B5207D98D338776038CD7B2
:1032BC008C57E98D3347C7023D8B6207D98D8CD76C
:1032CC0093954600B3C5C50298573377D701F205DD
:1032DC004D8FB385260398D7D857419BB3C5C502EC
:1032EC00BD894D8FD8D733873603CC5793F5F5F07E
:1032FC003347C7023D8B1207D98DCCD7B3C5960285
:10330C00D8573377C701BD89A2054D8FD8D73387DE
:10331C005603CC57B3F565003347C7023D8B3207D4
:10332C00D98D33876603CCD7CC57B3F5150133470A
:10333C00C7023D8B4207D98D3387A603CCD7CC5718
:10334C00B3F505013347C7023D8B5207D98D33873F
:10335C00E603CCD7CC57E98D3347C7023D8B6207C8
:10336C00D98DCCD793953600B3C5C502D8573377D2
:10337C00D701F2054D8FB385F603D8D7985B419BE7
:10338C00B3C5C502BD894D8F98DB338756028C5B64
:10339C0093F5F5F03347C7023D8B1207D98D338770
:1033AC0076028CDB8C5BB3F5C5013347C7023D8BD2
:1033BC002207D98D139726003347C7028CDB8C5B11
:1033CC00B3F565003D8B3207D98D8CDBB3C5460355
:1033DC00985B33771701BD89C2054D8F98DB139726
:1033EC0016003347C7028C5BB3F505013D8B5207C2
:1033FC00D98D8CDBB3C5C602985B698FBD89E2059C
:10340C004D8F98DB985B3377D70198DBB24503C7B8
:10341C00918883AC47033387E54093058002B34D15
:10342C00B70293FC0CFF334C870393FDFD00B3EC08
:10343C00BC0123AA970383AC4703CD4D93FCFCF04E
:10344C00137CFC00120CB3EC8C01330C970223AAF6
:10345C00970383AC4703B3FCCC01334CBC02137C05
:10346C00FC00220CB3EC8C0123AA9703B34CA703EA
:10347C0003AC4703337C6C0093FCFC00B20C336C44
:10348C009C0123AA8703214C334C870383AC47034D
:10349C00B3FC1C01137CFC00420CB3EC8C01330C10
:1034AC00570223AA970383AC4703B3FC0C01334C9C
:1034BC00BC02137CFC00520CB3EC8C01330CF703F4
:1034CC0023AA970383AC4703B3FCAC00334CBC0278
:1034DC00137CFC00620CB3EC8C0123AA9703B34C55
:1034EC00770203AC4703337CDC01F20C336C9C0198
:1034FC00B30CE70323AA870303AC8703137C0CFFED
:10350C00B3CCBC02330B670393FCFC00336C9C0103
:10351C0023AC8703114C83AC870393FCFCF0334C36
:10352C008703B30A5703137CFC00120CB3EC8C0119
:10353C0023AC970303AC8703D54C337CCC01334BC2
:10354C00BB02330A4703137BFB00220B336C6C0169
:10355C0023AC870303AB8703594C337B6B00B3CA93
:10356C00BA02B309370393FAFA00B20A336B5B0160
:10357C0023AC670383AA8703614BB3FA1A01334A5E
:10358C00BA0233092703137AFA00420AB3EA4A0152
:10359C0023AC570303AA8703E54A337A0A01B3C95C
:1035AC00B9023349B90293F9F900D209336A3A01E5
:1035BC0023AC470383A98703694AB3F9A900B30B6A
:1035CC0077031379F9006209B3E9290123AC3703B6
:1035DC009319470003A987033379D901B3C9B902F9
:1035EC00B3CBBB02F2093369390123AC270303A91E
:1035FC00C703137909FF93FBFB003369790123AEF1
:10360C00270349493309270383A9C703DD4B93F9E2
:10361C00F9F03349B9021379F9001209B3E9290118
:10362C003309B70323AE370383A9C703F54DB3F9A9
:10363C00C9013349B9021379F9002209B3E9290107
:10364C0009493349270323AE370383A9C703B3F9C9
:10365C0069001379F9003209B3E929013309970399
:10366C0023AE370383A9C703F94CB3F919013349C6
:10367C00B9021379F9004209B3E929013309870327
:10368C0023AE370383A9C7037D4CB3F90901334932
:10369C00B9021379F9005209B3E929013309770307
:1036AC0023AE370383A9C703930B1002B3F9A90008
:1036BC003349B9021379F9006209B3E929013309D5
:1036CC00670323AE370383A9C703130B2002B3F997
:1036DC00D9013349B9027209B3E9290133095703F6
:1036EC0023AE370383A90704930A300293F909FF29
:1036FC003349B9021379F900B3E9290133094703B6
:10370C0023A0370583A90704130A400293F9F9F0A3
:10371C003349B9021379F9001209B3E9290123A03D
:10372C003705ED493309370383A90704B3F9C901F8
:10373C003349B9021379F9002209B3E92901714916
:10374C003309270323A0370583A90704B3F96900BC
:10375C003349B9021379F9003209B3E92901330964
:10376C00B70323A0370583A90704B3F9190133491B
:10377C00B9021379F9004209B3E929013309970316
:10378C0023A0370583A90704B3F909013349B9020A
:10379C001379F9005209B3E929013309870323A0EE
:1037AC00370583A90704B3F9A9003349B902137982
:1037BC00F900620933E9290193195700B3C9B90219
:1037CC0023A0270503A907043379D901F20933692A
:1037DC00390123A027053309770383A9470493F9FB
:1037EC0009FF3349B9021379F90033E9290123A2FE
:1037FC0027053309670383A9470493F9F9F0334983
:10380C00B9021379F900120933E9290123A227051A
:10381C003309570383A94704B3F9C9013349B902E2
:10382C001379F900220933E9290123A22705330969
:10383C00470383A94704B3F969003349B9021379E3
:10384C00F900320933E929019309500223A2270513
:10385C003309370383A94704B3F919013349B90272
:10386C001379F900420933E9290123A22705130929
:10387C0060023309270383A94704B3F9090133060E
:10388C00C7023349B9023346B6021379F90052091B
:10389C0033E9290123A2270503A947043379A90099
:1038AC003D8A62063366C900F0C3F0431319C701A1
:1038BC003376D60133662601F0C313069002330625
:1038CC00C70203A98704137909FF3346B6023D8A60
:1038DC003366C900B0C71306A0023306C7023346CD
:1038EC00B602AC4793F5F5F03D8A12064D8EB0C783
:1038FC0083C5A18803C681883386C5403309A603D6
:10390C0083A98704B3F9C9013349E9021369890012
:10391C001379F900220933E9290123A42705330976
:10392C00E60383A98704B3F969003349E9021369F3
:10393C0089001379F900320933E9290123A42705F9
:10394C00131936003349E90283A98704B3F9190125
:10395C00136989001379F900420933E9290123A479
:10396C0027053309F60383A98704B3F90901334901
:10397C00E902136989001379F900520933E9290125
:10398C0023A427053309560283A98704B3F9A90098
:10399C003349E902136989001379F900620933E9A3
:1039AC00290123A427053309760283A98704B3F9D7
:1039BC00D9013349E90213698900720933E92901F4
:1039CC0023A42705131926003349E90283A9C70448
:1039DC0093F909FF136989001379F90033E9290177
:1039EC0023A627053309960283A9C70493F9F9F096
:1039FC003349E902136989001379F900120933E993
:103A0C00290123A62705131916003349E90283A9B6
:103A1C00C704B3F9C9013346E60213698900137967
:103A2C00F900220933E9290123A62705F847337742
:103A3C006700136686003D8A3206518FF8C7F84737
:103A4C0033771701F8C703C7C1880D8F3349D702E5
:103A5C00F04793F5F507E205337606011379F90083
:103A6C00520933662601F0C7131617003346D602E7
:103A7C0003A9C7043379A900B30497023D8A6206EF
:103A8C003366C900F0C7F0473376D601931E270082
:103A9C00B3C4D402B3037702F204458EF0C7B04B23
:103AAC00419AB3CEDE02B302570293FEFE00336698
:103ABC00D601B0CBB04B1376F6F0B3C3D302B30F31
:103ACC00F70393F3F300920333667600B0CBB04B5D
:103ADC003376C601B3C2D202B3CFDF0293F2F20047
:103AEC00A20233665600B0CBB04B33766600330F70
:103AFC00E70393FFFF00B20F3366F601B0CB13164A
:103B0C00370003A30705B37813013346D6023307F6
:103B1C00A7033D8A420633E6C800B0CBB04B3376E0
:103B2C000601334FDF023347D702137FFF00520FDA
:103B3C003366E601B0CBB44BE98E3D8B6207558FF3
:103B4C00B8CB5C40BD9B5CC05C40F99B5CC01C541A
:103B5C009397C7281CD45C5493E707015CD4B247F5
:103B6C0013F7F7031C5C93F707FCD98F1CDC1C5C68
:103B7C00370700817D17F98FCD8F1CDCB6402644AA
:103B8C0096440649F259625AD25A425BB25B225CA5
:103B9C00925C025DF24D61618280239301886FF02B
:103BAC002FCC03A701895C4393E707105CC3828089
:103BBC0083A7018A03A7818901456313F7008280DB
:103BCC00F62399E2D62336959C43C5BF1387416EE5
:103BDC001C435A23411193860721E117BA97856537
:103BEC0023A0D18A23ACF18806C69D0513060020BC
:103BFC0063E5E5001583131627003387C60023AE53
:103C0C00E188611698C2D2A2239306001CC3998F37
:103C1C00E1175EA323130700613FB2402394A16C0C
:103C2C00410182803288AA882E87CDEA63FFC50EB7
:103C3C00C167636AF618B7070001B337F600B3071C
:103C4C00F040E19BE1073353F60097360000938672
:103C5C00E6AE9A96942213030002B697B306F3408D
:103C6C00630BF3003397D500B357F5003318D60028
:103C7C005D8FB318D500135608013355C702B346F0
:103C8C00080893D708013377C702B385A602420709
:103C9C00D98F63FAB700C2971307F5FF63E40701E6
:103CAC0063E8B7303A858D8F33D7C702B3C808089D
:103CBC00B3F7C702B386E602C207B3E8F80063FBAA
:103CCC00D800C2989307F7FF63E50801791763E3FF
:103CDC00D8003E874205598D8145828063F5D50019
:103CEC00814501458280C16763E5F618B70700017D
:103CFC00B3B7F600B307F040E19BE10733D8F60009
:103D0C0017370000130787A3429718239308000264
:103D1C003E973388E8406392E81863EDB626333556
:103D2C00C500134515008145828045C6C167637B7C
:103D3C00F62413370610134717000E07B356E60088
:103D4C00973700009387879FB6979C2393060002B2
:103D5C00BA97B38EF640639DF608B387C540854588
:103D6C00935606013346060833D5D70213D70801FC
:103D7C00B3F7D7023303C502C207D98F63FA6700C2
:103D8C00C2971307F5FF63E4070163E067223A85E6
:103D9C00B387674033D7D702B3C80808B3F7D70245
:103DAC003306C702C207B3E8F80063FBC800C29829
:103DBC009307F7FF63E50801791763E3C8003E87B3
:103DCC004205598D82809337061093C717008E07D2
:103DDC009DBD81469737000093874796B6979C23E5
:103DEC00014793060002BA97B38EF640E387F6F6C6
:103DFC003318D60133D3F50093560801335ED30242
:103E0C00B395D501B357F500CD8F3346080813D7BA
:103E1C000701B318D5013373D302B305C6034203AC
:103E2C0033676700637BB70042971305FEFF636A35
:103E3C0007176378B716791E42970D8F3355D70243
:103E4C00B3C707083377D7023303A6024207D98FCB
:103E5C0063FB6700C2971307F5FF63E0071563FE6A
:103E6C0067127915C29793150E01B3876740C98DF8
:103E7C00E5BD93B7061093C717008E0733D8F6002D
:103E8C00173700001307878B4297182393080002FB
:103E9C003E973388E840E382E8E8335EE600B39669
:103EAC000601336EDE00B3D8E500935E0E01B3D786
:103EBC00D803B39505013357E5004D8F33430E08F6
:103ECC009356070133160601B3F8D803B305F30272
:103EDC00C208B3E6160163FBB600F2969388F7FFAF
:103EEC0063E3C60D63F1B60CF917F2968D8EB3D55C
:103EFC00D60333470708B3F6D603B308B302C2069A
:103F0C00558F637B170172979386F5FF6369C70919
:103F1C0063771709F9157297C207C16ECD8F938617
:103F2C00FEFFB3F5D70013D30701F18E4182338E18
:103F3C00D50233071741B306D30293580E01B3854C
:103F4C00C502B695C6953303C30263F3D5007693C9
:103F5C0093D605019A966363D7026305D7003E8515
:103F6C0081458280C166FD1633F7D5004207337E4A
:103F7C00DE00331505017297E373E5FE1385F7FF39
:103F8C0081458280B70700016377F60293560601DC
:103F9C0041477DB38145054582803A85E9B5B685B3
:103FAC00A5BF2A8E59BDC68791B77915C297CDB3D7
:103FBC007915C297CDB993568601614751B3B707AE
:103FCC001000FD17B3F8B70033F8D70013DE460125
:103FDC0093D745018E081353D6011357D5010E08FC
:103FEC0093F7F77F137EFE7FFD81FD823367170108
:103FFC0033680301931E350013133600B388C74191
:10400C006388D51663501011630B0E1E9306F07F58
:10401C00638DD7549306800305461318782963C71C
:10402C001603FD4663CB164193060002B386164178
:10403C003316D80033551301B316D300498EB3365B
:10404C00D000B3581801558E330717413386CE4034
:10405C00B3B6CE00158FB70680003375D700630555
:10406C000524FD16758F630F072693160760E1165E
:10407C0013050002B308D540B35816013317D70007
:10408C00B3E8E8003316D60063C1F6329D8E850680
:10409C00158DB317A6003357D600B337F000D98F60
:1040AC003395A8003366F50033D7D8008147937653
:1040BC00760081CE9376F60011456388A6009306B0
:1040CC00460033B6C60032973686B7068000F98EA6
:1040DC006382062685079306F07F638AD71A0D82C2
:1040EC009318D70113189700B3E8C8001358C800E9
:1040FC0093F7F77FD207B3E70701FE05CD8F46850F
:10410C00BE85828063800812B308FE40639B073033
:10411C00B367D701638407289387F8FF6382074E40
:10412C009305F07F638CB84493058003054663C800
:10413C00F502BE88FD4763C6174793070002B38795
:10414C0017413316F700B3D51E01B397FE004D8E01
:10415C00B337F000B35817015D8E3308184133069E
:10416C00C3403333C30033076840F287B685E5B5E7
:10417C006351101563110E10B36668006383062239
:10418C009386F8FF638A063A1306F07F6386C84865
:10419C001305800305466349D502B688FD4663D0F6
:1041AC001633938608FE13060002B356D800638AB2
:1041BC00C80013060004330616413316C8003363D7
:1041CC00C30033366000558EB306D60133B5C60036
:1041DC002A973686B7068000F98EF9C685079306AE
:1041EC00F07F6386D70A93561600058A1315F701DC
:1041FC00D18E131777493366D50005834DBDB36651
:10420C0068006380061A9386F8FF638506341306EC
:10421C00F07F638AC814130580030546E348D5E292
:10422C00B68801B59388170093F8E87F6394081C4F
:10423C00336ED701B36868006396072E63050E3A98
:10424C006386083E33866E4033B5CE00330E07418D
:10425C00330EAE40370580003375AE00630E054259
:10426C00B30ED3413308E8403333D301768633079A
:10427C006840B6852DBD9306F07F6386D70E9306F6
:10428C008003054613187829E3DA16F135BF930736
:10429C00F07F0148D207B3E70701FE058148CD8FB7
:1042AC004685BE858280854713757600E31405E04C
:1042BC003DAA63800810B308FE406394071AB367E5
:1042CC00D701638F07369386F8FF6387062693071B
:1042DC00F07F638FF82A1306800385476342D61C50
:1042EC00B68859AA931806607D4593868801E351D8
:1042FC00D5D8E118B318160163CCF61A3386F640FC
:10430C0093061600635BD53A05169307000233D665
:10431C00C800638BF60093070004958FB398F800E0
:10432C00B338100133661601137576008147E31319
:10433C0005D875A8935636009318D7011306F07F4D
:10434C00B3E8D800135837006388C702320893F7D4
:10435C00F77F1358C800D207B3E70701FE05CD8FCE
:10436C004685BE8582800E05935835009317D7017C
:10437C00B3E8F80013583700B3E80801E38908F0F4
:10438C009307F07F370808008145D207B3E7070190
:10439C00FE058148CD8F4685BE8582809A8E4287E8
:1043AC00B68593D63E00C68741BF958F1397784943
:1043BC00FDB99388170093F6E87F63940612B366F1
:1043CC00D7016394072063830628B366680063886B
:1043DC00062876933A98B336D3013307D8003705BD
:1043EC008000798D1A8601C5854713177749B28EDF
:1043FC00BE8845BF33866E40B3B8CE003305074147
:10440C0033051541B7088000B37815016391081086
:10441C00B368A6002A87E39808C481458147014800
:10442C00D1B99307F07F630BFE1493078003054605
:10443C0013177729E3D017D11DB3938608FE130603
:10444C000002B356D800638AC80013060004330672
:10445C0016413316C8003363C30033366000558EE3
:10446C00F5B69307F07F6305FE129306800385472C
:10447C001317772963C61603FD4763CB171F9306E3
:10448C000002B3861641B317D70033D61E01B3967C
:10449C00DE00D18FB336D000B3581701D58F4698B4
:1044AC003E93B337F300338707011A86F2871DB3A7
:1044BC0013987849958FF6081358380041BD930628
:1044CC000002B38616413316D80033551301B316C8
:1044DC00D300498EB336D000B3581801558E469789
:1044EC00E5B19307F07FE384F8DA33856E00B30708
:1044FC000701B336D501B69705811396F701498E9E
:10450C001D8913D71700C687E31605BACDB5B30EB0
:10451C00D3413308E8403333D30176863307684000
:10452C00B68591B663110E12639E081681459307EA
:10453C00F07F370808007DBE76933A98B336D301E6
:10454C003307D800B7078000F98F1A86E38D07D49C
:10455C00894751B933836E4033080741B3B66E00B7
:10456C001A863307D8408547FDB40E050D81931884
:10457C00D701B368150113583700FDBB0E0693170E
:10458C00D8010D82B368F60013583800B685EDB328
:10459C000E069317D8010D82B368F6001358380035
:1045AC00E1BB938708FE13060002B357F700638A3A
:1045BC00C80013060004330616413317C700B3EEC8
:1045CC00EE003336D0015D8E59BEF9D233636800EC
:1045DC00E31803DA0E050D819317D701B368F500C4
:1045EC001358370051BBE38A08E2131736009318AF
:1045FC00D8010D83B3E8E80013583800B685B9B379
:10460C00B30ED3413308E8403333D30176863307F6
:10461C006840B685854781B4931735009318D70148
:10462C008D83B3E8F80013583700B9B393163500EF
:10463C009318D7018D82B3E8D8001358370039B3DB
:10464C009A8E4287B9BBE38708F81DBB0E06131779
:10465C00D8010D82B368E60013583800C5B90E05B1
:10466C000D819316D701B368D50013583700F9B9EB
:10467C00938608FE93070002B356D700638AF800AE
:10468C0093070004B3871741B317F700B3EEFE008E
:10469C00B337D001D58F29B5B368C6017287E398BB
:1046AC0008D4A5BB931736009318D8018D83B3E8B3
:1046BC00F80013583800B685C1B113050002158DEA
:1046CC008147F1BA411113D745019397C50022C612
:1046DC0026C41377F77FB183FD816302071013089B
:1046EC00F07F630C07139358D5018E07B3E7F800DE
:1046FC00131E35000143130517C0014F93987729FA
:10470C0093D746011397C60093F7F77F3183FD8249
:10471C00D9CB1308F07F638D0707131837009387E5
:10472C0017C01357D60133670701931E36001D8D32
:10473C00814F131777293D4633C8D500636E661633
:10474C0017260000130686FBB347C3209C43B29781
:10475C0082879D8E13068003635BD63E814781461C
:10476C0001463244D207D58F7E08B3E70701A24435
:10477C003285BE85410182809307F07F81460146D8
:10478C00CDB701489307F07FB70608000146D1BFAB
:10479C00B36EC7001305158063960E1013632300C8
:1047AC000147894F49BFB36EC70063880E0E630D76
:1047BC00073493170760938F57FF7548938E87FFC5
:1047CC003308F8413317D701335806013367E80033
:1047DC00B31ED601AA971385373F814FA9BFB3E803
:1047EC00A7006386080C63820730139807601307D1
:1047FC0058FFF548130E88FFB388E840B397C701FC
:10480C00B3581501B3E8F800331EC5011307D0C027
:10481C00330507410143014FE5B5B3E8A7006397A2
:10482C000806014E21431305F07F094FD1BD7E8F41
:10483C0089476309FF3C8D47E305FFF485473688BC
:10484C00E30EFFF09307F53F6358F02093F67E00DC
:10485C006390063AB7060001F98E89C693070540A6
:10486C00131787499306E07FE3C8F6F093DE3E000A
:10487C001316D701931697003366D601B18293F7BE
:10488C00F77FC5B5AE864687F28E5DB72A8EBE8899
:10489C0031431305F07F0D4FA5B51363130001478A
:1048AC00854F51BD13633300B28E8D4F69B5014EE8
:1048BC0011430145054FA9B5636F1721638BE820A0
:1048CC00728F7D15C687014E9316870093D806010B
:1048DC0033D7170313D68E01558E93958E00334321
:1048EC00060893560F01B3F71703B30EE302C20782
:1048FC00D58F63F8D701B2979306F7FF63F4C724FB
:10490C003687B387D741B3DE1703B3460F08B3F727
:10491C0017033304D303C207DD8E63F88600B29607
:10492C009387FEFF63FBC620BE8E4207C1643367CC
:10493C00D701138FF4FFB37EE7019352070193DF86
:10494C00050133FFE501B303DF03818EB38EDF0373
:10495C0093D703013384E203A29EF697B382F2034A
:10496C0063F38700A69241647D1493DE0701E18F07
:10497C00C207B3F38300969E9E9763EAD6136386B1
:10498C00D613B307FE40B386D641333EFE00B38642
:10499C00C6416301D624B3DE160313DE0701B3F65A
:1049AC001603B302D303C206B366DE0063FB5600E4
:1049BC00B296138EFEFF63E5C62463F35624F91EEC
:1049CC00B296B386564033DE1603B3C70708B3F668
:1049DC0016033303C303C206D58F63FB6700B2977C
:1049EC009306FEFF63ECC72063FA6720791EB2972B
:1049FC00C20EB3EECE0193D20E01B3C60E08338EA7
:104A0C00E203B3876740B388DF02338FE603F29883
:104A1C0093560F01C696B38F5F0263F4C601C1684B
:104A2C00C69F41637D1393D80601B3F66600C20698
:104A3C00337F6F00FE98FA9663F6170FB297138EBA
:104A4C00FEFF3E8363E6C71663E4171D638D171DD7
:104A5C00F28E93EE1E00FDB38546E39C07CE130544
:104A6C00E541B397AE00B337F0003315A700C98FFB
:104A7C00B3DEDE00B3EEFE0093F77E003357D700B3
:104A8C0081CF93F7FE0091466388D70093874E0041
:104A9C00B3BED7017697BE8EB7058000F98D8547DA
:104AAC0081460146E39F05CAD5A8E37CFEECB30220
:104ABC00BE00B3B3C201338EC300F2961304F7FFEA
:104ACC00168E6376D60663EFD60F638BDE0E2287C7
:104ADC004DBDE367DEDF93561E00139FF80193D79D
:104AEC001800336FDF007E0EC5B393180560714359
:104AFC001387580113880802E35DE3CE938788FF80
:104B0C00B318F500014E19B313180660F14E930F4C
:104B1C00580193070802E3D2FECB6118814E33177C
:104B2C0006014DB9E39717F3E38E06D001BFE310EE
:104B3C00D6FAE38A03F82287A9B5E3F786DEF91ED5
:104B4C00B296E5B3E3FED7DB7917B2975DBB7D4632
:104B5C00E357D6F00556B307F64013060002B357D9
:104B6C00F7006388C6001305E5433317A700B3EEBF
:104B7C00EE00B33ED001B3EEFE0013F77E0081468B
:104B8C0015C393F7FE00914601476389D7009387BD
:104B9C004E00B3BED7013337D001BE8E93169700AB
:104BAC00B182760793DE3E0033E6EE00814755BEB8
:104BBC00F28EE31013EBE387B6C893EE1E0059B1E7
:104BCC00E3F7F2F0AE92B3B3B200B2937917168E4C
:104BDC009E9645BB930620C09307F53FFD5EE34DC3
:104BEC00D5E693864E00B3BED6017697B68E9DB1B0
:104BFC0093F6FE001146E38FC6C4E5B7368ECDBBE7
:104C0C00F28EC1B336889307F07F8146014691BE80
:104C1C00139E15003333BE0032933E93F91EF2857A
:104C2C00E30B13F93DB5E3E5D5FEF28EE397B6F849
:104C3C0011B9411193D74501939EC50022C626C4D4
:104C4C004AC24EC093F7F77F93DECE00FD81638995
:104C5C0007141307F07F6382E7188E0E1357D501E4
:104C6C00B36ED70193123500138E17C0814881445F
:104C7C00939E7E2993D746011397C60093F7F77F2F
:104C8C0032841353C70093D3F601F9CB1305F07F8D
:104C9C006386A706131733001355D601498F9386E5
:104CAC0017C0338FC6011313772929471314360005
:104CBC000145130E1F006346171733C87500C28FCA
:104CCC00894563CF15051386F8FF854863EBC81833
:104CDC00630FB51085477E886316F50681478146BC
:104CEC0001473244D207D58F7E08B3E70701A244AF
:104CFC00124982493A85BE85410182803366C300E0
:104D0C00130FFE7F6301061033C875009316B0288D
:104D1C0093E838002947C28F369E634417410D45EE
:104D2C00331610291377065305C389476381F40C96
:104D3C008D476381F41226858547768316847E8899
:104D4C00E30EF5F8728FBDAC93750624DDE5137692
:104D5C008608630806109E8F9A8EA282AA84F1B7E9
:104D6C003367C30061CF630F0330131F0360130756
:104D7C005FFF754593078FFF198D3355A6003317C9
:104D8C00F3003363E5003314F600330FEE41130FD9
:104D9C00DFC029470145130E1F00E35017F351A044
:104DAC00B3E2AE006387020863800E2C13980E608A
:104DBC00930758FF7547930288FF1D8FB39E5E00C3
:104DCC003357E500B36ED701B3125500130ED0C0A4
:104DDC00330E0E418148814471BDB3E2AE00639441
:104DEC000204814EA148130EF07F894461B57E8880
:104DFC009307F07F81460147EDB501489307F07F9B
:104E0C00B7060800F9BD1317B02893E82800A94786
:104E1C003A9E63DC17290144B94709452D47638045
:104E2C00E730AE8F19B7AA82B148130EF07F8D44CC
:104E3C0091B5814E9148014E85442DBD728F93E8FA
:104E4C0018002947014301440545130E1F00E35682
:104E5C0017E7C1BF01489307F07FB7060800014769
:104E6C0049B5C1659384F5FFB3F7920013D90201DC
:104E7C0093580401E18C338797023306990213553A
:104E8C000701B386F802B2963695B30F1903637314
:104E9C00C500AE9F41641306F4FFB375C500B3762D
:104EAC00C300718F93530301C205B382D702BA9525
:104EBC0041813307D90213D60201B387F302BA97A3
:104ECC003E96B30779026373E600A297C169138318
:104EDC00F9FF3377660013D40E01B3F26200B3FE10
:104EEC006E00420716973389D40341823E963A9559
:104EFC00B382D80393570901330394029A9296977D
:104F0C00B388880263F36700CE98C1691383F9FFF5
:104F1C00B3F46700C20433736900C183C697B382CC
:104F2C00D603B3886400B306D40213D30201B38E44
:104F3C00D303B69E9A9E3383830263F3DE004E93B3
:104F4C00C163FD13B3F67E00C206B3F272007E9508
:104F5C00969636963337E5003297AA98BA9733B5BA
:104F6C00A8003E95B336D6003336C700D18E33B782
:104F7C00E70013D60E01B337F500B2965D8F369766
:104F8C001A9793979800260793567501CD8F336324
:104F9C00D700B337F00013D77801D98F370700014A
:104FAC0026053377E30033E4A70009CF1357140029
:104FBC00937714009316F301D98F33E4D70013536E
:104FCC001300728F1306FF3F6358C004937774006D
:104FDC0081CF9377F40011476388E70013074400EF
:104FEC00B33787003E933A84B7070001B377F300D9
:104FFC0089C713060F40131383499307E07F63C1DE
:10500C00C70A935734001317D301931693005D8F7F
:10501C00B1829377F67FF1B1054759EE130FEF414B
:10502C003316E4013336C000331FE301B357E400F9
:10503C003366E6015D8E93777600B355E30081CF3E
:10504C009377F60011476388E7009307460033B661
:10505C00C700B2953E86370580006D8D8547814629
:10506C000147E31005C85DA013170560F1489307CD
:10507C00570113080702E3DFF8D261178142B31E10
:10508C00E500A9B393170660F14613875701138FF8
:10509C000702E3D0E6CEE11701443313F600F5B175
:1050AC009307F07F814601472DB933C87500C28F35
:1050BC0001430144094529B1118F93078003E3CFC4
:1050CC00E7C0FD47E3DCE7F48557918F93060002B8
:1050DC00B357F3006308D700130FEF43331FE301FB
:1050EC003364E401333680005D8E1377760081469D
:1050FC001DC39377F600114781456389E700930739
:10510C00460033B6C700B335C0003E869396950073
:10511C001397D501B1820D82518F8147D9B6328355
:10512C001DB93D476397E8000148B70608000147E1
:10513C004DBE1A86AD470D45D5B193D74501139792
:10514C00C50093F7F77F1306E03FAA863183FD81F4
:10515C0001456353F60091C182801306E0417D55F1
:10516C00E34CF6FE130630431D8EFD4513174729FD
:10517C0063CAC5009387D7BE3317F70033D5C60073
:10518C00598D8280130530411D8D3355A7008280C7
:10519C0021C13307A0409307E0413367E50AA946D4
:1051AC0013160760918F7D8193F7F77F63CDC6024D
:1051BC00AD46918EB356D700B206B182D2075506D2
:1051CC00D58F7E05C98F3317C7003A85BE8582807F
:1051DC00814781460145D207D58F7E05C98F01478E
:1051EC003A85BE8582805516B316C700B206B182C9
:1051FC00D207D58F7E05C98F01473A85BE8582803F
:10520C000DC99307E04113170560A946998F93F7D1
:10521C00F77F63C6E602AD46998EB356D5005507A7
:10522C00B2063315E500D20713D7C600D98FBE8559
:10523C00828081470147D207D98FBE85828055175E
:10524C003317E50032073183D207D98F0145BE856C
:10525C0082805D7122D406D62A842EDA32DC36DEC8
:10526C00BAC0BEC2C2C4C6C617C5FF1F032585A4DB
:10527C0011C51C4D81E72AC6B12532450C45541881
:10528C00228636CEEF003030B250225461618280DB
:10529C00AA8517C5FF1F0325E5A111CD1C4D81EF74
:1052AC00011106CE2EC62AC4312D2245B245F2403C
:1052BC001045056119A01045F5BF411122C426C245
:1052CC004AC006C62A89AE84328401C51C4D91E3BE
:1052DC00D52B971700009387675A6313F4060324A2
:1052EC0049007C50858B81EB5E2493F7072081E786
:1052FC00284CEF00A0741C44FD171CC463DA070093
:10530C00184C63C1E70693F7F40F2947638CE70445
:10531C001C401387170018C084A393F4F40F7C501F
:10532C00858B81EB5E2493F7072081E7284CEF00F7
:10533C000071B24022440249268592444101828088
:10534C0097170000938787516315F4000324890095
:10535C0049BF971700009387674EE314F4F80324B2
:10536C00C90041B7A68522864A851D22AA8445BF5D
:10537C00011126CA06CE22CC4AC84EC652C4AA84F3
:10538C0019E11C4502901C4D2E89ADE3252B9C4C3C
:10539C008044B9CF971700009387474E631DF404E0
:1053AC00C0407C50858B99E75E2493F7072099E3E6
:1053BC00284C69255E24A18B99C31C48D5E3A28592
:1053CC002685692251CDFD547C50858B99E75E244E
:1053DC0093F7072099E3284C9D25F24062444249FB
:1053EC00B249224A2685D2440561828000455DB7C8
:1053FC002685C92945B7971700009387274663145C
:10540C00F400804479BF9717000093872743E31A71
:10541C00F4F8C04479B71CC4050963C807021C40E2
:10542C001387170018C08CA31C4483450900FD1773
:10543C00FDF11CC463D907022286A945268589285B
:10544C00FD57E302F5F8A94441B7184C63C4E700D3
:10545C00E39745FD228626852528E31735FDA5B75C
:10546C00FD59294AD1B71C401387170018C029478A
:10547C0098A3D1BFAA8517C5FF1F0325A583CDBD52
:10548C00AA879823850775FF3385A7407D158280F1
:10549C00011122CC26CA4AC806CE4EC6AA842E8931
:1054AC00328401C51C4D91E3312997170000938775
:1054BC00E73C6317F402C0401C4C1CC45E24A18B57
:1054CC0099C31C4895EFA2852685492015C97D599D
:1054DC00F2406244D244B2494A8542490561828015
:1054EC0097170000938787376314F4008044E9B75B
:1054FC009717000093878734E310F4FCC0446DBF0A
:10550C001C4808409379F90F1379F90F1D8D5C48ED
:10551C006346F500A2852685A12C55F91C4405058A
:10552C00FD171CC41C401387170018C023803701BB
:10553C005C486388A7005E24858BD9DBA947E319F7
:10554C00F9F8A28526852D2441D551B7411122C4E5
:10555C0026C24AC006C697B4FF1F83A4A4752A8925
:10556C002E8489C49C4C99E32685A92E971700009C
:10557C009387C7306313F402C0408317C40013F73A
:10558C00870025E713F707010DEB25472320E900DA
:10559C0093E707045EA47D5571A0971700009387CD
:1055AC00E72B6314F4008044C9BF9717000093875E
:1055BC00E728E314F4FCC044C9B7918B9DC34C5845
:1055CC0089C9930744046384F5004A85B92B232ABF
:1055DC0004025E242322040093F7B7FD5EA41C484A
:1055EC001CC05E2493E787005EA41C4899EB5E24E4
:1055FC001307002093F707286385E700A2854A85E7
:10560C0061298317C40013F717001DC358482324BE
:10561C0004003307E04018CC1848014501E713F7A4
:10562C0007083DF7B240224492440249410182806E
:10563C0013F72700814611E3544814C4F1BF839734
:10564C00C500011122CC26CA06CE4AC84EC613F795
:10565C008700AA842E8479E3D8416345E000B841E1
:10566C006356E008585459C303A9040023A004004E
:10567C000C5093D7C748A9CB70485E24918B99C71F
:10568C005C401D8E5C5899C33C401D8E5C540C5084
:10569C00814626858297FD57630CF5041C480567E7
:1056AC00232204001CC05E24F98F91C368C84C5897
:1056BC0023A0240185CD930744046384F50026853B
:1056CC00AD21232A04021DA001468546268502979A
:1056DC00FD572A86E313F5FA9C40C5D375476385BD
:1056EC00E70059476395E70623A024010145B5A0BF
:1056FC0098408317C40001CFF5466305D700D946FF
:10570C006319D7041C48232204001CC04DB7184849
:10571C002322040093D7C74818C041BF83A90501B1
:10572C00E38609FC03A905008D8B23A03501330901
:10573C003941014791E3D84918C4E35920FB1C5463
:10574C000C50CA864E8626858297634FA00083171D
:10575C00C40093E707045EA47D55F2406244D24432
:10576C004249B24905618280AA993309A940F1B72F
:10577C009C49411106C622C426C281EB8144B24029
:10578C0022442685924441018280AA842E8401C53C
:10579C001C4D91E3052A971700009387270E631C75
:1057AC00F402C0408317C400F1DB7850058B11E77D
:1057BC0093F7072099E3284C51242685A28541357F
:1057CC007C50AA84858BC5FF5E2493F70720C5FB0C
:1057DC00284CB5246DB797170000938727086314DE
:1057EC00F4008044C1B79717000093872705E31B8B
:1057FC00F4FAC04445BF411122C406C62A844EA502
:10580C0072A5232005002322050023240500232252
:10581C00050623280500232A0500232C0500214614
:10582C0081451305C505EFB02FCE97170000938760
:10583C0087835CD097170000938787851CD49717B4
:10584C000000938747895CD4971700009387878B58
:10585C00B24000D01CD82244410182809705000040
:10586C00938545F1BDA2411126C29307800693840E
:10587C00F5FFB384F4024AC02E8922C406C6938570
:10588C004407692E2A8401CD2320050023222501FB
:10589C00310508C4138684068145EFB0EFC6B240CB
:1058AC002285224492440249410182801385018B56
:1058BC0071A21385018B61A21385418B41A21385C3
:1058CC00418BB5AA411122C406C62A84F5371C4C5B
:1058DC0089C72244B2404101DDB797070000938786
:1058EC0027F81CD4232404042326040423280404AA
:1058FC0083A781826394870085471CCC22853D2039
:10590C0048C02285252008C422850D2048C4484063
:10591C0001469145CD3508440546A545E93D484429
:10592C000946C945C93D85471CCC65B7411126C2FE
:10593C004AC006C622C42A89953F83A481829C4C06
:10594C0099E326854137938484048044DC40FD1719
:10595C0063D607009C40BDC38440C5BF0317C40079
:10596C0039EBC17785075CC4130584052322040633
:10597C00E92081372146232004002324040023221C
:10598C00040023280400232A0400232C040081454E
:10599C001305C405EFB04FB7232A0402232C0402CD
:1059AC002324040423260404B24022852244924476
:1059BC000249410182801304840651BF91454A85F6
:1059CC005D3588C02A8449F9ED35B1472320F900AB
:1059DC00E1BF797122D44AD04ECE52CC5AC85EC6A1
:1059EC0006D626D256CA2A892E8A130485048149E2
:1059FC00054BFD5B0444832A4400FD1A63D00A0264
:105A0C0000406DF8B250225492540259624AD24A64
:105A1C00424BB24B4E85F24945618280DE24637B5A
:105A2C00FB008397E40063877701A6854A85029A79
:105A3C00B3E9A90093848406C9B7828082808280EE
:105A4C005971A2D42E848395E500A6D2CAD086D6ED
:105A5C00B284368963D205025E2493F707088DEB76
:105A6C0013070040B65026542320F90098C006595D
:105A7C0096540145656182803000F92DE34E05FC9A
:105A8C003247BD67F98F7977BA9793B71700C9BFBB
:105A9C00814713070004F9B7DE25797122D406D6A5
:105AAC0026D24AD04ECE898B2E8491CF9307740484
:105ABC001CC01CC885475CC8B25022549254025971
:105ACC00F2494561828074003000AA84953FA24956
