:040000006F104047F6
:100004000000000000000000C45D0100C60A0020DA
:10001400A9BDF9F3C45D0100000000000000000068
:10002400C45D0100C45D0100000000000000000088
:10003400C45D010000000000C45D01000000000078
:1000440000000000C45D010000000000C45D010068
:10005400C45D0100C45D0100C45D01000000000036
:10006400C45D01000000000000000000C45D010048
:10007400700B0020C45D0100C45D0100C45D01007B
:1000840000000000C45D010000000000C45D010028
:1000940097270000938747679C53411122C406C6E3
:1000A4001384C18299C782971C403E9523A6A182DE
:1000B40029A09387C18C9C43FDF70840B7470300F0
:1000C4009387D73F3305F502B7A72600938737EC0C
:1000D400B24022443E9523A6A18241018280B7E723
:1000E40000E09843B706200023A0D718758F0F109F
:1000F400000001C599C1814711E6B7E700E023A0DC
:10010400E7108280B386F50003C80600B306F50045
:10011400850723800601E317F6FEC5B737E700E03D
:100124001C43B70620002320D718F58F0F100000BA
:1001340001C53307C50011E637E700E02320F710B7
:1001440082800505A30FB5FEE31DE5FEF5B737E78D
:1001540000E01C43B70620002320D718F58F0F10AA
:10016400000001C599C1014711EA37E700E02320E7
:10017400F710054582800507E309E6FE3308E5002C
:10018400B386E5000348080083C60600E305D8FEED
:1001940037E700E02320F71001458280797126D2E9
:1001A4009384018D22D406D64AD04ECE52CC56CA60
:1001B4005AC85EC626849C40F1E79387418C9843D5
:1001C4001726000003469657BE84172A0000130A18
:1001D400EA569727000083C7675693961700BA9686
:1001E40083D60600D5C29727000083C7275563E747
:1001F400C70A97270000238307541C40639C0710F9
:100204001389C18C83270900638607109387818D26
:100214008043630104109724000093842454DC4039
:10022400B7C9C901014B17270000232DF750938943
:10023400F937972A0000938A2A4D83572400EDEB5F
:100244005C4463140B0E23ACF18C832BC400228515
:10025400976001E0E780001E5E8465F09727000048
:100264009387874ADC53DDC72254B2509254025913
:10027400F249624AD24A424BB24B4561173300E01D
:10028400670063F2829705BF850793F7F70F9726F8
:1002940000002385F64AE3EEC7F2B1B786073E971E
:1002A400835507002310070097270000239B074866
:1002B4009387C18D9C4317250000034525481317D8
:1002C4002500BA979C4382971727000003470747E6
:1002D4009317170098403E9783576A0093C7F7FF18
:1002E4007D8D835707005D8D2310A700972700009D
:1002F40083C7C74491C78507172700002300F74425
:1003040017270000034787439727000083C7174335
:10031400E371F7EEB250225492540259F249624A00
:10032400D24A424BB24B456182802326FB0031BF47
:100334008327090082971C443307F5406375F50051
:10034400D8401D8F2A9763EBE902835524000345A7
:100354000400976001E0E78060CD5C40E38207EE33
:100364001044D440B2973E8763E4C70063E4D700E7
:100374003387D74018C4228B4044C5B503A74A022B
:100384007DDB63EFA7023385A7408347040085E341
:10039400172700000347A7385117B307A7003E8566
:1003A400D44063E4E70063E4D7003385D740832770
:1003B4008A00E372F5FC9727000023A5A73865BFE0
:1003C400D840BA97C9B737C700408326C720B707B4
:1003D400FCFFFD17F58F2326F72001000100972766
:1003E40000009387A735C84B832787262326D72069
:1003F4006A0593C7F7FF99835D8D828013874195C2
:100404001443411122C4BC4206C63A849983858BA5
:10041400B1CF93070006BCC29727000083C70745E6
:1004240093F707049DC797270000938727339C43BE
:1004340082979727000023A1A7449727000093875A
:10044400E74283C7070093F7F70B17270000230F32
:10045400F7409727000083D7E74189CB138741965C
:1004640018437CD3972700002396074018403C4349
:100474009183858B81CBC1473CC3938741969C4331
:1004840023A207069387019598435C438583858B54
:1004940099C323220700B240224441018280B93F1C
:1004A4007300203097270000A382073C938741966E
:1004B4009443172700001307673B83470700858B86
:1004C40099E783471700858B99E3FC52FDF78280F7
:1004D4000347150093160701C1829387260011CBA9
:1004E400138741961843384B1583058B19C393879B
:1004F400660093863700AA9603C806008548054718
:100504001378F807631D180799C53307F5000347E7
:1005140027002380E5000DCEAA9703C7170083C7E1
:10052400070022075D8F931527019357470063D671
:10053400050093E707C0C207C18303170600C2077B
:10054400C18709C7BA970947B3C7E7022310F60062
:10055400034715000DC7938741969C430147BC4B45
:100564009583858B89CF83C70600854613F6F706E6
:100574006319D600E207E18763D3070039473A8558
:1005840082801947EDBF0111972700002381072EB0
:1005940026CA97270000A38C072C97240000938475
:1005A400A416DC504AC806CE22CC4EC62A892E8513
:1005B400B28595C7B7E700E03707200023A0E728F6
:1005C400B7F700E003A707D16D9B23A8E7D003A7E3
:1005D40007D11367870323A8E7D07300501085471A
:1005E40093894195138441966317F90601469760F0
:1005F40001E0E78060B783A709009C43A1838D8B4A
:10060400B9E71C4013076019F8D3DC5099CB37F7CE
:1006140000E0832707D193E787002328F7D07300EE
:10062400501014401727000013074724834727005E
:10063400858B99E783473700858B99E3FC52FDF757
:10064400F2406244D2444249B249056182801C406E
:100654001307E01B55BF976001E0E780E0A983A77B
:100664000900B70600019843558F98C3D85B719B66
:10067400D8DBE31C09F897270000A389071E1C4058
:10068400094798C359B7938741969C439847D447E1
:10069400758F98C79316D70063DE0600FD56B4D74E
:1006A4009726000093868609D44A850617260000FB
:1006B4002320D60A937687009DC29726000083C61E
:1006C400061B93E61600172600002302D61A93860B
:1006D40041959042545AF19A93E6160054DA93766F
:1006E40017009DC29726000083C6561893E616008D
:1006F40017260000A30CD616938641959042545AAF
:10070400F19A93E6160054DA93766700B9C6118B12
:1007140097260000938686159385419545C3984195
:10072400184321830D8B41EBB04BD84A1376060254
:100734000347170039CA2DEF13077006D8CF83C7B4
:10074400060093E71700172700002301F7129841CA
:100754005C5BF19B93E717005CDB83C7C196D1C355
:1007640023860196938781969C43B5C3411106C69F
:1007740082979387C19683C7070093F7F70F99E38E
:1007840023A40196B240410182805DD705466315DA
:10079400C7001307B0065DB709466315C700130702
:1007A400F00669BF0D466315C7001307300779B714
:1007B4001307500761B71307600749B783C73600AB
:1007C40093E7170017270000A303F70A49B7938795
:1007D400C19683C7070093F7F70F81E723A4019617
:1007E400828082804D3573002030972700009387E4
:1007F400E707DC4B9385150295859843FD1518C1D1
:10080400D84358C1984718C5D84758C5984B18C9F4
:10081400D84B58C9984F18CDD84F58CD91C513050A
:10082400050293870702D1BF82809387419698433C
:100834003C5BFDFF0100010082800111972700004D
:100844009387071322CCC05F26CA06CE2AC42EC6BD
:10085400854419E40145F2406244D2440561828032
:100864008347910003471400858B6304F700004419
:10087400CDB719469305A10013052400C938E31820
:1008840095FE0545C9BF9307000C01116314F504D7
:1008940093078008F3B7078093F787083EC00100E9
:1008A4000100B7170040130770052380E7041307FE
:1008B40080FA2380E7040100010098271367070CDE
:1008C40098A7238007048247F3A70780010001004B
:1008D40005618280B7170040B827118B69EB83C686
:1008E400E7041307800893F6F60F73360780137630
:1008F400860832C201000100130870052380070531
:10090400930580FA2380B7040100010003C6E704BD
:10091400136636002387C704B02713664600B0A7C2
:1009240023800704124673260680010001009027E5
:100934001376F60F73370780137787083AC40100DC
:100944000100238007052380B704010001009827D4
:100954001367070C98A723800704A247F3A707800F
:1009640001000100A5470100FD1793F7F70FE5FF0C
:1009740093078008F3B7078093F787083EC6010002
:100984000100B7170040130770052380E70413071D
:1009940080FA2380E7040100010090A72387D7048D
:1009A40023800704B247F3A707800100010093776F
:1009B400050C130700046399E70893078008F3B74D
:1009C400078093F787083EC801000100B71700406D
:1009D400130770052380E704130780FA2380E704D4
:1009E40001000100B827854613670701B8A7372718
:1009F4000040A303D7808346578093E60601A302F1
:100A0400D78023800704C247F3A7078001000100B1
:100A140093078008F3B7078093F787083ECE010059
:100A24000100B7170040130770052380E70413077C
:100A340080FA2380E704010001001375F50F88A7ED
:100A440023800704F24749B59377F5019DCF9307B7
:100A54008008F3B7078093F787083ECA01000100B6
:100A6400B7170040130770052380E704130780FAC3
:100A74002380E70401000100372700408946A303CF
:100A8400D78023800704D24741B793078008F3B780
:100A9400078093F787083ECC01000100B717004098
:100AA400130770052380E704130780FA2380E70403
:100AB40001000100372700409D46A303D78023800F
:100AC4000704E24791B7411181460146814511452A
:100AD400972000E0E78060EA13078008F337078077
:100AE40093F787083EC401000100B71700401306BE
:100AF40070052380C704930680FA2380D70401007D
:100B04000100FD55CEB723800704A245F3A5058057
:100B14000100010073370780137787083AC6010084
:100B240001002380C7042380D7040100010003C708
:100B34006704136717002383E70423800704B2477D
:100B4400F3A707800100010001A04111B71700407D
:100B5400985F3AC6945F3247E39CE6FE3245410112
:100B64008280B7E700E03707001023A0E7208280E7
:100B7400B7170040130700032388E70273002030EF
:100B8400411106C6EFF08FE1F5BF2303048015473A
:100B9400A2872303E480010001002302A48003C789
:100BA400678062076187E34C07FE2382A780228760
:100BB40083476780E207E187E3CC07FE8280230353
:100BC400048015472303E480010001002302A4806C
:100BD400828083076480E3CE07FE2303048082803F
:100BE40083076480E3CE07FE034544808280830745
:100BF4006480E3CE07FE2302A4808280411126C4D0
:100C04004AC24EC006C61377F50BAD47AA892E8992
:100C140095446306F70019455D37653F8D444E855D
:100C2400793FFD59FD1463983401B240A24412493E
:100C3400824941018280135509011375F50F453F1F
:100C44002209CDB7011126CC06CEB70408005137CE
:100C54001545B537713769372AC6A53F32459377AD
:100C6400150089EB136515001375F50FF240E24486
:100C740005618280FD14E9FC0145CDBF411106C622
:100C8400B7170040130770052380E704130780FAA1
:100C94002380E70403C747041305F00F1367070E07
:100CA4002382E70491472303F480C535B240410110
:100CB4000DB7011126CC4ACA4EC852C606CE2A899F
:100CC400AE89B284554A5D3F91E82137F2402685CA
:100CD4005249E244C249324A05618280CA850945C3
:100CE400313F910903A7C9FF91472320E4800307FB
:100CF4006480E34E07FE23034481FD17EDFBFD14DE
:100D0400110981C49377F90FE9FF2D3F55FDFD5477
:100D140075BF011126CC4ACA4EC852C656C45AC21F
:100D240006CE2A89328A8D49913FC164C16A056B16
:100D34009387F4FFB3F7270199E363719A02FD19CE
:100D44009180E39709FE71350145F240E24452492E
:100D5400C249324AA24A124B056182801305800DB2
:100D640063885401130500026384640113051008A9
:100D7400CA856935C13D09C52699330A9A4075BFAC
:100D84007D55E1B7011106CE26CC4ACAB2844EC8BD
:100D94002AC62E89E5353245FD14FD59AA852D450F
:100DA400B13D639A34013535F24026855249E24417
:100DB400C249056182802D3593F7340091EB832677
:100DC40004800327090093074900E39EE6FC3E895B
:100DD400FD14C1BF011106CE2AC64D353245C533B7
:100DE400F2400561FDB3011106CE26CC4ACA4EC8B5
:100DF40052C6AA8956C42E895135B7050400B3E5F5
:100E0400B9002D45E53B81448D4A214AD13B639687
:100E14005401832704802320F9008504E39844FFC8
:100E24008327048013972901635C07002312F900C8
:100E3400F240E2445249C249324AA24A056151BBD6
:100E44002322F900F5B7411106C626C44AC24EC092
:100E5400AE892D3581451305B0044D33BD447D590C
:100E6400413393F77400CE9703C70700FD14398DFF
:100E74002380A700E39624FFB240A244124982498A
:100E8400410181BB411106C6D53B13056006053BF4
:100E94008933130590092533B24041011DBB99E103
:100EA40023A8A18C8280938741959443B7070200BD
:100EB4009387C7209CDE93070005DCDE37E700E05C
:100EC400D147A309F70497F7FFFF9387875D93E75B
:100ED40017007CD79727000083C7478493E707044C
:100EE40013979701DC5A9E079D83D98FDCDA8280A1
:100EF4002386019623A40196938741969C43130766
:100F0400C00893066007D8CBD4CFD8D31306C00645
:100F1400D0D7D8DBD0DFF8C3F4C7130780072393F7
:100F2400E7001727000013076794584B23AA070408
:100F3400F8DF7D5798C7370716003D07D8C737E74E
:100F440000E0D5472309F704970700009387C78972
:100F540093E717003CD7828093874196984389672B
:100F6400938707F47CD3938741979C4383A607090F
:100F7400139656006358060083A607091396660065
:100F8400634406007453FDF28280411126C29384A7
:100F94004195984022C406C6972700009387479D31
:100FA400C04B5C5B13058025F19B93E717005CDB6A
:100FB400975001E0E78060349387419798435C57EA
:100FC400F59B5CD783472401944013F7F7079C42B1
:100FD40093F707F8D98F9CC20347540085476307EA
:100FE400F700228597F000E0E780406293874196FE
:100FF4008C43370500FF37068000DC411306D632E8
:1010040093E71700DCC1034744059C4013670704BA
:1010140093169701D85B1E071D83558FD8DB37C7FE
:10102400898E130767EDD8C7B8D337575500130710
:101034005755D8C3B8CF9447E98ED18E94C7F84F8B
:10104400698F518FF8CF894717270000A302F782D1
:101054003C400145BCDD834524050346B400EFF064
:101064008FD22244B24092448145170500001305F3
:10107400C52141012DB5011106CE22CC26CA4AC88C
:101084004EC652C483446500A3020500854763919C
:10109400F41A171700000347B77D95476314F70246
:1010A400834515016244F240B395B4004249D244E9
:1010B400B249224AC205C18101450561175301E0C5
:1010C4006700C3F6034735018D472A84631AF70C7A
:1010D400EFE01FFC0D895DE1930770022309F40022
:1010E400896793875762231AF4000347740085477E
:1010F4006300F706171900001309496683270900DE
:1011040083491401829783270900035A8401AA841E
:1011140082979377F500D2971715000003558564DD
:10112400B387A7021307006493870732B3D7E70294
:101134000327490033859700AA856364F500636437
:10114400E500B305E5404E85975001E0E780E0F205
:1011540085472304F40297270000938767819C57EF
:10116400E1EB0945975001E0E78020136244F24027
:10117400D2444249B249224A056101BD631A95002D
:10118400930760022309F400896793875772A1BF0C
:10119400930750022309F400896793877762A1B704
:1011A4008946834795006319D70213F7170011CFB7
:1011B400130750022309E500898B81CF930760024E
:1011C400230AF400A30A04000DB79307600223095D
:1011D400F50093077002EDB79DC313F7170001CB19
:1011E400930750022309F400231A0400FDBD898BE0
:1011F40081C793076002FDB793077002E5B7834781
:10120400450113074002636BF70093075002230A5A
:10121400F400834744012309F4006DB7850793F76D
:10122400F70F230AF50013077002E360F7FED5B742
:10123400F2406244D2444249B249224A0561828062
:101244008347550189CB034725016316F70017F33C
:1012540000E0670043660347450109CF8346250143
:101264006381E6022309E5008145170500001305A3
:1012740005D235B1E9DF0347250171FB2309F500E8
:10128400E5B7F1D7E5BF4111971700009387476E83
:1012940022C4C04B9717000083C7675D06C6858BC1
:1012A4008DCF0347A40089476309F7021306500250
:1012B40081450545EFF02FAD971700009387075B35
:1012C40083C73700858B91CB2244B24081451705F3
:1012D40000001305E5014101D9B6975001E0E7800C
:1012E40040F722852244B240410199BF411197172A
:1012F40000009387E76722C4C04B014606C66840D6
:101304009305E40026C24AC0EFF08F9C55E16C407F
:101314007D4783C7150093F7F7032306F400E91705
:1013240093F7F70F6366F70883C70500BD8BA30621
:10133400F400F51793F7D70FA5EF9304A402194609
:10134400A1052685EFE0BFE025C56C408547230C49
:10135400F40283C705001305A40319469987858BF6
:10136400A30CF4028905EFE09FD7228597F000E0F3
:10137400E780604D15CD8346D40015478347A4000C
:101384006393E604854463E5F402971700009387AA
:10139400E73C9C43829748CC228597F000E0E780A5
:1013A400C03363179500228597F000E0E7808070D2
:1013B400975001E0E780E0E922852244B24092445C
:1013C40002494101B5BD81C71947E393E7FE2D45A5
:1013D4000309E400973000E0E780A04B62056185D3
:1013E400E348A9FC8947A302F40083477401114729
:1013F4002305E4009907A305F4003C402380E7009B
:101404003C400347B400A380E70083479402858BE4
:1014140091E70347840289476319F70038408347FB
:10142400070093E707042300F7002840A685194620
:101434000905EFE0DFCA2840034674014C5021053A
:10144400EFE0FFC9834524050346B4000D45EFF0E2
:101454008F93975001E0E780C0DF2244B24092446A
:101464000249814517F500E01305A54B410105BC70
:1014740097110020938141A317210020130141B843
:101484001305400097F5FF1F938585B717060020C5
:10149400130606FE63FAC5008322050023A0550047
:1014A40011059105E3EAC5FE1765010013050585DD
:1014B400970500209385C5FB1386818863FAC500D0
:1014C4008322050023A0550011059105E3EAC5FE1A
:1014D40013858188971500209385C54E6377B500E1
:1014E400232005001105E36DB5FE930250027390AD
:1014F40002BC8D42739042808542739012BC930269
:1015040080087390023097F2FF1F938262AF93E2D8
:10151400320073905230971200009382E24073902D
:101524001234730020302A8309CA83830500230000
:1015340073007D16050385056DFA82802A8311C622
:101544002300B3007D16050365FE82803717004033
:101554008347E70412054111BD8BC98F93F7F70F39
:1015640093068008F3B6068093F6860836C6010013
:101574000100930670052300D704930680FA230024
:10158400D704010001002307F70423000704B2472E
:10159400F3A707800100010041018280011126CADE
:1015A40006CE22CC8947B314A02863F9A700954737
:1015B40063E4A70A93042500B3149028B7170040E6
:1015C40003D70705B166558F2398E70413078008EE
:1015D40073370780137787083AC6010001001307A1
:1015E40070052380E704130780FA2380E7040100D1
:1015F400010003C737051375F50F13670708A3899F
:10160400E704A389A70403C7370513670702A3895F
:10161400E70423800704B247F3A707800100010011
:10162400B717004003D7070513175760E35C07FE9D
:1016340003D4070583C727054A04BA0749803E94A3
:101644007D2C33549402F240D244335585026244D3
:1016540023A4A18805618280994793040040E30F85
:10166400F5F49304F07F99BF41113A8E2A8381489F
:10167400930E407E130F0019930F400663EF6E1410
:10168400130700193377E502854E0D4F994FFD423C
:1016940063E1BE1861477D1603A581884696AA8535
:1016A400B3F6E602130780703387E602F946330E79
:1016B400DE0293D61700858B7297369791E38145A6
:1016C400B307A602A166FD161306302A13D8F70045
:1016D400F58FB387C7021166B385A5023307A70246
:1016E400B29513F6F71F1E06BD81A583F98EB3A626
:1016F400C6203D83AE96BA9713D70601BA972D67D5
:101704001307078C33D6E702B3C6060833F7E7029C
:1017140042964207558FB716004083C7F60293F7E7
:101724000708DC838C8383C7F60293F70708E396E4
:10173400F5FE9C83B7160040638107129307800867
:10174400F3B7078093F787083EC401000100B71779
:101754000040930670052380D704930680FA238003
:10176400D70401000100D0DB83C6170393E6060803
:10177400A388D70223800704A247F3A707800100A8
:1017840001001166B71700407D16D45BCC5FAD8EA7
:10179400F18EE5FE93068008F3B6068093F686087C
:1017A40036C601000100930670052380D704930612
:1017B40080FA2380D70401000100D8DB03C7170394
:1017C40013670704A388E70223800704B247F3A73B
:1017D400078001000100410182807D133377E30318
:1017E4001308E01601CF3377F3031308D01619C793
:1017F40013783300133818001308D816C298BDBDE7
:1018040013F81500F91563FBBF029305E801AE98C0
:101814009A851383F5FFE395E5FF854501CF13080A
:101824004006337805038145630608009375350047
:1018340093B51500F105AE989A8599BDB38502411B
:10184400DDBF83C7F60293F70708DC838C8383C765
:10185400F60293F70708E396F5FE9C83FDD3F9BDE2
:101864000D06719A81473307F5006393C7008280A0
:1018740014433387F500910714C3F5B7914763EC1C
:10188400B70497470100938767D6B3C5F5209841FD
:101894003E97B71700409387470B02879443371747
:1018A4000040B3F6A64094C39306070B9C42B3F7DB
:1018B400A74019A8944337170040B3F6A64094C331
:1018C4009306070B9C42C98F9CC29307070A98434F
:1018D4003377A74098C38280944337170040C98E5A
:1018E400D9B798433377A74098C3B7170040938775
:1018F400070A9843498FF9BF9843498FF5B7B7173B
:10190400004098279306000C1377070C6315D70043
:1019140003A5818882809827930600041377070C17
:101924006310D702942713070002FD8A99C29827EF
:101934007D8B3745C323130505603345E50282805B
:10194400942713070002FD8A99C298277D8B375587
:10195400E80113050580D5B7B7F700E08847828012
:101964003285814737370040A14663C3A700828090
:101974000346B740E30ED6FE3386F50010228507F2
:101984002304C740DDB7970600209386E6D1AA87D3
:101994008842171700201307E702AA9763E9E700B4
:1019A4000A87130707FC6364F7009CC282807D5595
:1019B4008280411122C406C62A8491372947B3077D
:1019C400E502B2408D83B3D7870222449507B3D78B
:1019D400E70237370040B3C707082316F740410131
:1019E4008280716541111305052006C6D937371762
:1019F40000403E2FB3C7070893F707FCB3C7070897
:101A04003EAFB7370040130710F82381E7400D4776
:101A1400A381E74013070004A380E7400547238719
:101A2400E740B2404101828032852D4605EBDC411E
:101A340098239C33A207D98F0D67130697A163914E
:101A4400C702938761809023130720036303E60092
:101A540098A39C2305479AA21CA101463285828043
:101A6400130787902946E39BE7FECC45894741113C
:101A740009469EA206C697E0FF1FE7804066B24073
:101A84000146328541018280DC41411122C406C6EF
:101A940026C203C807009C332944A207B3E7070101
:101AA4000D6813082890639407038547B284EF40B8
:101AB40060712A8409ED03A7C18811CB9C3094205E
:101AC400A207D58F93B71700138517000297B2406A
:101AD400228522449244410182805C21858BA9CFD6
:101AE400011122CC2A842A21938541A206CEEF40FB
:101AF4008068058915CD2A20014781460546ED45B4
:101B0400EF40A0232AC60DC59707002083D7A799C5
:101B14007C8485477C8583C761801CA12A2001467B
:101B24002C00EF50003E09C5ED452800EF40403839
:101B3400F24062440561828082804165411193854F
:101B440041A27D1506C6EF60002CB2409706002026
:101B54009386069241469545170500201305059284
:101B640041016F60A01F23A6A18882800947AA872C
:101B7400630CE5000D47630FE500094585EF83C756
:101B840061809CA1014582809707002083D7A78F9D
:101B94009EA1CDBF9707002083D747B1DEA1970749
:101BA40000209387A78DBA37BE3F9AA1BEA185476F
:101BB400FCA1C9BF8280938761809423130720030B
:101BC400638FE600411106C617050000130525F1D1
:101BD40098A3EF70A051B2400145410182800145B4
:101BE4008280C167F917630CF502411122C406C64D
:101BF40085472A84639AF50022852244B24093855E
:101C040041A241016F60202089476396F500854514
:101C1400EF70404875D1B2402244410182808280F5
:101C24002A8783C7818903A5C18983C6F18099E383
:101C34000145828012216315E6007021E30BD6FE74
:101C4400FD1793F7F70F2105DDB7B2862E86AA8517
:101C5400174501001305C59A6F20A15E0111930574
:101C64000003094506CEEF30E003930500050D455A
:101C7400EF3040039305C0030545EF30A0028547CC
:101C84001306F100854513055030DC87EFD0B03AD8
:101C9400F2400561828085476398F50019E223824A
:101CA400B18A2380C18A828009476395E50019E2DD
:101CB4002382F18A82808547631AF5001166130630
:101CC40086A9894503C5C18A6F10201D89476317FA
:101CD400F500894503C5C18A6F10203D828001113A
:101CE40022CC06CE83A741892E8499C79C4789C7F5
:101CF4006244F240056182876C0013057040EFC0B6
:101D04002029324622858145EFC05004F2406244C6
:101D140005618280011126CA06CE22CC4AC84EC66D
:101D240052C4AE849397556063D3070803C5C18A30
:101D3400EF0010652A8429C918219307000D631246
:101D4400F7043C214547638BE7046547639BE7023F
:101D5400174501001305058DEF20A14E130954000A
:101D64009309B400174A0100130A0A8D8345090038
:101D740052850509EF20E14CE31A39FF2945EF208C
:101D8400E14F2285EF0030541395F468F240624429
:101D9400D2444249B249224A0561828070216C31A1
:101DA400174501001305C589EF20A149D9BF93F751
:101DB400150085C317F6FF1F1306067297F5FF1F5C
:101DC4009385C57003C5C18AEFD0300213C51400D2
:101DD40075BF13F525005DD9F93B1166130686A975
:101DE400894503C5C18AEF10400B13C5240079BF90
:101DF400797122D44AD052CC06D626D24ECE56CAB7
:101E040091472A842E89138A818A631AF502BE2592
:101E14002391F18A2382018A83A7418991C7DC47F0
:101E240081C7CA852285829723208A00B250225412
:101E340092540259F249624AD24A45618280032788
:101E44000A00E31BF7FC9384218A8A208545513BD1
:101E540083DA0400C167F917639AFA02854493058B
:101E6400E100130550412382018AA387918023074F
:101E74000100EFC0E0111C87A1E303C7018A914769
:101E8400E31CF7F8E13B2380018A79B783A9C18970
:101E940083C48189E1D403D5290011C99305E100E4
:101EA400EF40300F09C54C455685EF50D075FD14F1
:101EB40093F4F40FA109F9BF83A70189DC23898B6B
:101EC400CDDF9305000A0945EF20D05D9305000A94
:101ED4000D45EF20305D81450545EF20B05C1306CC
:101EE400E1008545130550304487EFD0D01471B715
:101EF400011117050000130525E206CE22CCEF10D0
:101F0400604A1384C18A85471306F100854508A0F9
:101F140013054041DC87EFC020287D55EFD02032E7
:101F24007D55EF50306B1139170500001305E5D8C6
:101F34001D3908206244F240854505616F40810ED9
:101F440023AAB18823A8A188828023AEB188238CD8
:101F5400A1888280797106D622D426D24AD04ECE68
:101F640052CC83A7818A1147639AE70A83C7418ABF
:101F740099EB4144B2502285225492540259F249B9
:101F8400624A45618280B284B68903A4C18983C749
:101F9400818903C7F18085C354206390A60254301D
:101FA400639DB6007420639AE6002A2093056100BD
:101FB400EF40207E01E9554475BFFD1793F7F70FF5
:101FC4002104D1BF1389218A4C4503550900EF40F0
:101FD400801A05896DD1035509000147814626867B
:101FE400ED45035A0400EF3050552AC64D4459D1EB
:101FF4002686CE8523144101648597E0FF1FE78080
:10200400000E0355090001462C00EF40906F2A840E
:1020140035D1ED452800EF30B069A9BF0947E38AFF
:10202400E7F42C001305504123040100EFB050766F
:102034001C8485CB930500020945EF20B046930527
:1020440000030D45EF20104695450545EF209045CA
:10205400854730008545130550305C84EFD0A07D62
:1020640009BFED3E39B741114AC03689D44126C271
:1020740006C622C48032B284902222040D68518C98
:1020840001CF1308B8A42D4563040407B2402244C9
:1020940092440249410182809306D8A4630FD4007C
:1020A400930628A2630BD400F5789388E85CA29881
:1020B4008546B3C8080863E91603AA2595360DC1F9
:1020C40083A741892286224403A807004C31B240E9
:1020D4004821A6874A8792440249854641010288DD
:1020E4002310090001455DB71306B8A46317C402A1
:1020F40003D881811D45E37B07F9CC453308E840CB
:10210400B347F80ABA952310F90033C607082685A1
:1021140097E0FF1FE780A0FCF1B79307A8A463181A
:10212400F40091472310F9001146CC45CDB793072D
:1021340088906317F40089472310F9000946F5B71E
:102144009307E8A46318F400DC452310D9009C230A
:102154009CA049BF13087890E31604F9E9BF011164
:1021640006CE22CC26CA4AC8748763140710DC4101
:102174002E89B284803394238D672204558C9386F0
:10218400D7A46306D400938627A3631AD402035505
:10219400A900793401E90145F2406244D24442493C
:1021A4000561828083A7418903A807004C31482137
:1021B400A6871307E100814622860298F1BF938621
:1021C400C7A46312D402388785473545E316F7FC64
:1021D4001C2213050008E361F7FC03A74189584357
:1021E4003E8502974DBF93862790631DD4043487A0
:1021F4008547EF30307D4DF190309C208356A90007
:1022040022065D8E03A7C18983C78189C9D72E237E
:102214006395D50283A7418903A80700854748230E
:102224004C338D466313F60089460D66A687130763
:10223400E100130626900298B9BFFD1793F7F70F34
:102244002107E9B79387E7A4E317F4F438878547B0
:102254003545E313F7F41C2213050008E36EF7F287
:10226400D8453335F00009051CA303A74189584319
:102274008DBF2D4515B741654111938541A37D154A
:1022840006C622C426C24AC0EF50F03797F6FF1F95
:10229400938646254146C94517F5FF1F1305452575
:1022A400EF50D02B97F4FF1F93848424CC4C2A89BD
:1022B4000945EFF0BF8B138441A483D7C1805EA08E
:1022C40083D7A40C03D781805AA41EA083D7A40D5E
:1022D40003D7A410938541A53EA00D4585477CA056
:1022E4001AA47CA423150400EFF05F88A2850D4591
:1022F400A939B240224492444A850249410182806C
:102304008D679387D7A4631DF6008D472945639A8B
:10231400F500854735456396F6001C23A386F18AAC
:10232400014582808D679387D7A401456319F60020
:102334008D476396F50083C7D18A1CA305458AA2FD
:1023440001458280B287411113962500BE8506C6D9
:10235400EFF00FD1B240014541018280011122CC3E
:1023640026CA939625002A84B284AA850146054587
:1023740006CE36C6FD2BB2462686A2850945D52B48
:10238400F2406244D244014505618280411122C475
:1023940006C62E849397556063DD0700EF00407EE8
:1023A40019C1EF0040721315F468B2402244410190
:1023B400828093F7150013C51500E5FB8967ED8F3F
:1023C40099CFEF90E06E37F60200130606E08965B8
:1023D40003C5818BEF00702C1315D468F9B7116510
:1023E4006D8D61D5173501001305452AEF200107CE
:1023F40013060064916503C5818BEF00102A131541
:10240400E46865B75D715D4697350100938545289D
:10241400173501001305454A86C6A2C497E0FF1F7D
:10242400E780E0D201E9173501001305E527EF2025
:10243400E10201A0B7F700E023A40700795798CB85
:102444003D4798C393078008F3B7078093F787083D
:102454003EC001000100B717004013077005238038
:10246400E704130780FA2380E70401000100B8475A
:10247400B70600C1FD16758FB706000E558FB8C795
:10248400238007048247F3A707800100010097E730
:10249400FF1F9387471F23AAF18A130700F8B7E7A2
:1024A40000E0A38AE740130640038145680097E0F3
:1024B400FF1FE780A0C697F7FF1F9387A744056413
:1024C4003EC6930704E0FC80C9472300F102B7B776
:1024D40003003ECAB7070103938707103ECCED47BC
:1024E400FC868547230FF100970700009387C7E513
:1024F4003EDCB7F5030097070000938767E63EDEEE
:10250400814697F7FFFF938767455000E10519451A
:102514003ED6852119464C0013053102EFF0AF80F9
:10252400B24791C7BC801304F4BF6363F40001A0F5
:102534006800EF00B06AAA8501C9173501001305C8
:10254400E517EF10115001A0B64026446161828066
:102554004111170500001305A5E306C622C4EF00C8
:1025640070641384818B08A0112808202244B2408F
:1025740013060032896541016F003012397126DA81
:1025840006DE22DC4AD84ED652D493048008F3B730
:10259400048093F787083EC201000100371400400D
:1025A4009309700523003405130980FA23002405D8
:1025B400010001008347F40293E71700A307F40224
:1025C400230004049247F3A7078001000100194582
:1025D400EFE0DFFC138AC18BAA852320AA001735FC
:1025E40001001305A50FEF10D1450147814671463F
:1025F400854581471305507EEFF00F879307803E92
:10260400FC8383270A006800FC82B707C0A83EC881
:1026140097E7FF1F938767533EC697E7FF1F93878C
:1026240047543ECEEF108006F3B4048093F484083C
:1026340026C4010001002300340523002405010001
:102644000100010001008347140393E70702A30874
:10265400F40223000404A247F3A707800100010049
:10266400F2506254B7E700E03707001023A0E710E8
:10267400D2544259B259225A2161828082803D89C2
:102684007D15954763E6A70E17370100130747101A
:102694003345E5201C41011106CEBA9782872C00F0
:1026A40013054030EFD0A00C2C000545EF30A014EA
:1026B4001735010013058503EF10515AF2400561E7
:1026C4008280B8218D471735010013052503E317D0
:1026D400F7FEF24005616F107158B8219547E31F6A
:1026E400F7FCBE250D6613060620914503C5B1828D
:1026F400239DF180EF00607A173501001305050171
:10270400C9BFB8218D47173501001305E500E3174C
:10271400F7FAC1B7BC21114717350100130545016C
:10272400638CE70219476392E702EC211735010035
:102734001305C501EF10F1308547300085451305B9
:1027440050305C84EFD0200F95BF1547E396E7FE29
:102754001735010013054501EF105150F1BFF24048
:10276400AC21173501001305A50105616F10712D0A
:1027740082803688BA863E8763140800942249B65C
:1027840085476313F80079BE8947631FF800411138
:102794001306401F894503C5B18206C6EF00E06FEA
:1027A400B24001454101828001458280011122CC61
:1027B40006CE2E849397556063DD070003C5B1826E
:1027C400C12611C109261315F468F240624405615B
:1027D400828093F7150013C51500E5FB93F74500B8
:1027E40099CF83C7B1821307401F81462146A14573
:1027F40003D5A181EFC0705A13454400F9B793F78C
:1028040085009DC3014789460946814503D5A181B9
:10281400EFD00020AA85173501001305E5F8EF1065
:1028240051221345840055B713F5250059DDB70728
:1028340002009387072074001146854501453EC672
:10284400EFF04FF113060032894503C5B182B1257B
:10285400134524009DBF011117050000130545F51C
:1028640006CE22CC26CAEF00F0339384B18205440D
:1028740088A070008545130550304086EFC0B07BBA
:10288400138641829D4513056030EFC0D07A17F658
:10289400FF1F1306E6D8E94513057030EFC0B07981
:1028A400173601001306C6F1D5450145EFC050089F
:1028B4008D4770009145130570405C854084C08548
:1028C40002C6A3040100EFB0300D300085451305A6
:1028D4000040EFB0700C13069100854513051040BD
:1028E400EFB0900B1306A100854513052040EFB00F
:1028F400B00A1306B100854513055040EFB0D00966
:10290400EFF07F9797F5FF1F938585D01385C181DD
:10291400EFF00FE362448820F240D244854505611C
:102924006F3041704111114506C6EFE03FC21305F7
:10293400600497E0FF1FE78000F5B71700402147C8
:1029440023ACE70A8D452145EFE05FF3EFF06F8993
:1029540017350100130545F6EF1051306534CD3EAF
:10296400EFD0400BEFF0CFD8FD3597E0FF1FE780A5
:10297400202101112A8706CE2E8526CCB2854ACA8B
:10298400368622C637240040B7E700E0FD5603A987
:102994000700C44323A0D71823A2D7189307F7FF2F
:1029A40093F7F70F894663E0F60AB717004083C729
:1029B4005704B706040093F7070299E3B7C6030068
:1029C400F9576375D5043308C50063E106058947E3
:1029D4006314F704098297E0FF1FE780802DAA871C
:1029E40037170040930670052300D704930680FA36
:1029F4002300D70483464704C18A2302D70437E758
:102A040000E023202711232297103244F240E244AD
:102A140052493E85056182808547631FF7008567BB
:102A2400FD173E96E98F3E96FD777D8E7D8D97E06E
:102A3400FF1FE780002E65B797E0FF1FE780803413
:102A44009307150071BFB547631AF7001305900B80
:102A540097E0FF1FE7800038814759B7B1476315F6
:102A6400F7001305B00AEDB799476317F70097E02D
:102A7400FF1FE7804037CDB79D47631BF70023A0B6
:102A8400050023A2050097E0FF1FE780C03BE9B7DC
:102A940091476317F70097E0FF1FE780A03E6DBFE3
:102AA40081471DDFF1572DBF23AC05FE1C4191E783
:102AB400010001000CC18280BA8703A787FF6DFF64
:102AC40023ACB7FE8280411122C437E400E026C261
:102AD40004403707200006C6F98C2320E4180F10A1
:102AE400000009E9232094101545B2402244924481
:102AF400410182800347E5FF9307F00F6306F70067
:102B0400232094101145D5B7EF30511201452320ED
:102B14009410E1BF411126C2B7E400E04AC003A902
:102B24000400B707200006C622C43379F90023A0A5
:102B3400F4180F10000009E923A02411B240224424
:102B440092440249410182809565938505D0C98DDF
:102B54002A842105C2054205C1814181EF30A17E4D
:102B640001CDFD5723200500231285002303F50022
:102B740023A024112105D9B723A0241101457DBF29
:102B84004111B7E700E026C284433707200006C698
:102B940022C4F98C23A0E7180F1000009387018C3E
:102BA400904301440147B28789E709E8A165F52903
:102BB4002DA083C6E7FF639CA6021DCC832684FF59
:102BC400631EC40223A0D18C7D57232C04FE230F43
:102BD400E4FEE9DFA165EF30E1442285B2402244FE
:102BE400B7E700E023A0971092444101828011E0EE
:102BF4003E8783A787FF4DBF3E84E5BF232CD7FEC6
:102C0400E1B741114AC037E900E022C403240900B6
:102C14003707200006C626C2798C2320E9180F1036
:102C2400000089E523208910154515A0AA8497077B
:102C3400002083C777B02E8563F5F400854763EEE3
:102C440097005135B7E700E023A087100D45B24047
:102C54002244924402494101828083A785FF99E777
:102C640003C7E5FF9307F00F6308F700A93DB7E733
:102C740000E023A087104DBF238F95FE1385018CA0
:102C84002535A1652685EF30E139014523208910DA
:102C94007DBF23A0018C828093F7F50FA5C341115A
:102CA4004AC006C622C426C22E890147A146B3578C
:102CB400E940858B9DCF0E05B307E5003145B38709
:102CC400A7029386818C844205443314E4004204B1
:102CD4004180BE949C40C840829723A0040023A254
:102CE400040033452401B240224492440249410184
:102CF40082800507E31DD7FA0144E5B701458280C8
:102D04000111B7E700E022CC80434AC8370720000E
:102D140006CE26CA2A892E86798C23A0E7180F109E
:102D24000000131506019305F004418132C6EF300B
:102D34008161AA8419C53246CA8597D0FF1FE780EE
:102D4400003AB7E700E023A08710F24062442685EA
:102D54004249D244056182801D898545B395A50009
:102D6400C2054111C181014506C6EF30810509C57F
:102D74000845B240410182800145E5BFB7E700E064
:102D84009843B706200023A0D718758F0F100000B2
:102D94009706002083C6569A6373D5021386418C26
:102DA40093161500084293C5F5FF36958356050022
:102DB400F58D2310B50023A0E7100145828023A0E0
:102DC400E7100D458280011137E700E026CA04436D
:102DD400B706200006CE22CC4AC84EC6F58C232066
:102DE400D7180F100000130785FF1377F70F9D47BF
:102DF40063EFE708B146B306D5029387818C984305
:102E040036971C43C9C705441D893315A400131400
:102E1400050141802E890545A285EF20917AAA8972
:102E240039C9A2850545993F9387C18C9C438297F4
:102E34009707002083D7C792338727032A848146C4
:102E440013060064B3B7270313050732B335E5004F
:102E5400BE95EF106105B3078500970600209386A1
:102E6400A68F3E87D44263E4A70063E4D700338788
:102E7400D74023A4E900B7E700E023A09710014559
:102E8400F2406244D2444249B24905618280B7E7C4
:102E940000E023A097100945E5B779714AD037E9D6
:102EA40000E026D283240900B707200006D622D4E6
:102EB4004ECE52CC56CA5AC85EC6FD8C2320F91891
:102EC4000F1000009707002083C717876378F50069
:102ED4009387C18C83AB070063970B00B7E700E0CF
:102EE40023A09710A9A0170B0020130BEB86832AAD
:102EF4004B00B74736FE938707C82E8A97050020F4
:102F040083D50586BE9AB387C5022A84B2898146D1
:102F1400B3B5C50213850732B337F5001306006451
:102F2400BE95EF00717863F0AA0223209910014541
:102F3400B250225492540259F249624AD24A424B44
:102F4400B24B45618280829B9705002083D54581E1
:102F5400B38735032A89130600648146B3B5350364
:102F640013850732B337F500BE95EF00F173B3074D
:102F740025013E8903274B0063E4A70063E4E700CF
:102F84003389E740D2852285EF20B16309C9232420
:102F94002501B7E700E023A09710054551BF9365CD
:102FA40004F0C205C1814145EF30E13919E997F7D1
:102FB400FF1F938727759C5795D3A2851145829748
:102FC40031BF9387818D9C4399EF23ACA18C232639
:102FD4000500232425012311450123008500232214
:102FE400050045BFBA87D84775FFC8C7CDB7797103
:102FF400B7E700E026D284433707200006D622D460
:103004004AD04ECE52CC56CA5AC85EC662C466C2B4
:103014006AC0F98C23A0E7180F10000029CD2144C1
:10302400B689B28A2E8A2A89B14C138B818C054DBC
:10303400414CB30B940303270B005E971C43A9EF89
:1030440093757400B315BD00C2055686C18105454C
:10305400A93539C183270B00DE9723A0270123A2BA
:1030640047016384090023808900B7E700E023A0B7
:103074009710014521A023A097100945B25022546E
:1030840092540259F249624AD24A424BB24B224C00
:10309400924C024D456182800504E31C84F9B7E734
:1030A40000E023A097102145D1BF0111B7E700E04C
:1030B4004AC803A9070022CC4EC63707200006CE13
:1030C40026CAAA892E843379E90023A0E7180F10B1
:1030D4000000EF20114FAA8419C123110500A28515
:1030E4004E85693997F7FF1F83C70765639D3701CD
:1030F40097F7FF1F9387476483D767005D8C97F723
:10310400FF1F239E8762B7E700E023A02711014534
:1031140091E01945F2406244D2444249B249056102
:10312400828001114AC837E900E022CC0324090057
:10313400B707200006CE26CA4EC67D8C2320F91878
:103144000F100000BD4763E6A704B147B304F502BE
:103154009389818C83A70900A6979C439DCB937781
:1031640075008545B395F500C205C1810D81353FD4
:1031740083A709000145A69723A0070023A20700FF
:1031840023208910F2406244D2444249B249056185
:103194008280B7E700E023A087100945E5B797F7D9
:1031A400FF1F93876759944763800610411126C215
:1031B400BE849387418C8C4306C622C44AC017F64A
:1031C400FF1F03467657814763CBC70A17F7FF1FD4
:1031D4000347D769954717F9FF1F1309E96863EA9D
:1031E400E70883C7C196D1E717F4FF1F1304C45639
:1031F40058409387C18C9C43639BE6088297544054
:10320400B74736FE938707C8B6973387A7003A8532
:103214006364F7006364D7003305D740832749010B
:1032240091CB9387419794433707CDFF7D179C46F5
:10323400F98F9CC611E1484097F7FF1F9387874C8D
:10324400DC53829701ED8327490185C797E0FF1F6F
:10325400E78000CA97E0FF1FE780E0C483274901A5
:1032640089CB938741979843B70633001C47D58F82
:103274001CC7B24022449244024941018280139700
:1032840017002E97035707006DF7850735BF829700
:1032940094445840B387A6003E8563E4D700E3EF27
:1032A400E7F63385E7409DBF8280411106C623AA15
:1032B400A18C0295B24097F7FF1F23A7A7480145A9
:1032C4004101828023A6A18C0145828041111146CF
:1032D40081451385018D06C623AC018C23AA018C7C
:1032E40023A6018C97D0FF1FE78040E3130600025A
:1032F400814517F5FF1F1305254497D0FF1FE7806D
:10330400E0E1EFC0607AC14785451305001217F765
:10331400FF1F2304F742EF30010323A4A18C41C112
:10332400994717F6FF1F034646413306F6028145C7
:103334001306060C97D0FF1FE78040DE9387818C2D
:103344009C439387070C23AEF18C17F7FF1F0347A9
:10335400C73E0A07BA9723A2F18CEFF09F9309297D
:103364009387C18D984397F7FF1F83C7F73C9396C4
:103374002700BA96173601001306E6A690C2938674
:103384002700850793F7F70F8A07BA9717F6FF1FE9
:10339400A304D63A170700001307479098C3B24016
:1033A4004101828097F7FF1F83C7173917F7FF1F63
:1033B4000347A73863F1E7021387C18D1843938647
:1033C400170017F6FF1FA309D636939627003697E2
:1033D40008C33E8582809307F00FE5BF1C416388D4
:1033E4000712370700F07D8FB70600208947631165
:1033F400D71203574500630D0710411122C4194623
:103404002A849305F00F5D0506C6EF20F12C0547CD
:103414008D476309E50E1C4491C7585499477DC3F1
:1034240018586DC313064003814517F5FF1F130594
:10343400652D97D0FF1FE78060CE13064003A28559
:1034440017F5FF1F1305052C97D0FF1FE78020C930
:1034540097F7FF1F83D7C72B99E79307001017F738
:10346400FF1F2317F72A97F7FF1F83C7872A91E7C0
:10347400854717F7FF1F230EF72897F7FF1F83D7FA
:10348400672991E7ED4717F7FF1F2315F72897F7EB
:10349400FF1F83C7172891E78D4717F7FF1FA30A5C
:1034A400F72697F7FF1F83C7072791E7854717F785
:1034B400FF1F2302F72697F7FF1F83C7D72599EB32
:1034C40097F7FF1F9387072483C7F70017F7FF1F9A
:1034D400A303F72497F7FF1F83C7072491E7C9477E
:1034E40017F7FF1F230AF7228347540199E793072D
:1034F400C00317F7FF1FA301F722FD57238AF19C8E
:10350400F1338147B24022443E854101828089479C
:103514003E85828001114EC697F9FF1F9389C92306
:1035240083A7090006CE22CC26CA4AC852C4829771
:1035340013090064B335250303DA890081465286F2
:1035440033052503EF00511697F7FF1F9387C71E16
:10355400804BAA8401456306940233858440636EDC
:10356400940003A5490052868146B335A902330568
:10357400A902EF007113018D269597F7FF1F23A56C
:10358400971CF2406244D2444249B249224A05613E
:103594008280011122CC0A852E84414697250100A0
:1035A4009385C50306CEEFD01FF8180806043A9495
:1035B400035504FF97F7FF1F83D7A71AF24062440D
:1035C400AA9737450F00130505243355F502056105
:1035D400828097F7FF1F83D7C71851471D45637C27
:1035E400F702794719456378F70213072003154555
:1035F4006373F7021307B0041145637EF7001307E2
:1036040040060D456379F7001307600909456374A3
:10361400F70013B5B70F8280011122CC06CE2A849D
:103624002EC697D0FF1FE780A0A6B245F240818D39
:1036340033A5A502229562441375F50F05618280B6
:10364400011122CC06CE2A842EC697D0FF1FE78014
:1036540020A4B245F240818D33A5A502229562448F
:103664004205418105618280011122CC06CE2A8463
:103674002EC697D0FF1FE780A0A1B245F240818DEE
:1036840033B5A5022295624405618280411106C6C4
:1036940051CD1C41AA850545D9C7DC41C9C783D78B
:1036A4008500D1C383D7A500BDCF514617F5FF1FB1
:1036B4001305850A97D0FF1FE78060A297F7FF1FC5
:1036C4002382070A97F7FF1F938707098843DD3E84
:1036D40097F7FF1F83C767048DE79307006417F507
:1036E400FF1F0355E5073305F50237460F001306A0
:1036F400062481468145EF00217B97F7FF1F238E27
:10370400A70017F7FF1F03474701AD4763E7E7002B
:10371400B14717F7FF1F2302F70017050000130531
:10372400A5DF61360145B2404101828097F7FF1F52
:1037340023AE070097D7FF1F9387E7C817F7FF1F2C
:10374400232CF7007D5797F7FF1F23A9E700B787BE
:103754003200938727A197F6FF1F23A3F60097F75C
:10376400FF1F23810700B7C7004023A4E72699BFA2
:10377400011122CC17F4FF1F1304C4F8084406CE29
:1037840026CA4AC801E90545F2406244D244424986
:10379400056182805C54E5DB185875D77000854557
:1037A40082971844B247E300F7FE9305E00417F547
:1037B400FF1F0355E5F5EF20113917F7FF1F2329E4
:1037C400A7F871D117F6FF1F035686F49305F00F7F
:1037D40097D0FF1FE7808094814417F9FF1F1309D6
:1037E400A9F597F7FF1F83C7C7F20326890163CFA3
:1037F400F4003285EF209143014597F7FF1F23A979
:1038040007F497F7FF1F23A707F4BDBF97F5FF1F22
:1038140083D505F0B3879502084418588981850437
:103824003E9508C2029775BF011156C297FAFF1F51
:10383400938A4AED83A78A0022CC4AC84EC606CE94
:1038440026CA52C45AC0AA892E843289638C07209E
:1038540003A7CA02630507141307F01F6363A714C1
:1038640097F4FF1F938444ED03AA840163150A0AA5
:103874009565938515E017F5FF1F035565E9EF205E
:10388400912C97F7FF1F23A5A7EC2A86630905103F
:1038940083A7CA0203A58A0097F5FF1F83D545E7CE
:1038A4008981829783A78A0003AA840117F7FF1FDF
:1038B4002322F7EA8947639AF908C1476311F40E92
:1038C40097F5FF1F83D5C5E4938505FC9147B3C5E0
:1038D400F5028A05D29503C725009307A005631C4A
:1038E400F70A83D705006398370B4A85228691052A
:1038F40097C0FF1FE780A07E9C4C5285639F4713AF
:103904000145F2406244D2444249B249224A924AB1
:10391400024B05618280D84CE38EE7F89565938568
:1039240025E017F5FF1F0355A5DEEF20D1212A8AD4
:103934003DC52A8683A7CA0203A58A0097F5FF1FFF
:1039440083D505DD89818297B5B78D47639DF900DD
:10395400C1476316F40497F5FF1F83D565DB938590
:1039640045FDF19985BF9147639AF90063193403C2
:1039740097F5FF1F83D5C5D9A115E5B793070010A7
:10398400639FF900A14763EC870097F5FF1F83D578
:1039940025D8C115F9B79C4C52856392470D29452A
:1039A4008DB71D6A568B637D4509130A05E01947D7
:1039B400334AEA0217F7FF1F035787D597FAFF1F09
:1039C400938A8AD7330AEA023E9A83A7CA01639587
:1039D400470183A48A018DE49305E00417F5FF1FD2
:1039E400035505D3EF203116AA8455D98327CB027A
:1039F40097F5FF1F83D5C5D12A8689815285829781
:103A040091451307A005898193972500A69783C63E
:103A140027006391E60483D60700639A360385057D
:103A24008A052286A6954A8597C0FF1FE780206BEA
:103A340083A78A01E38697EC2685EF20311FC9B559
:103A440021677917E36DA7F4330A4541A5B783C508
:103A5400370055BF83A78A01E38397F42685EF20B7
:103A6400F11C35BF97F7FF1F938707CD8C4F85D97E
:103A740091479306A0058983139727002E97034641
:103A84002700E31ED6F003560700631C36018507A2
:103A94008A072286BE954A8597C0FF1FE780206467
:103AA40085B583473700C1BF97F7FF1F938787C545
:103AB400984729C79C5BB9C305476311E5044111C5
:103AC40022C417F4FF1F130424C7104C06C61DC2DA
:103AD400484C97F5FF1F83D5A5C389818297084C6D
:103AE400EF20D11497F7FF1F23A407C697F7FF1FF2
:103AF40023A207C6B2402244410182808280011180
:103B040017F7FF1F130707C04EC68329870022CC6F
:103B140026CA4AC806CE52C456C2AA842E84328902
:103B2400638709201C5BBA8A99EB2945F2406244F9
:103B3400D2444249B249224A924A056182805C5782
:103B4400EDD79307F01F63E8A70E97F9FF1F93893A
:103B5400A9BE83A78901B1CB03A58A0083A7C901A4
:103B64006393A70689476391F408C147E31FF4FAF6
:103B740017F5FF1F0355C5B99147130505FC3345D8
:103B8400F5029317250003A589012286CA853E956F
:103B94009307A0052301F50023109500110597C094
:103BA400FF1FE780C053014551B79305E00417F5A3
:103BB400FF1F0355E5B5EF20017997F7FF1F23A9F0
:103BC400A7B859F99DB783A7CA0203A6890197F537
:103BD400FF1F83D5E5B38981829783A78A0017F7EE
:103BE400FF1F2329F7B6BDBF8D47639EF400C1476D
:103BF400E31DF4F217F5FF1F035585B1130545FDC9
:103C04009377C5FF49B79147639AF400E31F94F093
:103C140017F5FF1F0355C5AF2115DDB79307001036
:103C2400E395F4F0A147E3E287F017F5FF1F03558E
:103C340025AE4115F1B79D676379F506930705E055
:103C44001947B3C7E70217F7FF1F035767AC17FA03
:103C5400FF1F130A6AAEB387E702BE9983278A015E
:103C6400A1CF8327CA016397370703258A019146A9
:103C74001308A0059305F00F93D726001397270088
:103C84002A9703462700631D060783580700034647
:103C9400370063939806B306D64063CD8604850740
:103CA4008A072286CA853E95DDBD21677917E36EB2
:103CB400A7E6B307F54041BF9305E00417F5FF1FDE
:103CC400035505A5EF20216897F7FF1F23A2A7A896
:103CD40049F9A1BD83A7CA0203268A0197F5FF1FEC
:103CE40083D505A389814E85829797F7FF1F23A368
:103CF40037A7A5BF2310B70093160601C182ADBF35
:103D0400B385860017F6FF1F035686A09105130698
:103D140006FCE3FCC5E013063400719A1106B29662
:103D24002301070123109700A301D7008DBF97F744
:103D3400FF1F938767A0944FBE89A9C203A5890179
:103D440091461308A0059305F00F93D72600139707
:103D540027002A97034627006316060583580700A1
:103D64000346370063989800B306D640E3D986F239
:103D74002310B70093160601C182C1BF8357C70041
:103D840017F5FF1F0345E5989305E0043305F50295
:103D940042054181EF20215B97F7FF1F23AAA79AD1
:103DA40051FD61B317F6FF1F0356869697F5FF1F63
:103DB40083C52596B385C502338686001106E3E6DE
:103DC400C5D691BF01458280011106CE2EC6EF50A3
:103DD400201C01C9B245F2400355250005616F80DE
:103DE400D041F240494505618280A380019023803F
:103DF400019023A8018E23AA018E23A6018E23A459
:103E0400018E97F7FF1F938767963707B40098C30F
:103E14003707A0001307070AD8C337C707001307DB
:103E240007B898C741674107D8C737077F0098CBC1
:103E3400370781FFD8CB7D57239CE700828001118F
:103E440026CAAA84214522CC06CE2E8432C636C484
:103E54003AC2EFE03FCC1DC9A2461247324693074F
:103E640000FD2300F5009947A30095002301F50008
:103E74002303D500A303E5002312C500AA852285E8
:103E84006244F240D24405616FE0BFD7F24062441D
:103E9400D2440561828023A8A18E828023AAA18EA8
:103EA4008280011122CC4AC806CE26CA2A8901443E
:103EB400B30489006368B400F2406244D2444249C6
:103EC400056182802EC697C0FF1FE780601C931790
:103ED4000501C183A183B2452380F4009307140034
:103EE40093F7F70F850463F9B700CA970904238091
:103EF400A7001374F40F6DBF3E846DBFC16717F53F
:103F0400FF1F03552589FD176302F502411103C6FE
:103F140081949385818F06C6EF40F06AB240FD57C5
:103F240017F7FF1F2318F7864101828082802390B0
:103F34000500ADC28147130E000C63FDC70433872F
:103F4400F600034807001387170042079318080177
:103F540093D808014183638F08023A98634C06039F
:103F64003388E6000348080063060802130328FCAC
:103F74001373F30F63706E021383F8FF23906500CD
:103F84006316A8001305170036958280C697C207EA
:103F9400C18365B701458280411126C2AE8422C423
:103FA40097E7FF1F23A4C77E97E7FF1F23AEB77CC5
:103FB40097E7FF1F23A8A77C2A8441469305F00FA7
:103FC40026854AC006C60549EF101171631E2503F4
:103FD40097E7FF1F9387077BC843C145D9354146FF
:103FE4009305F00F2285EF10316F85446316950217
:103FF400224497E7FF1F9387E778B240924402492F
:104004008843C145410171BD414681452685EF1074
:10401400B16CE31625FD6DBF414681452285EF1045
:10402400B16BE30795FCB24022449244024941013A
:104034008280411122C426C22E84AA8471468145FD
:1040440017E5FF1F1305057406C697C0FF1FE78019
:10405400E00C97E7FF1FA38E977223868194EF806D
:10406400501B854719C181474945B240224417E78F
:10407400FF1F230FF770924441018280814781CD55
:1040840019C98547631BF50083C7550093E707FCEF
:10409400A382F50085473E85828009478547E31C56
:1040A400E5FE03C755001377F703A382E500E5B7E0
:1040B400814781CD19C903C755009306000C854774
:1040C4001377070C6303D70089473E85828041112B
:1040D40022C4005D06C626C21DC0AA84085019C1A8
:1040E400EF20C134485019C1EF204134085419C19C
:1040F400EF20C1332285EF20613323AC0402B240A8
:10410400224492444101828009ED97E7FF1F83C74F
:10411400476817E5FF1F1305256881CB1385018EBA
:10412400828017E5FF1F13052567828017E5FF1FAF
:1041340003452566828097E7FF1F9387A76488431A
:10414400828097E7FF1F9387E763C843828097E7DE
:10415400FF1F938727639C478843828097E7FF1F4D
:104164009387476298471C4385071CC317E5FF1FC5
:10417400034535629307F00F6305F50091656F10F1
:10418400716A8280011122CC32C606CE2E84EF40A1
:10419400F06E914732466310F5029387418F9C433A
:1041A40099CB03A307006308030022856244F2400D
:1041B400B28505610283F24062440545056182804F
:1041C400011122CC2A840355450006CE26CA4AC8CA
:1041D4004EC6EF40D04B2DC52A8983440500834940
:1041E400C500F5354A85EF50C01803554400EF402B
:1041F400706483C70190A9CB6398970483C5119019
:104204002685D93619E12380019003554400EF40F7
:10421400F0669147631FF5000357440097E7FF1FBB
:1042240083D747576317F700FD5717E7FF1F23137B
:10423400F756F2406244D2444249B2490561828051
:1042440081499304F00F75B79307F00FE38FF4FAE5
:104254008346640003564400034524004E87A68524
:10426400F93E65B717E7FF1F0347B7529307F00FEF
:104274006305F706411126C2AA84294522C406C64D
:10428400EFE05F892A8429C5930700FD2300F50028
:10429400A147A30095002301F50097E7FF1F93872B
:1042A400674E83C7E7009385018E1105A30FF5FEC2
:1042B400194697C0FF1FE78080E2A2852244B240DE
:1042C400924417E5FF1F0345D54C41016FE07F93EE
:1042D400B2402244924441018280828079715EC658
:1042E400AA8B2E8552CC56CA5AC806D622D426D2B8
:1042F4004AD04ECEAE8A328B368AEF4050397DC1D9
:10430400045D2A89E5C09C50614599C313054003A7
:104314009C5481C751054205418163050A0071051A
:1043240042054181DC5081C75D0542054181EFE0D2
:104334006FFE2A8445C96146814597C0FF1FE78007
:10434400E0DD97E9FF1F83C969436394090083494A
:104354000900930700FD2300F400A947A30074019A
:104364002301F400230364018C5023125401130528
:10437400840191C908C47146930A440397C0FF1F7E
:10438400E780E0D556858C5491C948C45146930AB8
:10439400450197C0FF1FE78080D45685630C0A004F
:1043A40008C87146D285930AC50197C0FF1FE780EC
:1043B40000D35685CC5099C548C85D4697C0FF1FA9
:1043C400E780E0D1A2854E85EFE0BF832254B2504E
:1043D4009254F249624AD24A424BB24B4A8502593C
:1043E4004561F5B1B250225492540259F249624ADD
:1043F400D24A424BB24B4561828001114EC6AA8912
:104404002E854AC806CE22CC26CA2E89EF403028F3
:1044140021C997E4FF1F83C4643699E083440500EF
:104424001945EFE02FEF2A8405CD8145194697C041
:10443400FF1FE780A0CE930700FD2300F400B947D7
:10444400A30034012301F40023122401A285624451
:10445400F2404249B2492685D24405616FE06FFAC1
:10446400F2406244D2444249B249056182803971C2
:104474005ECEAA8B2E8526DA4ED652D456D25AD088
:1044840006DE22DC4AD8AE84328BB68A3A8ABE89EA
:1044940042C6EF40D01F21CD2A894145EFE08FE786
:1044A4002A8431C54146814597C0FF1FE78000C774
:1044B40017E5FF1F0345852C19E103450900930700
:1044C40000FD2300F400BD472301F400B247A3001C
:1044D40074012312940023046401A30454012305EA
:1044E4004401A30534015CC4A285EFE08FF1F250CE
:1044F4006254D2544259B259225A925A025BF24B34
:104504002161828017E7FF1F0347B7289307F00F45
:10451400630DF706411126C2AA84394522C406C692
:104524004AC0EFE02FDF2A8439C9930700FD230036
:10453400F500A30095002301050097E5FF1F93856F
:10454400A5250D05194697C0FF1FE78040B917E957
:10455400FF1F1309292383572901A2852315F4007A
:104564008347D9002306F4002244B240924402490E
:1045740017E5FF1F0345F52141016FE08FE8B240C5
:1045840022449244024941018280828001115AC02E
:104594002A8B314526CA4EC652C456C206CE22CCF8
:1045A4004AC8AE84B28A368ABA89EFE0AFD63DC52E
:1045B4002A842685EF40B00D29CD03C9D194631C0C
:1045C4000B009387C19B9C439C4791C7CE86528620
:1045D400D68526858297930700FD2300F4009D4726
:1045E400A30064012301F400231294002313540153
:1045F4002314440123153401A2856244F240D244B9
:10460400B249224A924A024B4A85424905616FE007
:104614004FDF17E9FF1F0349D91775BFF240624402
:10462400D2444249B249224A924A024B05618280ED
:10463400011122CC2A84214506CE2EC6EFE08FCD6F
:1046440021C1B245930700FD2300F500C5472301AE
:10465400F50083C73500A301F50083D74500231275
:10466400F50083C765002303F50083C77500AA8599
:10467400A303F50022856244F24005616FE06FD820
:10468400F240624405618280397162CC2A8C5945BA
:1046940026DA4AD84ED652D456D25AD05ECE06DE48
:1046A40022DCAE8432C636C4BA8B3E8BC28A468ABA
:1046B4008359010403494104EFE0CFC525C93246BB
:1046C400930700FDA2462300F5009547A301C5000A
:1046D400A30085012301F5002A8419461105A9C206
:1046E400B68597C0FF1FE780809F23066401230AD5
:1046F4002401231574012317540123184401231999
:104704003401A2856254F2504259B259225A925A43
:10471400025BF24B624C2685D25421616FE06FCE6E
:10472400814597C0FF1FE780609FC1B7F250625474
:10473400D2544259B259225A925A025BF24B624CF9
:104744002161828097E7FF1F83C7A7048DCB4111A6
:10475400AA8519461385018E06C697C0FF1FE780F8
:1047640000989385018E17E5FF1F03458502EFF03E
:10477400FF90B2401385018E41016F80002E0145E8
:104784008280797126D206D622D44AD04ECE52CC1B
:10479400894449C52A84035505002E8AD144EF4033
:1047A400006F2A8925CD1C5DC544ADEB91659385C9
:1047B40045711305C002EF101139232CA902AA89EF
:1047C400CD4429CD1306C002814597C0FF1FE78061
:1047D400E094835704009386490036852391F900B9
:1047E40071469305440036C697C0FF1FE780208FAB
:1047F40089472380F900B2460356040083C5819497
:104804000145EF50A04EAA8463060A00D2854A856A
:10481400EF40905A81C44A85EFF07F8BB250225406
:10482400268502599254F249624A4561828039CA06
:10483400411122C426C24AC006C6B2842E89EF4062
:1048440000652A84D1470DC5485519C1EF10113EA2
:10485400F1452685EFE0CFCA48D4CD4711C9834737
:104864004400630E090093E767002302F4008147C4
:10487400B2402244924402493E854101828093E73A
:104884004700E5B789473E858280AD4763EBA700C3
:1048940097E7FF1F938787ED06053E9503550500AF
:1048A400828041657D158280011122CC2A842E8567
:1048B40026CA06CEAE84EF40805D1DCDB7470F00FB
:1048C4009387F723094563E4870281450A854146B6
:1048D40097C0FF1FE7808084A685231081000A8586
:1048E400418023018100A3010100EF50C033F24055
:1048F4006244D244056182804945D5BF2385A19491
:104904008280797152CC2A8A328522D426D24AD026
:104914004ECE56CA5AC85EC606D662C4AE8BB28A9A
:10492400368BBA843E89C2894684EF40405615C905
:104934002A8C63140A0213774B008347450015CF72
:1049440093E727012302FC008DEC631C0902639AA0
:10495400090205E8ED9B2302FC00832B8C03639B77
:104964000B06B250225492540259F249624AD24A76
:10497400424BB24B224C45618280F59B93E7070181
:10498400D1B793E747002302FC0001CC1C48414601
:10499400A2852324FC0213058C0197B0FF1FE78036
:1049A4000074639F0B00D5D80325CC0219C1EF1006
:1049B400F127F1452685EFE0AFB42326AC0271BFA1
:1049C400E30D09F80325CC0219C1EF103126F14596
:1049D4004A85D5B78DC483A70B0289EB916593856E
:1049E40035717145EF10311623A0AB0203A50B02FC
:1049F40019C57146A68597B0FF1FE780406E638690
:104A0400090283A74B0289EB9165938525715D4566
:104A1400EF10711323A2AB0203A54B0219C55D4627
:104A2400CE8597B0FF1FE780806B0DC483A78B02F0
:104A340089EB9165938515715145EF10D11023A42D
:104A4400AB0203A58B0219C55146A28597B0FF1F7F
:104A5400E780E0682254B2509254F249B24B224C9F
:104A6400CA865A860259424BD6855285D24A624A30
:104A740045616FF0BF86011126CA52C406CE22CC0E
:104A84004AC84EC62A8AAE84EF40604025C5AA892A
:104A94003945EFE02F882A8431CD17E9FF1F0349F8
:104AA400E9CD6314090003C909009307000D23101D
:104AB400F400AD472301F400938569001305340025
:104AC400194697B0FF1FE780806193F71400858033
:104AD40085882306F400A306940023154401A285C7
:104AE4006244F240D244B249224A4A8542490561AD
:104AF4006FE02F91F2406244D2444249B249224AC3
:104B0400056182809387818E884311C9411106C64D
:104B1400EF10D111B24023A4018E41018280828022
:104B2400011106CE22CC26CA4AC82EC6EF40203632
:104B340039CDB24517E9FF1F034949C4AA840CD5EE
:104B440063140900034905004145EFD0BFFC2A84E2
:104B54001DCD9307000D2310F500A5472301F50093
:104B640083C75400938564001105A30FF5FE19460D
:104B740097B0FF1FE780A0569C54A285F2405CC406
:104B84006244D2444A85424905616FE08F87F2400E
:104B94006244D244424905618280C16717E8FF1F1D
:104BA400035848BFFD17630AF8024111239CB18ED4
:104BB400239DC18E9385818F03C6819406C6239F4E
:104BC400E18E239ED18EEF400020B240FD5717E7BF
:104BD400FF1F2311F7BC410182808280797122D4A6
:104BE40006D62A842EC6EF40802A05CD8346C5000A
:104BF4001147AA8749456392E6029C5FB24599C36F
:104C040083C567012308B100975600009386665E4A
:104C1400100889452285EF403011B2502254456175
:104C240082805145DDBF31C6411122C426C24AC02B
:104C340006C6B2842E89EF4080252A84514505C4D6
:104C4400630809008347440093E727002302F40024
:104C5400130584014146A68597B0FF1FE7802048CD
:104C64009C4801451CD4B24022449244024941016B
:104C7400828009458280797122D406D62A842EC680
:104C8400EF40E02001CDB2452285230EB1006C082F
:104C9400EF40100FB2502254456182805145DDBF70
:104CA4006F4000342D47AA876361A70241677D17CF
:104CB4000945638DE50017E5FF1F130525AB86073E
:104CC400AA972390B700014582800945828001118B
:104CD40022CC06CE26CA4AC8114609446392C502AC
:104CE4003EC63A89B684EFF0CFB42A84324609E945
:104CF400CA852685EFF04FAAEF00F05FEF00503C25
:104D04002285F2406244D2444249056182804111C5
:104D140006C622C426C22A8497E4FF1F938484A66D
:104D2400EFF0AF8CEF00703CEFA05020268581455A
:104D3400714697B0FF1FE780603E930700F023970A
:104D4400F4007D57938781942381E70023808700B3
:104D540022852244B2409244954541016F30206C33
:104D64001D7193970501CAC886CEA2CCA6CACEC629
:104D7400D2C4D6C2DAC05EDE62DC66DAC1872E89AE
:104D840063D5074403C58194EFD09FDF8964C1696B
:104D9400056A797B2A84938BD400FD19250A130CA8
:104DA400ABFF0DE021653345A900F6406644D644C7
:104DB4004649B649264A964A064BF25B625CD25C87
:104DC40025618280834704001307200A639DE7005E
:104DD4000355240097EAFF1F83CABA9B2286CE8517
:104DE400EFF04FBA85A21307100983CAA1946399FF
:104DF400E73A834714001547639EE7002285EFF0E6
:104E04002FBC2285EFD03FCC03C58194EFD05FD770
:104E14002A8441BF3947639AE71283574400639B4E
:104E240047050C4483CC0500639D0C00850591C99E
:104E3400194617E5FF1F1305259697B0FF1FE78056
:104E4400002A17E7FF1F0347A7948547631AF7341F
:104E5400638A0C0097E7FF1F238C07926685EFF0A7
:104E64006FEA45B7894717E7FF1F2303F792EF70EF
:104E7400903C41BF13872400639AE706832C840087
:104E840063800C3283C70C008DE383C72C0003C7F7
:104E94001C00A207D98F17E7FF1F231EF78E83C7B5
:104EA4003C0017E7FF1FA305F78E17E7FF1F034713
:104EB400278E89476316F72E83C70C0081CB97E7AB
:104EC400FF1F2387078C03C50C0051BF8D4797E54F
:104ED400FF1F83C5F58B17E5FF1F0355C58B17E728
:104EE400FF1F2307F78AEF308056F1BF1387540062
:104EF4006398E7001C4403C50700EFF0AFB611B791
:104F04003387870142074183914663F3E60213071F
:104F1400ABFCBA97C207C18371476363F7283707AD
:104F240000181307F770B357F700858B638A0726B9
:104F34009387018F9C43E38607EC9C43E38307EC50
:104F440022858297E31F05EAA1AC3D476390E704FD
:104F540083574400E38777EB13879401E383E7EAFD
:104F640013873401639EE72297E7FF1F83D7878265
:104F7400E38937E99387418F9C43E38407E89C43A3
:104F8400E38107E8A2853A8582976DBF1307E003A2
:104F94006398E7208347240005476396E70C9387CB
:104FA400018F9C4397DCFF1F83CCBC7E91C7DC43FD
:104FB40081C781450145829703457400930A8400A3
:104FC400D685EFF0EF8E83474401A303A4008358F2
:104FD40004010358E400035744002A8603453400BF
:104FE4003EC283572401D686E6853EC09147EFF042
:104FF400AFE98347340095E7DD478358040103583C
:10500400E40083467400835544003EC28357240160
:10501400568705463EC066859147EF40601BA30155
:10502400A4009387818E9C4381C71145EFF09FAD07
:1050340003C50190E30705DC83C51190EFE0DFD8D9
:10504400E30105DC8346340093071003638AF6000A
:1050540003564400114783C501903685EFE03FDED7
:105064002380019079BB29476399E7089387018FCF
:105074009C4397DAFF1F83CADA7191C7DC4381C767
:105084008145014582970345740093068400937714
:105094002500A1CF13761500930C44018347040225
:1050A4008358C4010358A401035744000345340042
:1050B4003EC28357E401D6853EC09147EFF0CFDC72
:1050C40083473400B9FFDD478358C4010358A40162
:1050D40083467400835544003EC28357E4016687C7
:1050E40005463EC0568591470DBFB68536CEEFE0E6
:1050F4003FFCF2462A86B68C55B70D476397E70006
:1051040022868D4503554400E1B919476395E706A6
:105114006C1013051031EFA080659305E1021305AF
:105124002031EFA0C064035664008357E1020355A5
:10513400440063E8C700835684000357C10263F741
:10514400E60093050002EF70902265B96374E600EF
:105154002313E40063F4D7002314F4000357C400BA
:105164008356A40003568400835564000148814794
:10517400EF70F01C79B11D476384E70231476395F2
:10518400E7002286B145BDBF49476394E702938790
:10519400018F9C4391C7DC4381C7814505458297B4
:1051A4009307F00FE38FFAC4A2855685EFD07FA54D
:1051B400A1B94D47E396E7FE9387018F9C43EDD356
:1051C400DC43F9DFA2850945D9BF93F725000145E2
:1051D400E38D07BC9387018F9C4391C7DC4381C750
:1051E40081450545829713452900C1B61D71A6CA9C
:1051F4009384C18E9840A2CC86CECAC8CEC605443C
:1052040041C30345370097D7FF1F83C78758B33778
:10521400F000930547003EDEEFE05FE698402ADCAD
:105224000945834527002EDAEFF02FE62AD80D45ED
:10523400EFF0AFE584402AD6254503C7A40083C90F
:10524400B4003AD4EFF06FE42A892945EFF0EFE394
:1052540062096258F2572257B2564256D255137514
:10526400F50F135989412ACC22C402CA02C802C6C6
:105274004AC24EC0938844000545EF7070162A84D4
:105284002285F6406644D6444649B6492561828063
:105294009387C18E884311C9411106C6EF100119C5
:1052A400B24023A6018E410182808280011122CC6A
:1052B40006CE8D472E846316F50603C73500E947ED
:1052C40003D545006318F70097D7FF1F83D7874C92
:1052D4006385A706EF30B03B09C5835764002317E5
:1052E400F5000357A40083568400035664008355D5
:1052F400440003453400EFF06FA90357440097D7E7
:10530400FF1F83D727496308F7008547F2406244AB
:105314003E8505618280FD5717D7FF1F231CF74682
:10532400EDB78967CD07631DF50083C725003147B5
:105334006385E7004547E39AE7FCEFE03FBCF1B73C
:10534400B1476317F50003C5D194EFF06FAE75BF95
:1053540041677D178147E31BE5FA83C6550049473A
:10536400E396E6FA83C54500035524003000231470
:105374000100EF30302451BF411122C406C626C2B9
:1053840083C721901307E00F2E846383E704130778
:10539400F00F6387E7021145EFD0CFF715C19307EC
:1053A40000FD2300F50089472301F5008547A3008C
:1053B4008500A301F500AA8503C52190EFD07F8461
:1053C400F9572381F190B2402244924441018280F2
:1053D400AA841145EFD00FF47DD5930700FD230077
:1053E400F5008947A30085002301F500A30195007A
:1053F4002244B2409244AA8503C5319041016FD042
:105404005F8001114AC81389C18E8327090006CE23
:1054140022CC26CAC9EBAE849165A381A1902A84CB
:10542400938575713145EF001172AA8723A6A18E69
:105434004D45B9C323808700A38007001385270047
:105444002946A68597B0FF1FE78060C98327090016
:10545400914603C7270063ECE6000DE74D4723811F
:10546400E70003C72700136707012381E700BD3B5B
:1054740001C52AC6313D3245F2406244D244424914
:105484000561828085466314D7007547C9BF894684
:105494006314D7004947E1B78D466314D7004147E9
:1054A4007DBF55476DBF4545C1BF011126CA9384D1
:1054B400C18E9C4022CC06CE49449DCF83C70700B1
:1054C4000D44639BA702894503C58194EFD0FFBDBA
:1054D400914503C58194EFD05FBD9C40014781464F
:1054E400A38087001306F100854785450145A3077E
:1054F400F100EF7080782A842285F2406244D2441D
:105504000561828041114AC006C61389C18E22C436
:1055140026C2054783270900631BE500D1CB22443B
:10552400B2409244024903C507004101BDBFC9C34B
:105534008947AE846312F5062D45EFD0AFDD2A848A
:1055440025C9930700FD2300F500E547A3000500E6
:105554002301F50083C7340015051946230FF5FE12
:1055640083C7440093855400A30FF5FE97B0FF1F33
:10557400E780E0B603C5D1949307F00F6316F500F6
:105584008327090003C50700A2852244B240924440
:10559400024941016FD0EFE6894503C58194EFD0FC
:1055A400DFB02244B2409244024941016FF05FCE21
:1055B400B24022449244024941018280FD4763FC87
:1055C400A700094582800945F2406244D244424919
:1055D400B249056182804DC1011122CC2A84210582
:1055E4004EC64205AE8991659385657141814AC86D
:1055F40006CE26CAEF0031552A8971D5938481904D
:10560400884019C1EF009162130589002320A90085
:105614002286814523A4219197B0FF1FE78000B023
:105624009C402286CE85884397B0FF1FE78020AB3D
:105634009C40239287009387C18E9C4395CB83C75C
:10564400C194918B85CB938781909C4399CF984348
:1056540083D647006244F240D2444249B2490546E7
:105664008D45054505616F70C05C01478146DDB716
:10567400014599BF494589BF9387C18E9C439DC30A
:1056840083C7C194918B8DC3938781909C4381CBB5
:10569400984383D6470005468D450545E9B701473C
:1056A4008146D5BF0145828049458280FD4763FC20
:1056B400A700094582800945F2406244D244424928
:1056C400B249056182804DC1011122CC2A84210591
:1056D4004EC64205AE8991659385557141814AC88C
:1056E40006CE26CAEF0031462A8971D59384C1902B
:1056F400884019C1EF009153130589002320A900A4
:105704002286814523A6219197B0FF1FE78000A13F
:105714009C402286CE85884397B0FF1FE780209C5B
:105724009C40239287009387C18E9C4395CB83C76B
:10573400C194918B85CB9387C1909C4399CF984317
:1057440083D647006244F240D2444249B2490546F6
:105754008D45054505616F70005001478146DDB7F1
:10576400014599BF494589BF9387C18E9C439DC319
:1057740083C7C194918B8DC39387C1909C4381CB84
:10578400984383D6470005468D450545E9B701474B
:105794008146D5BF014582804945828093878190A7
:1057A4009C4391CF03D647008C43411106C697B062
:1057B400FF1FE780C092B240014541018280094544
:1057C4008280938781909C4385C79387C190984337
:1057D400894705C3035647000C43411106C697B0D9
:1057E400FF1FE780C08FB24081473E854101828020
:1057F40089473E858280011106CE22CC26CA4AC83A
:10580400894763FAA70009442285F2406244D244DE
:1058140042490561828017D7FF1F034767F78D4709
:105824004144E313F7FE9307F5FF93F7F70F05479A
:105834002A8417D9FF1F0349C9F56368F700AE84AA
:105844008DE999452800EFE0CFE5914503C58194A2
:1058540097D7FF1F238F87F2EFD03F8555D42800B9
:10586400EFE05FEE2A844DD197D7FF1F238327F300
:1058740061BF19468145280097B0FF1FE780008A61
:1058840019462C00268597B0FF1FE780408C25FD24
:1058940019469305F00F280097B0FF1FE780008892
:1058A40019462C00268597B0FF1FE780408A21FD0A
:1058B4001946A685280097B0FF1FE780408271B77C
:1058C40083C7C194918B99CF41111385419006C62A
:1058D400EFE0CFDCB240FD5717D7FF1F231CF7EAD8
:1058E4004101828001456FE06FDBFD57A381F19098
:1058F400F9572381F19023A4019023A6019097D70F
:10590400FF1F9387E7E9170700001307C70798C32A
:1059140017070000130747BFD8C317070000130772
:10592400278D98C7970700009387879823A2F19043
:105934008280411126C29384C18E9C4006C622C433
:1059440085CF2A840D45EFD0EF9CAA8519CD930706
:1059540000FD2300F5008D47A30085002301F50019
:105964009C4003C50700EFD0CFA919C42244B2401C
:10597400924441016FF0DF91B240224492444101CC
:105984008280835645000111896706CE22CC26CA3F
:105994004AC8138767036390E6021C45014583C523
:1059A4000700EFF07F9D8547F2406244D2444249AC
:1059B4003E8505618280138777036397E6001C4563
:1059C400054583C50700F1BF138787036393E60882
:1059D4001C451307E00F03C4070083C72190638E9F
:1059E400E7021307F00F6386E7021145EFD08F92A9
:1059F400AA8505C1930700FD2300F5008947A3008C
:105A040085002301F500A301050003C52190EFD013
:105A14004F9FF9572381F19079B79387C18E9843AB
:105A2400814759D305E4854723170100A300F700F4
:105A34009306E1001307D100700085450545230650
:105A4400F100A3060100EF704023B1BF2285D535D4
:105A540099BF138797038147E398E6F41384C18EB3
:105A64001840228931D31C450347170083C407001B
:105A740085476308F7020D45EFD0CF89AA8519CD74
:105A8400930700FD2300F5009147A300950023012F
:105A9400F5001C4003C50700EFD0AF96EFF04FFFB1
:105AA40019B7938781909C4395E30145EFE0FFDDAF
:105AB40019C52A86894503C58194EFD00FBE832773
:105AC400090009472685A380E70051B7944303D60C
:105AD40047009305E1000545EFE06FC579D583479D
