:040000006F00C07756
:1000040000000000000000006C0B0000DE03002074
:10001400A9BDF9F36C0B0000000000000000000013
:100024006C0B00006C0B00000000000000000000DE
:100034006C0B0000000000006C0B000000000000CE
:10004400000000006C0B0000000000006C0B0000BE
:100054006C0B00006C0B00006C0B00000000000037
:100064006C0B0000000000000000000008010020EC
:100074006C0B00006C0B00006C0B00006C0B0000A0
:10008400000000006C0B0000000000006C0B00007E
:100094004111114506C622C4970000E0E780E079CB
:1000A40013056004ED28B7170040214723ACE70A85
:1000B40085451145970000E0E780207D8D45214569
:1000C400970000E0E780607C971000E0E780E08C18
:1000D400D145170500001305656A971000E0E78015
:1000E4002090170400001304646B2285971000E02D
:1000F400E78040919377F50FEDDBBE85228597105D
:1001040000E0E780E08DD5B73737004083474740AC
:100114009946BD8B638CD70231474111638CE70448
:1001240011476392E702A307010097050000938536
:1001340065663737004097060000938626669C87DD
:1001440090216319F6004101730020308347574022
:10015400730020309C8703468740B69790A39C8702
:10016400B6979C232304F7409C87850793F7F70FE2
:10017400DC87F1B71705000013054562971000E00E
:10018400E78040881375F50FC8878C871705000032
:100194001305C560971000E0E78080846DB793076E
:1001A400000C01116314F50493078008F3B707806A
:1001B40093F787083EC001000100B71700401307FA
:1001C40070052380E704130780FA2380E704010005
:1001D400010098271367070C98A723800704824718
:1001E400F3A707800100010005618280B717004072
:1001F400B827118B69EB83C6E7041307800893F6CD
:10020400F60F733607801376860832C201000100A8
:100214001308700523800705930580FA2380B7042B
:100224000100010003C6E704136636002387C704F0
:10023400B02713664600B0A723800704124673262E
:1002440006800100010090271376F60F73370780AC
:10025400137787083AC4010001002380070523802F
:10026400B7040100010098271367070C98A723809F
:100274000704A247F3A7078001000100A547010076
:10028400FD1793F7F70FE5FF93078008F3B707808F
:1002940093F787083EC601000100B7170040130713
:1002A40070052380E704130780FA2380E704010024
:1002B400010090A72387D70423800704B247F3A73C
:1002C4000780010001009377050C1307000463996C
:1002D400E70893078008F3B7078093F787083EC8B9
:1002E40001000100B7170040130770052380E704DD
:1002F400130780FA2380E70401000100B82785462C
:1003040013670701B8A737270040A303D7808346A4
:10031400578093E60601A302D78023800704C247CF
:10032400F3A707800100010093078008F3B7078053
:1003340093F787083ECE01000100B717004013076A
:1003440070052380E704130780FA2380E704010083
:1003540001001375F50F88A723800704F24749B5F8
:100364009377F5019DCF93078008F3B7078093F740
:1003740087083ECA01000100B71700401307700543
:100384002380E704130780FA2380E70401000100B7
:10039400372700408946A303D78023800704D24728
:1003A40041B793078008F3B7078093F787083ECCDB
:1003B40001000100B7170040130770052380E7040C
:1003C400130780FA2380E704010001003727004067
:1003D4009D46A303D78023800704E24791B74111C8
:1003E4008146014681451145970000E0E78080631E
:1003F40013078008F337078093F787083EC401008A
:100404000100B7170040130670052380C704930644
:1004140080FA2380D70401000100FD55CEB7238064
:100424000704A245F3A50580010001007337078086
:10043400137787083AC6010001002380C70423808C
:10044400D7040100010003C767041367170023835F
:10045400E70423800704B247F3A7078001000100E3
:1004640001A0230304801547A2872303E48001002D
:1004740001002302A48003C7678062076187E34CFD
:1004840007FE2382A780228783476780E207E187EC
:10049400E3CC07FE82802303048015472303E48012
:1004A400010001002302A480828083076480E3CEDC
:1004B40007FE23030480828083076480E3CE07FE63
:1004C40003454480828083076480E3CE07FE2302D1
:1004D400A4808280411126C44AC24EC006C6137746
:1004E400F50BAD47AA892E8995446306F700194593
:1004F4005D37653F8D444E85793FFD59FD14639802
:100504003401B240A2441249824941018280135508
:1005140009011375F50F453F2209CDB7011126CC0A
:1005240006CEB704080051371545B537713769371A
:100534002AC6A53F32459377150089EB136515004C
:100544001375F50FF240E24405618280FD14E9FC65
:100554000145CDBF411106C6B7170040130770050A
:100564002380E704130780FA2380E70403C74704C2
:100574001305F00F1367070E2382E7049147230343
:10058400F480C535B24041010DB7011126CC4ACAE9
:100594004EC852C606CE2A89AE89B284554A5D3FFA
:1005A40091E82137F24026855249E244C249324A51
:1005B40005618280CA850945313F910903A7C9FFB6
:1005C40091472320E48003076480E34E07FE23035E
:1005D4004481FD17EDFBFD14110981C49377F90FD4
:1005E400E9FF2D3F55FDFD5475BF011126CC4ACAC4
:1005F4004EC852C656C45AC206CE2A89328A8D497A
:10060400913FC164C16A056B9387F4FFB3F7270177
:1006140099E363719A02FD199180E39709FE71359C
:100624000145F240E2445249C249324AA24A124BBD
:10063400056182801305800D63885401130500024F
:100644006384640113051008CA856935C13D09C571
:100654002699330A9A4075BF7D55E1B7011106CE3C
:1006640026CC4ACAB2844EC82AC62E89E5353245FC
:10067400FD14FD59AA852D45B13D639A34013535E4
:10068400F24026855249E244C249056182802D35F3
:1006940093F7340091EB8326048003270900930722
:1006A4004900E39EE6FC3E89FD14C1BF011106CE5C
:1006B4002AC64D353245C533F2400561FDB30111FB
:1006C40006CE26CC4ACA4EC852C6AA8956C42E891A
:1006D4005135B7050400B3E5B9002D45E53B814428
:1006E4008D4A214AD13B63965401832704802320F9
:1006F400F9008504E39844FF8327048013972901B4
:10070400635C07002312F900F240E2445249C249F3
:10071400324AA24A056151BB2322F900F5B74111BF
:1007240006C626C44AC24EC0AE892D35814513057E
:10073400B0044D33BD447D59413393F77400CE97D3
:1007440003C70700FD14398D2380A700E39624FF17
:10075400B240A24412498249410181BB411106C6FB
:10076400D53B13056006053B8933130590092533F2
:08077400B24041011DBB000071
:10077C009711002093814181173100201301C1870B
:10078C001305400097050020938505871706002068
:10079C00130606FE63FAC5008322050023A055004C
:1007AC0011059105E3EAC5FE170500001305C53BCD
:1007BC00970500209385C5FB170600201306C6FC81
:1007CC0063FAC5008322050023A05500110591058D
:1007DC00E3EAC5FE17050020130505FB9385C186CA
:1007EC006377B500232005001105E36DB5FE930278
:1007FC005002739002BC8D4273904280854273907C
:10080C0012BC930280087390023097F2FF1F938200
:10081C00A27E93E2320073905230970200209382B2
:10082C00A286739012347300203037170040834730
:10083C00E70412054111BD8BC98F93F7F70F93068F
:10084C008008F3B6068093F6860836C601000100D0
:10085C00930670052300D704930680FA2300D7046F
:10086C00010001002307F70423000704B247F3A794
:10087C0007800100010041018280914763ECB704BD
:10088C00970700009387C72CB3C5F52098413E9776
:10089C00B71700409387470B0287944337170040E4
:1008AC00B3F6A64094C39306070B9C42B3F7A7403C
:1008BC0019A8944337170040B3F6A64094C3930687
:1008CC00070B9C42C98F9CC29307070A9843337746
:1008DC00A74098C38280944337170040C98ED9B77C
:1008EC0098433377A74098C3B71700409387070AFC
:1008FC009843498FF9BF9843498FF5B7B717004014
:10090C0098279306000C1377070C6317D70017056D
:10091C0000200325A5E7828098279306000413770F
:10092C00070C6310D702942713070002FD8A99C2A3
:10093C0098277D8B3745C323130505603345E502A6
:10094C008280942713070002FD8A99C298277D8B19
:10095C003755E80113050580D5B7411122C406C6E9
:10096C002A84693F2947B307E502B2408D83B3D788
:10097C00870222449507B3D7E70237370040B3C745
:10098C0007082316F7404101828071654111130558
:10099C00052006C6D937371700403E2FB3C70708C6
:1009AC0093F707FCB3C707083EAFB73700401307F0
:1009BC0010F82381E7400D47A381E740130700049B
:1009CC00A380E74005472387E740B240410182807E
:1009DC00AA95B73700402147B73600406313B500DE
:1009EC00828003C6B740E30BE6FE10210505238485
:1009FC00C640EDB78147373700408346A74081E6B4
:100A0C0033C50708828003468740B306F500850787
:100A1C0090A2E5B701112A8706CE2E8526CCB28589
:100A2C004ACA368622C637240040B7E700E0FD5696
:100A3C0003A90700C44323A0D71823A2D7189307F0
:100A4C00F7FF93F7F70F894663E0F60AB7170040F4
:100A5C0083C75704B706040093F7070299E3B7C698
:100A6C000300F9576375D5043308C50063E1060527
:100A7C0089476314F704098297000020E78060B06F
:100A8C00AA8737170040930670052300D7049306F6
:100A9C0080FA2300D70483464704C18A2302D70473
:100AAC0037E700E023202711232297103244F2402D
:100ABC00E24452493E85056182808547631FF700F9
:100ACC008567FD173E96E98F3E96FD777D8E7D8D71
:100ADC0097000020E780E0B065B797000020E78022
:100AEC0060B79307150071BFB547631AF70013057C
:100AFC00900B97000020E780E0BA814759B7B147C7
:100B0C006315F7001305B00AEDB799476317F700A3
:100B1C0097000020E78020BACDB79D47631BF700F4
:100B2C0023A0050023A2050097000020E780A0BEAB
:100B3C00E9B791476317F70097000020E78080C161
:100B4C006DBF81471DDFF1572DBF00004EFDFFFF2C
:100B5C0066FDFFFF8AFDFFFF94FDFFFFAAFDFFFF6F
:020B6C0001A0E6
:100B700054686973206973206120747820657861F6
:080B80006D0D0A0000000000E9
:00000001FF
