:040000006F00C0715C
:1000040000000000000000004847000046030020F4
:10001400A9BDF9F3484700000000000000000000FB
:1000240048470000484700000000000000000000AE
:10003400484700000000000048470000000000009E
:10004400000000004847000000000000484700008E
:1000540048470000484700004847000000000000EF
:10006400484700000000000000000000484700006E
:100074004847000048470000484700004847000040
:10008400000000004847000000000000484700004E
:100094009307000C01116316F50493078008F3B766
:1000A400078093F787083EC001000100B71700409E
:1000B400130770052380E704130780FA2380E704FD
:1000C4000100010003C787001367070C2384E700BE
:1000D400238007048247F3A707800100010005611C
:1000E4008280B717004003C7A700118B79EF83C63E
:1000F400E7041307800893F6F60F73360780137628
:10010400860832C201000100130870052380070528
:10011400930580FA2380B7040100010003C6E704B5
:10012400136636002387C70403C6A7001366460078
:100134002385C70023800704124673260680010026
:10014400010003C687001376F60F73370780137711
:1001540087083AC401000100238007052380B704FF
:100164000100010003C787001367070C2384E7001D
:1001740023800704A247F3A7078001000100A547D5
:100184000100FD1793F7F70FE5FF93078008F3B716
:10019400078093F787083EC601000100B7170040A7
:1001A400130770052380E704130780FA2380E7040C
:1001B400010001002384C7002387D7042380070498
:1001C400B247F3A70780010001009377050C1307DA
:1001D4000004639CE70893078008F3B7078093F74C
:1001E40087083EC801000100B717004013077005D7
:1001F4002380E704130780FA2380E7040100010049
:1002040003C7A7008546136707012385E70037273F
:100214000040A303D7808346578093E60601A302D8
:10022400D78023800704C247F3A707800100010099
:1002340093078008F3B7078093F787083ECE010041
:100244000100B7170040130770052380E704130764
:1002540080FA2380E704010001001375F50F23845D
:10026400A70023800704F247BDB59377F5019DCF1E
:1002740093078008F3B7078093F787083ECA010005
:100284000100B7170040130770052380E704130724
:1002940080FA2380E70401000100372700408946E3
:1002A400A303D78023800704D247BDBF93078008E8
:1002B400F3B7078093F787083ECC01000100B71716
:1002C4000040130770052380E704130780FA238096
:1002D400E70401000100372700409D46A303D780AF
:1002E40023800704E24789B701118146014681450D
:1002F400114506CE971000E0E78020389307800868
:10030400F3B7078093F787083EC601000100B717CB
:100314000040130770052380E704130780FA238045
:10032400E7040100010003C7670413671700238370
:10033400E70423800704B247F3A707800100010004
:10034400F240056182804111814601468145114593
:10035400971000E0E780603213078008F3370780C6
:1003640093F787083EC401000100B7170040130645
:1003740070052380C704930680FA2380D704010004
:100384000100FD552396B70223800704A245F3A577
:1003940005800100010073370780137787083AC688
:1003A400010001002380C7042380D7040100010059
:1003B40003C76704136717002383E7042380070434
:1003C400B247F3A707800100010001A0E547330508
:1003D400F50201007D1575FD8280411122C406C617
:1003E4002A841305803E7D14D5373344040875F8F8
:1003F400B2402244410182802E96AA870F70B678BB
:100404008280230304801547A2872303E48001002C
:1004140001002302A48003C7678062076187E34C5D
:1004240007FE2382A780228783476780E207E1874C
:10043400E3CC07FE82802303048015472303E48072
:10044400010001002302A480828083076480E3CE3C
:1004540007FE23030480828083076480E3CE07FEC3
:1004640003454480828083076480E3CE07FE230231
:10047400A4808280411126C44AC24EC006C61377A6
:10048400F50BAD47AA892E8995446306F7001945F3
:100494005D37653F8D444E85793FFD59FD14639862
:1004A4003401B240A2441249824941018280135569
:1004B40009011375F50F453F2209CDB7011126CC6B
:1004C40006CEB704080051371545B537713769377B
:1004D4002AC6A53F32459377150089EB13651500AD
:1004E4001375F50FF240E24405618280FD14E9FCC6
:1004F4000145CDBF411106C6B7170040130770056B
:100504002380E704130780FA2380E70403C7470422
:100514001305F00F1367070E2382E70491472303A3
:10052400F480C535B24041010DB7011126CC4ACA49
:100534004EC852C606CE2A89AE89B284554A5D3F5A
:1005440091E82137F24026855249E244C249324AB1
:1005540005618280CA850945313F910903A7C9FF16
:1005640091472320E48003076480E34E07FE2303BE
:100574004481FD17EDFBFD14110981C49377F90F34
:10058400E9FF2D3F55FDFD5475BF011126CC4ACA24
:100594004EC852C656C45AC206CE2A89328A8D49DA
:1005A400913FC164C16A056B9387F4FFB3F72701D8
:1005B40099E363719A02FD199180E39709FE7135FD
:1005C4000145F240E2445249C249324AA24A124B1E
:1005D400056182801305800D6388540113050002B0
:1005E4006384640113051008CA856935C13D09C5D2
:1005F4002699330A9A4075BF7D55E1B7011106CE9D
:1006040026CC4ACAB2844EC82AC62E89E53532455C
:10061400FD14FD59AA852D45B13D639A3401353544
:10062400F24026855249E244C249056182802D3553
:1006340093F7340091EB8326048003270900930782
:100644004900E39EE6FC3E89FD14C1BF011106CEBC
:100654002AC64D353245C533F2400561FDB301115B
:1006640006CE26CC4ACA4EC852C6AA8956C42E897A
:100674005135B7050400B3E5B9002D45E53B814488
:100684008D4A214AD13B6396540183270480232059
:10069400F9008504E39844FF832704801397290114
:1006A400635C07002312F900F240E2445249C24954
:1006B400324AA24A056151BB2322F900F5B7411120
:1006C40006C626C44AC24EC0AE892D3581451305DF
:1006D400B0044D33BD447D59413393F77400CE9734
:1006E40003C70700FD14398D2380A700E39624FF78
:1006F400B240A24412498249410181BB411106C65C
:10070400D53B13056006053B893313059009253352
:08071400B24041011DBB0000D1
:10071C00971100209381C185173100201301C18DE1
:10072C0013054000970500209385058D17060020C2
:10073C00130606FE63FAC5008322050023A05500AC
:10074C0011059105E3EAC5FE17450000130585FF69
:10075C00970500209385C5FB1386418363FAC5007A
:10076C008322050023A0550011059105E3EAC5FE7F
:10077C00138541839385C1C36377B500232005009E
:10078C001105E36DB5FE93025002739002BC8D42CD
:10079C00739042808542739012BC930280087390D0
:1007AC000230970200209382228593E232007390EC
:1007BC005230970200009382E2047390123473005B
:1007CC0020302A8309CA83830500230073007D1619
:1007DC00050385056DFA82802A8311C62300B300B8
:1007EC007D16050365FE828019C94111AA8517453E
:1007FC000000130565C606C6EF20F00101A082803B
:10080C005D71114586C6A2C4A6C252DC56DA5AD80E
:10081C005ED662D4CAC04EDE66D26AD06ECE512984
:10082C001305600497000020E78000863714004011
:10083C0021479307840B98C38D452145D921352534
:10084C008345140417450000130585C28964EF2005
:10085C00807C9387C18923AEF1829387C18523ACB9
:10086C00F182EF00B044C526174500001305C5C141
:10087C0023800184054BEF20301D138A0184938A59
:10088C0081BE974B0000938B2BBE138C81BF93843E
:10089C0004713787004083476700858B8DE783475A
:1008AC000A00638B07121305800C238001849700C8
:1008BC000020E78000B2EF00304509CD174500005D
:1008CC00130585C9FDA823036701CD2BD547E31874
:1008DC00F5FCD1BF17450000130505BCEF20D01661
:1008EC0091472380FA00294417450000130505BDE4
:1008FC00EF209015EF10B014AA8509CD2AC67D14EF
:10090C001305200397000020E780A0AC1374F40FAC
:10091C00B24579F803C70A00914763F9E70A17450E
:10092C0000001305A5BAEF203012974500009385FF
:10093C0065BA1385C1ADEF20F011EF20401193077C
:10094C00300B5E89631CF50017450000130585B953
:10095C00EF20900F17490000130949B1CA851745BC
:10096C000000130565BAEF20006B01449389C1ADFB
:10097C00FD5C130D2004930D3004CA854E85EF20C9
:10098C00700D4E85EF20300E4E95230095012320DF
:10099C008C00EF20C00B6300A5036317B503A28581
:1009AC001386C1AD17450000130505B70504EF20EC
:1009BC008066E31494FCEF20A05B17450000130540
:1009CC0025B7EF20700809A80535F5B717450000C5
:1009DC001305C5B6EF2020641305400697000020D0
:1009EC00E780209F0545912B6DB56F00D01A79716A
:1009FC0022D426D24AD04ECE52CC56CA5AC85EC643
:100A0C0062C466C26AC006D6AA842E89814C13843D
:100A1C00C1859389D1C2130C00F8138A81C1A94AEC
:100A2C00130B8002938B41BE138D01BF83C709004A
:100A3C004A8523068401B397F40013D78700230457
:100A4C00F400A304E40013D70701E183A305F40029
:100A5C0083470A002305E40023075401A306F4008E
:100A6C002386018683A70B00A3076401A30B9400C4
:100A7C0013D78701A308E40013D707012309E40067
:100A8C0013D78700230AF400A309E400A388018686
:100A9C0023890186238A0186EF00307183470D007C
:100AAC0013F5F70F89CF6685EF10203C2300AD00BE
:100ABC0083470D009DC303450D001375F50FB25010
:100ACC00225492540259F249624AD24A424BB24BD6
:100ADC00224C924C024D45618280850C93FCFC0F9C
:100AEC008D47E395FCF4FD472300FD007D45C1BF18
:100AFC00397122DC26DA4AD84ED652D456D25AD084
:100B0C005ECE62CC66CA6EC606DE6AC8AA842E8920
:100B1C00814C1384C185138AD1C2938A81C1294C1B
:100B2C00130BA002938B41BE938D01BF8D4983475C
:100B3C000A004A8523078401B397F40013D7870072
:100B4C002304F400A304E40013D70701E183A305F5
:100B5C00F4002384018683C70A002305E400A3075D
:100B6C006401A306F4002386018683A70B00A30B64
:100B7C00940013D78701A308E40013D707012309B6
:100B8C00E40013D78700230AF400A309E400A38828
:100B9C00018623890186238A0186EF00106183C7B1
:100BAC000D0013FDF70F9DE71305800C9700002037
:100BBC00E7804081F2506254D2544259B259225AC1
:100BCC00925A025BF24B624CD24CB24D6A85424D4A
:100BDC00216182806685EF1040292380AD0083C798
:100BEC000D0091C703CD0D00137DFD0FE1B7850CF2
:100BFC0093FCFC0FE39D3CF3FD472380FD007D4DF2
:100C0C0055BF3787004083473700094693F7F707EE
:100C1C00A301F700834757000347370093F7F70FFB
:100C2C009376F70F631BC70013F7170019C7918B47
:100C3C0099C32384D1BE0145828085472384F1BEAC
:100C4C00594582808280411106C6EF00D0553D4740
:100C5C009307F00F637BA70497070020938707BFC8
:100C6C0023A8F1BC23ACF1BA238401BEA547A3860B
:100C7C00F1C293070020239EF1BE23A601C0930767
:100C8C0000042399F1C0B78700401387C70123A63E
:100C9C00E1BC1387870123AAE1C21387C702A1070E
:100CAC0023A6E1BA23ACF1BC8147B2403E85410199
:100CBC008280371700408347E70412054111BD8B32
:100CCC00C98F93F7F70F93068008F3B6068093F657
:100CDC00860836C601000100930670052300D70470
:100CEC00930680FA2300D704010001002307F704C0
:100CFC0023000704B247F3A707800100010041015C
:100D0C008280914763ECB704974700009387C786AE
:100D1C00B3C5F52098413E97B71700409387470B12
:100D2C000287944337170040B3F6A64094C393064A
:100D3C00070B9C42B3F7A74019A894433717004000
:100D4C00B3F6A64094C39306070B9C42C98F9CC272
:100D5C009307070A98433377A74098C3828094433C
:100D6C0037170040C98ED9B798433377A74098C33B
:100D7C00B71700409387070A9843498FF9BF9843E8
:100D8C00498FF5B7B717004003C787009306000CCF
:100D9C001377070C6315D70003A54183828003C723
:100DAC008700930600041377070C6312D70283C6DF
:100DBC00870013070002FD8A81C603C787007D8B5D
:100DCC003745C323130505603345E502828083C68E
:100DDC00870013070002FD8A81C603C787007D8B3D
:100DEC003755E80113050580C5B73285814737377C
:100DFC000040A14663C3A70082800346B740E30EC0
:100E0C00D6FE3386F5000346060085072304C7404B
:100E1C00D5B7970600209386A695AA878842138794
:100E2C00C1C3AA9763E9E7000A87130707FC636449
:100E3C00F7009CC282807D558280411122C406C677
:100E4C002A8489372947B307E502B2408D83B3D78B
:100E5C00870222449507B3D7E70237370040B3C760
:100E6C0007082316F7404101828071654111130573
:100E7C00052006C6D937371700408357A701B3C7DB
:100E8C00070893F707FCB3C70708231DF700B7370C
:100E9C000040130710F82381E7400D47A381E7407A
:100EAC0013070004A380E74005472387E740B240BF
:100EBC004101828085472384F1BE8280411106C6A0
:100ECC003787004003455700938781BE05891DC9AC
:100EDC0003C6070085466307D60003471700014584
:100EEC00058B11EF05472380E7001735000013052C
:100EFC00E56909472380E700EF2000355545B240EE
:100F0C004101828083C607000547E37AD7FE173577
:100F1C000000130565682380E700EF20E032594597
:100F2C00F9BF37870040834737001375F50793F7F0
:100F3C000708C98FA301F700828082804111A14765
:100F4C00014506C622C4A380F18437840040D13FFA
:100F5C00834714003D4593F7E70FA300F400834744
:100F6C00140093F7970F93E72700A300F40097F072
:100F7C00FF1FE7800046834714001305A00F93F76B
:100F8C00D70FA300F40097F0FF1FE780A04385471D
:100F9C002303F400B24022444101828003C781BE86
:100FAC00854763E5E70089472384F1BEB787004096
:100FBC0003C757005945058B01CB03C717000145E3
:100FCC0013671700A380E7008280397122DC26DAD0
:100FDC004AD84ED652D456D25AD05ECE62CC66CABD
:100FEC006AC86EC606DEB78700402387B70237890A
:100FFC000040AA8932842385B702935A4500814464
:10100C00930B6900094C894C054A554D138B81BED5
:10101C00FD5D2304390323809B011307003283C633
:10102C000B00898A89E67D17334707086DFB23047B
:10103C00090203C70B00098B3DCF03C70B00058BBF
:10104C0015C723804B019D3D6314A5012380418569
:10105C0003470B00630E470B03470B00630C870B16
:10106C001305800C97F0FF1FE780C03503C70B00FA
:10107C00098B41CF034779001377070451EF0345E0
:10108C00790039473D89630BE5082947631DE50065
:10109C0049C87D576303E4007D143D4597F0FF1F5D
:1010AC00E7804032BDB72547638CEA02354763853C
:1010BC00EA0263834A031305E00FF2506254D254E0
:1010CC004259B259225A925A025BF24B624CD24CA0
:1010DC00424DB24D2161828019C913650502F1BFE1
:1010EC000567130797803357A700058B7DD73D45C0
:1010FC0097F0FF1FE780002D850493F4F40F8D47C4
:10110C00E399F4F0130500024DBF2380BB01C5B772
:10111C00594565B7554555B7014545B71305E00227
:10112C0069BF1305A00251BF011126CA4AC8AE847B
:10113C002A891305800C06CE22CC4EC652C456C248
:10114C005AC097F0FF1FE780E02799C02380040066
:10115C0037840040A147096A2306F40213060A717A
:10116C0081451305000D9535631E0516930700FD8B
:10117C002307F4022305F40285472306F402938A1D
:10118C00818383A70A00173500001305A54103C40A
:10119C00770003C767002204598CA285EF10B06753
:1011AC0063000410630E090E83A70A0017350000B4
:1011BC001305454083C50700EF10F06583A70A00AF
:1011CC008387070063C90706138B1184B789004016
:1011DC00130A0A711305800C97F0FF1FE780801E1D
:1011EC0083470B006374F4009377F40F2386F902A2
:1011FC00814703C7C9026395E71283C5E90252868A
:10120C004145E13365E183C7C902B307F44033C4F8
:10121C00070881C883C7C90203C70400BA97238093
:10122C00F4004DF883C50400173500001305C539CB
:10123C00EF10705EB5A0B7890040130A0A71938A4B
:10124C00C183138B11841305800C97F0FF1FE7806B
:10125C00601783C5A902528613050009BD3359E1F5
:10126C0003C789009377F40F6376870083C78900DF
:10127C0093F7F70F1D8C3344040891C403C7040083
:10128C003E972380E40001479376F70F6396D706C9
:10129C003E9983C78900A5EFB787004023860702D4
:1012AC001305800C97F0FF1FE780C011B787004033
:1012BC0083C7C702414599C3130500090966130684
:1012CC0006719305000C113311EDB787004003C76D
:1012DC00C7021375F70F19C783C7870013F5F70FEC
:1012EC0091C35D45F2406244D2444249B249224A1C
:1012FC00924A024B0561828083A60A00BA9603C605
:10130C000600B306E90005072380C600B5BF834776
:10131C000B0003C78900FD17F98FBDFF0DF4ADBF9E
:10132C0003A70A008346090005093E978507230099
:10133C00D70093F7F70F75BD814793858183A1463D
:10134C003307F5000346070098413E972300C7007A
:10135C008507E397D7FE8280011122CC06CEA147E8
:10136C0013858182138411842300F400F1379305D3
:10137C00F1001385C1B24D3B19E90347F10083C756
:10138C0031B32300F400C54763E3E7005D45F24049
:10139C0062440561828001111385018206CE22CC44
:1013AC0026CA593F9305F1001385C1B2B53B2A8477
:1013BC0025E10347F1008D475D4463FBE70493840B
:1013CC00C1B203C4340083C72400138501822204F4
:1013DC005D8CA30781008D3783A7818323838700CE
:1013EC00A38307009305F10026853D3B2A840DE17C
:1013FC000347F1009307000463F4E700A307F1002F
:10140C000346F1009385C1B21385C185EFF06FBB24
:10141C00F24022856244D24405618280411126C289
:10142C00AA841385818106C622C4393783A7818398
:10143C0023819700A381070081450145F5312A845A
:10144C0001E92685F93C294597F0FF1FE78060F8F4
:10145C00B24022852244924441018280411122C42F
:10146C002A841385018106C6C13D83A7818323810C
:10147C0087002244B240A381070081450145410108
:10148C0065B1411122C42A8417F5FF1F1305C52E1F
:10149C0006C65D3583A78183238287002244B24030
:1014AC00A3820700814501454101BDB9B7870040C2
:1014BC00130700F82380E700A3800700A38107002F
:1014CC0013078004A386E70003D7C183239CE7009E
:1014DC0003D78183239EE700238507022387070216
:1014EC00130790F82380E700130700042383E70217
:1014FC007D572383E70005472384E1BE0D472381F5
:10150C00E700238001848280011117350000130548
:10151C00650C06CE22CC26CA4AC84EC652C4EF1061
:10152C00B052293C8144014413094006054597F00B
:10153C00FF1FE78000EA9D3401E9850493F4F40F62
:10154C006366990E0544DDB705041374F40FE31FAD
:10155C0024FDEFF03F96173500001305A50BEF1097
:10156C00B04E59445DA8B387840083C507005285EB
:10157C000504EF10502A1374F40FE36624FF294579
:10158C00EF10502D83D7840003C9A1814A85239283
:10159C00F90083D7A40003CA44002393F900BD3D8E
:1015AC002A8405E11735000013054504A3802901A1
:1015BC00EF107026CD332A841739000013098902E5
:1015CC000DC9A2851735000013054503EF10B02493
:1015DC00894705452384F1BEEFF03F963DA8B387BC
:1015EC00840083C507004A850504EF10D0221374CC
:1015FC00F40F83D72400E364F4FE2945EF10902503
:10160C001304B00F631B0A0003C7E400A147631661
:10161C00F70091472384F1BE0144F24022856244D5
:10162C00D2444249B249224A056182809389C1B1B0
:10163C0003C52900EFF07F90173500001305050056
:10164C00EF10701D113B2A842DFD9387818203C9F5
:10165C00770003C767009384C1B222093369E9009C
:10166C00173A0000130A0AF809BF01112A8706CE9F
:10167C002E8526CCB2854ACA368622C6372400402F
:10168C00B7E700E0FD5603A90700C44323A0D71811
:10169C0023A2D7189307F7FF93F7F70F894663E058
:1016AC00F60AB717004083C75704B706040093F730
:1016BC00070299E3B7C60300F9576375D5043308DD
:1016CC00C50063E1060589476314F704098297F0A6
:1016DC00FF1FE78000E5AA873717004093067005C7
:1016EC002300D704930680FA2300D70483464704CB
:1016FC00C18A2302D70437E700E0232027112322D5
:10170C0097103244F240E24452493E850561828092
:10171C008547631FF7008567FD173E96E98F3E9658
:10172C00FD777D8E7D8D97F0FF1FE78080E565B797
:10173C0097F0FF1FE78000EC9307150071BFB547CA
:10174C00631AF7001305900B97F0FF1FE78080EFEB
:10175C00814759B7B1476315F7001305B00AEDB7C8
:10176C0099476317F70097F0FF1FE780C0EECDB7DE
:10177C009D47631BF70023A0050023A2050097F0EB
:10178C00FF1FE78040F3E9B791476317F70097F025
:10179C00FF1FE78020F66DBF81471DDFF1572DBF7E
:1017AC004111094506C622C426C297F0FF1FE780E7
:1017BC0040C283C701BFA38DF1C2EFF08FC4AA87CB
:1017CC0025E903C781BE8D469307300863F2E60610
:1017DC0083C681C313061002238EC1847D56938762
:1017EC00C185A38EC18423810700A38107002382B6
:1017FC00D700A382070023830700A383070081453A
:10180C00EFF09F922388A1BE5947AA876302E50295
:10181C0003C5C1BD3D89B53103C5C1C23D89136541
:10182C000508853183C7B1C3A38D01C22388F1BEDE
:10183C00B240224492443E854101828041110547C9
:10184C0006C62384E1BEEFF0CFBB19E113053008C7
:10185C00B24041018280411122C483A741BE03A73B
:10186C0001C206C601456384E70283A581BB03A7B9
:10187C0001BD23A0F1C26308B7020545EFF02F9715
:10188C002388A1BE09E903C501BF1375F50FB2404A
:10189C002244410182807D5723A8E1C223A0E1C2EA
:1018AC00238E01BACDB7054523A8F1C2EFF02F94D2
:1018BC002388A1BE69D9C5B7411122C483A741BEF3
:1018CC0003A701C306C601456384E70283A501BDD6
:1018DC0003A781BB23A8F1C26308B7020545EFF04B
:1018EC000F912388A1BE09E903C501BF1375F50F3C
:1018FC00B2402244410182807D5723A8E1C223A03B
:10190C00E1C2238E01BACDB7054523A0F1C2EFF099
:10191C000F8E2388A1BE69D9C5B783A741BE83A505
:10192C0081BB411103A701BD22C406C623A0F1C28D
:10193C006305B7020545EFF0AF9B2388A1BE01C933
:10194C007D5723A8E1C223A0E1C2238E01BAB24085
:10195C00224403C501BF4101828023A8F1C2D9BF33
:10196C0083A741BE83A501BD411103A781BB22C43E
:10197C0006C623A8F1C26305B7020545EFF04F97E1
:10198C002388A1BE01C97D5723A8E1C223A0E1C2CF
:10199C00238E01BAB240224403C501BF41018280AB
:1019AC0023A0F1C2D9BF41458280797126D2130799
:1019BC00500556CA238EE18413073005A38EE184AB
:1019CC0083A7C1BA13072004238FE18413073004C3
:1019DC0022D44AD04ECE52CCA38FE18406D67D477A
:1019EC005AC85EC662C42390E7002A8483C5B1C37B
:1019FC0003C5C1BD37060200EFF02FDD2388A1BE61
:101A0C005947630FE514938BC18515CD9387C18519
:101A1C009384C18798439107D8CFE39D97FE4933B0
:101A2C00DE879853910723AEE7FEE39C97FE83C5B0
:101A3C00B1C303C5C1BD37060200EFF00FD923882F
:101A4C00A1BE631B051683C49B0003C68B0083C712
:101A5C00AB0003C7B1C383C6BB00A204D18CC207C1
:101A6C00C58F1347070493948601A38DE1C2DD8CC7
:101A7C00638404108386CB0083D721C163D406080A
:101A8C00138BC18991A000C383C5B1C303C5C1C267
:101A9C0037060200EFF06FD32388A1BE631E051436
:101AAC0003C7B1C383A681BD83D721C113470708E0
:101ABC00A38DE1C283D6060063E1F4189D8C639E6E
:101ACC00D7143E94638B041403A741C3E3FDF4FACB
:101ADC002320670155BF23A088002390F60083D7ED
:101AEC0021C19D8C3E94EFF04FCE2388A1BE2DE1F9
:101AFC0003C7B1C313470704A38DE1C26386040E69
:101B0C0083D721C103C8C1BDBA853706020083A89B
:101B1C00C1BC83A6C1BA4285E3FFF4FA23A07801C5
:101B2C0023909600814703460400B386770185070E
:101B3C00C2072380C600C1830504E39697FE3706CF
:101B4C000200BA854285EFF04FC82388A1BE79C93F
:101B5C0003A7C1BC9307E00223207701630FF506AE
:101B6C00B250225492540259F249624AD24A424B20
:101B7C00B24B224C4561828003C5C1C237060200BC
:101B8C00BA85EFF08FC42388A1BE79F983C7B1C39E
:101B9C0003A781BD93C707F8A38DF1C2FD47238826
:101BAC00F1BE03570700B5476314F70203C5818ADA
:101BBC0029C1854763FEA7002254B25092540259A2
:101BCC00F249624AD24A424BB24B224C4561C9BEE1
:101BDC0003C501BF1375F50F61B703C5C1BD3D89C1
:101BEC00EFF03F8A03C7B1C383A7C1BC23A0770121
:101BFC0061B7238801BEADB783A641C31307E002CA
:101C0C0023A06601E31EE5F403C5C1C23D8913653B
:101C1C000508EFF01F8703C7B1C383A741C323A0F7
:101C2C00670199BF03C7B1C383A7C1BC134707049E
:101C3C00A38DE1C223A0770181B763E5D402F1DE65
:101C4C009387F6FFC207C1838507A2975A878346FD
:101C5C00070005040507A30FD4FEE39A87FE03C70C
:101C6C00B1C365BF93960401C182D9BF4111294507
:101C7C0006C697E0FF1FE780C07503C781C1938735
:101C8C00C185A386E700C94619472384D70023875B
:101C9C00E700930600F80D47A387E700A38407002D
:101CAC00494723850700A38507002386D7001385A2
:101CBC00C187A389E70023880700A388070023892D
:101CCC000700238A0700A38A0700238B0700A38B36
:101CDC000700238C0700D139154597E0FF1FE780DB
:101CEC00406F83C701BF014593F7F70F81CF03C541
:101CFC0001BFD9471375F50F6309F500D547630C80
:101D0C00F5000145B2404101828005472384E1BEC4
:101D1C0023A601C0C5BF09472384E1BEE5B73971CD
:101D2C00A54722DCA386F1C2BD472384F1BC26DA89
:101D3C004AD84ED652D456D25AD05ECE62CC66CA4F
:101D4C006AC86EC606DE938DC185938481BC214B17
:101D5C00930A00F8130A5002A949854C4D4D81A0F5
:101D6C0063FADC0A6308A70BA380E400013703C500
:101D7C0081BC03C7140072057D85137585F71305A7
:101D8C00850C2388E1BE97E0FF1FE780806403C7C2
:101D9C0081BC7D171377F70F2384E1BC25CF03C7D4
:101DAC0081C11385C18723846D01A386ED00A384B3
:101DBC000D0023850D00A3850D0023865D01A387EF
:101DCC004D0123880D00A3880D0023890D00238A63
:101DDC000D00A38A0D00238B0D00A38B0D00238C0B
:101DEC000D0023873D01A3890D00C13603C701BF38
:101DFC001377F70F9306B7FE93F6F60F35F383C7F9
:101E0C006D0211476382E70421476384E70441476D
:101E1C006388E70403C7D1C28547B397E700C207BD
:101E2C00C183F2506254239EF1BE03C51400425983
:101E3C00D254B259225A925A025BF24B624CD24C97
:101E4C00424DB24D21618280A38631C3930700407D
:101E5C00C9BFAD47A386F1C2856793870780D1B709
:101E6C00B147A386F1C285676DBF411126C2AA8412
:101E7C00054506C622C497E0FF1FE78080558547BD
:101E8C0063F3970683C781BEC94693F7F70F638840
:101E9C00D700C14663F8F6002384D1BE21A0954734
:101EAC002384F1BE83C701BF93F7F70FAD1793F7E8
:101EBC00F70F05476374F700553B05C1094597E0DB
:101ECC00FF1FE780005103C501BFD9471375F50FFC
:101EDC00630CF502D5476303F504B24022449244E7
:101EEC0001454101828083C701BF93F7F70FDDFCE9
:101EFC00094597E0FF1FE780C04D03C501BFD947D7
:101F0C001375F50FE318F5FCB24022440547238402
:101F1C00E1BE23A601C0924441018280B24022441A
:101F2C0009472384E1BE92444101828039716EC617
:101F3C0006DE22DC26DA4AD84ED652D456D25AD0F5
:101F4C005ECE62CC66CA6AC8EFE0BFCBAA8D71E9DF
:101F5C0083C781BE0D476376F70E91472384F1BE8C
:101F6C00EFE0BFA82388A1BEAA8D45ED938CC18557
:101F7C0083C6EC002147639DE60C03C6FC0023805E
:101F8C0001C099466315D60085462380D1C003C78E
:101F9C007C0183C5BC0003C66C0183C6EC0103C87D
:101FAC00DC0103D321C12207A206238CB1C2518FBD
:101FBC00238401BCB3E6060103C64C0183C5BC01F6
:101FCC0003C8C1BD03CEC1C2631067086206618637
:101FDC001373F600634606081368030101460543B4
:101FEC006390E6201397850161879376F700138B36
:101FFC0081BC6346070809472384E1BCA300BB00EE
:10200C0013E806016311061A238E01BD61A083C675
:10201C0001BF1306E0026300D62203C701BF937D04
:10202C00F70FF25062546E85D2544259B259225A6B
:10203C00925A025BF24B624CD24C424DB24D216132
:10204C008280930D3008F1BF138981BCA300C900B5
:10205C00FD472388F1BE03C701BF937DF70FD1B7AE
:10206C00136E030905460143E38EE6F6938781BCA4
:10207C002384C1BCA380B7002386C1C3D1BF93E620
:10208C0006F909472384E1BCA300BB002386D1C217
:10209C00E31C03F603C55C00EFF04FBC2388A1BE24
:1020AC00AA8D41F183C681C3130610FA03A501BDA5
:1020BC00238EC1847956A38EC184854A938591BCA5
:1020CC00238401BC23810C00A3810C002382DC003F
:1020DC00A3820C0023835C01A3830C00EFF0CF845C
:1020EC002388A1BE0DF583461B006398560183A679
:1020FC0001BD83C606002384D1BC154597E0FF1FA4
:10210C00E780202DFD5623A8D1C223A0D1C203A560
:10211C0001BD238E01BAA38D01C2238C01C00146DF
:10212C00130C4002930B00F8194BC94A130A4002D6
:10213C00A386CC0023848C01A3840C0023850C0083
:10214C00A3850C0023867C0123876C01A3875C018B
:10215C0023880C00A3880C0023890C00A3894C0154
:10216C00238A0C00A38A0C00238B0C00A38B0C007D
:10217C00238C0C00EFF07F8383C601BF054693F6DA
:10218C00F60F8DE683C681BCB9C283C681C1A1E2BC
:10219C0003A501BD954783460500639AF602854762
:1021AC00238CF1C071B72386C1C3B9BD83C681BC72
:1021BC00A9C283C681C18947138616001376F60F10
:1021CC0063E9D702238CC1C003A501BD95B783C7B2
:1021DC0081BE8D4663F1F60495472384F1BE91B51B
:1021EC00938781BC238461BCA380B700238E01BD7F
:1021FC0085B56254238C01C0F250D2544259B25965
:10220C00225A925A025BF24B624CD24C424DB24D66
:10221C000545216199B96254F250D2544259B259D0
:10222C00225A925A025BF24B624CD24C424DB24D46
:10223C0021616FF0AFE00145EFF0AFA47DBD41111E
:10224C0026C222C406C623AE01ACEFE09F9B2A84B3
:10225C0041E183C781BE11476372F7089387C1853B
:10226C0003C781C123840700A386E7001947A38411
:10227C00070023850700A385070023860700238713
:10228C00E7001385C187A387070023880700A3886D
:10229C00070023890700A3890700238A0700A38A64
:1022AC000700238B0700A38B0700238C0700EFF09C
:1022BC00CFEF83C701BF93F7F70F99CB83C701BF4C
:1022CC002384F1BCEFF09F9A03C481BC238881BEA8
:1022DC002285B2402244924441018280813919C93D
:1022EC001305000497E0FF1FE780A00E813119C190
:1022FC002A84F9BFEFF0BFA205E59387C18503C619
:10230C00170283C5070283C6270203C737022206BA
:10231C004D8EC206D18E6207558F23AEE1AC89B7C4
:10232C0003C401BF1374F40F65B783C781BE397141
:10233C0006DE22DC26DA4AD84ED652D456D25AD0F1
:10234C005ECE62CC66CA6AC86EC611476374F73833
:10235C0003A7C1C0FD5723A8F1C223A0F1C2238E4D
:10236C0001BAB7573412937607FF93870767638ACE
:10237C00F6369384C1BEA3800400238801C0A38CCD
:10238C0001C223AC01BE2D6A130A5AA5138D81BC60
:10239C0023A201BE930B900E930D0004EFF0CFD14E
:1023AC006314051283C6140003A601BD99E6834786
:1023BC00060093F7D70F638B77178357E61F639845
:1023CC00473183CE01C12386D1BF638FBE2F938744
:1023DC00EE1BB29783C5A70003C7B70003C88700DD
:1023EC0003C59700A301ED00238401BDA300AD003C
:1023FC002301BD0083A581BC83C74700154723A2D9
:10240C00B1BE2384F1BC6387E72A3D476384E72A86
:10241C007687014F01433545054E1548BD489DA0B3
:10242C0083C781BCFD1793F7F70F930F07019382B6
:10243C00F6FF6367F500637EDE0E93F6F20F054F31
:10244C0013F7FF0F9307E71BB2976306B70B03C392
:10245C00A70083C5B70083CF970023016D00A301AC
:10246C00BD00A300FD0183C5870083C7470005435A
:10247C002384B1BC83A581BC2384F1BC638F070189
:10248C00638D1701939F870193DF8F4193F7F703B8
:10249C00E3D80FF82384F1BC71B723A2B1BE630457
:1024AC000F00A380D4002386E1BE83A781BF83C61F
:1024BC0091C3BE9523A2B1BEE39206EE4107A38C55
:1024CC00E1C223ACB1BEF9B5EFF08FADEFF03F85B3
:1024DC00EFF08FBEE30805ECF2506254D25442592F
:1024EC00B259225A925A025BF24B624CD24C424D78
:1024FC00B24D216182806304030023A2B1BE630448
:10250C000F00A380D40083C791C313070004238654
:10251C00E1BE638B071A63990E1A03C71400238854
:10252C00F1C023AC01BEBD47E314F7E683A541BE61
:10253C0005A06302031E23A2B1BE63040F00A38097
:10254C00D4002386E1BE83A701C3BE9523A2B1BEEE
:10255C0023A6B1C0EFF04FB641F183A501BD13071F
:10256C00900E83C7050093F7D70F6390E71A83C7C4
:10257C00D500139787012388F1C061876342071840
:10258C0019478607238AE1BA93F7F70F01451947D4
:10259C0093968701E1861306F7FF860763C706103B
:1025AC001377F60F93F7F70F05457DF38547238ACD
:1025BC0001BA2388F1C003D5650123AAA1BE01E5A8
:1025CC00C85123AAA1BE83C7450103C63501A20782
:1025DC00D18F23AAF1BC81E79C5123AAF1BC03C67D
:1025EC00250183C8150183D6C1BF03C3D1C22206FE
:1025FC0033661601958283D8E500B296FD16130654
:10260C00B3FFB3D6C6403386160103CF05012A9615
:10261C0023A0D1BC23A011BF23A4C1BC8946630D48
:10262C00DF0823AA01BE83A641BE918F33D7E700F2
:10263C00369623A2C1C223AEE1C0C167D11763EBAA
:10264C00E704239B01C08567D11763EBE7060547B9
:10265C00A38EE1BA6383080283A701BC99CF854797
:10266C006305FF0083A741BF89CB03C5B50011E506
:10267C0003C7C500854763E5E70A83C71400C9EBA8
:10268C008547A380F400238801C0A38C01C223AC2E
:10269C0001BED5B9DC5503D6050323A0F1BC239BA1
:1026AC00C1C00D47A38EE1BA75B7E30605F0238AC6
:1026BC00E1BA11B77687D5BB2A9623A4C1BCA5B7BE
:1026CC000947A38EE1BA79B71305200931B5130573
:1026DC00100919B5EFF09F85E31005E0EFF02FE43A
:1026EC0085B93D8B9384C1BEA380E400238801C0CF
:1026FC00A38C01C223AC01BEBD47E316F7C83DB5A0
:10270C001D47238AE1BA1D477DB51305100AE9B3AD
:10271C001305300AD1B3E3080FE2A380D40025B52A
:10272C0083C781BEB69823A011BF11476376F7000B
:10273C00C1472384F1BE4DB36254F250D254425976
:10274C00B259225A925A025BF24B624CD24C424D15
:10275C00B24D21616FF08F8E01114AC883A701C25F
:10276C0026CA22CC06CE4EC623A2F1BEEFF0EF9ABB
:10277C002A8411E583A741BF99EB238E01BA2285E8
:10278C00F2406244D2444249B2490561828003A7B7
:10279C0041BE83A581BBBA97054523A2F1BEEFE0EC
:1027AC002FB503A741BE2388A1BE03A641BF83C793
:1027BC0001BF118F23A2E1BE93F7F70FDDDF03C436
:1027CC0001BFFD5723A8F1C223A0F1C2238E01BA89
:1027DC001374F40F6DB7797152CC03C8D1BB22D4EA
:1027EC0026D24AD006D64ECE56CA5AC85EC689479D
:1027FC002A89014403A701BB6300F8128D47630BC0
:10280C00F81093571700137417003E9783D6C1BF67
:10281C0083C7D1C283A581BB03A601BEFD16F98E69
:10282C00B357F70003A701C2AE96B29723A6D1BE49
:10283C0023A8F1BA6382E70203C7C1BB09C7293FCA
:10284C005DED83A701BB23A2F1BEEFF0CF8045E97C
:10285C0003C8D1BB83A6C1BE630F090091476308AF
:10286C00F9168547630FF90E83A741C023A8F1BA67
:10287C000547238EE1BA238A01C089476300F80A11
:10288C000D4783A701BB6301E80E03C5060013F8CF
:10289C00F70F83D5C1BF1377F5009318480003A633
:1028AC0081BB33671701938481BC91831377F70F36
:1028BC00FD15A380F4002381A4002384E1BCB3079D
:1028CC00B600638AF61083C71600A381F400631068
:1028DC0009086309040E83D72400918305672391AB
:1028EC00F4005917636CF70A03C741C123A4F1BC68
:1028FC003369E900631B090423A2F1C00145B250FE
:10290C00225492540259F249624AD24A424BB24B77
:10291C00456182800A07DDBD0607CDBD03D70600E1
:10292C0023A4E1BCC167D91763FDE7008547238A5F
:10293C00F1C0630C090083A701BB01452390F6008D
:10294C007DBFE31A09FE23A2E1C001454DBF31CC86
:10295C002380E60083A7C1BE03C71400A380E70051
:10296C009DBF23A801BA29B798423706001013055A
:10297C00F6FFB70500F0F98DE98FCD8F698F23A88D
:10298C00F1BA23A4E1BC5916637CE6060547238AF9
:10299C00E1C0E30C09FA9CC2014595B70547238AAF
:1029AC00E1C023A4F1BC014599BF2380060183C774
:1029BC00340003C7140083A6C1BEC19B1183D98FF9
:1029CC00A380F60083D72400D207D18301BFFD5723
:1029DC0023A8F1BA71BD6318090283C7C1BB85EB8B
:1029EC0083A701C2850723A2F1BEEFE0DFE6E3185F
:1029FC0005F083A781BB83C70700A381F400D1BD79
:102A0C00E31B09F889B711E042872380E600A9335C
:102A1C00E31705EE83A701C2850723A2F1BEEFE001
:102A2C009FE3E31E05EC83A681BB03C70600A381CD
:102A3C00E400E30009EA83C7140001E4419B91839D
:102A4C00D98F2380F6000547238EE1BA59B55D7105
:102A5C0056DA83C781BE86C6A2C4A6C2CAC04EDEE1
:102A6C0052DC5AD85ED662D466D26AD06ECE3D475E
:102A7C00637CF72C83C781BE3D47637DF710C1474C
:102A8C002384F1BE83C6C1AD238D01C2638606309B
:102A9C001307C0056387E6301307F0026383E63043
:102AAC001387C1AD034617009307A0036306F62AEC
:102ABC003EC483A641BC83A741C232C623A4E1C253
:102ACC00138481BC638D061C83C541BB03C601C145
:102ADC001387E6FF3317B700BA97A38CC1C223A4A0
:102AEC00F1C06302062423A2F1BEEFE0FFDC5DE53A
:102AFC0083D7C1BF239F01BE6384072083A501BD7B
:102B0C0023A6B1BE83C70500B9CB930D500E2D453E
:102B1C00930BC0056381B70315476394E7009307D4
:102B2C00500E03A881C2834608006388F608130779
:102B3C00A0026384E60883D7E1BF03D7C1BF9387A4
:102B4C000702C207C183239FF1BE63FBE71A83A56B
:102B5C0001BDBE9523A6B1BE83C70500C5FF83A6E4
:102B6C0081C281471306A0029305C0051305F0022C
:102B7C0039A0630EC7006303B7226301A722338712
:102B8C00F60003470700850793F7F70F7DF313054E
:102B9C00200429A0EFE09FCAE30605EEB6402644C8
:102BAC0096440649F259625AD25A425BB25B225C95
:102BBC00925C025DF24D616182809D8E93B616002F
:102BCC0036872301D4003386D500B307E80083C7CA
:102BDC000700034606009308F0021303E002214E9F
:102BEC00930E0002130F1700638EC702F9C763869A
:102BFC00770D6384170D639D670C6304C701631A1B
:102C0C00D6152301E401A146034724003386D500E1
:102C1C0003460600B307E80083C70700130F17002D
:102C2C00E396C7FC050785061377F70F2301E4002D
:102C3C0093F6F60FE39AA6FC429783470700A3018D
:102C4C00F40083C7B500A18BE39707EE238A01C07C
:102C5C0083A7C1BEA24583D6A70103C6D1BB0D472E
:102C6C0023A2D1BC6318E60003D747014207D98ED3
:102C7C0023A2D1BC03473400630B072403C741C113
:102C8C00631707240347240083A781C20507BA975B
:102C9C0023A4F1C2B24783A741C2E39706E203A77C
:102CAC0001BC9376F70F958F1377F70FA38CE1C2C6
:102CBC0023A4F1C0E31907E25DB513070002631EFC
:102CCC00E6021D47E36DD7F603C78500E309C7F697
:102CDC00A301F4001307A002E39FE7E483C7B50048
:102CEC00A18BE39A07E483A781BF6389071463C1AF
:102CFC000712FD1723ACF1BE3DBDA301F40025BDA9
:102D0C0003C791C383A781C07D1785071377F70F7E
:102D1C0023A4F1C0A38CE1C2E31707DCA24783A66E
:102D2C0041BCE38E06E2014523A8D1BAEFF0BFAA5D
:102D3C00E31605E683C741C1E39307E283A681BC92
:102D4C00A24723A2D1BCB9B7EFF02FDEE30405D222
:102D5C00B1B5A3016400C5B393072004E3FAD7D43B
:102D6C001387F1AD23A4E1C29387F1AD89A0D84FAD
:102D7C0023ACE1BE91E67D57A38CE1C223AC01BE2E
:102D8C0083C781BE3D476378F718D1472384F1BED2
:102D9C0083C741C163990716014509B51305300B6B
:102DAC00F5BB1387D1AD23A4E1C29387D1AD83C604
:102DBC00D1BB0D476384E60603C707003EC436C685
:102DCC0023A201BC83A741C28146E31B07CE83A685
:102DDC0001BC03C6D1C2A24513F7F60F998F331766
:102DEC00C700094623A2C1BC2388D1C0B24623A286
:102DFC00F1C223ACE1BE894623A2D1C023AA01BCF7
:102E0C00A38C01C2C9472384F1BE1305100479B306
:102E1C00EFD05FE383A781BF2D45E1BD83A601BC45
:102E2C0083C707003AC423A2D1BC89C73EC683A777
:102E3C0041C279B17D5723ACE1BE7DBF238401BC77
:102E4C0083A781C20147130500022148154E155373
:102E5C009308E002AD451DA82300D60083C781BCB2
:102E6C0083A681C299EB03C606006318C6012380B2
:102E7C00660083C781BC83A681C2850793F7F70FD1
:102E8C002384F1BCB6970507630DB70283A6C1BEB8
:102E9C003E86BA9683C60600E387A6FEE31E07FBB2
:102EAC002380170183C781BC83A6C1BE03A681C240
:102EBC00850793F7F70F2384F1BC83C686003E96F3
:102ECC0061BF238007008547238AF1C051B303C734
:102EDC00B70023A2D1C023AA01BCA38C01C2418B91
:102EEC00E30707E883C781BEFD5623ACD1BE3D473F
:102EFC00637EF700CD472384F1BE83C741C1130520
:102F0C001004E38D07C81305300449B9EFE01F9393
:102F1C00E31605C8DDB7EFE07F92E31105C88DBD60
:102F2C0083C781BE238D01C24D476364F700014501
:102F3C00828003A781C0411106C623A2E1BEEFE047
:102F4C00BF9709ED03D7E1BF83A701BD0145BA9730
:102F5C0003C7B70023A6F1BE418B01C7B2404101A4
:102F6C00828003A781BFB240D8CF41016FE05F9F41
:102F7C00411122C483C781BE06C6454793F7F70F9C
:102F8C006371F7084947638AE70483C781BE4D47DD
:102F9C0093F7F70F6361F702238D01C283C781BEDC
:102FAC003D476377F702C1472384F1BE0145B24028
:102FBC002244410182805147638BE70483C7A1C33C
:102FCC00F1DFB93F6DF583C781BE3D47E36DF7FC7B
:102FDC002244B24041016FE07F8603C7D1BB8D47CD
:102FEC00E305F7FA83C541BB03A641C283C701BC05
:102FFC0005473317B700B2972388E1C023A2F1C26B
:10300C0069B7B24022441305400B4101828083C74B
:10301C00C1ADCDF751B75D7122D406D62A842EDA14
:10302C0032DC36DEBAC0BEC2C2C4C6C617D5FF1F5C
:10303C000325457411C51C4D81E72AC679253245F7
:10304C000C455418228636CEEF005037B25022541D
:10305C0061618280AA8517D5FF1F0325A57111CD4B
:10306C001C4D81EF011106CE2EC62AC4B92D224566
:10307C00B245F2401045056119A01045F5BF41114C
:10308C0022C426C24AC006C62A89AE84328401C52F
:10309C001C4D91E31D2D971700009387275F631636
:1030AC00F406032449007C50858B89EB8357C400BC
:1030BC0093F7072081E7284CEF00A0791C44FD17FB
:1030CC001CC463DA0700184C63C3E70693F7F40FCC
:1030DC002947638EE7041C401387170018C0238010
:1030EC00970093F4F40F7C50858B89EB8357C400C5
:1030FC0093F7072081E7284CEF00C075B2402244BB
:10310C0002492685924441018280971700009387DB
:10311C00E7556315F4000324890071B79717000075
:10312C009387C752E311F4F80324C900ADBFA685F9
:10313C0022864A859122AA847DB7011126CA06CE21
:10314C0022CC4AC84EC652C4AA8419E11C4502902E
:10315C001C4D2E89A5E7952B9C4C8044B5C3971725
:10316C0000009387A7526310F406C0407C50858BF7
:10317C0081EB8357C40093F7072099E3284CD12D9A
:10318C008357C400A18B99C31C48C5E7A28526852B
:10319C00652245C1FD547C50858B81EB8357C4005F
:1031AC0093F7072099E3284C7525F2406244424975
:1031BC00B249224A2685D24405618280004545B732
:1031CC002685212369BF971700009387274A63142C
:1031DC00F400804461BF9717000093872747E317DB
:1031EC00F4F8C04461B71CC4050963C907021C404C
:1031FC001387170018C02380B7001C4483450900AF
:10320C00FD17F5F11CC463D907022286A945268552
:10321C00A520FD57E300F5F8A944B5BF184C63C4CD
:10322C00E700E39645FD22862685B920E31735FD98
:10323C0095B7FD59294AD1B71C401387170018C000
:10324C0029472380E700C9BFAA8517D5FF1F03258F
:10325C006552E5B5AA8703C7050085078505A38FC9
:10326C00E7FE75FB8280AA8703C7070085076DFF01
:10327C003385A7407D158280011122CC26CA4AC80D
:10328C0006CE4EC6AA842E89328401C51C4D91E30C
:10329C002D29971700009387673F6318F402C040ED
:1032AC001C4C1CC48357C400A18B99C31C4895EFBC
:1032BC00A2852685512015C97D59F2406244D2441D
:1032CC00B2494A854249056182809717000093876D
:1032DC00E7396314F4008044E1B797170000938733
:1032EC00E736E31FF4FAC04465BF1C4808409379E5
:1032FC00F90F1379F90F1D8D5C486346F500A28513
:10330C002685B52455F91C440505FD171CC41C4025
:10331C001387170018C0238037015C486389A70006
:10332C008357C400858BD1DBA947E318F9F8A28534
:10333C002685352C59D149B7411122C426C24AC021
:10334C0006C697D4FF1F83A4E4422A892E8489C41D
:10335C009C4C99E32685952E97170000938707338D
:10336C006314F402C0408317C40013F787002DEBDD
:10337C0013F7070115EB25472320E90093E7070412
:10338C002316F4007D5559A8971700009387072E34
:10339C006314F4008044C1BF971700009387072B78
:1033AC00E313F4FCC044C1B7918B8DC74C5889C949
:1033BC00930744046384F5004A85712B232A040285
:1033CC008357C4002322040093F7B7FD2316F4009F
:1033DC001C481CC08357C40093E787002316F400D5
:1033EC001C4881EF8357C4001307002093F707286C
:1033FC006385E700A2854A856D298317C40013F7FE
:10340C0017001DC35848232404003307E04018CC90
:10341C001848014501E713F707082DF3B240224481
:10342C00924402494101828013F72700814611E33F
:10343C00544814C4F1BF8397C500011122CC26CA8D
:10344C0006CE4AC84EC613F78700AA842E8469E7B5
:10345C00D8416345E000B8416358E008585449C767
:10346C0003A9040023A004000C5093D7C748B9CB80
:10347C0070488357C400918B99C75C401D8E5C5873
:10348C0099C33C401D8E5C540C5081462685829716
:10349C00FD57630DF5041C480567232204001CC06E
:1034AC008357C400F98F91C368C84C5823A02401DA
:1034BC0085CD930744046384F50026856929232A66
:1034CC0004021DA00146854626850297FD572A86D3
:1034DC00E311F5FA9C40D1DF75476385E700594746
:1034EC006395E70623A024010145BDA098408317EE
:1034FC00C40001CFF5466305D700D9466319D7043C
:10350C001C48232204001CC04DB718482322040079
:10351C0093D7C74818C041BF83A90501E38609FCAE
:10352C0003A905008D8B23A03501330939410147CF
:10353C0091E3D84918C4E35920FB1C540C50CA869B
:10354C004E86268582976340A0028317C40093E7BA
:10355C0007042316F4007D55F2406244D2444249DC
:10356C00B24905618280AA993309A940E9B79C49FF
:10357C00411106C622C426C281EB8144B2402244CA
:10358C002685924441018280AA842E8401C51C4D5B
:10359C0091E3252A971700009387470F631EF402C7
:1035AC00C0408317C400F1DB7850058B11E793F70B
:1035BC00072099E3284C712C2685A285EFF0BFE7F4
:1035CC007C50AA84858BDDFB8357C40093F70720BE
:1035DC00D5F7284C41245DB797170000938707094E
:1035EC006314F400804475BF971700009387070697
:1035FC00E319F4FAC04475B7411122C406C62A84F3
:10360C002316B5002317C50023200500232205002F
:10361C00232405002322050623280500232A050060
:10362C00232C0500214681451305C505EFD0CF9A03
:10363C0097170000938767885CD0971700009387D3
:10364C00A78A1CD4971700009387C78E5CD4971752
:10365C00000093876791B24000D01CD822444101EE
:10366C008280970500009385C5F0B5AA411126C24A
:10367C00930780069384F5FFB384F4024AC02E8925
:10368C0022C406C693854407C1262A8401CD232073
:10369C00050023222501310508C4138684068145C3
:1036AC00EFD08F93B24022852244924402494101CB
:1036BC0082801385818471AA1385818461AA138504
:1036CC00C18441AA1385C18471A2411122C406C6CA
:1036DC002A84F5371C4C89C72244B2404101DDB71E
:1036EC0097070000938727F81CD42324040423266F
:1036FC0004042328040483A701836394870085476B
:10370C001CCC2285152848C022853D2008C4228562
:10371C00252048C4484001469145EFF0FFED084490
:10372C000546A545EFF05FED48440946C945EFF065
:10373C00BFEC85471CCC4DB7411126C24AC006C60A
:10374C0022C42A89EFF0FFF683A401839C4C99E3F1
:10375C002685A53F938484048044DC40FD1763D602
:10376C0007009C40A5C78440C5BF0317C40021EFC8
:10377C00C17785075CC41305840523220406C92878
:10378C00EFF09FF32146232004002324040023227E
:10379C00040023280400232A0400232C0400814560
:1037AC001305C405EFD04F83232A0402232C0402F3
:1037BC002324040423260404B24022852244924488
:1037CC000249410182801304840649BF91454A8510
:1037DC00EFF0DFE988C02A8459F5EFF0FFEDB1472F
:1037EC002320F900D1BF797122D44AD04ECE52CCCD
:1037FC005AC85EC606D626D256CA2A892E8A130401
:10380C0085048149054BFD5B0444832A4400FD1A61
:10381C0063D00A0200406DF8B250225492540259FF
:10382C00624AD24A424BB24B4E85F2494561828084
:10383C0083D7C400637BFB008397E4006387770125
:10384C00A6854A85029AB3E9A90093848406C1B778
:10385C008280828082805971A2D42E848395E50067
:10386C00A6D2CAD086D6B284368963D305028357D2
:10387C00C40093F7070895EB13070040B650265485
:10388C002320F90098C00659965401456561828041
:10389C003000EF00A072E34C05FC3247BD67F98F96
:1038AC007977BA9793B71700C1BF81471307000404
:1038BC00F1B783D7C500797122D406D626D24AD067
:1038CC004ECE898B2E8491CF930774041CC01CC8D8
:1038DC0085475CC8B250225492540259F249456152
:1038EC00828074003000AA84EFF0FFF6A2492A8986
:1038FC002685CE85912A01ED8317C40013F7072086
:10390C0071FBF19B93E727002316F40075BF970713
:10391C000000938747D59CD48357C40008C008C8BF
:10392C0093E707082316F400B247232A340189CF02
:10393C008315E40026857D2501C98357C400F19BBE
:10394C0093E717002316F4008357C40033E52701CF
:10395C002316A40041B7D1CD83A7C5FF011122CCFA
:10396C0006CE1384C5FF63D307003E942AC6C52533
:10397C00138741851C43324581EB2322040000C38D
:10398C006244F2400561C1AD637DF4001040B306A2
:10399C00C4006396D7009443DC43B29614C05CC059
:1039AC00F9BF3E87DC4399C3E37DF4FE1443330631
:1039BC00D700631F86001040B29614C33306D7009D
:1039CC00E390C7FC9043DC43B29614C35CC34DBF79
:1039DC006375C400B1471CC165B71040B306C40081
:1039EC006396D7009443DC43B29614C05CC040C3CA
:1039FC0041BF828041114AC0138901858327090088
:103A0C0022C426C206C6AA842E8489E78145412198
:103A1C002320A900A28526859D297D59631A25019D
:103A2C007D54B24022852244924402494101828055
:103A3C00130435007198E30685FEB305A440268572
:103A4C00B921E31025FFE9BF011126CA9384350083
:103A5C00F1984AC8A104B14706CE22CC4EC62A8999
:103A6C00B3F4F40A63C4040063FDB400B14723202B
:103A7C00F9000145F2406244D2444249B249056121
:103A8C008280F1239389418583A709003E8421E834
:103A9C00A6854A85EFF01FF6FD572A846317F50AB1
:103AAC0003A40900A287C9EB8329040081454A8538
:103ABC00A299F12E6395A9081C408D044A859D8C12
:103ACC00F198B147A104B3F4F40AA685EFF09FF284
:103ADC00FD576306F5061C40A6971CC015A01440A4
:103AEC00858E63C806042D47637DD70204C0330757
:103AFC0094006396870223A0E9005C4014C35CC366
:103B0C004A85912B1305B400930744006199330740
:103B1C00F540E301F5F63A94898F1CC0A1BFD8C3D8
:103B2C00E9BF58406395870023A0E900D1BFD8C3F3
:103B3C00C1BFA2874040A1BF3E84DC43ADB7B147B3
:103B4C002320F9004A85012B2DB704C155BF1C4613
:103B5C00FD171CC663DA0700184E63C5E700A947BA
:103B6C006394F5006FF04FF11C422E8513871700FC
:103B7C0018C22380B7008280011122CC26CA4AC801
:103B8C004EC652C406CE2A89AE893284B304D600FE
:103B9C007D5A63149400014511A8834504004E8698
:103BAC004A85EFF0DFFA0504E31545FFF240624465
:103BBC00D2444249B249224A05618280357122CDF4
:103BCC0026CB4AC94EC706CF52C556C35AC1DEDEF4
:103BDC00E2DCAA892E843289B68409C51C4D99E38E
:103BEC00EFF0BFAE97170000938747AA631AF4044F
:103BFC0003A449007C50858B89EB8357C40093F751
:103C0C00072081E7284CEFF0DFC48357C400A18B59
:103C1C0099C31C48ADE3A2854E85EFF0EFF121CDA1
:103C2C007C50858BA1C37D55FA406A44DA444A49DD
:103C3C00BA492A4A9A4A0A4BF65B665C0D61828045
:103C4C0097170000938787A26315F40003A48900DB
:103C5C0055B7971700009387679FE31DF4F803A4EB
:103C6C00C90049BF8357C40093F70720CDFF284CE8
:103C7C00EFF05FBE4DBF93070002A304F102930760
:103C8C00000302D22305F10226C6930B5002971AA9
:103C9C000000938AAAA1294BCA8483C7040099C344
:103CAC00639C7709338C2441638E2401E2864A8617
:103CBC00A2854E85EFF05FECFD57630DF51892571A
:103CCC00E2973ED283C7040063860718FD57138919
:103CDC00140002C802CE3ECA02CCA309010482D44D
:103CEC008345090015465685B126C2479304190031
:103CFC0031E513F7070109C713070002A309E10413
:103D0C0013F7870009C71307B002A309E104834620
:103D1C0009001307A002638AE602F247CA848146AF
:103D2C00254603C7040093851400130707FD63742D
:103D3C00E60685C63ECE15A0850485B733055541EC
:103D4C00B397A72826893EC861BF32479306470020
:103D5C00184336C6634A07023ACE03C704009307DA
:103D6C00E002631EF70403C714009307A002631A52
:103D7C00F702B2478904138747009C433AC67D5724
:103D8C00B3E7E70A3ECA25A83307E04093E72700CC
:103D9C003ACE3EC8D9B7B3876703AE848546BA9787
:103DAC0049B7850402CA81468147254603C70400EA
:103DBC0093851400130707FD6374E606E1F683C5CB
:103DCC0004000D46171500001305C58EA52411CD52
:103DDC00971700009387078E1D8DC24713070004A9
:103DEC003317A700D98F85043EC883C50400194634
:103DFC00171500001305458C138914002304B10218
:103E0C00152C25CD9307000095E74247B247137751
:103E1C00071009CF91073EC69257D2973ED2ADBD3F
:103E2C00B3876703AE848546BA9749B79D07E19B74
:103E3C00A107D5B7780097060000938626D4228672
:103E4C000C084E8597000000E7000000FD572A8AF9
:103E5C00E314F5FC7C50858B89EB8357C40093F7F6
:103E6C00072081E7284CEFF0FF9E8357C40093F79F
:103E7C000704E39A07DA125545BB78009706000051
:103E8C009386C6CF22860C084E85F92CC1B74111FA
:103E9C0022C42A842E8523AC018406C6EFC07FF78A
:103EAC00FD576316F50083A7818591C31CC0B240F2
:103EBC00224441018280411122C42E848395E50065
:103ECC0006C63523634905007C48AA977CC8B240D6
:103EDC002244410182808357C4009397C74823161C
:103EEC00F400F5B783D7C500011122CC26CA4AC805
:103EFC004EC606CE93F70710AA842E843289B68953
:103F0C0091C78395E5008946014601228357C40079
:103F1C008315E400F2409397C7482316F4006244DB
:103F2C00CE864A86B24942492685D244056135A8D7
:103F3C00411122C42E848395E50006C6F9207D57D5
:103F4C008357C400631AE5009397C7482316F400FF
:103F5C00B2402244410182809397C72868C8231637
:103F6C00F400FDB78395E5003DA0411122C42A84DD
:103F7C002E85B285368623AC018406C6EFC0FFE6DB
:103F8C00FD576316F50083A7818591C31CC0B24011
:103F9C00224441018280411122C42A842E8523AC03
:103FAC00018406C69529FD576316F50083A7818504
:103FBC0091C31CC0B240224441018280411122C4F1
:103FCC002A842E85B28523AC018406C6A129FD570F
:103FDC006316F50083A7818591C31CC0B2402244AF
:103FEC0041018280411122C42A842E8523AC018494
:103FFC0006C63D29FD576316F50083A7818591C33D
:10400C001CC0B240224441018280411122C42A8446
:10401C002E85B285368623AC018406C60521FD5754
:10402C006316F50083A7818591C31CC0B24022445E
:10403C004101828093F5F50F2A966314C500014562
:10404C00828083470500E38DB7FE0505FDB7138518
:10405C0041846FF01F80138541846FF0AFFF79713D
:10406C0056CA9C49BA8A984522D44AD04ECE52CCD4
:10407C0006D626D25AC85EC6B3E7E70A1CC203C7E7
:10408C003504AA892E843289368A19C385071CC245
:10409C001C4093F7070291C7832709008907232047
:1040AC00F9000440998891E8130B9401FD5B5C4482
:1040BC0003270900998F63CCF40483473404B33687
:1040CC00F0001C4093F70702A5EB13063404D285CD
:1040DC004E85829AFD576303F5041C4011478144B9
:1040EC00998B6399E7008327090044449D8C814791
:1040FC00B3E4F40A1C4418486354F700998FBE9437
:10410C00014969047D5B63982405014509A885462E
:10411C005A86D2854E85829A631E75017D55B250A2
:10412C00225492540259F249624AD24A424BB24B3F
:10413C00456182808504A5BF3307D40013060003B4
:10414C00A301C7040347540493871600A29789065A
:10415C00A381E7049DBF85462286D2854E85829A2F
:10416C00E30E65FB050945B7797122D44AD04ECED2
:10417C0052CC06D626D256CA5AC803C88501930714
:10418C0080072A892E84B289368A63E20703930753
:10419C0020069386350463E107036301081E930729
:1041AC008005170600001306A651630BF814930440
:1041BC0024042301040515A89307D8F993F7F70FE6
:1041CC005546E366F6FE170600001306E651B3C724
:1041DC00C7209C43B29782871C4393842504938603
:1041EC0047009C4314C32381F50485475DAA904185
:1041FC001C43137506089385470039C19C430CC3B7
:10420C00584063D307149305D002A301B40418C417
:10421C0063500704B307F040170600001306464A24
:10422C002948B68433F70703FD1432970347070078
:10423C002380E4003E87B3D70703E37507FF8DA007
:10424C009C43137506040CC345DD939757604DBF13
:10425C006D9A10C0C1B790411C4313750608938525
:10426C00470001C50CC39C4339A0137606040CC34C
:10427C007DDA83D707001307F00617060000130634
:10428C0026446311E80C2148A3010404584018C4C7
:10429C00E34907F80C40ED990CC0C1F7B68451F313
:1042AC00A147631EF8001C40858B91CB58401C48DD
:1042BC0063C7E70093070003A38FF4FEFD14858EFC
:1042CC0014C85287CE867000A2854A85EFF03FD97C
:1042DC00FD5A631C550D7D55B2502254925402590F
:1042EC00F249624AD24A424B456182809C4193E733
:1042FC0007029CC113088007170600001306863DB1
:10430C00A30204050C401C4313F805081385470051
:10431C006305080008C39C4301A813F8050408C3EF
:10432C00E30B08FE83D7070013F7150001C793E5CD
:10433C0005020CC099C3414881BF18401377F7FDA3
:10434C0018C0D5BF294889B7170600001306463791
:10435C0029482DBF90411C43CC491378060813857E
:10436C0047006306080008C39C438CC301A808C31C
:10437C00137606049C4375DA2390B70023280400B7
:10438C00B68481B71C43D04181459386470014C342
:10439C0084432685EFF01FCA01C5B30795405CC066
:1043AC005C401CC8A301040429BF14482686CE8592
:1043BC004A85029AE30155F31C40898B85E74844F2
:1043CC00B2473365F50A09BF85465686CE854A85C0
:1043DC00029AE30265F185045C443247998FE3C588
:1043EC00F4FEF1BF8144930A94017D5BF5B7411152
:1043FC0022C42A842E85B285368623AC018406C657
:10440C00A120FD576316F50083A7818591C31CC0BD
:10441C00B2402244410182809307800523ACF18491
:10442C007D5582809307800523ACF1847D55828075
:10443C009307800523ACF1840145828093078005A6
:10444C0023ACF1847D5582809307800523ACF184E5
:10445C007D5582804572726F723A20253032580A2F
:10446C00000000002F4335312F2A00005374617275
:10447C007420404368697049443D25303258200A05
:10448C0000000000576169742044657669636520FB
:10449C00496E0000537461727420554449534B5F4C
:1044AC0064656D6F20404348525633554649206C25
:1044BC006962726172790000576169742044697392
:1044CC006B526561647900004F70656E00000000EE
:1044DC002F4335312F43485256334846542E430010
:1044EC00B2BBB4E6D4DAB8C3CEC4BCFEBCD0D4F2F2
:1044FC00C1D0B3F6B8F9C4BFC2BCCBF9D3D0CEC4CB
:10450C00BCFE00004C6973742066696C65202573D1
:10451C000A00000020206D617463682066696C6578
:10452C002025303464233A2025730A0055C5CCD19C
:10453C00DDCABECDEAB3C90055C5CCC3BBD3D0D7F9
:10454C00BCB1B8BAC320455252203D253032580A6E
:10455C0000000000B3F5CABCBBAF55C5CCCAA7B0B0
:10456C00DCA3ACC7EBB0CECFC255C5CCD6D8CAD421
:10457C0000000000AEC7FFFFC6C7FFFFEAC7FFFF82
:10458C00F4C7FFFF0AC8FFFF55534220646576202D
:10459C00696E000055534220646576206F75740077
:1045AC00774C656E6774683A2025780A0000000025
:1045BC006252657175657374547970653A2025780B
:1045CC000A00000053656E643A2025640A0000005E
:1045DC00526573657420686F737420706F72740009
:1045EC00782530325820000047657443666744656F
:1045FC007363723A20000000496E6974526F6F74D5
:10460C0044657620457272203D20253032580A00D0
:10461C0044697361626C6520686F737420706F728B
:10462C00742062656361757365206F6620646973BD
:10463C00636F6E6E6563740047657444657644659C
:10464C007363723A200000000000000000000000BC
:10465C00000000000000000000000000000000004E
:10466C00000000000000000000000000000000003E
:10467C00000000000000000000000000000000002E
:10468C00000000000000000000000000000000001E
:10469C00000000000000000000000000000000000E
:1046AC000000000000000000232D302B2000000033
:1046BC00686C4C0065666745464700003031323304
:1046CC003435363738394142434445460000000002
:1046DC00303132333435363738396162636465666C
:1046EC0000000000F4FAFFFF0AFBFFFFCAFAFFFF0D
:1046FC00CAFAFFFFCAFAFFFFCAFAFFFF0AFBFFFF65
:10470C00CAFAFFFFCAFAFFFFCAFAFFFFCAFAFFFF95
:10471C0070FCFFFF72FBFFFF08FCFFFFCAFAFFFFF4
:10472C00CAFAFFFFA0FCFFFFCAFAFFFF72FBFFFFF4
:0C473C00CAFAFFFFCAFAFFFF10FCFFFFE3
:0247480001A0CE
:10474C00000000009446000074460000544600002F
:10475C00000000000000000000000000000000004D
:10476C00000000000000000000000000000000003D
:10477C00000000000000000000000000000000002D
:10478C00000000000000000000000000000000001D
:10479C00000000000000000000000000000000000D
:1047AC00B40B0020180700200201000000000000DC
:1047BC0000090000000000000005020000000000DD
:1047CC0080060002000004008006000100001200B8
:0447DC00180700209A
:00000001FF
