:040000006F00D06A53
:10000400000000000000000028570100D00200207A
:10001400A9BDF9F32857010000000000000000000A
:1000240028570100285701000000000000000000CC
:1000340028570100000000002857010000000000BC
:1000440000000000285701000000000028570100AC
:10005400285701002857010028570100000000001C
:10006400285701000000000000000000285701008C
:100074007A0300202857010028570100285701005F
:10008400000000002857010000000000285701006C
:100094009307000C01116314F50493078008F3B768
:1000A400078093F787083EC00F100000B717004081
:1000B400130770052380E704130780FA2380E704FD
:1000C4000F10000098271367070C98A723800704D4
:1000D4008247F3A707800F10000005618280B717DD
:1000E4000040B827118B69EB83C6E7041307800827
:1000F40093F6F60F733607801376860832C20F1014
:1001040000001308700523800705930580FA2380F7
:10011400B7040F10000003C6E704136636002387F4
:10012400C704B02713664600B0A72380070412460D
:10013400732606800F10000090271376F60F73378E
:100144000780137787083AC40F100000238007053F
:100154002380B7040F10000098271367070C98A793
:1001640023800704A247F3A707800F100000A547C8
:100174000100FD1793F7F70FE5FF93078008F3B726
:10018400078093F787083EC60F100000B71700409A
:10019400130770052380E704130780FA2380E7041C
:1001A4000F10000090A72387D70423800704B247C9
:1001B400F3A707800F1000009377050C13070004C2
:1001C4006399E70893078008F3B7078093F78708D4
:1001D4003EC80F100000B7170040130770052380B6
:1001E400E704130780FA2380E7040F100000B82700
:1001F400854613670701B8A737270040A303D780B4
:100204008346578093E60601A302D7802380070420
:10021400C247F3A707800F10000093078008F3B7C5
:10022400078093F787083ECE0F100000B7170040F1
:10023400130770052380E704130780FA2380E7047B
:100244000F1000001375F50F88A723800704F247E9
:1002540049B59377F5019DCF93078008F3B70780DD
:1002640093F787083ECA0F100000B7170040130722
:1002740070052380E704130780FA2380E7040F1036
:100284000000372700408946A303D7802380070452
:10029400D24741B793078008F3B7078093F78708DD
:1002A4003ECC0F100000B7170040130770052380E1
:1002B400E704130780FA2380E7040F1000003727B0
:1002C40000409D46A303D78023800704E24791B7EB
:1002D40041118146014681451145972000E0E780A0
:1002E400E02813078008F337078093F787083EC494
:1002F4000F100000B7170040130670052380C704D1
:10030400930680FA2380D7040F100000FD55CEB762
:1003140023800704A245F3A505800F10000073375E
:100324000780137787083AC60F1000002380C7049C
:100334002380D7040F10000003C767041367170056
:100344002383E70423800704B247F3A707800F1031
:10035400000001A04111B7170040985F3AC6945FAE
:100364003247E39CE6FE324541018280B7E700E074
:100374003707001023A0E7208280B7170040130737
:1003840000032388E702854723A6F19273002030F7
:10039400411106C62521FDBF230304801547A2870A
:1003A4002303E480010001002302A48003C76780C3
:1003B40062076187E34C07FE2382A7802287834775
:1003C4006780E207E187E3CC07FE82802303048091
:1003D40015472303E480010001002302A4808280E6
:1003E40083076480E3CE07FE2303048082808307AF
:1003F4006480E3CE07FE03454480828083076480E3
:10040400E3CE07FE2302A4808280411126C44AC29F
:100414004EC006C61377F50BAD47AA892E899544BD
:100424006306F70019455D37653F8D444E85793F76
:10043400FD59FD1463983401B240A2441249824923
:1004440041018280135509011375F50F453F2209B7
:10045400CDB7011126CC06CEB70408005137154597
:10046400B537713769372AC6A53F324593771500EA
:1004740089EB136515001375F50FF240E24405612D
:100484008280FD14E9FC0145CDBF411106C6B717B2
:100494000040130770052380E704130780FA2380C4
:1004A400E70403C747041305F00F1367070E2382FD
:1004B400E70491472303F480C535B24041010DB7E9
:1004C400011126CC4ACA4EC852C606CE2A89AE8924
:1004D400B284554A5D3F91E82137F240268552495E
:1004E400E244C249324A05618280CA850945313FE6
:1004F400910903A7C9FF91472320E480030764807F
:10050400E34E07FE23034481FD17EDFBFD1411099F
:1005140081C49377F90FE9FF2D3F55FDFD5475BF55
:10052400011126CC4ACA4EC852C656C45AC206CE77
:100534002A89328A8D49913FC164C16A056B9387C8
:10054400F4FFB3F7270199E363719A02FD199180CF
:10055400E39709FE71350145F240E2445249C2492C
:10056400324AA24A124B056182801305800D6388CA
:100574005401130500026384640113051008CA853D
:100584006935C13D09C52699330A9A4075BF7D5521
:10059400E1B7011106CE26CC4ACAB2844EC82AC697
:1005A4002E89E5353245FD14FD59AA852D45B13D09
:1005B400639A34013535F24026855249E244C249F2
:1005C400056182802D3593F7340091EB83260480F6
:1005D4000327090093074900E39EE6FC3E89FD14C6
:1005E400C1BF011106CE2AC64D353245C533F2408E
:1005F4000561FDB3011106CE26CC4ACA4EC852C6C7
:10060400AA8956C42E895135B7050400B3E5B9004B
:100614002D45E53B81448D4A214AD13B63965401E3
:10062400832704802320F9008504E39844FF83276B
:10063400048013972901635C07002312F900F24038
:10064400E2445249C249324AA24A056151BB2322BB
:10065400F900F5B7411106C626C44AC24EC0AE8998
:100664002D3581451305B0044D33BD447D594133C7
:1006740093F77400CE9703C70700FD14398D2380C8
:10068400A700E39624FFB240A244124982494101E3
:1006940081BB411106C6D53B13056006053B893372
:1006A400130590092533B24041011DBB411122C4F9
:1006B40006C69727000083A7E7B41384C18291C7B5
:1006C40082971C40AA971CC021A083A74194EDFBEC
:1006D4000840B74703009387D73F3305F502B7A710
:1006E4002600938737ECB2403E9508C0224441016E
:1006F4008280B7E700E09843B706200023A0D7180C
:10070400758F0F10000001C599C1814711E6B7E745
:1007140000E023A0E7108280B386F50003C806003A
:10072400B306F500850723800601E317F6FEC5B777
:10073400411126C2B7E400E022C48040B70620007D
:1007440006C6758C23A0D4180F10000011C111EA3D
:10075400B7E700E023A08710B2402244924441014D
:100764008280971000E0E780608123A08410EDB7B9
:1007740037E700E01C43B70620002320D718F58F85
:100784000F10000001C599C1014711EA37E700E0E5
:100794002320F710054582800507E309E6FE3308A8
:1007A400E500B386E500034808009422E306D8FE7A
:1007B40037E700E02320F71001458280797122D4C5
:1007C40006D626D24AD04ECE52CC56CA5AC85EC697
:1007D40062C41384C1931C40D5E79724000093841A
:1007E400649E1389C194032709009C209430014618
:1007F400B3A5E7208E21C9C911C29CA08820636CCF
:10080400D50897270000238F079A1C40F1E79389A6
:10081400419483A70900E9C3138A819303240A003E
:1008240045CC972B0000938B2B9F83A74B0037C994
:10083400C901014B9CC41309F937972A0000938A14
:100844006A9A3E20CDEB5C4463140B0A2320FA0021
:10085400032CC40022850123628465F497270000D9
:1008640083A7879AB5CB2254B25092540259F249C5
:10087400624AD24A424BB24B224C4561172300E0F4
:1008840067002351829781BF850793F7F70F0546C9
:10089400E3E0D7F69DB73327E5200E2323100700A6
:1008A400972700002393079283A78194B347F520E9
:1008B4009C4382979C2083260900FA20B3A6D72064
:1008C40092223377E540518F9AA299C385079CA061
:1008D40098209C30E377F7F2B25022549254025994
:1008E400F249624AD24A424BB24B224C4561828061
:1008F4002326FB00B1BF83A7090082971C4433075A
:10090400F5406376F50003A74B001D8F2A976369B2
:10091400E9022E200820975001E0E78020065C4081
:100924009DD3104483A64B00B2973E8763E4C7006F
:1009340063E4D7003387D74018C4228B404431BFC7
:1009440003A74A027DDB63E9A7023385A7401C2085
:1009540099EF03C76A0183A64B005117B307A70099
:100964003E8563E4E70063E4D7003385D7409C44C5
:10097400E375F5FC88C4D1B703A74B00BA97F1B768
:10098400B7C700401387C72014431396264910C3E2
:100994000F10000093878726172500000325C583C1
:1009A4009C436A0514C393C7F7FF99835D8D8280C6
:1009B400411126C29384019D984006C622C43C433B
:1009C40093D76748B1C3930700063CC39727000039
:1009D40083C7879593F70704172400001304C4946E
:1009E40099CB9727000083A72783829748C41C20AC
:1009F40093F7F70B1CA01E2481CB03A7819E7CD305
:100A0400972700002396079298403C4393D7474882
:100A140099C7C1473CC383A7819E23A2070603A7A6
:100A2400C19C5C4393D7174899C323220700B24063
:100A34002244924441018280A53F7300203083A662
:100A4400819E172700001307278E1C23858B91E7AF
:100A54001C33858B99E3FC52EDFB828097160000D2
:100A640093864678DC5285C7B7E700E03707200055
:100A740023A0E728B7F700E0938707D0984B6D9B36
:100A840098CB984B1367870398CB73005010972724
:100A94000000A38B07881387819E1C43054690C3DF
:100AA400DC5299CBB7F600E083A706D193E7870021
:100AB40023A8F6D07300501018439726000093869D
:100AC400A6869C22858B99E37C53E5FF82801431B2
:100AD400AA871387260089CA03A6819E304A135623
:100AE400564819C21387660093063700BE969022B3
:100AF400054805451376F607631C060381C53E9732
:100B0400382398A188330DC583A7819EBC4B01452A
:100B140093D7574891CF9C22054793F6F7066398DD
:100B2400E6009397476063D50700394582801945ED
:100B340082800111971700002389077E4AC89717FE
:100B44000000A384077E171900001309A9698327ED
:100B5400490222CC06CE26CA4EC62A842E85B285E8
:100B640085C7B7E700E03707200023A0E728B7F7D9
:100B740000E0938707D0984B6D9B98CB984B1367F5
:100B8400870398CB7300501085479389019D938404
:100B9400819E6315F4060146975001E0E78060F0FA
:100BA40083A7090098409C43A1838D8BA9E79307F1
:100BB40060197CD38327490299CB37F700E0832758
:100BC40007D193E787002328F7D07300501094408F
:100BD40017170000130747753C23858B91E73C33B7
:100BE400858B99E3FC52EDFBF2406244D2444249C6
:100BF400B249056182809307E01B65BF975001E00D
:100C0400E78080E383A7090098431317872998C3D3
:100C1400D85B719BD8DB59FC97170000A38607703B
:100C24009C40094798C379B783A7819E9847D447C6
:100C3400758FB706040098C7F98E91CAFD56B4D7CC
:100C44001716000013060658544A850654CA9376AC
:100C5400870095C29716000083C6266D93E616009A
:100C6400171600002303D66C03A6019D545AF19A6B
:100C740093E6160054DA9376170095C2971600008F
:100C840083C6966A93E6160017160000A30ED6686C
:100C940003A6019D545AF19A93E6160054DA93760A
:100CA400670085CE118B03A6019D971600009386DD
:100CB400A66759C3184221830D8B25EFD84A1833F0
:100CC40021E313077006D8CF9C2293E717009CA258
:100CD4005C5AF19B93E717005CDA83C7419EA5CB6E
:100CE4002382019E83A7019EA9CF411106C6829744
:100CF40083C7419E99E323A0019EB24041018280B3
:100D0400AC4B93F5050281C5130750076DBF8545AC
:100D14006315B7001307B0067DB789456315B7009F
:100D24001307F0064DB78D45E310B7FE13073007E0
:100D340059BF1307600741BFBC3293E71700BCB229
:100D440041BF83C7419E81E723A0019E82808280A8
:100D5400E13D73002030B7E700E003A80700370740
:100D6400200023A0E7183378E8000F10000003AE3A
:100D740001A703A381A6F287814663F6670883A8C7
:100D840007006367F50863E5A80813878700636CA9
:100D9400E506F223216705076317E6001386719BB6
:100DA4001822050718A2971500009385A541D223A0
:100DB400DA2123930700329733470708DAA16381C6
:100DC400C70303A5C1A6630DF500EA2211E9DE22DB
:100DD40023A0160121073E962106D2A2DAA1B687E6
:100DE40098436302670283A6C1A6630ED7007623E5
:100DF40099EAD62352231843A106B296D6A398C3E0
:100E0400DE21A107DEA1B7E700E023A0071182805D
:100E1400BE86C6879DB7938515029717000083A7E2
:100E2400E75195859843FD1518C1D84358C1984793
:100E340018C5D84758C5984B18C9D84B58C9984FA6
:100E440018CDD84F58CD91C51305050293870702D5
:100E5400D1BF828003A7819E3C5BFDFF010001009E
:100E64008280011122CC26CA06CE2AC42EC61714AB
:100E740000000324645F854419E001450DA09C84AF
:100E84001830858B6304F7000044FDB719469305B9
:100E9400A10013052400EFF0BF8DE31795FEF24087
:080EA4006244D2440561828022
:100EAC00971100209381C1A3172100201301C114B5
:100EBC001305400097F5FF1F9385051417060020B6
:100ECC00130606FE63FAC5008322050023A0550015
:100EDC0011059105E3EAC5FE176501001305C5C0B0
:100EEC00970500209385C5FB1386018F63FAC50017
:100EFC008322050023A0550011059105E3EAC5FEE8
:100F0C001385018F97150020938505576377B500DE
:100F1C00232005001105E36DB5FE9302500273907A
:100F2C0002BC8D42739042808542739012BC930236
:100F3C0080087390023097F2FF1F9382E20B93E2CA
:100F4C00320073905230971200009382C25B739000
:100F5C001234730020302A8309CA838305002300CE
:100F6C0073007D16050385056DFA82802A8311C6F0
:100F7C002300B3007D16050365FE82803717004001
:100F8C008347E70412054111BD8BC98F93F7F70F07
:100F9C0093068008F3B6068093F6860836C60F10C3
:100FAC000000930670052300D704930680FA2300F3
:100FBC00D7040F1000002307F70423000704B247DF
:100FCC00F3A707800F10000041018280011126CA8F
:100FDC0006CE22CC8947B314A02863F9A700954705
:100FEC0063EAA70A93042500B3149028B7170040AE
:100FFC0003D70705B166558F2398E70413078008BC
:10100C0073370780137787083AC60F100000130751
:10101C0070052380E704130780FA2380E7040F1080
:10102C00000003C737051375F50F13670708A3896D
:10103C00E704A389A70403C7370513670702A3892D
:10104C00E70423800704B247F3A707800F100000C2
:10105C0081470146B716004003D7060513175760A2
:10106C006352070403D7060583C62605139487002D
:10107C00931727013694C9833A043E94C12C3354F8
:10108C009402F240D24433558502624423A8A18EC7
:10109C0005618280994793040040E309F5F49304B9
:1010AC00F07FA9B703C726059375F70F6373C700C5
:1010BC0085072E8655B741113A8E2A838148930EA7
:1010CC00407E130F0019930F400663EF6E14130745
:1010DC0000193377E502854E0D4F994FFD4263E1C0
:1010EC00BE1861477D1603A5018F4696AA85B3F6F7
:1010FC00E602130780703387E602F946330EDE02F0
:10110C0093D61700858B7297369791E38145B30779
:10111C00A602A166FD161306302A13D8F700F58F28
:10112C00B387C7021166B385A5023307A702B29530
:10113C0013F6F71F1E06BD81A583F98EB3A6C62034
:10114C003D83AE96BA9713D70601BA972D6713074E
:10115C00078C33D6E702B3C6060833F7E70242968C
:10116C004207558FB716004083C7F60293F707085E
:10117C00DC838C8383C7F60293F70708E396F5FEAE
:10118C009C83B71600406381071293078008F3B75E
:10119C00078093F787083EC40F100000B717004074
:1011AC00930670052380D704930680FA2380D70416
:1011BC000F100000D0DB83C6170393E60608A38844
:1011CC00D70223800704A247F3A707800F10000063
:1011DC001166B71700407D16D45BCC5FAD8EF18ED7
:1011EC00E5FE93068008F3B6068093F6860836C6AD
:1011FC000F100000930670052380D704930680FA25
:10120C002380D7040F100000D8DB03C71703136724
:10121C000704A388E70223800704B247F3A70780DB
:10122C000F100000410182807D133377E303130814
:10123C00E01601CF3377F3031308D01619C71378D0
:10124C003300133818001308D816C298BDBD13F814
:10125C001500F91563FBBF029305E801AE989A855A
:10126C001383F5FFE395E5FF854501CF1308400691
:10127C00337805038145630608009375350093B5F3
:10128C001500F105AE989A8599BDB3850241DDBF75
:10129C0083C7F60293F70708DC838C8383C7F602B7
:1012AC0093F70708E396F5FE9C83FDD3F9BD0D0675
:1012BC00719A81473307F5006393C700828014430A
:1012CC003387F500910714C3F5B7914763ECB70466
:1012DC0097470100938747ADB3C5F52098413E97DA
:1012EC00B71700409387470B02879443371700408A
:1012FC00B3F6A64094C39306070B9C42B3F7A740E2
:10130C0019A8944337170040B3F6A64094C393062C
:10131C00070B9C42C98F9CC29307070A98433377EB
:10132C00A74098C38280944337170040C98ED9B721
:10133C0098433377A74098C3B71700409387070AA1
:10134C009843498FF9BF9843498FF5B7B7170040B9
:10135C0098279306000C1377070C6315D70003A589
:10136C00018F82809827930600041377070C631073
:10137C00D702942713070002FD8A99C298277D8B08
:10138C003745C323130505603345E5028280942756
:10139C0013070002FD8A99C298277D8B3755E80107
:1013AC0013050580D5B7B7F700E0884782803285F2
:1013BC00814737370040A14663C3A70082800346AC
:1013CC00B740E30ED6FE3386F500102285072304C2
:1013DC00C740DDB797060020938686D0AA8788423F
:1013EC001717002013074709AA9763E9E7000A8734
:1013FC00130707FC6364F7009CC282807D558280D2
:10140C00411122C406C62A8491372947B307E50245
:10141C00B2408D83B3D7870222449507B3D7E70236
:10142C0037370040B3C707082316F74041018280C5
:10143C00716541111305052006C6D937B737004031
:10144C00130710F82381E7400D47A381E7401307EA
:10145C000004A380E74005472387E740B2404101E1
:10146C008280371700403E2FB3C7070893F707FC5D
:10147C00B3C707083EAF09C93E2F8E055D8ED18DCF
:10148C00B3C505082EAF8280828032852D4615EBC0
:10149C00DC4198239C33A207D98F0D67130697A1C3
:1014AC006393C702970700209387E7C39023130722
:1014BC0020036303E60098A39C2305479AA21CA172
:1014CC00014632858280130787902946E39BE7FE0D
:1014DC00CC458947411109469EA206C697F0FF1FCD
:1014EC00E780A020B2400146328541018280DC4178
:1014FC00411122C406C626C203C807009C332944E6
:10150C00A207B3E707010D6813082890639407033B
:10151C008547B284EF40204A2A8409ED03A7418F06
:10152C0011CB9C309420A207D58F93B7170013854D
:10153C0017000297B24022852244924441018280D6
:10154C005C21858BB9CF011122CC2A842A21938569
:10155C0001AA06CEEF408041058921C12A2001470E
:10156C0081460546ED45EF30707D2AC61DC59707AF
:10157C00002083D747967C8485477C85970700207D
:10158C0083C767B61CA12A2001462C00EF506004CB
:10159C0009C5ED452800EF40A011F24062440561F9
:1015AC008280828041654111938501AA7D1506C612
:1015BC00EF50F05FB240970600209386668E41464E
:1015CC009545170500201305658E41016F50705429
:1015DC0023AAA18E8280411122C406C6094409EDBA
:1015EC001C222A84170500001305C5F517070020D7
:1015FC00230BF7AEEF60B071B2402285224441015B
:10160C0082800947AA87630EE5000D476301E50256
:10161C00094595EF9707002083C7E7AC9CA10145CE
:10162C0082809707002083D707899EA1CDBF97079B
:10163C00002083D727ABDEA197070020938707876D
:10164C00BA37BE3F9AA1BEA18547FCA1C9BF828013
:10165C0097070020938727A9942313072003638FF0
:10166C00E600411106C6170500001305A5ED98A369
:10167C00EF60F069B24001454101828001458280F2
:10168C00C167F917630CF502411122C406C68547E0
:10169C002A84639AF50022852244B240938501AADC
:1016AC0041016F50D05089476396F5008545EF6036
:1016BC00B06075D1B2402244410182808280416584
:1016CC004111938501AB7D1506C622C426C24AC0C2
:1016DC00EF50F04D97060020938646824146C9454F
:1016EC001705002013054582EF50B04297040020E7
:1016FC0093848481CC4C2A8909452137138401AC0D
:10170C0083D7C1805EA083D7A40C17070020035792
:10171C00A79D5AA41EA083D7A40D03D7A41093850C
:10172C0001AD3EA00D4585477CA01AA47CA42315D1
:10173C000400C13DA2850D45BD2EB2402244924409
:10174C004A850249410182808D679387D7A4631D26
:10175C00F6008D472945639AF50085473545639614
:10176C00F6001C23238CF18E014582808D679387B4
:10177C00D7A401456319F6008D476396F50083C71E
:10178C00818F1CA305458AA2014582802A8783C7C5
:10179C00819003A5C19083C6F18099E301458280B5
:1017AC0012216315E6007021E30BD6FEFD1793F7AB
:1017BC00F70F2105DDB7B2862E86AA8517350100F5
:1017CC00130585616F20A1220111930500030945C2
:1017DC0006CEEF207070930500050D45EF20D06FFD
:1017EC009305C0030545EF20306F85471306F100C4
:1017FC00854513055030DC87EFC0D077F24005618A
:10180C00828085476398F50019E2238AB19023887A
:10181C00C190828009476395E50019E2238AF19013
:10182C0082808547631AF5001166130686A98945DF
:10183C0003C5C1916F10002589476317F5008945D1
:10184C0003C5C1916F1060438280011122CC06CE7A
:10185C0083A741902E8499C79C4789C76244F24064
:10186C00056182876C0013057040EFB0C079324679
:10187C0022858145EFB0705AF24062440561828046
:10188C00011126CA06CE22CC4AC84EC652C4AE841A
:10189C009397556063D3070803C5C191EF00906C13
:1018AC002A8429C918219307000D6312F7043C21DF
:1018BC004547638BE7046547639BE70217350100D7
:1018CC001305C553EF20A112130954009309B4005A
:1018DC00173A0100130ACA538345090052850509BA
:1018EC00EF20E110E31A39FF2945EF20E11322859F
:1018FC00EF00105C1395F468F2406244D244424904
:10190C00B249224A0561828070216C311735010081
:10191C0013058550EF20A10DD9BF93F7150085C392
:10192C0017F6FF1F1306067197F5FF1F9385C56FFA
:10193C0003C5C191EFC0903F13C5140075BF13F5DB
:10194C0025005DD931331166130686A9894503C577
:10195C00C191EF10201313C5240079BF797122D4E3
:10196C004AD052CC06D626D24ECE56CA91472A849D
:10197C002E89138A8191631AF502BE252399F19061
:10198C00238A019083A7419091C7DC4781C7CA8500
:10199C002285829723208A00B250225492540259F5
:1019AC00F249624AD24A4561828003270A00E31B4E
:1019BC00F7FC938421918A208545D93183DA040080
:1019CC00C167F917639AFA0285449305E100130580
:1019DC005041238A0190A387918023070100EFB027
:1019EC0080621C87A1E303C701919147E31CF7F8C0
:1019FC00E13B2388019079B783A9C19083C481907E
:101A0C00E1D403D5290011C99305E100EF40004F43
:101A1C0009C54C455685EF509019FD1493F4F40FFD
:101A2C00A109F9BF83A70190DC23898BCDDF930536
:101A3C00000A0945EF20504A9305000A0D45EF2096
:101A4C00B04981450545EF2030491306E100854535
:101A5C00130550304487EFC0F05171B701111705D1
:101A6C000000130525E206CE22CCEF10804E138425
:101A7C00C19185471306F100854508A01305404127
:101A8C00DC87EFB0A07E7D55EFC000767D55EF5022
:101A9C00F00E093E170500001305E5D8153E082089
:101AAC006244F240854505616F30516C23A2B190C0
:101ABC0023A0A190828023A6B1902384A190828040
:101ACC00797106D622D426D24AD04ECE52CC83A7D8
:101ADC0081911147639AE70A83C7419199EB41447D
:101AEC00B2502285225492540259F249624A4561FD
:101AFC008280B284B68903A4C19083C7819003C746
:101B0C00F18085C354206390A6025430639DB600C7
:101B1C007420639AE6002A2093056100EF40003E92
:101B2C0001E9554475BFFD1793F7F70F2104D1BF99
:101B3C00138921914C4503550900EF303063058919
:101B4C006DD103550900014781462686ED45035AA0
:101B5C000400EF30B01E2AC64D4459D12686CE85DE
:101B6C0023144101648597F0FF1FE78000B80355EB
:101B7C00090001462C00EF40D0252A8435D1ED45D3
:101B8C002800EF30F032A9BF0947E38AE7F42C00B4
:101B9C001305504123040100EFB0E0461C8485CBB3
:101BAC00930500020945EF203033930500030D45E2
:101BBC00EF20903295450545EF20103285473000D7
:101BCC008545130550305C84EFC0D03A09BFED3E1B
:101BDC0039B741114AC03689D44126C206C622C43F
:101BEC008032B284902222040D68518C01CF1308EC
:101BFC00B8A42D4563040407B24022449244024920
:101C0C00410182809306D8A4630FD400930628A2C6
:101C1C00630BD400F5789388E85CA2988546B3C82A
:101C2C00080863E91603AA2595360DC183A74190D0
:101C3C002286224403A807004C31B2404821A687D3
:101C4C004A879244024985464101028823100900C3
:101C5C0001455DB71306B8A46317C40203D881818C
:101C6C001D45E37B07F9CC453308E840B347F80A38
:101C7C00BA952310F90033C60708268597F0FF1F85
:101C8C00E780A0A6F1B79307A8A46318F4009147C6
:101C9C002310F9001146CC45CDB7930788906317F4
:101CAC00F40089472310F9000946F5B79307E8A417
:101CBC006318F400DC452310D9009C239CA049BF79
:101CCC0013087890E31604F9E9BF011106CE22CC73
:101CDC0026CA4AC8748763140710DC412E89B28463
:101CEC00803394238D672204558C9386D7A4630686
:101CFC00D400938627A3631AD4020355A900793420
:101D0C0001E90145F2406244D244424905618280B6
:101D1C0083A7419003A807004C314821A6871307DD
:101D2C00E100814622860298F1BF9386C7A4631214
:101D3C00D402388785473545E316F7FC1C2213057A
:101D4C000008E361F7FC03A7419058433E850297D6
:101D5C004DBF93862790631DD40434878547EF309D
:101D6C0090454DF190309C208356A90022065D8E43
:101D7C0003A7C19083C78190C9D72E236395D50241
:101D8C0083A7419003A80700854748234C338D4611
:101D9C006313F60089460D66A6871307E100130648
:101DAC0026900298B9BFFD1793F7F70F2107E9B7F3
:101DBC009387E7A4E317F4F4388785473545E31395
:101DCC00F7F41C2213050008E36EF7F2D8453335FF
:101DDC00F00009051CA303A7419058438DBF2D4566
:101DEC0015B7B287411113962500BE8506C6EFF0D4
:101DFC000FCCB240014541018280011122CC26CA90
:101E0C00939625002A84B284AA850146054506CE00
:101E1C0036C6EF00A074B2462686A2850945EF00AF
:101E2C00E073F2406244D2440145056182805D71E9
:101E3C00A2C486C62E849397556063DD0700EF001D
:101E4C00701219C1EF00D0061315F468B640264481
:101E5C006161828093F7150013C51500E5FB896756
:101E6C00ED8FB1C3EF80B0611945EFF02F96AA85C5
:101E7C0023A4A1920A85C92A51468A856810EFF0DD
:101E8C008F8D6810EF100035E52437F6020023988B
:101E9C00A192130606E0896503C54192EF00903EBE
:101EAC001315D46865B711656D8D4DD117350100CB
:101EBC00130545F8EF10515513060064916503C5E1
:101ECC004192EF00303C1315E46849B75D715D46F3
:101EDC0097350100938545F6173501001305452408
:101EEC0086C6A2C497F0FF1FE780008801E917356A
:101EFC0001001305E5F5EF10315101A0B7F700E033
:101F0C0023A40700795798CB3D4798C393078008C3
:101F1C00F3B7078093F787083EC00F100000B71780
:101F2C000040130770052380E704130780FA238011
:101F3C00E7040F100000B847B70600C1FD16758FF7
:101F4C00B706000E558FB8C7238007048247F3A746
:101F5C0007800F10000097F7FF1F938767CC23A013
:101F6C00F192130700F8B7E700E0A38AE7401306E5
:101F7C0040038145680097E0FF1FE780E07A97F700
:101F8C00FF1F9387674305643EC6930704E0FC80FC
:101F9C00E17793C727812310F102B7B703003ECA3C
:101FAC00B7070103938707103ECCED47FC868547A6
:101FBC00230FF100970700009387E7E23EDCB7F5AB
:101FCC00030097070000938787E33EDE814697F76F
:101FDC00FFFF9387873D5000E10519453ED6BD2B89
:101FEC0019464C0013053102EFE0FFF6B24791C7DA
:101FFC00BC801304F4BF6363F40001A06800EF001D
:10200C00F077AA8501C9173501001305A5E5EF1076
:10201C00111E01A0B6402644616182804111170552
:10202C000000130505E106C622C4EF00907213846C
:10203C00419208A02D2808202244B24013060032F9
:10204C00896541016F00102417E7FF1F1307073044
:10205C0018C13707C0A858C105671307479C3AA594
:10206C0017E7FF1F130707300EA518C982803971B7
:10207C0026DA06DE22DC4AD84ED652D493048008E7
:10208C00F3B7048093F787083EC20F100000371493
:10209C0000409309700523003405130980FA2300CE
:1020AC0024050F1000008347F40293E71700A307E1
:1020BC00F402230004049247F3A707800F100000DA
:1020CC001945EFE0BFF0138A8192AA852320AA005C
:1020DC0017350100130505DBEF10711181467146B0
:1020EC008545814701471305507EEFE0DFFC8357A0
:1020FC000A0017E7FF1F130767253AC6FC8285679E
:10210C009387479C3707C0A8FC83680097E7FF1F9D
:10211C00938747253AC83ECEEF10E00EF3B4048007
:10212C0093F4840826C40F10000023003405230008
:10213C0024050F100000010001008347140393E7EE
:10214C000702A308F40223000404A247F3A70780A4
:10215C000F100000F2506254B7E700E03707001090
:10216C0023A0E710D2544259B259225A21618280DD
:10217C00411103A5018F06C622C426C24AC0EF1026
:10218C00F10117F9FF1F1309A9FA2A86AE86032558
:10219C0009008325490017F4FF1F1304E4F9EF002D
:1021AC00314C10405440EF10812210405440EF103D
:1021BC0001222A86AE860325090083254900EF00FB
:1021CC00314AAA842E842A86AE86032509008325EB
:1021DC00490017F9FF1F130929F7EF00714897F70A
:1021EC00FF1F9387E7F59043D443EF10411E03265E
:1021FC00090083264900EF004156EF10C16D93078B
:10220C00850CB3C707081305006433F5A70AEF1054
:10221C00E1712686A286EF10811B03260900832616
:10222C004900EF008153EF10016BB240224433455B
:10223C000508924402494101828082803D897D15C6
:10224C00954763E6A70E173701001307E7CE334512
:10225C00E5201C41011106CEBA9782872C0013058C
:10226C004030EFC040452C000545EF20D05F1735BE
:10227C000100130525C2EF103119F240056182806F
:10228C00B8218D47173501001305C5C1E317F7FEBB
:10229C00F24005616F105117B8219547E31FF7FC09
:1022AC00BE250D6613060620914503C5B182239DFC
:1022BC00F180EF00207D173501001305A5BFC9BFC4
:1022CC00B8218D4717350100130585BFE317F7FAC1
:1022DC00C1B7BC211147173501001305E5BF638C4D
:1022EC00E70219476392E702EC2117350100130549
:1022FC0065C0EF10C16F8547300085451305503020
:10230C005C84EFC0204795BF1547E396E7FE173571
:10231C0001001305E5BFEF10310FF1BFF240AC2106
:10232C0017350100130545C005616F10416C8280A3
:10233C003688BA863E876315080094226FF0CFC0AA
:10234C0085476314F8006FF06FC28947631FF8006C
:10235C0041111306401F894503C5B18206C6EF0023
:10236C006072B240014541018280014582800111B9
:10237C0022CC06CE2E849397556063DD070003C5EF
:10238C00B182CD2611C12D261315F468F24062449A
:10239C000561828093F7150013C51500E5FB93F7D3
:1023AC00450099CF83C7B1821307401F8146214650
:1023BC00A14503D5A181EFC0C01213454400F9B764
:1023CC0093F785009DC3014789460946814503D58E
:1023DC00A181EFC0E055AA8517350100130545B75B
:1023EC00EF10E1601345840055B713F5250059DD56
:1023FC009307001074000946854505457C86EFF06F
:10240C002FEC740009468545054523160100EFF0B5
:10241C002FEB13060064894503C5B182A52513452E
:10242C002400ADB7011117050000130585F406CE85
:10243C0022CC26CAEF00F0319384B182054488A0E7
:10244C0070008545130550304086EFC0A0321386CE
:10245C0041829D4513056030EFC0C03117F6FF1F58
:10246C00130606BFF54513057030EFC0A0301736C4
:10247C000100130666AFD5450145EFB070468D4798
:10248C0070009145130570405C854084C08502C680
:10249C00A3040100EFA0905D3000854513050040BA
:1024AC00EFA0D05C13069100854513051040EFA0FA
:1024BC00F05B1306A100854513052040EFA0105BCF
:1024CC001306B100854513055040EFA0305A930711
:1024DC00C0037000854501455C86EFF0CF8FEFF0AF
:1024EC000F9E97F5FF1F9385A5B51385C181EFF05E
:1024FC00EFDB62448820F240D244854505616F30A1
:10250C00E1464111194506C6EFE05FA713056004CB
:10251C0097E0FF1FE78040B7B7170040214723AC77
:10252C00E70A8D452145EFE05FDA01468145054517
:10253C00EFE03FF3EFE0DFEF17350100130545BE89
:10254C00EF10816CEFF09F98D13CEFC0A03EEFF004
:10255C00EFD0C93D97E0FF1FE78000E301112A8708
:10256C0006CE2E8526CCB2854ACA368622C637249C
:10257C000040B7E700E0FD5603A90700C44323A0C1
:10258C00D71823A2D7189307F7FF93F7F70F8946AD
:10259C0063E0F60AB717004083C75704B706040078
:1025AC0093F7070299E3B7C60300F9576375D5048F
:1025BC003308C50063E1060589476314F7040982F3
:1025CC0097E0FF1FE78040EFAA873717004093067C
:1025DC0070052300D704930680FA2300D7048346A2
:1025EC004704C18A2302D70437E700E023202711D0
:1025FC00232297103244F240E24452493E85056151
:10260C0082808547631FF7008567FD173E96E98F2B
:10261C003E96FD777D8E7D8D97E0FF1FE780C0EFA6
:10262C0065B797E0FF1FE78040F69307150071BF71
:10263C00B547631AF7001305900B97E0FF1FE7806F
:10264C00C0F9814759B7B1476315F7001305B00AB4
:10265C00EDB799476317F70097E0FF1FE78000F984
:10266C00CDB79D47631BF70023A0050023A20500EF
:10267C0097E0FF1FE78080FDE9B791476317F700EC
:10268C0097E0FF1FE78060006DBF81471DDFF157AA
:10269C002DBF23AC05FE1C4189E7010001000CC1D4
:1026AC0082803E8783A787FFEDFF232CB7FE8280B5
:1026BC00411122C437E400E026C204403707200051
:1026CC0006C6F98C2320E4180F10000009E923201A
:1026DC0094101545B2402244924441018280034734
:1026EC00E5FF9307F00F6306F700232094101145C4
:1026FC00D5B797E0FF1FE780806501452320941034
:10270C00D1BF411126C2B7E400E04AC003A90400BE
:10271C00B707200006C622C43379F90023A0F418A9
:10272C000F10000009E523A02411014535A0956583
:10273C00938505D0C98D2A842105B3C50508334579
:10274C000508EF30214D65D1FD572320050042A12E
:10275C007CA123A024112105B240224492440249B9
:10276C00410182804111B7E700E026C2844337075C
:10277C00200006C622C4F98C23A0E7180F10000015
:10278C0093864193904201440147B28799EF19C84F
:10279C00832784FF6311C4069CC2FD57232C04FEBF
:1027AC00230FF4FEA165D1291DA083C5E7FF639D0E
:1027BC00A50221C0832784FF6315C4029CC2FD5768
:1027CC00232C04FE230FF4FEA165EF30211AB24036
:1027DC0022852244B7E700E023A0971092444101E0
:1027EC008280232CF7FEE1BF11E03E8783A787FF91
:1027FC0071BF3E84E5BF232CF7FE45B741114AC09B
:10280C0037E900E022C403240900B707200006C6FC
:10281C0026C27D8C2320F9180F10000089E5232097
:10282C008910154515A0AA849707002083C7D7984F
:10283C002E8563F5F400854763EE9700953DB7E769
:10284C0000E023A087100D45B24022449244024977
:10285C004101828083A785FF99E703C7E5FF9307B2
:10286C00F00F6308F700A935B7E700E023A0871045
:10287C004DBF238F95FE13854193213DA165268580
:10288C00EF30C10E0145232089107DBF23AA019290
:10289C0082802A8713F5F50F2DC1411122C426C25F
:1028AC0006C64AC013F41500AE8419C0814709A8A6
:1028BC008147A1468507638AD70233D6F4487DDA6F
:1028CC00B1463367F7203307D70203A90195B31735
:1028DC00F02833C407083A998327090003254900D7
:1028EC008297232009002322090033459400B2402B
:1028FC002244924402494101828082800111B7E74F
:10290C0000E026CA84434AC83707200006CE22CCF2
:10291C002A892E86F98C23A0E7180F100000930546
:10292C00F00432C633450608EF30C12E2A8419C58F
:10293C003246CA8597E0FF1FE78020DBF2402285F4
:10294C006244B7E700E023A097104249D2440561E6
:10295C008280411193757500014506C6B315B028E8
:10296C00B3C50508EF20B15B09C50845B24041016C
:10297C0082800145E5BFB7E700E09843B706200029
:10298C0023A0D718758F0F1000009706002083C660
:10299C00B682637ED50083A6C1943325D52016213B
:1029AC00B3F5B6400EA123A0E7100145828023A009
:1029BC00E7100D4582807971B7E700E026D2844399
:1029CC003707200006D622D44AD04ECE52CCF98CF2
:1029DC0023A0E7180F100000930785FF93F7F70F5C
:1029EC001D47636BF70831473307E50283A7019551
:1029FC00BA979C43D1C31D893315A028AE89B34522
:102A0C00050805452EC6EF2091512A8929C9B245E2
:102A1C00054517FAFF1F130A6A7FB13F83A741943C
:102A2C00829783578A002A8481463387370313069B
:102A3C000064B3B7370313050732B335E500BE9511
:102A4C00EFF01018B307850083264A003E8763E435
:102A5C00A70063E4D7003387D7402324E900B7E706
:102A6C0000E023A097100145B25022549254025911
:102A7C00F249624A45618280B7E700E023A09710D3
:102A8C000945DDB7797122D437E400E04AD0032937
:102A9C000400B707200006D626D24ECE52CC56CA1A
:102AAC005AC85EC63379F9002320F4180F100000C1
:102ABC0097F7FF1F83C757706376F50083AB41947C
:102ACC0063970B00B7E700E023A0271199A097FAB2
:102ADC00FF1F938AAA7303AB4A00B74736FE93874E
:102AEC0007C83E9B83D78A002E8AAA84B385C70267
:102AFC00B2898146B3B7C70213850532B335B50029
:102B0C0013060064BE95EFF0B00B6370AB0223208C
:102B1C0024110145B250225492540259F249624A8E
:102B2C00D24A424BB24B45618280829B83D78A004A
:102B3C002A8413060064B38537038146B3B7370381
:102B4C0013850532B335B500BE95EFF07007B307AA
:102B5C00850003A74A003E8463E4A70063E4E70012
:102B6C003384E740D2852685EF20713B01C900C52F
:102B7C00B7E700E023A02711054569BF93E504F0F2
:102B8C004145B3C50508EF30E10811E997F7FF1F80
:102B9C0083A7076785DBA6851145829725B7138721
:102BAC0081931C4399EB08C32326050000C5231110
:102BBC00450104A12322050065BF3E87DC47F5FFD4
:102BCC0048C7DDB77971B7E700E026D284433707F1
:102BDC00200006D622D44AD04ECE52CC56CA5AC861
:102BEC005EC662C466C2F98C23A0E7180F10000001
:102BFC0021CD2A892E8AB28AB6892144B14C138BF5
:102C0C000195414CB30B940383270B00DE979C4337
:102C1C00A1EF9375740056860545B315B028B3C55E
:102C2C0005088D3531C183270B00DE9723A02701C2
:102C3C0023A247016384090023808900B7E700E0E1
:102C4C0023A09710014521A023A097100945B2504D
:102C5C00225492540259F249624AD24A424BB24B24
:102C6C00224C924C456182800504E31D84F9B7E740
:102C7C0000E023A097102145D9BF011126CAB7E463
:102C8C0000E04EC683A9040022CC52C4B707200032
:102C9C0006CE4AC82A8A2E84B3F9F90023A0F41868
:102CAC000F100000EF20B12717F9FF1F1309C950AF
:102CBC001DE1A2855285C131834709006380470518
:102CCC0023A034111945F2406244D2444249B2491E
:102CDC00224A0561828023110500A2855285613943
:102CEC00834709006386470123A034110145E1BFE6
:102CFC0083576900C18F2313F900FDB7835769000F
:102D0C005D8C231389006DBF01114AC837E900E0BF
:102D1C0022CC03240900B707200006CE26CA4EC6D3
:102D2C007D8C2320F9180F100000BD4763E5A70424
:102D3C00B144B30495029389019583A70900A69722
:102D4C009C4395CB937575000D81B315B028B3C515
:102D5C000508253783A709000145A69723A007007E
:102D6C0023A2070023208910F2406244D244424936
:102D7C00B24905618280B7E700E023A087100945BE
:102D8C00E5B741114AC017F9FF1F1309E9420327A0
:102D9C00890006C622C426C245C38346190003A671
:102DAC00C194814763C0D70A97F6FF1F83C6565755
:102DBC00954797F4FF1F9384645663EFD70683C738
:102DCC00419EBDEB17F4FF1F13044444544083A7EA
:102DDC004194631FD70682975440374736FE13073A
:102DEC0007C83697B307A7003E8563E4E70063E4A2
:102DFC00D7003385D740DC4889CB83A6819F9C467E
:102E0C003707CDFF7D17F98F9CC611E1484097F726
:102E1C00FF1F83A7A73E829719E5DC4891CFEF30BF
:102E2C00017EEF306174DC4881CB03A7819F1C4786
:102E3C00B7063300D58F1CC7B240224492440249D6
:102E4C0041018280B3A5C7208E21FDF5850799BF6E
:102E5C008297832689005840B387A6003E8563E499
:102E6C00D700E3EAE7F83385E74071B7411106C6AE
:102E7C0023A0A1940295B24097F7FF1F23A6A73475
:102E8C0001454101828023A2A19401458280411118
:102E9C00114681451385C19306C622C426C223ACB4
:102EAC00019223A0019423A2019497E0FF1FE780D5
:102EBC00A08713060002814517F5FF1F1305C52FC8
:102ECC0097E0FF1FE7804086EFB0902FC14717F4C3
:102EDC00FF1F1304642E8545130500123CA0938438
:102EEC000195EF20315388C025C130209947814589
:102EFC003306F6021306060C97E0FF1FE780C0822C
:102F0C009C403820938481949387070C9CC0B347D2
:102F1C00F72023A6F194EFF07F97552E1C309840A4
:102F2C001736010013068681B3C6E72090C293863C
:102F3C002700850793F7F70FB3C7E72014B01707DF
:102F4C0000001307479598C3B240224492444101B4
:102F5C00828097F6FF1F938626262A87BC2288320A
:102F6C00637BF5001306150083A7819490B2B347D9
:102F7C00F52098C382801305F00F82801C41F1C7A5
:102F8C00370700F07D8FB706002089476310D70CF8
:102F9C005A21411122C406C62A845DC319469305E1
:102FAC00F00F5D05EF20B10805478D47630AE50872
:102FBC001C4491C75854994741C7185851C313061C
:102FCC004003814517F5FF1F1305052197D0FF1FFF
:102FDC00E780807513064003A28517F5FF1F1305C4
:102FEC00A51F97D0FF1FE780407097F7FF1F9387AF
:102FFC00A71EDA2701E713070010DAA7F82719E351
:10300C000547F8A79A2B19E36D479AABF83719E3E4
:10301C000D47F8B7B82B19E30547B8ABB83B19E324
:10302C00F837B8BBD82B19E34947D8AB583801E768
:10303C0013074006D8BBFD572382F1A6893D814773
:10304C00B24022443E854101828089473E85828080
:10305C0079714ECE97F9FF1F9389491B83A70900FD
:10306C0006D622D426D24AD052CC829713090064B9
:10307C00B335250303D68900814617FAFF1F130ABF
:10308C00AA1332C633052503EFF0803383240A01DB
:10309C002A8401456386840232463305944063EFEB
:1030AC00840003A549008146B335A9023305A90262
:1030BC00EFF00031B30795403385870023288A0051
:1030CC00B250225492540259F249624A45618280AC
:1030DC00011122CC0A852E84414697250100938547
:1030EC00A5CB06CEEFD03FE718083324E4200357D6
:1030FC0004FFF240624497F7FF1F83D7C71137458F
:10310C000F00BA97130505243355F502056182802B
:10311C0097F7FF1F83D7271051471D45637CF70294
:10312C00794719456378F702130720031545637334
:10313C00F7021307B0041145637EF700130740062E
:10314C000D456379F7001307600909456374F700AF
:10315C0013B5B70F8280411122C426C22E84AA84D3
:10316C0006C6058C97D0FF1FE780C053B327A40277
:10317C00B2402244338597001375F50F92444101F8
:10318C008280411122C426C22E84AA8406C6058CD4
:10319C0097D0FF1FE7800051B327A402B24022440E
:1031AC0033859700334505089244410182804111D3
:1031BC0022C426C22E84AA8406C6058C97D0FF1F73
:1031CC00E780404E3335A402B24022442695924407
:1031DC0041018280AA8517F5FF1F130525031841AD
:1031EC0097D7FF1F93874779630DF700411151461D
:1031FC0006C697D0FF1FE780404FB2400145410102
:10320C00828005458280411106C622C426C259C15E
:10321C001C41AA850545B5CBDC41A5CB9E25B5C780
:10322C00BE25A5C7514617F5FF1F130525FE97D0E0
:10323C00FF1FE780804B97F7FF1F238F07FC97F446
:10324C00FF1F9384A4FC884017F4FF1F1304C4F8D9
:10325C001D397C2899EF8A249307807037460F001C
:10326C003305F5021306062481468145EFF040151F
:10327C0068A87828AD4763E4E700B1477CA8170538
:10328C000000130525DDDD360145B2402244924491
:10329C004101828097F7FF1F23AA07F297F7FF1FC0
:1032AC009387C7F617D7FF1F1307076D98C3378788
:1032BC003200FD56130727A1D4C398C797F7FF1FF9
:1032CC00238C07F4B7C7004023A4D7268DBF011168
:1032DC0022CC17F4FF1F130424F0084406CE26CA90
:1032EC004AC801E90545F2406244D24442490561AD
:1032FC0082805C54E5DB185875D770008545829741
:10330C001844B247E300F7FE4A249305E00417F98A
:10331C00FF1F130969EAEF20F10F232CA90079D1C3
:10332C0052249305F00F814497D0FF1FE780C03FD4
:10333C007C240326890163C1F402328597E0FF1FC8
:10334C00E780E0A0014597F7FF1F23A307E897F755
:10335C00FF1F23A107E841BF4E241844B3879502F1
:10336C00898185043385E7001C5808C28297C9B748
:10337C0001114EC697F9FF1F938909E683A78900AF
:10338C0022CC4AC852C406CE26CA56C25AC02A8A71
:10339C002E843289638F071C03A7C902630E0710A2
:1033AC001307F01F636CA71097F4FF1F9384C4E0FE
:1033BC0083AA840163970A0803D5C9009565938590
:1033CC0015E0EF20310588CC2A867DC583D5C90050
:1033DC0083A7C90203A589008981829783A78900E5
:1033EC0083AA8401DCCC89476313FA08C1476315AF
:1033FC00F40C83D7C9001147938707FCB3C7E702C6
:10340C00B3C75721B4231307A0056393E60A9A2385
:10341C006310470B938547004A85228697D0FF1F80
:10342C00E780A02C9C4C5685639D57110145F240BA
:10343C006244D2444249B249224A924A024B056143
:10344C008280D84CE381E7FA03D5C9009565938552
:10345C0025E0EF20217CAA8A25C183D5C9002A86C4
:10346C0083A7C90203A5890089818297ADBF8D47C7
:10347C00631CFA00C1476311F40483D7C900938716
:10348C0047FDF19BD697BDBF91476318FA006315B2
:10349C00440383D7C900A117EDB793070010631D30
:1034AC00FA00A14763EA870083D7C900C117D1BFCF
:1034BC009C4C5685639A570B294595BF1D676377BE
:1034CC00E508130705E099463347D70283D6C900B0
:1034DC0017FBFF1F130B4BCE3307D702B30AF700B2
:1034EC008327CB016395570183248B018DE003D592
:1034FC00C9009305E004EF20E171AA8455DD83D562
:10350C00C90083A7C9022A8689815685829791456D
:10351C001307A00593F5C50FB387B400B4236390CC
:10352C00E6049623639B460391052286A6954A855D
:10353C0097D0FF1FE780601B83278B01E38897EEF2
:10354C00268597E0FF1FE7808080CDB5A166F91630
:10355C00E3E4A6F63307E54095BFAC3365BF83279C
:10356C008B01E38B97F4268597D0FF1FE780207E95
:10357C00A1B797F5FF1F83A5A5C59DDD91479306C0
:10358C00A00593F7C70F3387F5003023E316D6F267
:10359C001223631B460191072286BE954A8597D05C
:1035AC00FF1FE780801459B53C33E1BF97F7FF1F2D
:1035BC00938787C2984721C7985B31C385466310B0
:1035CC00D504411122C417F4FF1F1304E4BE104CA0
:1035DC0006C615C2CE27484C89810297084C97D055
:1035EC00FF1FE780C07697F7FF1F23A307BE97F74F
:1035FC00FF1F23A107BEB24022444101828082807A
:10360C00011122CC17F4FF1F130404BD4EC68329ED
:10361C00840026CA4AC852C406CE56C22A89AE8431
:10362C00328A6385091A1C5899EB2945F240624489
:10363C00D2444249B249224A924A056182805C5482
:10364C00EDD79307F01F63E0A70C97F9FF1F938941
:10365C00A9B683A78901A9C7084483A7C901639A9E
:10366C00A70489476311F906C147E390F4FC5E2473
:10367C001147938707FCB3C7E70203A78901B3C7B8
:10368C00E7201307A005B8A3239027012686D2852F
:10369C001385470097D0FF1FE7802005014579B7B8
:1036AC004A249305E004EF20E15623ACA9004DF524
:1036BC00ADBF4E245C5403A68901898182971C44BA
:1036CC0023AEF90079BF8D47631DF900C147E39E16
:1036DC00F4F45A24130747FD83A78901719BBA9709
:1036EC004DB791476317F900E39124F55A2421173C
:1036FC00E5B793070010E31AF9F2A147E3E797F255
:10370C005A244117D1BF9D676372F506930705E0F4
:10371C001947B3C7E7025A2497FAFF1F938ACAA91D
:10372C00B387E702BE9983A78A01A1CB83A7CA01FD
:10373C00639E370503A58A0191471308A0059305DD
:10374C00F00F13F7C70FB306E500B022631D060593
:10375C0083D80600B03263962805B307F64063C1E0
:10376C00970411072686D2853A952DB721677917CC
:10377C00E36DA7EAB307F54079BF4A249305E0044B
:10378C00EF20414923ACAA0055F145B54E245C54B9
:10379C0003A68A0189814E85829723AE3A0159BFCF
:1037AC008EA2B28779BF5224B38597009105130678
:1037BC0006FCE36CB6E613863400719A1106B297D8
:1037CC002381060123902601BCB261BF97F9FF1F2C
:1037DC009389899E83A789019DCB03A58901914774
:1037EC001308A0059305F00F13F7C70FB306E500F8
:1037FC00B022631C060383D80600B03263972801FD
:10380C00B307F640E3DF97F48EA2B287F1BF7C24B6
:10381C004A249305E0043305F50233450508EF20EF
:10382C00613F23ACA90055F909B552246C24B3852A
:10383C00C502338697001106E3E9C5DEADBF01452D
:10384C008280011106CE2EC6EF40703719C5B245E5
:10385C00F2402A2105616F80002AF240494505613A
:10386C008280A38A0196238A019623A8019623A617
:10387C00019623AC019423AA019497F7FF1F938719
:10388C00279A3707B40098C33707A0001307070A15
:10389C00D8C337C70700130707B898C74167410754
:1038AC00D8C737077F0098CB370781FFD8CB7D5718
:1038BC009AAF8280011152C42A8A214522CC26CA91
:1038CC004AC84EC606CE2E84B2893689BA84EFE039
:1038DC005FE305C9930700FD1CA19947A3004501AF
:1038EC003CA12303250164B123123501AA8522854D
:1038FC006244F240D2444249B249224A05616FE027
:10390C00FFEFF2406244D2444249B249224A056177
:10391C00828023A8A196828023A6A1968280011181
:10392C0022CC26CA4AC806CE4EC62A89AE84014489
:10393C00B309890063699400F2406244D24442495D
:10394C00B2490561828097D0FF1FE780A0D5B347AD
:10395C000508A1832380F9009307140093F7F70F50
:10396C00850963F89700CA97090488A31374F40FA8
:10397C00C1B73E84C1B7411122C417F4FF1F130411
:10398C00A48B0A28C16706C6FD17630AF50003C697
:10399C00419C9385C195EF40B005FD571EA8B240E0
:1039AC0022444101828023900500B1CE8147130E41
:1039BC00000C63FAC7043387F6000348070013872B
:1039CC0017003347070863000804B308E800634C8A
:1039DC001603B388E60083C80800638608021383C5
:1039EC0028FC1373F30F63706E021303F8FF23901C
:1039FC0065006396A80005073385E6008280C297B0
:103A0C00B3C707087DB701458280011122CC26CAB5
:103A1C004AC84EC606CE97F4FF1F9384E4812E89C4
:103A2C0090C4CCC088C02A8441469305F00F4A85C7
:103A3C00EF10F15F854963173503C840C145C535A3
:103A4C0041469305F00F2285EF10715E0549631313
:103A5C00250362448840F240D2444249B249C145F0
:103A6C00056175BD414681454A85EF10515CE319EE
:103A7C0035FDE1B7414681452285EF10515BE30AE4
:103A8C0025FDF2406244D2444249B249056182802C
:103A9C00411122C426C22E84AA847146814517E5A1
:103AAC00FF1F1305657906C64AC097D0FF1FE78034
:103ABC00A0C717E9FF1F130929782384819CA3074A
:103ACC009900EF80C004854719C1814749452306F9
:103ADC00F900B240224492440249410182809DC1C6
:103AEC001DC185476317F500DC3193E707FCDCB19A
:103AFC0021A089476304F50005458280DC3193F7EA
:103B0C00F703F5B7014582808DC10DC1DC31130778
:103B1C00000C054593F7070C638AE70013070004B4
:103B2C0009456395E7000D4582800145828041116E
:103B3C0022C4005D06C626C21DC8AA84085009C549
:103B4C0097D0FF1FE780A020485009C597D0FF1FD2
:103B5C00E780E01F085409C597D0FF1FE780201F9E
:103B6C00228597D0FF1FE780801E23AC0402B24051
:103B7C00224492444101828009ED97E7FF1F83C7DD
:103B8C00876C17E5FF1F1305656C81CB1385419678
:103B9C00828017E5FF1F1305656B828017E5FF1FF9
:103BAC000345656A828017E5FF1F0325E56882805F
:103BBC0017E5FF1F03258568828097E7FF1F83A702
:103BCC0027688843828017E7FF1F1307E7661447AF
:103BDC009C4285079CC268379307F00F6305F5007C
:103BEC0091656F10B1588280011122CC06CE2E84C3
:103BFC0032C6EF40100B9147B245631CF50083A70A
:103C0C00C19681CB9C4391C722856244F2400561E9
:103C1C008287F2406244054505618280797122D425
:103C2C002A844A214ECE06D626D24AD0EF40A0682E
:103C3C009389419729E583C409009307F00F639991
:103C4C00F40083C551972685ED3E19E1238A019630
:103C5C004A20EF4010059147631CF50097E7FF1FC2
:103C6C009387875D56209A2B6394E6007D579AAB19
:103C7C00B250225492540259F2494561828058251F
:103C8C0004212A893AC665354A85EF40B02E4A2070
:103C9C00EF40A07C83C70900324799C3E38397FAAE
:103CAC009307F00F5220E385F4FA74202820A685A0
:103CBC00113179BF411126C206C622C44AC097E40D
:103CCC00FF1F93846457F8349307F00F6303F704D2
:103CDC002A892945EFE0FFA22A8405CD930700FD30
:103CEC001CA1A147A30025013CA1FC24938541966E
:103CFC001105A30FF5FE194697D0FF1FE780E09E34
:103D0C00A2852244E834B2409244024941016FE05A
:103D1C00FFAEB24022449244024941018280797143
:103D2C005AC82A8B2E854ECE52CC56CA06D622D4D1
:103D3C0026D24AD05EC62E8AB28AB689EF40A057E8
:103D4C0065C5045D2A89EDC09C501305400391E3C1
:103D5C0061459C5489C79307450133C507086386A1
:103D6C0009009307C50133C50708DC5089C79307C1
:103D7C00750133C50708EFE0DF982A8455C5614605
:103D8C00814597D0FF1FE780209A97EBFF1F83CBCD
:103D9C002B4A63940B00834B0900930700FD1CA076
:103DAC00A947A30064013CA0230354018C502312A7
:103DBC0044011305840191C908C47146130A4403D4
:103DCC0097D0FF1FE780609252858C5491C948C4EC
:103DDC005146130A450197D0FF1FE7800091528589
:103DEC00638C090008C87146CE85130AC50197D0AB
:103DFC00FF1FE780808F5285CC5099C548C85D461F
:103E0C0097D0FF1FE780608EA2855E85EFE01F9F35
:103E1C002254B2509254F249624AD24A424BB24BAB
:103E2C004A850259456121B3B25022549254025929
:103E3C00F249624AD24A424BB24B4561828001112F
:103E4C004EC6AA892E8526CA06CE22CC4AC8AE8476
:103E5C00EF40604631C517E9FF1F0349693D631404
:103E6C000900034905001945EFE0BF892A840DC9F3
:103E7C008145194697D0FF1FE780008B930700FD03
:103E8C001CA0B947A30034013CA046A0A285624403
:103E9C00F240D244B2494A85424905616FE01F960F
:103EAC00F2406244D2444249B24905618280797140
:103EBC0062C42A8C2E8526D24ECE52CC56CA5AC8F3
:103ECC005EC606D622D44AD0AE84B28B368BBA8A62
:103EDC003E8AC289EF40203E25C52A894145EFE044
:103EEC005F822A8431CD4146814597D0FF1FE78000
:103EFC00A08317E5FF1F0345A53319E1034509000E
:103F0C00930700FD1CA0BD47A30084013CA0230423
:103F1C007401A304640123055401A305440146A0C4
:103F2C0023263401A2852254B25092540259F249EC
:103F3C00624AD24A424BB24B224C45616FE01F8C15
:103F4C00B250225492540259F249624AD24A424B1C
:103F5C00B24B224C45618280411126C206C622C456
:103F6C004AC097E4FF1F9384242DF8349307F00F75
:103F7C006306F7042A893945EFE0AFF82A841DCD92
:103F8C00930700FD1CA1A30025012301050097E563
:103F9C00FF1F9385A52B0D05194697C0FF1FE780C2
:103FAC00C074BE28A2853EA4DC345CA42244E83450
:103FBC00B2409244024941016FE05F84B240224416
:103FCC009244024941018280011156C2AA8A3145AC
:103FDC0026CA4AC84EC652C406CE22CC5AC0AE849B
:103FEC00328AB6893A89EFE0CFF13DC12A84268521
:103FFC00EF40602C29C903CB919C639B0A0083A7DB
:10400C0081A39C4791C7CA864E86D2852685829706
:10401C00930700FD1CA09D47A30054013CA046A0A3
:10402C00231344012314340123152401A285624473
:10403C00F240D2444249B249224A924A5A85024B32
:10404C0005616FE0AFFB17EBFF1F034BDB1FC9B71D
:10405C00F2406244D2444249B249224A924A024B4B
:10406C0005618280411126C2AA84214522C406C65C
:10407C002E84EFE00FE915C5930700FD1CA1C54781
:10408C003CA13C30AA853CB15E205EA17C207CA189
:10409C007C307CB12244B2402685924441016FE0D1
:1040AC00EFF5B2402244924441018280797162C49E
:1040BC002A8C594526D24AD04ECE52CC56CA5AC812
:1040CC005EC666C26AC006D622D4035D0103834C69
:1040DC0041032E89B28BB6843A8BBE8A428AC6893A
:1040EC00EFE02FE235C5930700FD1CA19547A30017
:1040FC0085013CA1A30175012A8419461105B9C09B
:10410C00A68597C0FF1FE780405E23065401230A53
:10411C009401231564012317440123183401231936
:10412C00A401A2852254B2509254F249624AD24A56
:10413C00424BB24B224C924C024D4A85025945617E
:10414C006FE0CFEB814597C0FF1FE780E05D75BF47
:10415C00B250225492540259F249624AD24A424B0A
:10416C00B24B224C924C024D45618280411122C4CB
:10417C0006C617E4FF1F1304240C7C248DC7AA85E4
:10418C0019461385419697C0FF1FE7800056682497
:10419C0093854196EFF0BF942244B240138541962B
:1041AC0041016F70D01AB240224401454101828016
:1041BC00797122D406D626D24AD04ECE52CC09449E
:1041CC0059C12A890A212E8A5144EF40C00EAA8473
:1041DC003DC91C5D4544A5EB91659385457113055F
:1041EC00C002EF10312388DCAA894D4429CD130677
:1041FC00C002814597C0FF1FE78000538357090019
:10420C009386490036852391F90071469305490040
:10421C0036C697C0FF1FE780404D89472380F900C1
:10422C00B2460356090083C5419C0145EF40105E20
:10423C002A8463060A00D2852685EF40807901C462
:10424C002685EFF0DF8EB25022852254925402590B
:10425C00F249624A4561828031CA411122C426C2A8
:10426C004AC006C62E89B284EF40E0042A84514528
:10427C0005C8485409C597D0FF1FE78040ADF145EC
:10428C002685EFE0AFE7AA8748D44D4591CB58205F
:10429C009367470063040900936767005CA00145BE
:1042AC00B2402244924402494101828009458280F5
:1042BC00AD4763EAA70097E7FF1F938767F633259F
:1042CC00F5200A21828041657D158280011122CC66
:1042DC002A842E8526CA06CEAE84EF30D07D0DCD35
:1042EC00B7470F009387F723094563E2870281459F
:1042FC000A85414697C0FF1FE7800043A685608072
:10430C000A8541804081A3010100EF40703FF240DB
:10431C006244D244056182804945D5BF2383A19C68
:10432C0082806F401049797152CC2A8A328526D20C
:10433C004AD04ECE56CA5AC85EC662C406D622D4DD
:10434C002E8CB28A368BBA8B3E89C289C684EF30EA
:10435C00907605C92A8463100A1893774B0003439F
:10436C00450085CF13632301639A0B14631809125C
:10437C00639B090885E81C5C1373B3FF230264007C
:10438C00C5E7B250225492540259F249624AD24AB9
:10439C00424BB24B224C456182801373D3FF1363A3
:1043AC000301D9B713634300230264009C484146C0
:1043BC00A6851CD41305840197C0FF1FE780E0324B
:1043CC0063190C1063860B0A485409C597D0FF1F5C
:1043DC00E780E097F1455E85EFE04FD248D4005C72
:1043EC004DD01C5081EB9165938535717145EF1063
:1043FC00710208D008500DC17146DE8597C0FF1FB1
:10440C00E780A02E11A81363430023026400D9FC9B
:10441C00005C630C0C0235D4639A0902B1EC29A040
:10442C00005C25D0639409022254B2509254F24994
:10443C00B24B224CCA865A860259424BD6855285BB
:10444C00D24A624A45616FF09F8D05DC5C5081EB6E
:10445C009165938525715D45EF10C17B48D048501F
:10446C0055DD5D46CE8597C0FF1FE78000287DB7E0
:10447C00005C01D8E39C09FC1C5481EB916593858D
:10448C0015715145EF10017908D4085451DD51468E
:10449C00A68597C0FF1FE780402579B713634300BB
:1044AC0023026400E39404F0E30C0CF6485415E981
:1044BC00F1454A85EFE08FC448D431A8136343001B
:1044CC0023026400E39404EEE3000CF0E31009FE15
:1044DC0039B7E31D09FC005CE30504EAE3930BF038
:1044EC0025BF97D0FF1FE7808086D9B7011126CA58
:1044FC0052C406CE22CC4AC84EC62A8AAE84EF30AD
:10450C00905B25C12A893945EFE0AF9F2A8431C9D8
:10451C0097E9FF1F83C9C9D1639409008349090036
:10452C009307000D1EA0AD473CA093056900130531
:10453C003400194697C0FF1FE780201B93F7140027
:10454C005CA493D4144844B423154401A28562445A
:10455C00F240D2444249224A4E85B24905616FE08D
:10456C00EFA9F2406244D2444249B249224A056161
:10457C00828003A5419501CD411106C697C0FF1F4E
:10458C00E780E07CB24023AA0194410182808280C2
:10459C00411122C406C626C24AC02E84EF30B05147
:1045AC0039C900D517E9FF1F034989C8AA846314C8
:1045BC000900034905004145EFE0AF942A8405CD7D
:1045CC009307000D1EA1A5473CA1DC309385640028
:1045DC001105A30FF5FE194697C0FF1FE780E010E9
:1045EC009C54A285B2405CC4224492444A85024940
:1045FC0041016FE0AFA0B240224492440249410114
:10460C0082809387C1958EA3B2A3BE8503C6419CBD
:10461C00D6A3FAA36F30D03D011122CC26CA06CE08
:10462C00AA842E84EF3030490DC954251147AA872E
:10463C004945639FE6009C5F91C3E02B97560000B1
:10464C00938606E80A86894526854080EF40602FD0
:10465C00F2406244D244056182805145D5BF21C6E7
:10466C00411122C426C24AC006C62E89B284EF303C
:10467C0090442A84514515C0630609005C2093E7D9
:10468C0027005CA0130584014146A68597C0FF1F37
:10469C00E780A0059C4801451CD4B24022449244BA
:1046AC0002494101828009458280011122CC26CA2F
:1046BC0006CE2A84AE84EF30104019C96C002285D6
:1046CC004486EF40A02DF2406244D24405618280C2
:1046DC005145D5BF6F3070532D47AA876360A70231
:1046EC0041677D170945638CE50017E7FF1F13072A
:1046FC0027B3B3A7E72001458EA3828009458280AA
:10470C00011122CC3E8606CE26CA4AC891470944DE
:10471C006392F50232C6B6843A89EFF06FB732462F
:10472C002A8409E9CA852685EFF02FAEEF00D04028
:10473C00EF00D020F24022856244D2444249056108
:10474C008280411106C622C42A84EFF08F91EF00BB
:10475C009021EF903072814517E5FF1F1305C5AD11
:10476C00714697C0FF1FE78020FC930700F017E706
:10477C00FF1F231AF7AC7D579387419CB8A380A3E6
:10478C0022852244B240954541016F30C01B1D71FA
:10479C00A6CA86CEA2CCCAC8CEC6D2C4D6C2DAC0ED
:1047AC005EDE62DC66DA6AD86ED6AE8493975560AC
:1047BC0063DA07341389419C03450900C169930AE4
:1047CC00200AEFD03FFA2A84130BF00F930B100939
:1047DC00154CB94C17EDFF1F130D0DA6FD1915E067
:1047EC001395F468F6406644D6444649B649264AC1
:1047FC00964A064BF25B625CD25C425DB25D25610F
:10480C0082801C20639A5701034AFD002A202286CD
:10481C00CE85EFF06FBDF1A8034A2900639A7709A2
:10482C001C30639E87012285EFF04FBF2285EFD0AD
:10483C003FE803450900EFD0FFF22A844DB7639B94
:10484C0097115E2005672507639AE7040C4497EDE2
:10485C00FF1F938D6D9E882115E51946850517E57B
:10486C00FF1F1305A59E97C0FF1FE78000E803C735
:10487C00CD008547631EF70289472386FD00EF7044
:10488C00002B6DB703C7CD0085476313F70297E77D
:10489C00FF1F2389079AEFF02FEC49BF0967930696
:1048AC0057006384D70A63ECF60009076385E704B5
:1048BC00E30E6AF7A2855285EFD05FF49DBF2907FE
:1048CC006372F70279771307A7FCBA977147B3C7DE
:1048DC000708E36FF7FC370700181307F770B35797
:1048EC00F748F9D783A70197B1D39C43A1D322856D
:1048FC0082970DFD75BF832D8400E38B0DFA03C7E2
:10490C000D0097E7FF1F9387279319EB03C72D0023
:10491C0083C61D002207558FBAAB03C73D00D8B71D
:10492C00D4270947E396E6F803C70D0001CB97E7B8
:10493C00FF1F2389079003C50D00B1BFCC37AA2BED
:10494C000D47D8A7EF30C002FDB71C448823EFF009
:10495C006FB6E9BD3D476393E7045A208967938698
:10496C00D700E305D7EC93869701E301D7ECCD078D
:10497C00E310F7F4C16717E7FF1F0357E78CFD1728
:10498C00E306F7EA83A7C196E38207EA9C43E38F29
:10499C0007E80965A2854D058297A1BF1307E003BF
:1049AC00E398E7F03C2005476399E70A83A7019752
:1049BC0097EDFF1F83CD3D8991C7DC4381C78145AE
:1049CC00014582976830130A8400D285EFF0CF93AB
:1049DC005C2868B0835804010358E4005A202A86E6
:1049EC0028303EC23E28D286EE853EC09147EFF07D
:1049FC00EFEB3C3095E3DD47835804010358E400AA
:104A0C0074304E203EC23E28528705463EC06E850D
:104A1C009147EF30D03D28B083A7419581C7114510
:104A2C00EFF03FB5138A419703450A00E30005E018
:104A3C0083C55197EFE0FFE0E30A05DE34309307BE
:104A4C0010036389F600522083450A00114736850E
:104A5C00EFE05FE6238A0196D1BB31476386E70816
:104A6C006361F7040D47638EE7041947E392E7E4AB
:104A7C006C0813051031EF9010449305E1011305F8
:104A8C002031EF9050437220BC874A2063E6C70068
:104A9C001624B88663FBE60293050002EF70601AD9
:104AAC0071B349476385E7044D47E393E7E083A778
:104ABC000197E38F07DEDC43E38C07DEA285094513
:104ACC0081A022868D454A20A9B36373E6007AA0A3
:104ADC0063F3D7001EA45A24362412246E200148F6
:104AEC008147EF70601399B32286B145E9BF83A764
:104AFC000197E38F07DADC43E38C07DA8145054540
:104B0C0082977DB313F52500E30E05CC83A701979F
:104B1C0091C7DC4381C781450545829713C52400A5
:104B2C00D1B11D71A6CA938481959840A2CC86CE32
:104B3C00CAC8CEC6054435CF283397D7FF1F83C7C5
:104B4C008770B337F000930547003EDEEFE03FF986
:104B5C0098402ADC09452C232EDAEFF06FF52AD881
:104B6C000D45EFF0EFF403A904002AD625450347C1
:104B7C00A9008349B9003AD4EFF08FF3AA842945F0
:104B8C00EFF00FF36258F2572257B2564256D255F5
:104B9C001375F50F2ACC22C402CA02C802C64EC035
:104BAC009308490005459394446026C2EF70E00FCA
:104BBC002A84F64022856644D6444649B649256186
:104BCC00828003A5819501CD411106C697C0FF1FB8
:104BDC00E780E017B24023AC0194410182808280CF
:104BEC00011122CC06CE26CA8D472E846313F50400
:104BFC00B831E947CA2197D4FF1F9384E463631546
:104C0C00F7009E286382A704EF30E06A7220162416
:104C1C003A2401C572A516A93AA94E202830EFF006
:104C2C00AFBA5A209E286314F700FD579EA805457D
:104C3C0025A88967CD07631CF500BC213147638526
:104C4C00E7004547E395E7FEEFE0FFD2CDB7B1476C
:104C5C006317F50003C5919CEFF0CFC0C9BFC167C6
:104C6C00FD176308F5000145F2406244D24405612A
:104C7C008280D831C947E318F7FECC212A203000B6
:104C8C0023140100EF30A0555DB7411122C44AC076
:104C9C0006C626C213895198834709001307E00FF3
:104CAC002E846380E7041307F00F6383E70211453A
:104CBC00EFD03FA5AA8509CD930700FD1CA189471C
:104CCC003CA1854700B13CB103450900EFD01FB3AF
:104CDC00F9572300F900B2402244924402494101A1
:104CEC008280AA841145EFD0DFA1AA856DD59307E8
:104CFC0000FD1CA1894700B13CA124B12244B24063
:104D0C009244024903C5419841016FD03FAF011154
:104D1C0026CA938481959C4006CE22CC4AC8B5EB1A
:104D2C002E8991652382A1982A84938575713145CA
:104D3C00EF00516EAA8788C04D45B1C780A3A380F0
:104D4C000700138527002946CA8597C0FF1FE780F7
:104D5C00C09994409147B82263E2E702CD4711CF46
:104D6C000546F547630BC7000946C9476307C700EB
:104D7C000D46C1476303C700D547BCA25D3301C5CF
:104D8C002AC681353245F2406244D244424905611B
:104D9C0082804545CDBF011126CA938481959C40E4
:104DAC0022CC06CE4AC8494495CF9C230D44639B24
:104DBC00A7021389419C034509008945EFD0FFEBFD
:104DCC00034509009145EFD05FEB9C4001478146BC
:104DDC0080B31306F100854785450145DC87EF60FC
:104DEC00F0752A84F24022856244D244424905611E
:104DFC00828041114AC006C61389819522C426C2FD
:104E0C00054783270900631AE500C1C72244B24055
:104E1C009244024988234101BDBFA5CF8947631E37
:104E2C00F5042D45AE84EFD0DF8D2A843DC1930768
:104E3C0000FD1CA1E547A30005003CA1BC301505F5
:104E4C001946230FF5FEDC2093855400A30FF5FEC5
:104E5C0097C0FF1FE780608903C5919C9307F00FF3
:104E6C006315F500832709008823A2852244B240EC
:104E7C009244024941016FD07F98894503C5419CFA
:104E8C00EFD0BFDF2244B2409244024941016FF09F
:104E9C005FD3B24022449244024941018280FD47D3
:104EAC0063FCA700094582800945F2406244D24464
:104EBC004249B24905618280011122CC06CE26CA34
:104ECC004AC84EC62A8421CDAE89916521059385A9
:104EDC00657133450508EF00F153AA8471D5138928
:104EEC0001980325090009C597C0FF1FE78020E63C
:104EFC001385840088C0228681452320990097C0A1
:104F0C00FF1FE7806082832709002286CE858843B5
:104F1C0097B0FF1FE780607D83270900C2A383A79A
:104F2C00819585CB83C7819C918B95C783A701986D
:104F3C0091CF9843D6236244F240D2444249B249BD
:104F4C0005468D45054505616F60505B01478146FF
:104F5C00DDB7014599BF494589BFFD4763FCA700F3
:104F6C00094582800945F2406244D2444249B24923
:104F7C0005618280011122CC06CE26CA4AC84EC6D3
:104F8C002A8421CDAE8991652105938555713345D0
:104F9C000508EF003148AA8471D51389C197032500
:104FAC00090009C597C0FF1FE78060DA13858400EC
:104FBC0088C0228681452320990097B0FF1FE78087
:104FCC00A076832709002286CE85884397B0FF1FE1
:104FDC00E780A07183270900C2A383A7819585CBA5
:104FEC0083C7819C918B95C783A7C19791CF984319
:104FFC00D6236244F240D2444249B24905468D451B
:10500C00054505616F60905101478146DDB701454B
:10501C0099BF494589BF83A7019889CFD2238C4377
:10502C00411106C697B0FF1FE780206CB2400145C6
:10503C00410182800945828083A7019895C303A70B
:10504C00C197894719CF52230C43411106C697B01B
:10505C00FF1FE7808069B24081473E854101828015
:10506C0089473E85828079714AD006D622D426D2D1
:10507C004ECE17D9FF1F1309291C89478349E90014
:10508C0063FAA7000945B250225492540259F249CE
:10509C00456182800347C9008D472A844145E3144A
:1050AC00F7FE9307F4FF93F7F70F0547637DF700BF
:1050BC00914503C5419C97D7FF1F23860718EFD056
:1050CC00DFBB0145C9B7AE849DE199452800EFE0EF
:1050DC001F85914503C5419C23078900EFD0FFB97B
:1050EC002800EFF0AF8871DD2307390169BF19463D
:1050FC008145280097B0FF1FE780006319462C00FC
:10510C00268597B0FF1FE78020662DFD1946930575
:10511C00F00F280097B0FF1FE780006119462C00A4
:10512C00268597B0FF1FE780206429FD1946A685C8
:10513C00280097B0FF1FE780405B61BF83C7819C4D
:10514C00918B99CF41111385819706C6EFE0CFFC67
:10515C00B240FD5717D7FF1F2318F70E410182806D
:10516C0001456FE06FFBFD572382F198F957A3823D
:10517C00F19823A0019823AE019697D7FF1F938730
:10518C00670D170700001307470798C317070000A0
:10519C00130767C6D8C3170700001307C79898C72B
:1051AC0097070000938707A423ACF19682804111E6
:1051BC0026C2938481959C4006C622C485CB2A8442
:1051CC000D45EFD00FD4AA8519C9930700FD1CA17A
:1051DC008D4700B13CA19C408823EFD02FE219C42D
:1051EC002244B240924441016FF0BF9DB240224430
:1051FC0092444101828056210111096706CE22CCCE
:10520C0026CA13066703AA87639DC6001C45014581
:10521C008C23EFF09FA70545F2406244D244056110
:10522C008280130677036396C6001C4505458C23C4
:10523C00CDB713068703639BC6061C459384519810
:10524C001307E00F80239C206389E7021307F00FFC
:10525C006382E7021145EFD0CFCAAA8501CD93072F
:10526C0000FD1CA1894700B13CA1A30105008820C9
:10527C00EFD0CFD8F9579CA079BF83A78195014572
:10528C00C1DF15E0054723170100588698B3930634
:10529C00E1001307D100700085450545A306010008
:1052AC00EF60D0298DBF22851937B5B71307970347
:1052BC000145E393E6F613848195184031DF9C4752
:1052CC001833842385476304F7020D45EFD06FC371
:1052DC00AA8519C9930700FD1CA1914704B13CA1F3
:1052EC001C408823EFD08FD1EFF0BF8D2DB783A753
:1052FC00019889CB9443D2239305E1000545EFE057
:10530C008FEA05E10145EFE0BFFA2A8611C689450F
:10531C0003C5419CEFD00FF71C400947268598B375
:10532C0061B71C21858BF9DF0545EFE07FF893070A
:10533C0000643306F502D9BF411122C403C4819C19
:10534C0006C6118809CC17D5FF1F1305A5F0EFE091
:10535C004FDC4D44B24022852244410182800145FC
:10536C00EFE02FDBC5BF7547AA876365B70211470E
:10537C0001456378B702ED1593F5F50F614763614D
:10538C00B702970601009386A6BFB3C5D5209841F6
:10539C003697028793F5F50713072005638AE50016
:1053AC0001458280C84782808843828088478280FA
:1053BC00C84382809307F00F630DF506011126CACE
:1053CC00AA841305000222CC4AC84EC652C456C247
:1053DC0006CE2E8AB28AB6893A89EFD08FB22A8449
:1053EC004D450DC8930700FB1CA0A30054012311CD
:1053FC00440123023401130584006146630509024C
:10540C00CA8597B0FF1FE780402EA2852685EFD076
:10541C00EFBE0145F2406244D2444249B249224AAD
:10542C00924A05618280814597B0FF1FE780C02FAB
:10543C00E9BF09458280011122CC06CE2A844C8614
:10544C00D086EF20506709C978009306E007014623
:10545C00A28503C5919CB93FF240624405618280EC
:10546C00930700643306F6026FD0CFF515C14111D6
:10547C0022C406C62A8408219307D00F63E6A7002E
:10548C00EFD09F88FD571CA0B2402244410182807E
:10549C0082801A219307000B6310F7025C214947A5
:1054AC00639AE700183985476398E7002A218545F8
:1054BC006F2040496D47CDBF8280011122CC26CA96
:1054CC004AC806CE2A84AE84328936C6EF20B05E36
:1054DC00324701CDA2856244F240CA8626864249F3
:1054EC00D24403C5919C0561F1B5F2406244D244AB
:1054FC00424905450561828023A4A198828001114F
:10550C0022CC26CA06CE2A84AE84EF20D05AA68599
:10551C002285EF90406A11ED22856486EF20B05908
:10552C0009C978009306F0070146A28503C5919C32
:10553C005135F2406244D24405618280797122D4A3
:10554C004AD0AE8706D6BA8526D24ECE754732845F
:10555C0036896364F7042147636CF7001547638849
:10556C00E7021947638BE708C167FD1785441DA047
:10557C0037061400DD1713060620B317F0287D8EAE
:10558C0059EA19677D8F35E793F71710F1DFC1677B
:10559C00FD1789446316F40221A813F7F707930645
:1055AC002005E313D7FC41677D17631CE6048D448B
:1055BC002EC6EF900064B245330495403344040882
:1055CC003385840033450508EF20003CAA87B3C916
:1055DC00040831C563040900231089002254B25019
:1055EC0092540259B3053041F2493E8545616F90A2
:1055FC004043C167FD17954471BFC167FD179D44BA
:10560C0051BF1307200D8D44E39CE7FA1304C60029
:10561C003344040875B7C167FD178D44A5BFB2505C
:10562C00225492540259F2494561828079714ECECE
:10563C00AE89C16526D20147AA8489461386C18AE0
:10564C00FD15054522D406D64AD0EF00B04E0544D0
:10565C0021C92A891307300281461146F545268552
:10566C00F13D2AC655440DCD0357A900CE860146FF
:10567C00788411477885054718A1B2472C002685F8
:10568C00A38007003247FD573CA332473CB3EF00E1
:10569C0030402A8411C5324597B0FF1FE780206B3C
:1056AC00B2502285225492540259F24945618280AB
:1056BC00411106C6EFF03FCB19C5B240410117B3FB
:1056CC00FF1F6700C368B24041018280011106CE02
:1056DC002AC6EF9060393245914523A6019823A440
:1056EC000198A382A19CEF200026F24005616F1067
:1056FC0050559397556063D50714797103C5519C28
:10570C0022D426D206D64AD0AE84EFD0AF852A84D6
:10571C0059C918219307000A6314F70885474C08E8
:10572C00DC85EF90C04011CD9C8599C7084409C514
:10573C0097B0FF1FE780A0612A208545EF208020CD
:10574C0085A08347610191CF71476366F7064D478A
:10575C00637BF7069386C7FE130730143357D7487D
:10576C003DC303A7819801C7034751012DCF9C85E9
:10577C0099C7084409C597B0FF1FE780405D5247A1
:10578C00B7070001938707F07D8FB7071200938747
:10579C0007106307F70003476101ED47E30EF7F8C5
:1057AC002285EFC0FFF0B250225402591395F468D1
:1057BC00925445618280138717FE1377F70F930677
:1057CC000002E3F0E6FA858B95CB83A7C198A9DF9D
:1057DC002A201306B1004C0882979C852A89B1EBCC
:1057EC00E30F09F891BF5C8699472308F1002A2042
:1057FC006C0023170100EF90405195BF83A781984F
:10580C009DC72A201306B1004C0882972DD18347DF
:10581C005101E39B07F02308A100834761012A2073
:10582C006C005C8623170100EF90204EF5BD1945E6
:10583C00F9BF084455D597B0FF1FE78040514DB7CD
:10584C00014582800145828003C7B19C814763E496
:10585C00E700014582809221938645006314A600DF
:10586C002E8582808507B685DDB71DC5411122C402
:10587C0006C638219307D00F2A8463EBE7000E216C
:10588C0028310147F9465D46EFF0DFB2F9573EA0EB
:10589C00B240224441018280828003C7B19C81477F
:1058AC00FD5663C3E700828016A12301050085071E
:1058BC001105C5BF01458280938551839307000272
:1058CC0085469CA1FD57238AF182A389F182238905
:1058DC00F1822398D182239A019823A8019823A4BA
:1058EC00019A23A2019A138681839387418D5CC20E
:1058FC002386019A97D7FF1F93878796094718A28B
:10590C0098A398AB2380E7022388E7021387018CC6
:10591C0094A7D0C794AFD8DB1385018D0D471386A0
:10592C00418C9386C18A238CE702C8C32395070058
:10593C00D0CB239D0700CCCFD4D32384070223954F
:10594C00070223A60702239D070203A78199D8DF2C
:10595C0097D7FF1F9387C794170700001307E70A11
:10596C0023A00700D8C323A407008280411106C6D8
:10597C00E13D09C52821B240410182800145E5BFC6
:10598C00411122C426C24AC006C6AA842E8932847A
:10599C00653DAA8709E94165CA857D157535AA87D4
:1059AC00454581C786A3A0A30145B2402244924439
:1059BC0002494101828015EF09483547639C060373
:1059CC00011106CE22CC182210322206598E32C674
:1059DC00B377F64095E3CC452A842EC4413F32463A
:1059EC000147630DC50022856244A245F240056162
:1059FC0041BF2D473A85828013070008F24062446C
:105A0C003A850561828083C80500094863900803C4
:105A1C00DC4103C807009C33A207B3E707010D68FC
:105A2C001308289063940701894771B70545828054
:105A3C0001114EC606CE22CC26CA4AC893893183A0
:105A4C0003C709009307F00F630DF7022A89294554
:105A5C00AE843284EFC0FFCAAA8505C59307100B2C
:105A6C001EA12302050002A562442311250166A193
:105A7C00F24003C50900D2444249B24905616FC0E6
:105A8C00FFD7F2406244D2444249B2490561828058
:105A9C00411126C2AE8483A5819922C406C62A84EC
:105AAC00F135098909C922852244B240A685924460
:105ABC0041016FF0BFB7B240224492440545410109
:105ACC008280411122C426C24AC006C6AA8413048D
