:081000006F104050E0170020C2
:10100800000000000000000018670100240B002009
:10101800A9BDF9F3186701000000000000000000F6
:1010280018670100186701000000000000000000B8
:1010380018670100000000001867010000000000A8
:101048000000000018670100000000001867010098
:101058001867010018670100186701000000000008
:101068001867010000000000000000001867010078
:10107800FA0B0020186701001867010018670100C3
:101088000000000018670100000000001867010058
:10109800972700009387C7789C53411122C406C63E
:1010A8001384418399C782971C403E9523AAA18245
:1010B80029A09387018E9C43FDF70840B74703009A
:1010C8009387D73F3305F502B7A72600938737ECF8
:1010D800B24022443E9523AAA18241018280B7E70B
:1010E80000E09843B706200023A0D718758F0F108B
:1010F800000001C599C1814711E6B7E700E023A0C8
:10110800E7108280B386F50003C80600B306F50031
:10111800850723800601E317F6FEC5B737E700E029
:101128001C43B70620002320D718F58F0F100000A6
:1011380001C53307C50011E637E700E02320F710A3
:1011480082800505A30FB5FEE31DE5FEF5B737E779
:1011580000E01C43B70620002320D718F58F0F1096
:10116800000001C599C1014711EA37E700E02320D3
:10117800F710054582800507E309E6FE3308E50018
:10118800B386E5000348080083C60600E305D8FED9
:1011980037E700E02320F71001458280797126D2D5
:1011A8009384418E22D406D64AD04ECE52CC56CA0B
:1011B8005AC85EC626849C40F1E79387818D984380
:1011C8001726000003461669BE84172A0000130A72
:1011D8006A689727000083C7E76793961700BA964F
:1011E80083D60600D5C29727000083C7A76663E7A2
:1011F800C70A97270000238F07641C40639C0710C9
:101208001389018E83270900638607109387C18E8F
:10121800804363010410972400009384A465DC4094
:10122800B7C9C901014B172700002329F762938921
:10123800F937972A0000938AAA5E83572400EDEBBA
:101248005C4463140B0E23A6F18E832BC400228505
:10125800977001E0E78040B35E8465F0972700004F
:101268009387075CDC53DDC72254B250925402596D
:10127800F249624AD24A424BB24B4561174300E0F9
:101288006700C3D3829705BF850793F7F70F9726A3
:1012980000002381F65CE3EEC7F2B1B786073E97FC
:1012A8008355070023100700972700002397075A44
:1012B8009387018F9C43172500000345A5591317F1
:1012C8002500BA979C438297172700000347875841
:1012D8009317170098403E9783576A0093C7F7FF04
:1012E8007D8D835707005D8D2310A7009727000089
:1012F80083C7475691C7850717270000230CF75463
:1013080017270000034707559727000083C79754FE
:10131800E371F7EEB250225492540259F249624AEC
:10132800D24A424BB24B456182802326FB0031BF33
:101338008327090082971C443307F5406375F5003D
:10134800D8401D8F2A9763EBE90283552400034593
:101358000400976001E0E780A0625C40E38207EE4A
:101368001044D440B2973E8763E4C70063E4D700D3
:101378003387D74018C4228B4044C5B503A74A0217
:101388007DDB63EFA7023385A7408347040085E32D
:10139800172700000347274A5117B307A7003E85C0
:1013A800D44063E4E70063E4D7003385D74083275C
:1013B8008A00E372F5FC9727000023A1A74A65BFBE
:1013C800D840BA97C9B737C700408326C720B707A0
:1013D800FCFFFD17F58F2326F72001000100972752
:1013E800000093872747C84B832787262326D720C3
:1013F8006A0593C7F7FF99835D8D828013870196ED
:101408001443411122C4BC4206C63A849983858B91
:10141800B1CF93070006BCC29727000083C7875641
:1014280093F707049DC7972700009387A7449C4319
:1014380082979727000023ADA7549727000093872A
:10144800675483C7070093F7F70B17270000230B90
:10145800F7529727000083D7675389CB13870197E3
:1014680018437CD3972700002392075218403C4327
:101478009183858B81CBC1473CC3938701979C435C
:1014880023A207069387C19598435C438583858B80
:1014980099C323220700B240224441018280B93F08
:1014A8007300203097270000A38E074C938701977D
:1014B8009443172700001307E74C83470700858BE1
:1014C80099E783471700858B99E3FC52FDF78280E3
:1014D8000347150093160701C1829387260011CB95
:1014E800138701971843384B1583058B19C39387C6
:1014F800660093863700AA9603C806008548054704
:101508001378F807631D180799C53307F5000347D3
:1015180027002380E5000DCEAA9703C7170083C7CD
:10152800070022075D8F931527019357470063D65D
:10153800050093E707C0C207C18303170600C20767
:10154800C18709C7BA970947B3C7E7022310F6004E
:10155800034715000DC7938701979C430147BC4B70
:101568009583858B89CF83C70600854613F6F706D2
:101578006319D600E207E18763D3070039473A8544
:1015880082801947EDBF011197270000238D073E80
:1015980026CA97270000A388073E97240000938453
:1015A8002428DC504AC806CE22CC4EC62A892E856D
:1015B800B28595C7B7E700E03707200023A0E728E2
:1015C800B7F700E003A707D16D9B23A8E7D003A7CF
:1015D80007D11367870323A8E7D073005010854706
:1015E80093890196138401976317F906014697605A
:1015F80001E0E780A04C83A709009C43A1838D8B61
:10160800B9E71C4013076019F8D3DC5099CB37F7BA
:1016180000E0832707D193E787002328F7D07300DA
:1016280050101440172700001307C73583472700B9
:10163800858B99E783473700858B99E3FC52FDF743
:10164800F2406244D2444249B249056182801C405A
:101658001307E01B55BF976001E0E780203F83A791
:101668000900B70600019843558F98C3D85B719B52
:10167800D8DBE31C09F897270000A38507301C4036
:10168800094798C359B7938701979C439847D4470C
:10169800758F98C79316D70063DE0600FD56B4D73A
:1016A800972600009386061BD44A85061726000055
:1016B800232CD61A937687009DC29726000083C6EE
:1016C800862C93E6160017260000230ED62A93864A
:1016D80001969042545AF19A93E6160054DA93769A
:1016E80017009DC29726000083C6D62993E61600E8
:1016F80017260000A308D628938601969042545ACC
:10170800F19A93E6160054DA93766700B9C6118BFE
:1017180097260000938606279385019645C398412E
:10172800184321830D8B41EBB04BD84A1376060240
:101738000347170039CA2DEF13077006D8CF83C7A0
:10174800060093E7170017270000230DF72298419A
:101758005C5BF19B93E717005CDB83C78197D1C380
:10176800238C0196938741979C43B5C3411106C6C4
:1017780082979387819783C7070093F7F70F99E3B9
:1017880023AA0196B240410182805DD705466315C0
:10179800C7001307B0065DB709466315C7001307EE
:1017A800F00669BF0D466315C7001307300779B700
:1017B8001307500761B71307600749B783C7360097
:1017C80093E7170017270000A30FF71A49B7938765
:1017D800819783C7070093F7F70F81E723AA01963C
:1017E800828082804D3573002030972700009387D0
:1017F8006719DC4B9385150295859843FD1518C12B
:10180800D84358C1984718C5D84758C5984B18C9E0
:10181800D84B58C9984F18CDD84F58CD91C51305F6
:10182800050293870702D1BF828093870197984367
:101838003C5BFDFF01000100828001119727000039
:101848009387872422CCC05F26CA06CE2AC42EC618
:10185800854419E40145F2406244D244056182801E
:101868008347910003471400858B6304F700004405
:10187800CDB719469305A10013052400C938E3180C
:1018880095FE0545C9BF9307000C01116314F504C3
:1018980093078008F3B7078093F787083EC00100D5
:1018A8000100B7170040130770052380E7041307EA
:1018B80080FA2380E7040100010098271367070CCA
:1018C80098A7238007048247F3A707800100010037
:1018D80005618280B7170040B827118B69EB83C672
:1018E800E7041307800893F6F60F7336078013761C
:1018F800860832C20100010013087005238007051D
:10190800930580FA2380B7040100010003C6E704A9
:10191800136636002387C704B02713664600B0A7AE
:1019280023800704124673260680010001009027D1
:101938001376F60F73370780137787083AC40100C8
:101948000100238007052380B704010001009827C0
:101958001367070C98A723800704A247F3A70780FB
:1019680001000100A5470100FD1793F7F70FE5FFF8
:1019780093078008F3B7078093F787083EC60100EE
:101988000100B7170040130770052380E704130709
:1019980080FA2380E7040100010090A72387D70479
:1019A80023800704B247F3A707800100010093775B
:1019B800050C130700046399E70893078008F3B739
:1019C800078093F787083EC801000100B717004059
:1019D800130770052380E704130780FA2380E704C0
:1019E80001000100B827854613670701B8A7372704
:1019F8000040A303D7808346578093E60601A302DD
:101A0800D78023800704C247F3A70780010001009D
:101A180093078008F3B7078093F787083ECE010045
:101A28000100B7170040130770052380E704130768
:101A380080FA2380E704010001001375F50F88A7D9
:101A480023800704F24749B59377F5019DCF9307A3
:101A58008008F3B7078093F787083ECA01000100A2
:101A6800B7170040130770052380E704130780FAAF
:101A78002380E70401000100372700408946A303BB
:101A8800D78023800704D24741B793078008F3B76C
:101A9800078093F787083ECC01000100B717004084
:101AA800130770052380E704130780FA2380E704EF
:101AB80001000100372700409D46A303D7802380FB
:101AC8000704E24791B70111814601468145114556
:101AD80006CE973000E0E780A0CB93078008F3B7E5
:101AE800078093F787083EC601000100B71700403A
:101AF800130770052380E704130780FA2380E7049F
:101B08000100010003C76704136717002383E70474
:101B180023800704B247F3A7078001000100F240C1
:101B28000561828041118146014681451145973002
:101B380000E0E780E0C513078008F337078093F7D4
:101B480087083EC401000100B7170040130670055E
:101B58002380C704930680FA2380D704010001007C
:101B6800FD55CEB723800704A245F3A505800100E3
:101B7800010073370780137787083AC60100010010
:101B88002380C7042380D7040100010003C767042A
:101B9800136717002383E70423800704B247F3A7DA
:101BA80007800100010001A0E5473305F5020100A7
:101BB8007D1575FD8280411122C406C62A8413054D
:101BC800803E7D14D5373344040875F8B24022446A
:101BD800410182804111B7170040985F3AC6945F6F
:101BE8003247E39CE6FE324541018280B7E700E0D8
:101BF8003707001023A0E7208280B717004013079B
:101C080000032388E70273002030411106C6EFF075
:101C1800EFD8F5BF230304801547A2872303E48088
:101C2800010001002302A48003C76780620761875F
:101C3800E34C07FE2382A780228783476780E20759
:101C4800E187E3CC07FE8280230304801547230342
:101C5800E480010001002302A4808280830764805D
:101C6800E3CE07FE23030480828083076480E3CEEB
:101C780007FE03454480828083076480E3CE07FE25
:101C88002302A4808280411126C44AC24EC006C6DF
:101C98001377F50BAD47AA892E8995446306F7009B
:101CA80019455D37653F8D444E85793FFD59FD14D3
:101CB80063983401B240A2441249824941018280AA
:101CC800135509011375F50F453F2209CDB70111C9
:101CD80026CC06CEB704080051371545B5377137FD
:101CE80069372AC6A53F32459377150089EB1365F6
:101CF80015001375F50FF240E24405618280FD146A
:101D0800E9FC0145CDBF411106C6B71700401307CE
:101D180070052380E704130780FA2380E70403C7CC
:101D280047041305F00F1367070E2382E704914752
:101D38002303F480C535B24041010DB7011126CC0B
:101D48004ACA4EC852C606CE2A89AE89B284554AB6
:101D58005D3F91E82137F24026855249E244C24965
:101D6800324A05618280CA850945313F910903A736
:101D7800C9FF91472320E48003076480E34E07FEF0
:101D880023034481FD17EDFBFD14110981C49377EA
:101D9800F90FE9FF2D3F55FDFD5475BF011126CC04
:101DA8004ACA4EC852C656C45AC206CE2A89328A70
:101DB8008D49913FC164C16A056B9387F4FFB3F7FE
:101DC800270199E363719A02FD199180E39709FE4F
:101DD80071350145F240E2445249C249324AA24AA9
:101DE800124B056182801305800D63885401130529
:101DF80000026384640113051008CA856935C13D72
:101E080009C52699330A9A4075BF7D55E1B7011176
:101E180006CE26CC4ACAB2844EC82AC62E89E535D3
:101E28003245FD14FD59AA852D45B13D639A34010B
:101E38003535F24026855249E244C249056182801F
:101E48002D3593F7340091EB83260480032709008E
:101E580093074900E39EE6FC3E89FD14C1BF0111CA
:101E680006CE2AC64D353245C533F2400561FDB36D
:101E7800011106CE26CC4ACA4EC852C6AA8956C4F3
:101E88002E895135B7050400B3E5B9002D45E53B6A
:101E980081448D4A214AD13B6396540183270480AB
:101EA8002320F9008504E39844FF832704801397CF
:101EB8002901635C07002312F900F240E244524909
:101EC800C249324AA24A056151BB2322F900F5B73B
:101ED800411106C626C44AC24EC0AE892D35814579
:101EE8001305B0044D33BD447D59413393F7740055
:101EF800CE9703C70700FD14398D2380A700E3960A
:101F080024FFB240A24412498249410181BB4111D8
:101F180006C6D53B13056006053B893313059009B2
:101F28002533B24041011DBB99E123A2A18E8280D5
:101F3800938701969443B70702009387C7209CDED6
:101F480093070005DCDE37E700E0D147A309F70473
:101F580097F7FFFF9387E75493E717007CD79727F6
:101F6800000083C7278D93E7070413979701DC5A6E
:101F78009E079D83D98FDCDA8280238C019623AA61
:101F88000196938701979C431307C008930660073F
:101F9800D8CBD4CFD8D31306C006D0D7D8DBD0DF60
:101FA800F8C3F4C7130780072393E7001727000037
:101FB8001307479D584B23AA0704F8DF7D5798C796
:101FC800370716003D07D8C737E700E0D54723098C
:101FD800F704970700009387278193E717003CD7FA
:101FE80082809387019798438967938707F47CD306
:101FF800938701989C4383A6070913965600635854
:10200800060083A607091396660063440600745306
:10201800FDF28280411126C293840196984022C421
:1020280006C697270000938727A6C04B5C5B13055D
:102038008025F19B93E717005CDB976001E0E78060
:1020480000C19387019898435C57F59B5CD78347F9
:102058002401944013F7F7079C4293F707F8D98FA8
:102068009CC20347540085476307F7002285970001
:1020780001E0E780E0FF938701978C43370500FF75
:1020880037068000DC411306D63293E71700DCC11F
:10209800034744059C401367070493169701D85BD0
:1020A8001E071D83558FD8DB37C7898E130767ED49
:1020B800D8C7B8D33757550013075755D8C3B8CF23
:1020C8009447E98ED18E94C7F84F698F518FF8CF16
:1020D800894717270000A309F78A3C400145BCDD62
:1020E800834524050346B400EFF0EFC92244B2400B
:1020F80092448145170500001305C52141012DB5FE
:10210800011106CE22CC26CA4AC84EC652C4834400
:102118006500A302050085476391F41A172700009C
:102128000347978695476314F70283451501624470
:10213800F240B395B4004249D244B249224AC2059A
:10214800C18101450561176301E0670063830347A7
:1021580035018D472A84631AF70CEFE07FF30D8968
:102168005DE1930770022309F4008967938757623A
:10217800231AF4000347740085476300F70617190C
:1021880000001309296F83270900834914018297E6
:1021980083270900035A8401AA8482979377F5005C
:1021A800D297171500000355656DB387A70213076B
:1021B800006493870732B3D7E702032749003385C2
:1021C8009700AA856364F5006364E500B305E540FC
:1021D8004E85975001E0E780807F85472304F4020D
:1021E800972700009387478A9C57E1EB094597603A
:1021F80001E0E780C09F6244F240D2444249B249BC
:10220800224A056101BD631A9500930760022309FC
:10221800F400896793875772A1BF93075002230977
:10222800F400896793877762A1B789468347950049
:102238006319D70213F7170011CF130750022309A8
:10224800E500898B81CF93076002230AF400A30A73
:1022580004000DB7930760022309F5009307700285
:10226800EDB79DC313F7170001CB9307500223095D
:10227800F400231A0400FDBD898B81C7930760020F
:10228800FDB793077002E5B783474501130740027E
:10229800636BF70093075002230AF4008347440155
:1022A8002309F4006DB7850793F7F70F230AF500A4
:1022B80013077002E360F7FED5B7F2406244D244D8
:1022C8004249B249224A056182808347550189CB38
:1022D800034725016316F700170301E06700E303CE
:1022E8000347450109CF834625016381E602230997
:1022F800E500814517050000130505D235B1E9DF72
:102308000347250171FB2309F500E5B7F1D7E5BFC0
:102318004111971700009387277722C4C04B97175E
:10232800000083C7476606C6858B8DCF0347A40088
:1023380089476309F7021306500281450545EFF006
:102348008FA4971700009387E76383C73700858BAF
:1023580091CB2244B2408145170500001305E501E1
:102368004101D9B6976001E0E780E08322852244E5
:10237800B240410199BF4111971700009387C77078
:1023880022C4C04B014606C668409305E40026C235
:102398004AC0EFF0EF9355E16C407D4783C71500C5
:1023A80093F7F7032306F400E91793F7F70F63662B
:1023B800F70883C70500BD8BA306F400F51793F74C
:1023C800D70FA5EF9304A4021946A1052685EFE0CF
:1023D8001FD825C56C408547230CF40283C7050028
:1023E8001305A40319469987858BA30CF402890564
:1023F800EFE0FFCE2285970001E0E78000EB15CDE6
:102408008346D40015478347A4006393E6048544B4
:1024180063E5F402971700009387C7459C438297AA
:1024280048CC2285970001E0E78060D163179500CA
:102438002285970001E0E780200E975001E0E780B1
:10244800807622852244B240924402494101B5BDBA
:1024580081C71947E393E7FE2D450309E400974038
:1024680000E0E780802062056185E348A9FC894790
:10247800A302F4008347740111472305E400990778
:10248800A305F4003C402380E7003C400347B40028
:10249800A380E70083479402858B91E70347840272
:1024A80089476319F70038408347070093E7070413
:1024B8002300F7002840A68519460905EFE03FC22A
:1024C8002840034674014C502105EFE05FC1834565
:1024D80024050346B4000D45EFF0EF8A975001E05C
:1024E800E780606C2244B240924402498145170556
:0C24F80001E0130545E9410105BC0000AE
:1025040097010020938141A517110020130141AFC9
:1025140017F5FFFF130545AF97E5FF1F938545AEFC
:1025240017F6FF1F130686FD63FAC5008322050014
:1025340023A0550011059105E3EAC5FE17550100D6
:102544001305051197F5FF1F938545FB1386018934
:1025540063FAC5008322050023A0550011059105E7
:10256400E3EAC5FE13850189970500209385055785
:102574006377B500232005001105E36DB5FE9302D2
:102584005002739002BC8D427390428085427390D6
:1025940012BC8962938282887390023097E2FF1F93
:1025A400938202A693E23200739052309712000095
:1025B4009382C21873901234730020302A8309CA9C
:1025C40083830500230073007D16050385056DFADA
:1025D40082802A8311C62300B3007D16050365FE9D
:1025E4008280371700408347E70412054111BD8BF1
:1025F400C98F93F7F70F93068008F3B6068093F616
:10260400860836C601000100930670052300D7042E
:10261400930680FA2300D704010001002307F7047E
:1026240023000704B247F3A707800100010041011A
:102634008280011126CA06CE22CC8947B314A02871
:1026440063F9A700954763E4A70A93042500B3142C
:102654009028B717004003D70705B166558F239814
:10266400E7041307800873370780137787083AC68F
:1026740001000100130770052380E704130780FAA3
:102684002380E7040100010003C737051375F50F24
:1026940013670708A389E704A389A70403C73705B9
:1026A40013670702A389E70423800704B247F3A74B
:1026B400078001000100B717004003D7070513176F
:1026C4005760E35C07FE03D4070583C727054A0464
:1026D400BA0749803E947D2C33549402F240D2448C
:1026E40033558502624423A8A188056182809947F5
:1026F40093040040E30FF5F49304F07F99BF411174
:102704003A8E2A838148930E407E130F0019930F4B
:10271400400663EF6E14130700193377E502854E04
:102724000D4F994FFD4263E1BE1861477D1603A525
:1027340001894696AA85B3F6E602130780703387AB
:10274400E602F946330EDE0293D61700858B7297A4
:10275400369791E38145B307A602A166FD161306D9
:10276400302A13D8F700F58FB387C7021166B385F3
:10277400A5023307A702B29513F6F71F1E06BD8103
:10278400A583F98EB3A6C6203D83AE96BA9713D718
:102794000601BA972D671307078C33D6E702B3C631
:1027A400060833F7E70242964207558FB7160040F2
:1027B40083C7F60293F70708DC838C8383C7F6028A
:1027C40093F70708E396F5FE9C83B71600406381F0
:1027D400071293078008F3B7078093F787083EC46E
:1027E40001000100B7170040930670052380D70449
:1027F400930680FA2380D70401000100D0DB83C64E
:10280400170393E60608A388D70223800704A24788
:10281400F3A70780010001001166B71700407D1679
:10282400D45BCC5FAD8EF18EE5FE93068008F3B6E3
:10283400068093F6860836C60100010093067005EB
:102844002380D704930680FA2380D7040100010073
:10285400D8DB03C7170313670704A388E7022380A1
:102864000704B247F3A707800100010041018280F9
:102874007D133377E3031308E01601CF3377F303B3
:102884001308D01619C71378330013381800130827
:10289400D816C298BDBD13F81500F91563FBBF0225
:1028A4009305E801AE989A851383F5FFE395E5FF58
:1028B400854501CF13084006337805038145630637
:1028C40008009375350093B51500F105AE989A8507
:1028D40099BDB3850241DDBF83C7F60293F70708AC
:1028E400DC838C8383C7F60293F70708E396F5FE2F
:1028F4009C83FDD3F9BD0D06719A81473307F5001A
:102904006393C700828014433387F500910714C38F
:10291400F5B7914763ECB704973701009387876550
:10292400B3C5F52098413E97B71700409387470BEE
:102934000287944337170040B3F6A64094C3930626
:10294400070B9C42B3F7A74019A8944337170040DC
:10295400B3F6A64094C39306070B9C42C98F9CC24E
:102964009307070A98433377A74098C38280944318
:1029740037170040C98ED9B798433377A74098C317
:10298400B71700409387070A9843498FF9BF9843C4
:10299400498FF5B7B717004098279306000C1377B3
:1029A400070C6315D70003A5018982809827930635
:1029B40000041377070C6310D7029427130700024F
:1029C400FD8A99C298277D8B3745C323130505607B
:1029D4003345E5028280942713070002FD8A99C2D9
:1029E40098277D8B3755E80113050580D5B737E760
:1029F40000E01C435443A183E206D58F1CC1FD575C
:102A04002320F7182322F7188280B7F700E08847BD
:102A140082803285814737370040A14663C3A700CF
:102A240082800346B740E30ED6FE3386F5001022BB
:102A340085072304C740DDB797F6FF1F9386C6D1E9
:102A4400AA8788421707002013074709AA9763E952
:102A5400E7000A87130707FC6364F7009CC28280BF
:102A64007D558280411122C406C62A842537294710
:102A7400B307E502B2408D83B3D78702224495079A
:102A8400B3D7E70237370040B3C707082316F74028
:102A940041018280716541111305052006C6D937AD
:102AA400371700403E2FB3C7070893F707FCB3C797
:102AB40007083EAFB7370040130710F82381E740FB
:102AC4000D47A381E74013070004A380E7400547AF
:102AD4002387E740B24041018280411122C406C6E7
:102AE400982189471385418905446318F702DC411D
:102AF400294498239C33A207D98F4167130717EE03
:102B0400639DE70014A1814793F6F60F938581A393
:102B140033C707086365D7020144102101CE83A798
:102B2400818989CBDC4399C7938581A30145829729
:102B3400238A0188B24022852244410182803307DE
:102B4400F600034807003387B70085072300070111
:102B5400C1B798218947631CF704DC4198239C334F
:102B6400A207D98F4167130717EE639EE7023285E8
:102B74002390060003C651891DCE411192A293856C
:102B8400C1A506C697D0FF1FE7806055A38A0188B8
:102B940083A7818989C79C4399C301458297B24021
:102BA40001454101828023900600294582802390BB
:102BB40006000545828001458280058909CD97F686
:102BC400FF1F9386A6934146914517F5FF1F1305F2
:102BD400A5936F50B0110145828009C523ACA1882B
:102BE400014582804545828051476360C702411197
:102BF4001385C1A506C6A38AC18897D0FF1FE780A5
:102C0400004EB2400145410182801305E00F8280ED
:102C1400411122C4802506C6137404023DE883CE04
:102C24000500094863990E0703A84500834E080070
:102C34000348180022083368D801C16E137FD8FFF7
:102C4400851E630EDF018D679387279029446312E5
:102C5400F8022244B240854741016F30905715EF86
:102C64000547639EE602D845142214A303A7C18A2C
:102C740011E7B2402285224441018280184375DB6A
:102C8400C8459387B18A1D8D3335A0000605029788
:102C9400CDB72144F9BF0544E9BF2D44D9BF35441C
:102CA400C9BFAD4725E7982189476313F706DC417F
:102CB400328598239C33A207D98F4167130647FEB8
:102CC400638AC700636FF600FD070547B3C70708AB
:102CD400636BF70285479EA2DC459C231CA18147B8
:102CE40035A015176391E702CC45954741119EA283
:102CF400154606C697D0FF1FE780603EB240814765
:102D04003E854101828023900600A9473E8582804A
:102D1400239006008547DDBFC167F917630CF502F0
:102D2400411122C406C685472A84639AF500228588
:102D34002244B2409385418A41016F50D0058947AE
:102D44006396F5008545EF60F02D75D1B2402244BD
:102D5400410182808280411122C42A844165938585
:102D6400418A7D1506C6EF501003170500001305B0
:102D7400E5FA0588EF60102305C02244B24097E6C7
:102D8400FF1F9386267D4146C54517E5FF1F1305A2
:102D9400257D41016F508075B240224401454101B7
:102DA400828009C523A6A18A014582804545828087
:102DB4001147636FA706973601009386E61C3345D7
:102DC400D5201841AE87B2853697028705476145FD
:102DD4006396E7001C22A385F18A0145828005479A
:102DE4006145E39DE7FE1C222385F18AFDB7054773
:102DF4006145E395E7FE1C22A384F18AF9BF0547E8
:102E04006145E39DE7FC1C222384F18AF9B7154749
:102E14006145E395E7FC41111385C189154606C652
:102E240097D0FF1FE780A02BB2400145410182806B
:102E3400094582801147AA876367A70417370100F1
:102E44001307C715B3C7E7209C432E85BA9782871B
:102E540083C7B18A1CA10145828083C7A18ADDBFD3
:102E640083C7918AC5BF83C7818AEDB741111546CF
:102E74009385C18906C697D0FF1FE7804026B240DC
:102E840001454101828009458280B2874111139630
:102E94002500BE8506C68534B240014541018280C5
:102EA400011122CC26CA939625002A84B284AA85CD
:102EB4000146054506CE36C6EF00100DB2462686FD
:102EC400A2850945EF00500CF2406244D24401450A
:102ED40005618280411122C406C62E8493975560F1
:102EE40063DD0700EF00302B19C1EF00301F13150D
:102EF400F468B24022444101828093F7150013C55F
:102F04001500E5FB8967ED8F99CFEF90603337F6B5
:102F14000200130606E0896503C5418BEF00505992
:102F24001315D468F9B711656D8D61D51735010096
:102F340013050508EF10116B13060064916503C5B2
:102F4400418BEF00F0561315E46865B75D715D467B
:102F540097350100938505061735010013054533A0
:102F640086C6A2C497D0FF1FE780601E01E917350B
:102F740001001305A505EF10F16601A0B7F700E005
:102F840023A40700795798CB3D4798C3930780083B
:102F9400F3B7078093F787083EC001000100B71715
:102FA4000040130770052380E704130780FA238089
:102FB400E70401000100B847B70600C1FD16758F8C
:102FC400B706000E558FB8C7238007048247F3A7BE
:102FD40007800100010097D7FF1F9387C76A23A8C2
:102FE400F18A130700F8B7E700E0A38AE740130665
:102FF40040038145680097D0FF1FE780201297F7B0
:10300400FF1F9387A7A105643EC6930704E0FC80D5
:10301400C9472300F102B7B703003ECAB70701034B
:10302400938707103ECC9307A002FC868547230FA5
:10303400F10097070000938787E53EDCB7F50300AE
:1030440097070000938707E63EDE81469707000056
:103054009387E79B5000E10519453ED6EF00C07207
:1030640019464C0013053102EFF04FD5B24791C712
:10307400BC801304F4BF6363F40001A06800EF1084
:103084004017AA8501C917350100130565F5EF102E
:10309400914101A0B6402644616182804111170527
:1030A4000000130565E306C622C4EF100011138463
:1030B400418B08A0112808202244B2401306003294
:1030C400896541016F00D03E397126DA06DE22DCC3
:1030D4004AD84ED652D493048008F3B7048093F7A9
:1030E40087083EC2010001003714004093097005AF
:1030F40023003405130980FA23002405010001008C
:103104008347F40293E71700A307F402230004049F
:103114009247F3A70780010001001945EFF06FD132
:10312400138A818BAA852320AA0017350100130571
:1031340025EDEF105137014781467146854581479A
:103144001305507EEFF0AFDB9307803EFC838327AB
:103154000A006800FC82B707C0A83EC897E7FF1FB3
:10316400938747A73EC697E7FF1F938727A83ECEBE
:10317400EF102033F3B4048093F4840826C40100D0
:10318400010023003405230024050100010001008F
:1031940001008347140393E70702A308F402230002
:1031A4000404A247F3A7078001000100F25062540F
:1031B400B7E700E03707001023A0E710D2544259C4
:1031C400B259225A2161828017350100130545E462
:1031D4006F1051417D15954763ECA70A173701001D
:1031E400130747EB3345E5201C41011122CCBA9764
:1031F40006CE26CA2E84828717350100130545E2C0
:103204006244F240D24405616F10D13D173501008C
:10321400130505E2F5B7E62517350100130545E268
:10322400EF10513CB14763FB9704173501001305B8
:1032340025E2EF10313B2A246244F240D24483C792
:10324400F1821307803E81463146994505616FC07E
:10325400F00D173501001305A5E05DB785478545D9
:103264001306F10013055030DC87EFC0F0356C20F5
:1032740017350100130545E0EF10F122F2406244D6
:10328400D2440561828017350100130525E08DBF06
:103294008280011106CE19C589476300F502F24008
:1032A4000561828017350100130545E0EF10913365
:1032B4009305F1000145BD3EDDB717350100130547
:1032C400A5E0EF1031329305F1000945EDB77971AE
:1032D400170500001305E51606D622D426D2EF0002
:1032E400D06D9384F182054488A030088545130588
:1032F4005030230C8100EFC0302D17E6FF1F13065A
:10330400263DF14513057030EFC0102C13868182E1
:103314009D4513056030EFC0302B9305000A094525
:10332400EF20C0759305000A0D45EF202075300885
:10333400914513057040C08640872308810002CC64
:10334400A3070100EFB0C0421306D1008545130561
:103354000040EFB0E0411306E1008545130510403D
:10336400EFB000411306F100854513052040EFB08E
:1033740020401008854513055040EFB0603F7D554F
:10338400EFC000457D55EF50E01D7D55E9327D5578
:10339400EFF0BF8217E6FF1F13060632D54501453D
:1033A400EFC0203289475C878D47DC87B7373233DB
:1033B400938707133ECCB7373637938747533ECEB0
:1033C400B7070304938717203EC81306D100954717
:1033D40085450145230AF100C086D93A1306E10068
:1033E40085450545F1321306F10085450945C93285
:1033F4003008A1450D456D3A1008954511454D3AE3
:1034040013854182793A1385C181EFF00FFD22546F
:103414008820B2509254854545616F30E1552E861F
:10342400AA8501456FF04FFC011148868945680063
:1034340006CEA3060100E537F24005618280011142
:1034440022CC06CE26CA4AC82E849397556063D0F0
:10345400070203C5F182812311C149219314F46841
:10346400F240624442492685D2440561828093F742
:1034740015008DC79384F182882017E6FF1F130679
:10348400E622938501A8EFC0606F88201306803E72
:103494008945EF00F00193441400D9B793F7250050
:1034A40085C789451306803E03C5F182EF005000AD
:1034B4002C000D45413211E53000A1450D45EFF0DA
:1034C4003F8F9344240069BF93F44500D1D893847B
:1034D400018C90401389818C832709009315C600C1
:1034E40017350100130505C0BE95EF10C17B9C4044
:1034F400832509008566B2070146BE950545692402
:103504001375F50F09C50D379344440091BF9C40D2
:1035140003A7418C85079CC0A284E3E3E7F4173535
:103524000100130565BDEF10F10B0145F53D934412
:1035340044003DB71305E00FC5BD411122C4114637
:103544002A84938501A937A5030006C6EFF0AFBA14
:1035540085660146B7A5030005453D24138601A9E8
:1035640000A22244B2409146B7A503000945410197
:1035740021AC01456FF0AFC7938701AA9823914608
:103584001347070863E8E61697360100938606C1D9
:103594003347D7201843797106D6369722D426D2DA
:1035A4000287AE239033ED679205BE951384C18CD8
:1035B4009384018D17350100130505B50CC090C027
:1035C400EF10616E0C409620138641AA09456D2ABE
:1035D4001374F50F19C4173501001305A5B4EF10C2
:1035E400710022852254B2509254456135BDAE23F8
:1035F400D2236D679205BA959384818C1384418C90
:1036040017350100130505B323A6B18C23A0018C43
:10361400238E018A10C08CC0EF10E1689840F167D6
:10362400636AF7001C40FD17B207BA9737770300A7
:103634006375F7001305F00F75B72254B250925416
:1036440003C5F182914545616F300133AE23903358
:10365400ED679205BE951384C18C9384018D173553
:103664000100130525AF0CC090C0EF10C1630C40DE
:103674009440138641AA0D45012A1374F50F19C409
:10368400173501001305C5AEEF10C1759387C18BC3
:1036940098233365E40088A3B1B7173501001305F7
:1036A40065AEEF102174F1350D45413D294597D0A4
:1036B400FF1FE78040502254B2509254456117D303
:1036C400FF1F6700434017350100130565ACEF1079
:1036D4006171B707B00189073EC66800B707107269
:1036E400D1453EC8230A01001D3BB25022549254D6
:1036F4004561828081B54111138501AA06C697D020
:10370400FF1FE780C09DB2404101BDB501111146C4
:103714006C0037A5030006CEEFF0EF9D1C868546AE
:103724001387F7FF1377F70F63F3E6008547F2403B
:103734002388F182056182804111114506C6EFE0BC
:103744005FEA1305600497D0FF1FE780C013B71723
:103754000040214723ACE70A8D452145EFF06F9BDC
:10376400EFF04FB317350100130585B2EF108167F1
:10377400713FEFF0AFFDEFF07F92EFC09002813E1A
:1037840097D0FF1FE780604801112A8706CE2E8557
:1037940026CCB2854ACA368622C637240040B7E70B
:1037A40000E0FD5603A90700C44323A0D71823A2B1
:1037B400D7189307F7FF93F7F70F894663E0F60AE4
:1037C400B717004083C75704B706040093F70702EE
:1037D40099E3B7C60300F9576375D5043308C500E8
:1037E40063E1060589476314F704098297D0FF1F34
:1037F400E780C054AA87371700409306700523005A
:10380400D704930680FA2300D70483464704C18A69
:103814002302D70437E700E023202711232297103F
:103824003244F240E24452493E8505618280854734
:10383400631FF7008567FD173E96E98F3E96FD7777
:103844007D8E7D8D97D0FF1FE780405565B797D05B
:10385400FF1FE780C05B9307150071BFB547631A6C
:10386400F7001305900B97D0FF1FE780405F814757
:1038740059B7B1476315F7001305B00AEDB7994777
:103884006317F70097D0FF1FE780805ECDB79D4791
:10389400631BF70023A0050023A2050097D0FF1F98
:1038A400E7800063E9B791476317F70097D0FF1FDC
:1038B400E780E0656DBF81471DDFF1572DBF23AC65
:1038C40005FE1C4191E7010001000CC18280BA870A
:1038D40003A787FF6DFF23ACB7FE8280411122C48A
:1038E40037E400E026C204403707200006C6F98CFE
:1038F4002320E4180F10000009E923209410154533
:10390400B24022449244410182800347E5FF930779
:10391400F00F6306F700232094101145D5B7EF305C
:103924002146014523209410E1BF411126C2B7E48A
:1039340000E04AC003A90400B707200006C622C459
:103944003379F90023A0F4180F10000009E923A02B
:103954002411B24022449244024941018280956577
:10396400938505D0C98D2A842105C2054205C181EC
:103974004181EF30813201CDFD5723200500231210
:1039840085002303F50023A024112105D9B723A022
:10399400241101457DBF4111B7E700E026C28443ED
:1039A4003707200006C622C4F98C23A0E7180F109D
:1039B40000009387418D904301440147B28789E712
:1039C40009E8A165F5292DA083C6E7FF639CA6023B
:1039D4001DCC832684FF631EC40223AAD18C7D5789
:1039E400232C04FE230FE4FEE9DFA165EF20D17848
:1039F4002285B2402244B7E700E023A09710924406
:103A04004101828011E03E8783A787FF4DBF3E843A
:103A1400E5BF232CD7FEE1B741114AC037E900E0E6
:103A240022C4032409003707200006C626C2798C65
:103A34002320E9180F10000089E52320891015457B
:103A440015A0AA8497F7FF1F83C797E02E8563F517
:103A5400F400854763EE97005135B7E700E023A0F3
:103A640087100D45B24022449244024941018280AC
:103A740083A785FF99E703C7E5FF9307F00F630862
:103A8400F700A93DB7E700E023A087104DBF238FBF
:103A940095FE1385418D2535A1652685EF20D16DD1
:103AA4000145232089107DBF23AA018C828093F7CE
:103AB400F50FA5C341114AC006C622C426C22E89E9
:103AC4000147A146B357E940858B9DCF0E05B30747
:103AD400E5003145B387A7029386C18D844205442E
:103AE4003314E40042044180BE949C40C840829751
:103AF40023A0040023A2040033452401B24022443D
:103B040092440249410182800507E31DD7FA01442A
:103B1400E5B7014582800111B7E700E022CC80437C
:103B24004AC83707200006CE26CA2A892E86798CF1
:103B340023A0E7180F100000131506019305F004E5
:103B4400418132C6EF306115AA8419C53246CA854F
:103B540097C0FF1FE780A058B7E700E023A08710B5
:103B6400F240624426854249D244056182801D891F
:103B74008545B395A500C2054111C181014506C61D
:103B8400EF20713909C50845B240410182800145E1
:103B9400E5BFB7E700E09843B706200023A0D71895
:103BA400758F0F10000097F6FF1F83C676CA6373E4
:103BB400D5021386818D93161500084293C5F5FF2F
:103BC400369583560500F58D2310B50023A0E71024
:103BD4000145828023A0E7100D458280011137E75B
:103BE40000E026CA0443B706200006CE22CC4AC809
:103BF4004EC6F58C2320D7180F100000130785FF3D
:103C04001377F70F9D4763EFE708B146B306D50274
:103C14009387C18D984336971C43C9C705441D89B2
:103C24003315A4001314050141802E890545A2858E
:103C3400EF20712EAA8939C9A2850545993F93873A
:103C4400018E9C43829797F7FF1F83D7E7C2338780
:103C540027032A84814613060064B3B72703130598
:103C64000732B335E500BE95EF00514AB30785002E
:103C740097F6FF1F9386C6BF3E87D44263E4A7002E
:103C840063E4D7003387D74023A4E900B7E700E013
:103C940023A097100145F2406244D2444249B249FC
:103CA40005618280B7E700E023A097100945E5B7D6
:103CB40079714AD037E900E026D283240900B70796
:103CC400200006D622D44ECE52CC56CA5AC85EC65E
:103CD400FD8C2320F9180F10000097F7FF1F83C7EE
:103CE40037B76378F5009387018E83AB070063973A
:103CF4000B00B7E700E023A09710A9A017FBFF1F54
:103D0400130B0BB7832A4B00B74736FE938707C8BC
:103D14002E8A97F5FF1F83D525B6BE9AB387C502B1
:103D24002A84B2898146B3B5C50213850732B337F5
:103D3400F50013060064BE95EF00513D63F0AA023E
:103D4400232099100145B250225492540259F24949
:103D5400624AD24A424BB24B45618280829B97F5BC
:103D6400FF1F83D565B1B38735032A891306006421
:103D74008146B3B5350313850732B337F500BE95D5
:103D8400EF00D138B30725013E8903274B0063E4D4
:103D9400A70063E4E7003389E740D2852285EF205A
:103DA400911709C923242501B7E700E023A0971040
:103DB400054551BF936504F0C205C1814145EF201B
:103DC400D16D19E997F7FF1F938747A59C5795D3A2
:103DD400A2851145829731BF9387C18E9C4399EF89
:103DE40023A6A18E232605002324250123114501A2
:103DF400230085002322050045BFBA87D84775FFF5
:103E0400C8C7CDB77971B7E700E026D28443370736
:103E1400200006D622D44AD04ECE52CC56CA5AC816
:103E24005EC662C466C26AC0F98C23A0E7180F108C
:103E3400000029CD2144B689B28A2E8A2A89B14C40
:103E4400138BC18D054D414CB30B940303270B0019
:103E54005E971C43A9EF93757400B315BD00C205AA
:103E64005686C1810545A93539C183270B00DE97E4
:103E740023A0270123A2470163840900238089002A
:103E8400B7E700E023A09710014521A023A09710D5
:103E94000945B250225492540259F249624AD24A14
:103EA400424BB24B224C924C024D45618280050438
:103EB400E31C84F9B7E700E023A097102145D1BFA4
:103EC4000111B7E700E04AC803A9070022CC4EC697
:103ED4003707200006CE26CAAA892E843379E90042
:103EE40023A0E7180F100000EF20F102AA8419C1E3
:103EF40023110500A2854E85693997F7FF1F83C7F3
:103F04002795639D370197F7FF1F9387679483D79E
:103F140067005D8C97F7FF1F239F8792B7E700E048
:103F240023A02711014591E01945F2406244D2448F
:103F34004249B2490561828001114AC837E900E06B
:103F440022CC03240900B707200006CE26CA4EC699
:103F54007D8C2320F9180F100000BD4763E6A704E9
:103F6400B147B304F5029389C18D83A70900A697CD
:103F74009C439DCB937775008545B395F500C205A9
:103F8400C1810D81353F83A709000145A69723A070
:103F9400070023A2070023208910F2406244D24480
:103FA4004249B24905618280B7E700E023A0871047
:103FB4000945E5B797F7FF1F93878789944763807F
:103FC4000610411126C2BE849387818D8C4306C698
:103FD40022C44AC017F6FF1F03469687814763CB66
:103FE400C70A17F7FF1F0347F799954717F9FF1FEC
:103FF4001309099963EAE70883C78197D1E717F49E
:10400400FF1F1304E48658409387018E9C43639BEF
:10401400E60882975440B74736FE938707C8B69799
:104024003387A7003A856364F7006364D7003305D8
:10403400D7408327490191CB93870198944337074D
:10404400CDFF7D179C46F98F9CC611E1484097E748
:10405400FF1F9387A77CDC53829701ED83274901D7
:1040640085C797D0FF1FE78040F197D0FF1FE780F7
:1040740020EC8327490189CB938701989843B7069D
:1040840033001C47D58F1CC7B240224492440249D6
:1040940041018280139717002E97035707006DF78D
:1040A400850735BF829794445840B387A6003E8560
:1040B40063E4D700E3EFE7F63385E7409DBF8280F2
:1040C400411106C623A4A18E0295B24097E7FF1FB3
:1040D40023A8A77801454101828023A0A18E014530
:1040E40082804111114681451385418E06C623A65F
:1040F400018E23A4018E23A0018E97C0FF1FE780A9
:10410400E00113060002814517E5FF1F13054574FE
:1041140097C0FF1FE7808000EFB0F071C14785456D
:104124001305001217E7FF1F2305F772EF20F1367E
:1041340023AEA18C41C1994717E6FF1F0346667160
:104144003306F60281451306060C97C0FF1FE7806D
:10415400E0FC9387C18D9C439387070C23A8F18EC1
:1041640017E7FF1F0347E76E0A07BA9723ACF18CE2
:10417400EFF09F9309299387018F984397E7FF1FD7
:1041840083C7176D93962700BA9617260100130666
:10419400C65A90C293862700850793F7F70F8A07BC
:1041A400BA9717E6FF1FA305D66A1707000013077F
:1041B400479098C3B2404101828097E7FF1F83C7AD
:1041C400376917E7FF1F0347C76863F1E7021387DF
:1041D400018F18439386170017E6FF1FA30AD666BC
:1041E40093962700369708C33E8582809307F00F85
:1041F400E5BF1C4163880712370700F07D8FB706BF
:10420400002089476311D71203574500630D071037
:10421400411122C419462A849305F00F5D0506C690
:10422400EF20C16005478D476309E50E1C4491C723
:10423400585499477DC318586DC3130640038145EC
:1042440017E5FF1F1305855D97C0FF1FE78000ED8D
:1042540013064003A28517E5FF1F1305255C97C0CD
:10426400FF1FE780C0E797E7FF1F83D7E75B99E766
:104274009307001017E7FF1F2318F75A97E7FF1F4C
:1042840083C7A75A91E7854717E7FF1F230FF758FE
:1042940097E7FF1F83D7875991E7ED4717E7FF1F7C
:1042A4002316F75897E7FF1F83C7375891E78D47C1
:1042B40017E7FF1FA30BF75697E7FF1F83C727577F
:1042C40091E7854717E7FF1F2303F75697E7FF1F7B
:1042D40083C7F75599EB97E7FF1F9387275483C745
:1042E400F70017E7FF1FA304F75497E7FF1F83C7DF
:1042F400275491E7C94717E7FF1F230BF75283475A
:10430400540199E79307C00317E7FF1FA302F7526D
:10431400FD572380F19EF1338147B24022443E850C
:104324004101828089473E85828001114EC697E90A
:10433400FF1F9389E95383A7090006CE22CC26CA1E
:104344004AC852C4829713090064B335250303DABB
:1043540089008146528633052503EF00215B97E7E8
:10436400FF1F9387E74E804BAA840145630694029E
:1043740033858440636E940003A5490052868146C8
:10438400B335A9023305A902EF004158018D2695E2
:1043940097E7FF1F23A6974CF2406244D244424958
:1043A400B249224A05618280011122CC0A852E84F9
:1043B4004146972501009385E5BA06CEEFE00FA0AC
:1043C400180806043A94035504FF97E7FF1F83D7A0
:1043D400C74AF2406244AA9737450F0013050524E3
:1043E4003355F5020561828097E7FF1F83D7E748BD
:1043F40051471D45637CF702794719456378F702F5
:104404001307200315456373F7021307B00411451E
:10441400637EF700130740060D456379F700130721
:10442400600909456374F70013B5B70F8280011161
:1044340022CC06CE2A842EC697C0FF1FE78040C533
:10444400B245F240818D33A5A502229562441375CD
:10445400F50F05618280011122CC06CE2A842EC676
:1044640097C0FF1FE780C0C2B245F240818D33A5DB
:10447400A5022295624442054181056182800111B1
:1044840022CC06CE2A842EC697C0FF1FE78040C0E8
:10449400B245F240818D33B5A5022295624405618F
:1044A4008280411106C651CD1C41AA850545D9C754
:1044B400DC41C9C783D78500D1C383D7A500BDCF4D
:1044C400514617E5FF1F1305A53A97C0FF1FE78064
:1044D40000C197E7FF1F2383073A97E7FF1F9387DE
:1044E40027398843DD3E97E7FF1F83C787348DE76D
:1044F4009307006417E5FF1F035505383305F502DC
:1045040037460F001306062481468145EF0001401B
:1045140097E7FF1F238FA73017E7FF1F0347673174
:10452400AD4763E7E700B14717E7FF1F2303F73001
:10453400170500001305A5DF61360145B2404101AE
:10454400828097E7FF1F23AF073097C7FF1F93872A
:1045540087E717E7FF1F232DF7307D5797E7FF1FE6
:1045640023AAE730B7873200938727A197E6FF1F76
:1045740023A4F63097E7FF1F23820730B7C7004014
:1045840023A4E72699BF011122CC17E4FF1F1304CB
:10459400E428084406CE26CA4AC801E90545F24083
:1045A4006244D2444249056182805C54E5DB185878
:1045B40075D77000854582971844B247E300F7FE2B
:1045C4009305E00417E5FF1F03550526EF20E16C72
:1045D40017E7FF1F232AA72871D117E6FF1F0356E9
:1045E400A6249305F00F97C0FF1FE78020B38144F2
:1045F40017E9FF1F1309C92597E7FF1F83C7E722A0
:104604000326890163CFF4003285EF2061770145E9
:1046140097E7FF1F23AA072497E7FF1F23A8072470
:10462400BDBF97E5FF1F83D52520B38795020844B6
:104634001858898185043E9508C2029775BF0111F7
:1046440056C297EAFF1F938A6A1D83A78A0022CC69
:104654004AC84EC606CE26CA52C45AC0AA892E8457
:104664003289638C072003A7CA0263050714130762
:10467400F01F6363A71497E4FF1F9384641D03AAC8
:10468400840163150A0A9565938515E017E5FF1FF4
:1046940003558519EF20616097E7FF1F23A6A71C28
:1046A4002A866309051083A7CA0203A58A0097E531
:1046B400FF1F83D565178981829783A78A0003AA80
:1046C400840117E7FF1F2323F71A8947639AF90820
:1046D400C1476311F40E97E5FF1F83D5E514938555
:1046E40005FC9147B3C5F5028A05D29503C7250099
:1046F4009307A005631CF70A83D705006398370B5B
:104704004A852286910597C0FF1FE780409D9C4CF7
:104714005285639F47130145F2406244D2444249A3
:10472400B249224A924A024B05618280D84CE38EF8
:10473400E7F89565938525E017E5FF1F0355C50E3A
:10474400EF20A1552A8A3DC52A8683A7CA0203A55C
:104754008A0097E5FF1F83D5250D89818297B5B718
:104764008D47639DF900C1476316F40497E5FF1F65
:1047740083D5850B938545FDF19985BF9147639A50
:10478400F9006319340397E5FF1F83D5E509A115E3
:10479400E5B793070010639FF900A14763EC870016
:1047A40097E5FF1F83D54508C115F9B79C4C528581
:1047B4006392470D29458DB71D6A568B637D450964
:1047C400130A05E01947334AEA0217E7FF1F0357A4
:1047D400A70597EAFF1F938AAA07330AEA023E9ABB
:1047E40083A7CA016395470183A48A018DE49305D5
:1047F400E00417E5FF1F03552503EF20014AAA84AF
:1048040055D98327CB0297E5FF1F83D5E5012A8677
:1048140089815285829791451307A00589819397D1
:104824002500A69783C627006391E60483D6070074
:10483400639A360385058A052286A6954A8597C01C
:10484400FF1FE780C08983A78A01E38697EC26854A
:10485400EF200153C9B521677917E36DA7F4330A33
:104864004541A5B783C5370055BF83A78A01E383B4
:1048740097F42685EF20C15035BF97E7FF1F938734
:1048840027FD8C4F85D991479306A00589831397FB
:1048940027002E9703462700E31ED6F00356070091
:1048A400631C360185078A072286BE954A8597C010
:1048B400FF1FE780C08285B583473700C1BF97E7F4
:1048C400FF1F9387A7F5984729C79C5BB9C3054782
:1048D4006311E504411122C417E4FF1F130444F7D4
:1048E400104C06C61DC2484C97E5FF1F83D5C5F37F
:1048F40089818297084CEF20A14897E7FF1F23A5E1
:1049040007F697E7FF1F23A307F6B24022444101AD
:1049140082808280011117E7FF1F130727F04EC61C
:104924008329870022CC26CA4AC806CE52C456C25E
:10493400AA842E843289638709201C5BBA8A99EB86
:104944002945F2406244D2444249B249224A924A39
:10495400056182805C57EDD79307F01F63E8A70ECB
:1049640097E9FF1F9389C9EE83A78901B1CB03A5FA
:104974008A0083A7C9016393A70689476391F40852
:10498400C147E31FF4FA17E5FF1F0355E5E9914713
:10499400130505FC3345F5029317250003A589018A
:1049A4002286CA853E959307A0052301F5002310AE
:1049B4009500110597B0FF1FE7806072014551B75C
:1049C4009305E00417E5FF1F035505E6EF20E12CEE
:1049D40097E7FF1F23AAA7E859F99DB783A7CA023F
:1049E40003A6890197E5FF1F83D505E48981829792
:1049F40083A78A0017E7FF1F232AF7E6BDBF8D4769
:104A0400639EF400C147E31DF4F217E5FF1F03554D
:104A1400A5E1130545FD9377C5FF49B79147639A0F
:104A2400F400E31F94F017E5FF1F0355E5DF21159C
:104A3400DDB793070010E395F4F0A147E3E287F0B4
:104A440017E5FF1F035545DE4115F1B79D676379EF
:104A5400F506930705E01947B3C7E70217E7FF1FF9
:104A6400035787DC17EAFF1F130A8ADEB387E702BE
:104A7400BE9983278A01A1CF8327CA016397370789
:104A840003258A0191461308A0059305F00F93D7D7
:104A94002600139727002A9703462700631D06075D
:104AA400835807000346370063939806B306D6403D
:104AB40063CD860485078A072286CA853E95DDBDB7
:104AC40021677917E36EA7E6B307F54041BF930565
:104AD400E00417E5FF1F035525D5EF20011C97E7D8
:104AE400FF1F23A3A7D849F9A1BD83A7CA020326A0
:104AF4008A0197E5FF1F83D525D389814E85829747
:104B040097E7FF1F23A437D7A5BF2310B700931639
:104B14000601C182ADBFB385860017E6FF1F0356A9
:104B2400A6D09105130606FCE3FCC5E01306340089
:104B3400719A1106B2962301070123109700A3016D
:104B4400D7008DBF97E7FF1F938787D0944FBE8907
:104B5400A9C203A5890191461308A0059305F00F86
:104B640093D72600139727002A9703462700631636
:104B74000605835807000346370063989800B30678
:104B8400D640E3D986F22310B70093160601C182FA
:104B9400C1BF8357C70017E5FF1F034505C9930528
:104BA400E0043305F50242054181EF20010F97E748
:104BB400FF1F23ABA7CA51FD61B317E6FF1F0356BE
:104BC400A6C697E5FF1F83C545C6B385C5023386D0
:104BD40086001106E3E6C5D691BF01458280011126
:104BE40006CE2EC6EF40D03301C9B245F24003557C
:104BF400250005616F806059F24049450561828056
:104C0400A38A0190238A019023A2019023A40190F6
:104C140023A0019023AE018E97E7FF1F938787C6D9
:104C24003707B40098C33707A0001307070AD8C38F
:104C340037C70700130707B898C741674107D8C7A4
:104C440037077F0098CB370781FFD8CB7D57239C4C
:104C5400E7008280011126CAAA84214522CC06CE0F
:104C64002E8432C636C43AC2EFE03FCC1DC9A246F8
:104C740012473246930700FD2300F5009947A3002D
:104C840095002301F5002303D500A303E5002312B7
:104C9400C500AA8522856244F240D24405616FE0D2
:104CA400BFD7F2406244D2440561828023A2A1901E
:104CB400828023A4A1908280011122CC4AC806CE0E
:104CC40026CA2A890144B30489006368B400F24007
:104CD4006244D2444249056182802EC697B0FF1FC8
:104CE400E780003B93170501C183A183B24523806C
:104CF400F4009307140093F7F70F850463F9B700E2
:104D0400CA9709042380A7001374F40F6DBF3E846F
:104D14006DBFC16717E5FF1F035545B9FD17630252
:104D2400F502411103C641959385C19006C6EF4033
:104D34009002B240FD5717E7FF1F2319F7B6410150
:104D44008280828023900500ADC28147130E000C3F
:104D540063FDC7043387F600034807001387170071
:104D640042079318080193D808014183638F08020E
:104D74003A98634C06033388E60003480800630648
:104D84000802130328FC1373F30F63706E0213837A
:104D9400F8FF239065006316A800130517003695E5
:104DA4008280C697C207C18365B7014582804111DD
:104DB40026C2AE8422C497E7FF1F23A5C7AE97E798
:104DC400FF1F23AFB7AC97E7FF1F23A9A7AC2A8423
:104DD40041469305F00F26854AC006C60549EF10E3
:104DE400F124631E250397E7FF1F938727ABC8436E
:104DF400C145D93541469305F00F2285EF101123A3
:104E0400854463169502224497E7FF1F938707A9F9
:104E1400B240924402498843C145410171BD4146B3
:104E240081452685EF109120E31625FD6DBF41468F
:104E340081452285EF10911FE30795FCB24022447F
:104E44009244024941018280411122C426C22E8427
:104E5400AA847146814517E5FF1F130525A406C6DC
:104E640097B0FF1FE780802B97E7FF1FA38F97A2C0
:104E7400238C8194EF80E032854719C181474945ED
:104E8400B240224417E7FF1F2300F7A292444101D6
:104E94008280814781CD19C98547631BF50083C78B
:104EA400550093E707FCA382F50085473E85828081
:104EB40009478547E31CE5FE03C755001377F7034D
:104EC400A382E500E5B7814781CD19C903C7550021
:104ED4009306000C85471377070C6303D7008947B3
:104EE4003E858280411122C4005D06C626C21DC0D3
:104EF400AA84085019C1EF10B168485019C1EF10C5
:104F04003168085419C1EF10B1672285EF10516759
:104F140023AC0402B240224492444101828009ED50
:104F240097E7FF1F83C7679817E5FF1F1305459889
:104F340081CB1385418F828017E5FF1F13054597A9
:104F4400828017E5FF1F03454596828097E7FF1F80
:104F54009387C7948843828097E7FF1F93870794BA
:104F6400C843828097E7FF1F938747939C478843F2
:104F7400828097E7FF1F9387679298471C438507B2
:104F84001CC317E5FF1F034555929307F00F6305F4
:104F9400F50091656F10511E8280011122CC32C63A
:104FA40006CE2E84EF409006914732466310F502F8
:104FB400938781909C4399CB03A307006308030064
:104FC40022856244F240B28505610283F240624464
:104FD400054505618280011122CC2A8403554500D0
:104FE40006CE26CA4AC84EC6EF4060632DC52A893C
:104FF400834405008349C500F5354A85EF40703088
:1050040003554400EF40007C83C74191A9CB6398CA
:10501400970483C551912685D93619E1238A0190D5
:1050240003554400EF40807E9147631FF50003570A
:10503400440097E7FF1F83D767876317F700FD577F
:1050440017E7FF1F2314F786F2406244D244424913
:10505400B2490561828081499304F00F75B79307C3
:10506400F00FE38FF4FA83466400035644000345CB
:1050740024004E87A685F93E65B717E7FF1F03474F
:10508400D7829307F00F6305F706411126C2AA845D
:10509400294522C406C6EFE05F892A8429C59307FF
:1050A40000FD2300F500A147A30095002301F500AE
:1050B40097D7FF1F9387877E83C7E7009385418F28
:1050C4001105A30FF5FE194697B0FF1FE7802001D5
:1050D400A2852244B240924417D5FF1F0345F57CB4
:1050E40041016FE07F93B2402244924441018280A7
:1050F400828079715EC6AA8B2E8552CC56CA5AC854
:1051040006D622D426D24AD04ECEAE8A328B368AE6
:10511400EF40E0507DC1045D2A89E5C09C506145A3
:1051240099C3130540039C5481C75105420541812D
:1051340063050A00710542054181DC5081C75D05A4
:1051440042054181EFE06FFE2A8445C961468145ED
:1051540097B0FF1FE78080FC97D9FF1F83C989732D
:105164006394090083490900930700FD2300F400B8
:10517400A947A30074012301F400230364018C50A4
:10518400231254011305840191C908C47146930A7A
:10519400440397B0FF1FE78080F456858C5491C96F
:1051A40048C45146930A450197B0FF1FE78020F396
:1051B4005685630C0A0008C87146D285930AC50156
:1051C40097B0FF1FE780A0F15685CC5099C548C819
:1051D4005D4697B0FF1FE78080F0A2854E85EFE023
:1051E400BF832254B2509254F249624AD24A424B8B
:1051F400B24B4A8502594561F5B1B25022549254DA
:105204000259F249624AD24A424BB24B456182800A
:1052140001114EC6AA892E854AC806CE22CC26CABA
:105224002E89EF40C03F21C997D4FF1F83C48466F1
:1052340099E0834405001945EFE02FEF2A8405CD5A
:105244008145194697B0FF1FE78040ED930700FDA5
:105254002300F400B947A30034012301F40023120E
:105264002401A2856244F2404249B2492685D244CF
:1052740005616FE06FFAF2406244D2444249B24998
:105284000561828039715ECEAA8B2E8526DA4ED6D0
:1052940052D456D25AD006DE22DC4AD8AE84328B9F
:1052A400B68A3A8ABE8942C6EF40603721CD2A8940
:1052B4004145EFE08FE72A8431C54146814597B0E7
:1052C400FF1FE780A0E517D5FF1F0345A55C19E183
:1052D40003450900930700FD2300F400BD472301A3
:1052E400F400B247A3007401231294002304640160
:1052F400A304540123054401A30534015CC4A2851D
:10530400EFE08FF1F2506254D2544259B259225A0A
:10531400925A025BF24B2161828017D7FF1F034729
:10532400D7589307F00F630DF706411126C2AA84DC
:10533400394522C406C64AC0EFE02FDF2A8439C9A2
:10534400930700FD2300F500A30095002301050049
:1053540097D5FF1F9385C5550D05194697B0FF1FB7
:10536400E780E0D717D9FF1F130949538357290151
:10537400A2852315F4008347D9002306F4002244B0
:10538400B2409244024917D5FF1F0345155241010B
:105394006FE08FE8B2402244924402494101828086
:1053A400828001115AC02A8B314526CA4EC652C486
:1053B40056C206CE22CC4AC8AE84B28A368ABA898C
:1053C400EFE0AFD63DC52A842685EF40402529CDA0
:1053D40003C99195631C0B009387819C9C439C4754
:1053E40091C7CE865286D68526858297930700FD7F
:1053F4002300F4009D47A30064012301F400231259
:105404009400231354012314440123153401A28569
:105414006244F240D244B249224A924A024B4A853B
:10542400424905616FE04FDF17D9FF1F0349F94770
:1054340075BFF2406244D2444249B249224A924A78
:10544400024B05618280011122CC2A84214506CEBB
:105454002EC6EFE08FCD21C1B245930700FD230096
:10546400F500C5472301F50083C73500A301F50006
:1054740083D745002312F50083C765002303F50095
:1054840083C77500AA85A303F50022856244F24010
:1054940005616FE06FD8F240624405618280397122
:1054A40062CC2A8C594526DA4AD84ED652D456D2E2
:1054B4005AD05ECE06DE22DCAE8432C636C4BA8B47
:1054C4003E8BC28A468A8359010403494104EFE0B2
:1054D400CFC525C93246930700FDA2462300F50037
:1054E4009547A301C500A30085012301F5002A8483
:1054F40019461105A9C2B68597B0FF1FE78020BEE3
:1055040023066401230A240123157401231754017B
:105514002318440123193401A2856254F2504259DC
:10552400B259225A925A025BF24B624C2685D254EB
:1055340021616FE06FCE814597B0FF1FE78000BE09
:10554400C1B7F2506254D2544259B259225A925AB3
:10555400025BF24B624C21618280797126D206D6BD
:1055640022D44AD04ECE52CC894449C52A8403550C
:1055740005002E8AD144EF40800A2A8925CD1C5D7E
:10558400C544ADEB9165938545711305C002EF10D9
:10559400C170232CA902AA89CD4429CD1306C002C7
:1055A400814597B0FF1FE78060B783570400938657
:1055B400490036852391F90071469305440036C6A7
:1055C40097B0FF1FE780A0B189472380F900B24656
:1055D4000356040083C541950145EF40306AAA840F
:1055E40063060A00D2854A85EF40007681C44A8565
:1055F400EFF05F8FB2502254268502599254F2493B
:10560400624A4561828039CA411122C426C24AC015
:1056140006C6B2842E89EF4080002A84D1470DC586
:10562400485519C1EF10C175F1452685EFE0AFCE9D
:1056340048D4CD4711C983474400630E090093E75A
:1056440067002302F4008147B24022449244024995
:105654003E854101828093E74700E5B789473E854F
:105664008280AD4763EBA70097D7FF1F93878721FD
:1056740006053E9503550500828041657D158280AF
:10568400011122CC2A842E8526CA06CEAE84EF30A0
:1056940010791DCDB7470F009387F723094563E4BD
:1056A400870281450A85414697B0FF1FE78000A71E
:1056B400A685231081000A85418023018100A3016E
:1056C4000100EF40504FF2406244D24405618280B1
:1056D4004945D5BF238BA1948280797152CC2A8A03
:1056E400328522D426D24AD04ECE56CA5AC85EC675
:1056F40006D662C4AE8BB28A368BBA843E89C2891E
:105704004684EF30D07115C92A8C63140A021377CA
:105714004B008347450015CF93E727012302FC0084
:105724008DEC631C0902639A090205E8ED9B2302D0
:10573400FC00832B8C03639B0B06B25022549254BF
:105744000259F249624AD24A424BB24B224C456159
:105754008280F59B93E70701D1B793E747002302C3
:10576400FC0001CC1C484146A2852324FC021305FD
:105774008C0197B0FF1FE7808096639F0B00D5D8FC
:105784000325CC0219C1EF10A15FF1452685EFE096
:105794008FB82326AC0271BFE30D09F80325CC02B0
:1057A40019C1EF10E15DF1454A85D5B78DC483A7D2
:1057B4000B0289EB9165938535717145EF10E14DCD
:1057C40023A0AB0203A50B0219C57146A68597B0A9
:1057D400FF1FE780C0906386090283A74B0289EB11
:1057E4009165938525715D45EF10214B23A2AB0292
:1057F40003A54B0219C55D46CE8597B0FF1FE78010
:10580400008E0DC483A78B0289EB91659385157176
:105814005145EF10814823A4AB0203A58B0219C59F
:105824005146A28597B0FF1FE780608B2254B25087
:105834009254F249B24B224CCA865A860259424BC0
:10584400D6855285D24A624A45616FF09F8A01111A
:1058540026CA52C406CE22CC4AC84EC62A8AAE8470
:10586400EF30F05B25C5AA893945EFE00F8C2A8417
:1058740031CD17D9FF1F0349E9016314090003C996
:1058840009009307000D2310F400AD472301F40031
:105894009385690013053400194697B0FF1FE7800C
:1058A400008493F71400858085882306F400A306FA
:1058B400940023154401A2856244F240D244B249C3
:1058C400224A4A85424905616FE00F95F2406244DD
:1058D400D2444249B249224A056182809387C18FEA
:1058E400884311C9411106C6EF108149B24023AE65
:1058F400018E410182808280011106CE22CC26CA0B
:105904004AC82EC6EF30B05139CDB24517D9FF1F62
:10591400034949F8AA840CD5631409000349050016
:105924004145EFE08F802A841DCD9307000D23109D
:10593400F500A5472301F50083C75400938564004F
:105944001105A30FF5FE194697A0FF1FE7802079E4
:105954009C54A285F2405CC46244D2444A854249C4
:1059640005616FE06F8BF2406244D24442490561A5
:105974008280C16717D8FF1F035848F3FD17630AD5
:10598400F80241112396B1902397C1909385C19059
:1059940003C6419506C62399E1902398D190EF3030
:1059A400903BB240FD5717D7FF1F2311F7F0410179
:1059B40082808280797122D406D62A842EC6EF3062
:1059C400104605CD8346C5001147AA874945639211
:1059D400E6029C5FB24599C383C567012308B10001
:1059E400975600009386E6F9100889452285EF4012
:1059F400A02CB2502254456182805145DDBF31C68E
:105A0400411122C426C24AC006C6B2842E89EF3090
:105A140010412A84514505C46308090083474400A2
:105A240093E727002302F400130584014146A68569
:105A340097A0FF1FE780A06A9C4801451CD4B24090
:105A4400224492440249410182800945828079714D
:105A540022D406D62A842EC6EF30703C01CDB2453E
:105A64002285230EB1006C08EF40802AB2502254E4
:105A7400456182805145DDBF6F30904F2D47AA8725
:105A84006361A70241677D170945638DE50017D55A
:105A9400FF1F130525DF8607AA972390B70001454A
:105AA400828009458280011122CC06CE26CA4AC8CA
:105AB400114609446392C5023EC63A89B684EFF0A2
:105AC400AFB82A84324609E9CA852685EFF02FAE9D
:105AD400EF005053EF00B02F2285F2406244D244CD
:105AE400424905618280411106C622C426C22A8425
:105AF40097D4FF1F938484DAEFF08F90EF00D02FB8
:105B0400EFA0E01B26858145714697A0FF1FE78023
:105B1400E060930700F02397F4007D579387419545
:105B24002381E7002380870022852244B2409244E7
:105B3400954541016F30A0071D7193970501CAC8AF
:105B440086CEA2CCA6CACEC6D2C4D6C2DAC05EDE87
:105B540062DC66DAC1872E8963D5074403C54195A3
:105B6400EFD07FE38964C169056A797B2A84938BCA
:105B7400D400FD19250A130CABFF0DE02165334554
:105B8400A900F6406644D6444649B649264A964A90
:105B9400064BF25B625CD25C256182808347040021
:105BA4001307200A639DE7000355240097DAFF1FBB
:105BB40083CABACF2286CE85EFF02FBE85A2130703
:105BC400100983CA61956399E73A8347140015471E
:105BD400639EE7002285EFF00FC02285EFD01FD02F
:105BE40003C54195EFD03FDB2A8441BF3947639A0F
:105BF400E71283574400639B47050C4483CC05009C
:105C0400639D0C00850591C9194617D5FF1F13051F
:105C140025CA97A0FF1FE780804C17D7FF1F0347B3
:105C2400A7C88547631AF734638A0C0097D7FF1F08
:105C3400238C07C66685EFF04FEE45B7894717D723
:105C4400FF1F2303F7C6EF70005841BF13872400DA
:105C5400639AE706832C840063800C3283C70C00AC
:105C64008DE383C72C0003C71C00A207D98F17D765
:105C7400FF1F231EF7C283C73C0017D7FF1FA305CE
:105C8400F7C217D7FF1F034727C289476316F72EAA
:105C940083C70C0081CB97D7FF1F238707C003C599
:105CA4000C0051BF8D4797D5FF1F83C5F5BF17D58E
:105CB400FF1F0355C5BF17D7FF1F2307F7BEEF20EC
:105CC4001072F1BF138754006398E7001C4403C5A6
:105CD4000700EFF08FBA11B733878701420741837A
:105CE400914663F3E6021307ABFCBA97C207C1837C
:105CF40071476363F728370700181307F770B35722
:105D0400F700858B638A0726938741909C43E3863B
:105D140007EC9C43E38307EC22858297E31F05EAA3
:105D2400A1AC3D476390E70483574400E38777EBD6
:105D340013879401E383E7EA13873401639EE72220
:105D440097D7FF1F83D787B6E38937E99387819075
:105D54009C43E38407E89C43E38107E8A2853A85F2
:105D640082976DBF1307E0036398E72083472400FD
:105D740005476396E70C938741909C4397DCFF1F8C
:105D840083CCBCB291C7DC4381C78145014582976E
:105D940003457400930A8400D685EFF0CF928347BD
:105DA4004401A303A400835804010358E4000357E7
:105DB40044002A86034534003EC283572401D68614
:105DC400E6853EC09147EFF08FED8347340095E7B9
:105DD400DD47835804010358E40083467400835567
:105DE40044003EC283572401568705463EC066855B
:105DF4009147EF30F036A301A4009387C18F9C43F1
:105E040081C71145EFF09FAD03C54191E30705DC60
:105E140083C55191EFE0BFDCE30105DC8346340028
:105E240093071003638AF60003564400114783C5A1
:105E340041913685EFE01FE2238A019079BB29471F
:105E44006399E708938741909C4397DAFF1F83CABD
:105E5400DAA591C7DC4381C7814501458297034593
:105E640074009306840093772500A1CF1376150060
:105E7400930C4401834704028358C4010358A401CA
:105E840003574400034534003EC28357E401D685DA
:105E94003EC09147EFF0AFE083473400B9FFDD47E0
:105EA4008358C4010358A4018346740083554400F5
:105EB4003EC28357E401668705463EC05685914736
:105EC4000DBFB68536CEEFF00F80F2462A86B68C2B
:105ED40055B70D476397E70022868D450355440067
:105EE400E1B919476395E7066C1013051031EF907B
:105EF40030619305E10213052031EF907060035681
:105F040064008357E1020355440063E8C7008356E5
:105F140084000357C10263F7E60093050002EF70A3
:105F2400E03B65B96374E6002313E40063F4D7002F
:105F34002314F4000357C4008356A40003568400BA
:105F44008355640001488147EF70403679B11D479D
:105F54006384E70231476395E7002286B145BDBFFC
:105F640049476394E702938741909C4391C7DC437C
:105F740081C78145054582979307F00FE38FFAC4E3
:105F8400A2855685EFD05FA9A1B94D47E396E7FEF8
:105F9400938741909C43EDD3DC43F9DFA285094507
:105FA400D9BF93F725000145E38D07BC9387419042
:105FB4009C4391C7DC4381C78145054582971345BE
:105FC4002900C1B61D71A6CA938401909840A2CC41
:105FD40086CECAC8CEC6054441C30345370097D709
:105FE400FF1F83C7878CB337F000930547003EDE5D
:105FF400EFE03FEA98402ADC0945834527002EDA82
:10600400EFF02FE62AD80D45EFF0AFE584402AD60D
:10601400254503C7A40083C9B4003AD4EFF06FE464
:106024002A892945EFF0EFE362096258F2572257B3
:10603400B2564256D2551375F50F135989412ACCDD
:1060440022C402CA02C802C64AC24EC0938844008F
:106054000545EF70E02D2A842285F6406644D64437
:106064004649B6492561828093870190884311C9C6
:10607400411106C6EF00D150B24023A00190410166
:1060840082808280011122CC06CE8D472E84631635
:10609400F50603C73500E94703D545006318F70043
:1060A40097D7FF1F83D787806385A706EF302057D4
:1060B40009C5835764002317F5000357A4008356CA
:1060C4008400035664008355440003453400EFF014
:1060D4004FAD0357440097C7FF1F83D7277D63083D
:1060E400F7008547F24062443E8505618280FD5792
:1060F40017C7FF1F231CF77AEDB78967CD07631D08
:10610400F50083C7250031476385E7004547E39AD7
:10611400E7FCEFE01FC0F1B7B1476317F50003C513
:106124009195EFF04FB275BF41677D178147E31B2F
:10613400E5FA83C655004947E396E6FA83C5450068
:1061440003552400300023140100EF30A03F51BF59
:10615400411122C406C626C283C761911307E00F0A
:106164002E846383E7041307F00F6387E702114566
:10617400EFD0AFFB15C1930700FD2300F50089475D
:106184002301F5008547A3008500A301F500AA8536
:1061940003C56191EFD05F88F957238BF190B2402A
:1061A4002244924441018280AA841145EFD0EFF742
:1061B4007DD5930700FD2300F5008947A3008500E2
:1061C4002301F500A30195002244B2409244AA851C
:1061D40003C5719141016FD03F8401114AC81389ED
:1061E40001908327090006CE22CC26CAC9EBAE84CF
:1061F4009165A38BA1902A84938575713145EF0035
:10620400D129AA8723A0A1904D45B9C32380870033
:10621400A3800700138527002946A68597A0FF1FA2
:10622400E780E0EB83270900914603C7270063EC6E
:10623400E6000DE74D472381E70003C727001367F6
:1062440007012381E700BD3B01C52AC6313D324524
:10625400F2406244D2444249056182808546631417
:10626400D7007547C9BF89466314D7004947E1B7CA
:106274008D466314D70041477DBF55476DBF4545E3
:10628400C1BF011126CA938401909C4022CC06CE42
:1062940049449DCF83C707000D44639BA7028945EA
:1062A40003C54195EFD0DFC1914503C54195EFD0BA
:1062B4003FC19C4001478146A38087001306F1003B
:1062C400854785450145A307F100EF7000102A8436
:1062D4002285F2406244D2440561828041114AC061
:1062E40006C61389019022C426C2054783270900E4
:1062F400631BE500D1CB2244B2409244024903C55A
:1063040007004101BDBFC9C38947AE846312F506C6
:106314002D45EFD08FE12A8425C9930700FD230082
:10632400F500E547A30005002301F50083C7340009
:1063340015051946230FF5FE83C7440093855400C1
:10634400A30FF5FE97A0FF1FE78060D903C59195C1
:106354009307F00F6316F5008327090003C50700B0
:10636400A2852244B2409244024941016FD0CFEA4F
:10637400894503C54195EFD0BFB42244B24092444D
:10638400024941016FF05FCEB24022449244024977
:1063940041018280FD4763FCA700094582800945CD
:1063A400F2406244D2444249B249056182804DC1FF
:1063B400011122CC2A8421054EC64205AE8991657D
:1063C4009385657141814AC806CE26CAEF00F10C57
:1063D4002A8971D59384C191884019C1EF00511A5B
:1063E400130589002320A9002286814523AE21912B
:1063F40097A0FF1FE78080D29C402286CE858843E9
:1064040097A0FF1FE780A0CD9C402392870093872D
:1064140001909C4395CB83C78195918B85CB9387C2
:10642400C1919C4399CF984383D647006244F2407C
:10643400D2444249B24905468D45054505616F6020
:10644400507401478146DDB7014599BF494589BF6D
:10645400938701909C439DC383C78195918B8DC382
:106464009387C1919C4381CB984383D647000546CB
:106474008D450545E9B701478146D5BF0145828071
:1064840049458280FD4763FCA70009458280094590
:10649400F2406244D2444249B249056182804DC10E
:1064A400011122CC2A8421054EC64205AE8991658C
:1064B4009385557141814AC806CE26CAEF00E17D15
:1064C4002A8971D593840192884019C1EF00510B38
:1064D400130589002320A9002286814523A0219346
:1064E40097A0FF1FE78080C39C402286CE85884307
:1064F40097A0FF1FE780A0BE9C402392870093874C
:1065040001909C4395CB83C78195918B85CB9387D1
:1065140001929C4399CF984383D647006244F2404A
:10652400D2444249B24905468D45054505616F602F
:10653400906701478146DDB7014599BF494589BF49
:10654400938701909C439DC383C78195918B8DC391
:10655400938701929C4381CB984383D64700054699
:106564008D450545E9B701478146D5BF0145828080
:10657400494582809387C1919C4391CF03D64700BC
:106584008C43411106C697A0FF1FE78040B5B24077
:10659400014541018280094582809387C1919C43D2
:1065A40085C7938701929843894705C303564700DB
:1065B4000C43411106C697A0FF1FE78040B2B240CA
:1065C40081473E854101828089473E85828083C719
:1065D4008195918B99CF41111385819106C6EFE086
:1065E4004FEDB240FD5717C7FF1F2311F72C410190
:1065F400828001456FE0EFEBFD57A38BF190F957D3
:10660400238BF19023AE019023A0019297C7FF1F23
:106614009387872A170700001307C70798C317072C
:1066240000001307E7CBD8C3170700001307C79967
:1066340098C797070000938727A523ACF190828021
:10664400411126C2938401909C4006C622C485CF82
:106654002A840D45EFD06FADAA8519CD930700FDAF
:106664002300F5008D47A30085002301F5009C401D
:1066740003C50700EFD04FBA19C42244B240924474
:1066840041016FF07F9EB2402244924441018280D6
:10669400835645000111896706CE22CC26CA4AC812
:1066A400138767036390E6021C45014583C5070011
:1066B400EFF01FAA8547F2406244D24442493E8526
:1066C40005618280138777036397E6001C450545BF
:1066D40083C50700F1BF138787036393E6081C454E
:1066E4001307E00F03C4070083C76191638EE702B9
:1066F4001307F00F6386E7021145EFD00FA3AA85B5
:1067040005C1930700FD2300F5008947A300850018
:106714002301F500A301050003C56191EFD0CFAFBC
:10672400F957238BF19079B7938701909843814768
:1067340059D305E4854723170100A300F700930606
:10674400E1001307D1007000854505452306F100DB
:10675400A3060100EF607047B1BF2285D53599BF0C
:10676400138797038147E398E6F413840190184054
:10677400228931D31C450347170083C4070085478A
:106784006308F7020D45EFD04F9AAA8519CD9307F8
:1067940000FD2300F5009147A30095002301F500B7
:1067A4001C4003C50700EFD02FA7EFF0FF8B19B7EC
:1067B4009387C1919C4395E30145EFE09FEA19C596
:1067C4002A86894503C54195EFD08FCE83270900DA
:1067D40009472685A380E70051B7944303D64700B1
:1067E4009305E1000545EFE0EFD579D58347050032
:1067F400858BF9D30545EFE0DFE613060064330526
:10680400C50275BF411183C7819506C6918B99CB8B
:1068140017C5FF1F1305450AEFE04FC94D45B240A8
:10682400410182800145EFE06FC80145CDBF0145BC
:10683400828083C6B195814763E5D70001473A85D5
:1068440082802E87910503D6C5FFE30AA6FE85073D
:10685400E5B70DCD834725000547890793F7F70F63
:106864006376F702411122C406C62A8483550500C3
:10687400034535000147F9465D46EFA0600FF9571F
:106884002311F400B240224441018280828003C774
:10689400B1958147FD5663C3E70082802310D5007C
:1068A4002301050085071105FDB701458280938505
:1068B40071849307000285462380F500FD572383E6
:1068C400F184A38CF182238CF1822392D1842392CC
:1068D400019223A6019223AE019223A8019213866A
:1068E400C18397070100938767E15CC22383019208
:1068F40097C7FF1F938707FD09472300E6002380FE
:10690400E7002388E7002380E7022388E7021707CC
:1069140001001307E7DDD8DB0D47238CE70213875B
:10692400819218432384D700D0C7238CD70017053E
:106934000100130525DD17060100130626DB970663
:1069440001009386A6DCC8C323950700D0CB239D02
:106954000700CCCFD4D3238407022395070223A6B0
:106964000702239D0702D8DF97C7FF1F938787F984
:10697400170700001307E70B23A00700D8C323A4BD
:1069840007008280411106C66D3511C503452500F7
:10699400B240410182800145E5BF411122C426C2B3
:1069A4004AC006C6AA842E893284613509E9416544
:1069B400CA857D15BD3DC54711C52310950023012A
:1069C40085008147B2402244924402493E854101F8
:1069D400828039E38948354763911605011106CE53
:1069E40022CC26CA034716000346060093C7F7FFC6
:1069F4002207598EF18F32C69DE3C4452A84A685A9
:106A0400513732460147630EA60022856244F240A4
:106A1400A685D244056151B72D473A858280130774
:106A24000008F2406244D2443A850561828083C8FA
:106A3400050009486394080303A845008347180028
:106A440003480800A207B3E70701C2070D68C1871E
:106A540013082890639407018947A5BF05458280E0
:106A640003C791839307F00F630AF70441114AC0E7
:106A74002A89294522C426C206C63284AE84EFC0C0
:106A8400DFEA1DC59307100B2310F5002302050050
:106A94002314850022442311250123139500B240B9
:106AA40092440249AA8503C5918341016FC0DFF670
:106AB400B2402244924402494101828082804111C1
:106AC4009387819226C2AE848C4322C406C62A844C
:106AD400553D098909C922852244B240A6859244BC
