:040000006F104047F6
:100004000000000000000000E0560100C60A0020C5
:10001400A9BDF9F3E0560100000000000000000053
:10002400E0560100E056010000000000000000005E
:10003400E056010000000000E0560100000000004E
:1000440000000000E056010000000000E05601003E
:10005400E0560100E0560100E056010000000000F7
:10006400E05601000000000000000000E05601001E
:10007400700B0020E0560100E0560100E05601003C
:1000840000000000E056010000000000E0560100FE
:1000940097270000938747629C53411122C406C6E8
:1000A4001384C18199C782971C403E9523AEA180D9
:1000B40029A09387018B9C43FDF70840B7470300B1
:1000C4009387D73F3305F502B7A72600938737EC0C
:1000D400B24022443E9523AEA18041018280B7E71D
:1000E40000E09843B706200023A0D718758F0F109F
:1000F400000001C599C1814711E6B7E700E023A0DC
:10010400E7108280B386F50003C80600B306F50045
:10011400850723800601E317F6FEC5B737E700E03D
:100124001C43B70620002320D718F58F0F100000BA
:1001340001C53307C50011E637E700E02320F710B7
:1001440082800505A30FB5FEE31DE5FEF5B737E78D
:1001540000E01C43B70620002320D718F58F0F10AA
:10016400000001C599C1014711EA37E700E02320E7
:10017400F710054582800507E309E6FE3308E5002C
:10018400B386E5000348080083C60600E305D8FEED
:1001940037E700E02320F71001458280797126D2E9
:1001A4009384418B22D406D64AD04ECE52CC56CA22
:1001B4005AC85EC626849C40F1E79387818A984397
:1001C4001726000003469652BE84172A0000130A1D
:1001D400EA519727000083C7675193961700BA9690
:1001E40083D60600D5C29727000083C7275063E74C
:1001F400C70A97270000238B074E1C40639C0710F7
:100204001389018B83270900638607109387C18BA9
:10021400804363010410972400009384244FDC403E
:10022400B7C9C901014B172700002325F74C93894F
:10023400F937972A0000938A2A4883572400EDEB64
:100244005C4463140B0E23AEF18A832BC400228515
:10025400976001E0E780C0AF5E8465F097270000F7
:1002640093878745DC53DDC72254B2509254025918
:10027400F249624AD24A424BB24B4561173300E01D
:10028400670043B1829705BF850793F7F70F972659
:100294000000238DF644E3EEC7F2B1B786073E971C
:1002A4008355070023100700972700002393074472
:1002B4009387018C9C43172500000345254313179E
:1002C4002500BA979C4382971727000003470742EB
:1002D4009317170098403E9783576A0093C7F7FF18
:1002E4007D8D835707005D8D2310A700972700009D
:1002F40083C7C73F91C78507172700002308F73E28
:10030400172700000347873E9727000083C7173E3F
:10031400E371F7EEB250225492540259F249624A00
:10032400D24A424BB24B456182802326FB0031BF47
:100334008327090082971C443307F5406375F50051
:10034400D8401D8F2A9763EBE902835524000345A7
:100354000400975001E0E780205F5C40E38207EEF1
:100364001044D440B2973E8763E4C70063E4D700E7
:100374003387D74018C4228B4044C5B503A74A022B
:100384007DDB63EFA7023385A7408347040085E341
:10039400172700000347A7335117B307A7003E856B
:1003A400D44063E4E70063E4D7003385D740832770
:1003B4008A00E372F5FC9727000023ADA73265BFDE
:1003C400D840BA97C9B737C700408326C720B707B4
:1003D400FCFFFD17F58F2326F72001000100972766
:1003E40000009387A730C84B832787262326D7206E
:1003F4006A0593C7F7FF99835D8D82801387819384
:100404001443411122C4BC4206C63A849983858BA5
:10041400B1CF93070006BCC29727000083C70740EB
:1004240093F707049DC7972700009387272E9C43C3
:1004340082979727000023A9A73E97270000938758
:10044400E73D83C7070093F7F70B1727000023073F
:10045400F73C9727000083D7E73C89CB1387819427
:1004640018437CD397270000239E073A18403C4347
:100474009183858B81CBC1473CC3938781949C43F3
:1004840023A207069387419398435C438583858B16
:1004940099C323220700B240224441018280B93F1C
:1004A4007300203097270000A38A0736938781942E
:1004B4009443172700001307673683470700858B8B
:1004C40099E783471700858B99E3FC52FDF78280F7
:1004D4000347150093160701C1829387260011CBA9
:1004E400138781941843384B1583058B19C393875D
:1004F400660093863700AA9603C806008548054718
:100504001378F807631D180799C53307F5000347E7
:1005140027002380E5000DCEAA9703C7170083C7E1
:10052400070022075D8F931527019357470063D671
:10053400050093E707C0C207C18303170600C2077B
:10054400C18709C7BA970947B3C7E7022310F60062
:10055400034715000DC7938781949C430147BC4B07
:100564009583858B89CF83C70600854613F6F706E6
:100574006319D600E207E18763D3070039473A8558
:1005840082801947EDBF01119727000023890728AE
:1005940026CA97270000A384072897240000938481
:1005A400A411DC504AC806CE22CC4EC62A892E8518
:1005B400B28595C7B7E700E03707200023A0E728F6
:1005C400B7F700E003A707D16D9B23A8E7D003A7E3
:1005D40007D11367870323A8E7D07300501085471A
:1005E40093898193138481946317F9060146975084
:1005F40001E0E780204983A709009C43A1838D8BF8
:10060400B9E71C4013076019F8D3DC5099CB37F7CE
:1006140000E0832707D193E787002328F7D07300EE
:1006240050101440172700001307471F8347270063
:10063400858B99E783473700858B99E3FC52FDF757
:10064400F2406244D2444249B249056182801C406E
:100654001307E01B55BF975001E0E780A03B83A739
:100664000900B70600019843558F98C3D85B719B66
:10067400D8DBE31C09F897270000A381071A1C4064
:10068400094798C359B7938781949C439847D447A3
:10069400758F98C79316D70063DE0600FD56B4D74E
:1006A4009726000093868604D44A85061726000000
:1006B4002328D604937687009DC29726000083C61C
:1006C400061693E6160017260000230AD61493860E
:1006D40081939042545AF19A93E6160054DA937631
:1006E40017009DC29726000083C6561393E6160092
:1006F40017260000A304D612938681939042545A7D
:10070400F19A93E6160054DA93766700B9C6118B12
:1007140097260000938686109385819345C398415C
:10072400184321830D8B41EBB04BD84A1376060254
:100734000347170039CA2DEF13077006D8CF83C7B4
:10074400060093E71700172700002309F70C9841C8
:100754005C5BF19B93E717005CDB83C70195D1C316
:10076400238801949387C1949C43B5C3411106C661
:1007740082979387019583C7070093F7F70F99E34F
:1007840023A60194B240410182805DD705466315DA
:10079400C7001307B0065DB709466315C700130702
:1007A400F00669BF0D466315C7001307300779B714
:1007B4001307500761B71307600749B783C73600AB
:1007C40093E7170017270000A30BF70449B7938793
:1007D400019583C7070093F7F70F81E723A60194D8
:1007E400828082804D3573002030972700009387E4
:1007F400E702DC4B9385150295859843FD1518C1D6
:10080400D84358C1984718C5D84758C5984B18C9F4
:10081400D84B58C9984F18CDD84F58CD91C513050A
:10082400050293870702D1BF8280938781949843FE
:100834003C5BFDFF0100010082800111972700004D
:100844009387070E22CCC05F26CA06CE2AC42EC6C2
:10085400854419E40145F2406244D2440561828032
:100864008347910003471400858B6304F700004419
:10087400CDB719469305A10013052400C938E31820
:1008840095FE0545C9BF9307000C01116314F504D7
:1008940093078008F3B7078093F787083EC00100E9
:1008A4000100B7170040130770052380E7041307FE
:1008B40080FA2380E7040100010098271367070CDE
:1008C40098A7238007048247F3A70780010001004B
:1008D40005618280B7170040B827118B69EB83C686
:1008E400E7041307800893F6F60F73360780137630
:1008F400860832C201000100130870052380070531
:10090400930580FA2380B7040100010003C6E704BD
:10091400136636002387C704B02713664600B0A7C2
:1009240023800704124673260680010001009027E5
:100934001376F60F73370780137787083AC40100DC
:100944000100238007052380B704010001009827D4
:100954001367070C98A723800704A247F3A707800F
:1009640001000100A5470100FD1793F7F70FE5FF0C
:1009740093078008F3B7078093F787083EC6010002
:100984000100B7170040130770052380E70413071D
:1009940080FA2380E7040100010090A72387D7048D
:1009A40023800704B247F3A707800100010093776F
:1009B400050C130700046399E70893078008F3B74D
:1009C400078093F787083EC801000100B71700406D
:1009D400130770052380E704130780FA2380E704D4
:1009E40001000100B827854613670701B8A7372718
:1009F4000040A303D7808346578093E60601A302F1
:100A0400D78023800704C247F3A7078001000100B1
:100A140093078008F3B7078093F787083ECE010059
:100A24000100B7170040130770052380E70413077C
:100A340080FA2380E704010001001375F50F88A7ED
:100A440023800704F24749B59377F5019DCF9307B7
:100A54008008F3B7078093F787083ECA01000100B6
:100A6400B7170040130770052380E704130780FAC3
:100A74002380E70401000100372700408946A303CF
:100A8400D78023800704D24741B793078008F3B780
:100A9400078093F787083ECC01000100B717004098
:100AA400130770052380E704130780FA2380E70403
:100AB40001000100372700409D46A303D78023800F
:100AC4000704E24791B7411181460146814511452A
:100AD400972000E0E78040A913078008F3370780D8
:100AE40093F787083EC401000100B71700401306BE
:100AF40070052380C704930680FA2380D70401007D
:100B04000100FD55CEB723800704A245F3A5058057
:100B14000100010073370780137787083AC6010084
:100B240001002380C7042380D7040100010003C708
:100B34006704136717002383E70423800704B2477D
:100B4400F3A707800100010001A04111B71700407D
:100B5400985F3AC6945F3247E39CE6FE3245410112
:100B64008280B7E700E03707001023A0E7208280E7
:100B7400B7170040130700032388E70273002030EF
:100B8400411106C6EFF08FE1F5BF2303048015473A
:100B9400A2872303E480010001002302A48003C789
:100BA400678062076187E34C07FE2382A780228760
:100BB40083476780E207E187E3CC07FE8280230353
:100BC400048015472303E480010001002302A4806C
:100BD400828083076480E3CE07FE2303048082803F
:100BE40083076480E3CE07FE034544808280830745
:100BF4006480E3CE07FE2302A4808280411126C4D0
:100C04004AC24EC006C61377F50BAD47AA892E8992
:100C140095446306F70019455D37653F8D444E855D
:100C2400793FFD59FD1463983401B240A24412493E
:100C3400824941018280135509011375F50F453F1F
:100C44002209CDB7011126CC06CEB70408005137CE
:100C54001545B537713769372AC6A53F32459377AD
:100C6400150089EB136515001375F50FF240E24486
:100C740005618280FD14E9FC0145CDBF411106C622
:100C8400B7170040130770052380E704130780FAA1
:100C94002380E70403C747041305F00F1367070E07
:100CA4002382E70491472303F480C535B240410110
:100CB4000DB7011126CC4ACA4EC852C606CE2A899F
:100CC400AE89B284554A5D3F91E82137F2402685CA
:100CD4005249E244C249324A05618280CA850945C3
:100CE400313F910903A7C9FF91472320E4800307FB
:100CF4006480E34E07FE23034481FD17EDFBFD14DE
:100D0400110981C49377F90FE9FF2D3F55FDFD5477
:100D140075BF011126CC4ACA4EC852C656C45AC21F
:100D240006CE2A89328A8D49913FC164C16A056B16
:100D34009387F4FFB3F7270199E363719A02FD19CE
:100D44009180E39709FE71350145F240E24452492E
:100D5400C249324AA24A124B056182801305800DB2
:100D640063885401130500026384640113051008A9
:100D7400CA856935C13D09C52699330A9A4075BFAC
:100D84007D55E1B7011106CE26CC4ACAB2844EC8BD
:100D94002AC62E89E5353245FD14FD59AA852D450F
:100DA400B13D639A34013535F24026855249E24417
:100DB400C249056182802D3593F7340091EB832677
:100DC40004800327090093074900E39EE6FC3E895B
:100DD400FD14C1BF011106CE2AC64D353245C533B7
:100DE400F2400561FDB3011106CE26CC4ACA4EC8B5
:100DF40052C6AA8956C42E895135B7050400B3E5F5
:100E0400B9002D45E53B81448D4A214AD13B639687
:100E14005401832704802320F9008504E39844FFC8
:100E24008327048013972901635C07002312F900C8
:100E3400F240E2445249C249324AA24A056151BBD6
:100E44002322F900F5B7411106C626C44AC24EC092
:100E5400AE892D3581451305B0044D33BD447D590C
:100E6400413393F77400CE9703C70700FD14398DFF
:100E74002380A700E39624FFB240A244124982498A
:100E8400410181BB411106C6D53B13056006053BF4
:100E94008933130590092533B24041011DBB99E103
:100EA40023AAA18A8280938781939443B70702007F
:100EB4009387C7209CDE93070005DCDE37E700E05C
:100EC400D147A309F70497F7FFFF9387875D93E75B
:100ED40017007CD79717000083C7477F93E7070461
:100EE40013979701DC5A9E079D83D98FDCDA8280A1
:100EF4002388019423A60194938781949C43130728
:100F0400C00893066007D8CBD4CFD8D31306C00645
:100F1400D0D7D8DBD0DFF8C3F4C7130780072393F7
:100F2400E700172700001307678F584B23AA07040D
:100F3400F8DF7D5798C7370716003D07D8C737E74E
:100F440000E0D5472309F704970700009387C78972
:100F540093E717003CD782809387819498438967ED
:100F6400938707F47CD3938781959C4383A60709D1
:100F7400139656006358060083A607091396660065
:100F8400634406007453FDF28280411126C29384A7
:100F94008193984022C406C69727000093874798F8
:100FA400C04B5C5B13058025F19B93E717005CDB6A
:100FB400975001E0E78020C69387819598435C575A
:100FC400F59B5CD783472401944013F7F7079C42B1
:100FD40093F707F8D98F9CC20347540085476307EA
:100FE400F700228597F000E0E780A00593878194BD
:100FF4008C43370500FF37068000DC411306D632E8
:1010040093E71700DCC1034744059C4013670704BA
:1010140093169701D85B1E071D83558FD8DB37C7FE
:10102400898E130767EDD8C7B8D337575500130710
:101034005755D8C3B8CF9447E98ED18E94C7F84F8B
:10104400698F518FF8CF894717170000A30AF77CDF
:101054003C400145BCDD834524050346B400EFF064
:101064008FD22244B24092448145170500001305F3
:10107400C52141012DB5011106CE22CC26CA4AC88C
:101084004EC652C483446500A3020500854763919C
:10109400F41A171700000347B77895476314F7024B
:1010A400834515016244F240B395B4004249D244E9
:1010B400B249224AC205C18101450561175301E0C5
:1010C40067008388034735018D472A84631AF70C28
:1010D400EFE01FFC0D895DE1930770022309F40022
:1010E400896793875762231AF4000347740085477E
:1010F4006300F706171900001309496183270900E3
:1011040083491401829783270900035A8401AA841E
:1011140082979377F500D297171500000355855FE2
:10112400B387A7021307006493870732B3D7E70294
:101134000327490033859700AA856364F500636437
:10114400E500B305E5404E85975001E0E780A084B3
:1011540085472304F402971700009387677C9C5704
:10116400E1EB0945975001E0E780E0A46244F240D6
:10117400D2444249B249224A056101BD631A95002D
:10118400930760022309F400896793875772A1BF0C
:10119400930750022309F400896793877762A1B704
:1011A4008946834795006319D70213F7170011CFB7
:1011B400130750022309E500898B81CF930760024E
:1011C400230AF400A30A04000DB79307600223095D
:1011D400F50093077002EDB79DC313F7170001CB19
:1011E400930750022309F400231A0400FDBD898BE0
:1011F40081C793076002FDB793077002E5B7834781
:10120400450113074002636BF70093075002230A5A
:10121400F400834744012309F4006DB7850793F76D
:10122400F70F230AF50013077002E360F7FED5B742
:10123400F2406244D2444249B249224A0561828062
:101244008347550189CB034725016316F70017F33C
:1012540000E06700A3090347450109CF8346250140
:101264006381E6022309E5008145170500001305A3
:1012740005D235B1E9DF0347250171FB2309F500E8
:10128400E5B7F1D7E5BF4111971700009387476988
:1012940022C4C04B9717000083C7675806C6858BC6
:1012A4008DCF0347A40089476309F7021306500250
:1012B40081450545EFF02FAD97170000938707563A
:1012C40083C73700858B91CB2244B24081451705F3
:1012D40000001305E5014101D9B6975001E0E7800C
:1012E400008922852244B240410199BF41119717D8
:1012F40000009387E76222C4C04B014606C66840DB
:101304009305E40026C24AC0EFF08F9C55E16C407F
:101314007D4783C7150093F7F7032306F400E91705
:1013240093F7F70F6366F70883C70500BD8BA30621
:10133400F400F51793F7D70FA5EF9304A402194609
:10134400A1052685EFE0BFE025C56C408547230C49
:10135400F40283C705001305A40319469987858BF6
:10136400A30CF4028905EFE09FD7228597F000E0F3
:10137400E780C0F015CD8346D40015478347A40009
:101384006393E604854463E5F402971700009387AA
:10139400E7379C43829748CC228597F000E0E780AA
:1013A40020D763179500228597F000E0E780E013CB
:1013B400974001E0E780A07B22852244B24092441A
:1013C40002494101B5BD81C71947E393E7FE2D45A5
:1013D4000309E400973000E0E780A0066205618518
:1013E400E348A9FC8947A302F40083477401114729
:1013F4002305E4009907A305F4003C402380E7009B
:101404003C400347B400A380E70083479402858BE4
:1014140091E70347840289476319F70038408347FB
:10142400070093E707042300F7002840A685194620
:101434000905EFE0DFCA2840034674014C5021053A
:10144400EFE0FFC9834524050346B4000D45EFF0E2
:101454008F93974001E0E78080712244B240924428
:101464000249814517F500E0130505EF410105BC6C
:10147400971100209381C1A217210020130141B8C4
:101484001305400097F5FF1F938585B717060020C5
:10149400130606FE63FAC5008322050023A0550047
:1014A40011059105E3EAC5FE175501001305C5169C
:1014B400970500209385C5FB1386418663FAC50012
:1014C4008322050023A0550011059105E3EAC5FE1A
:1014D40013854186971500209385C5496377B50028
:1014E400232005001105E36DB5FE930250027390AD
:1014F40002BC8D42739042808542739012BC930269
:1015040080087390023097F2FF1F938262AF93E2D8
:10151400320073905230971200009382C2FF73908E
:101524001234730020302A8309CA83830500230000
:1015340073007D16050385056DFA82802A8311C622
:101544002300B3007D16050365FE82803717004033
:101554008347E70412054111BD8BC98F93F7F70F39
:1015640093068008F3B6068093F6860836C6010013
:101574000100930670052300D704930680FA230024
:10158400D704010001002307F70423000704B2472E
:10159400F3A707800100010041018280011126CADE
:1015A40006CE22CC8947B314A02863F9A700954737
:1015B40063E4A70A93042500B3149028B7170040E6
:1015C40003D70705B166558F2398E70413078008EE
:1015D40073370780137787083AC6010001001307A1
:1015E40070052380E704130780FA2380E7040100D1
:1015F400010003C737051375F50F13670708A3899F
:10160400E704A389A70403C7370513670702A3895F
:10161400E70423800704B247F3A707800100010011
:10162400B717004003D7070513175760E35C07FE9D
:1016340003D4070583C727054A04BA0749803E94A3
:101644007D2C33549402F240D244335585026244D3
:1016540023A2A18605618280994793040040E30F89
:10166400F5F49304F07F99BF41113A8E2A8381489F
:10167400930E407E130F0019930F400663EF6E1410
:10168400130700193377E502854E0D4F994FFD423C
:1016940063E1BE1861477D1603A541864696AA8577
:1016A400B3F6E602130780703387E602F946330E79
:1016B400DE0293D61700858B7297369791E38145A6
:1016C400B307A602A166FD161306302A13D8F70045
:1016D400F58FB387C7021166B385A5023307A70246
:1016E400B29513F6F71F1E06BD81A583F98EB3A626
:1016F400C6203D83AE96BA9713D70601BA972D67D5
:101704001307078C33D6E702B3C6060833F7E7029C
:1017140042964207558FB716004083C7F60293F7E7
:101724000708DC838C8383C7F60293F70708E396E4
:10173400F5FE9C83B7160040638107129307800867
:10174400F3B7078093F787083EC401000100B71779
:101754000040930670052380D704930680FA238003
:10176400D70401000100D0DB83C6170393E6060803
:10177400A388D70223800704A247F3A707800100A8
:1017840001001166B71700407D16D45BCC5FAD8EA7
:10179400F18EE5FE93068008F3B6068093F686087C
:1017A40036C601000100930670052380D704930612
:1017B40080FA2380D70401000100D8DB03C7170394
:1017C40013670704A388E70223800704B247F3A73B
:1017D400078001000100410182807D133377E30318
:1017E4001308E01601CF3377F3031308D01619C793
:1017F40013783300133818001308D816C298BDBDE7
:1018040013F81500F91563FBBF029305E801AE98C0
:101814009A851383F5FFE395E5FF854501CF13080A
:101824004006337805038145630608009375350047
:1018340093B51500F105AE989A8599BDB38502411B
:10184400DDBF83C7F60293F70708DC838C8383C765
:10185400F60293F70708E396F5FE9C83FDD3F9BDE2
:101864000D06719A81473307F5006393C7008280A0
:1018740014433387F500910714C3F5B7914763EC1C
:10188400B704973701009387276CB3C5F5209841B7
:101894003E97B71700409387470B02879443371747
:1018A4000040B3F6A64094C39306070B9C42B3F7DB
:1018B400A74019A8944337170040B3F6A64094C331
:1018C4009306070B9C42C98F9CC29307070A98434F
:1018D4003377A74098C38280944337170040C98E5A
:1018E400D9B798433377A74098C3B7170040938775
:1018F400070A9843498FF9BF9843498FF5B7B7173B
:10190400004098279306000C1377070C6315D70043
:1019140003A5418682809827930600041377070C59
:101924006310D702942713070002FD8A99C29827EF
:101934007D8B3745C323130505603345E50282805B
:10194400942713070002FD8A99C298277D8B375587
:10195400E80113050580D5B7B7F700E08847828012
:101964003285814737370040A14663C3A700828090
:101974000346B740E30ED6FE3386F50010228507F2
:101984002304C740DDB797060020938666D1AA8753
:101994008842171700201307E7FDAA9763E9E700B9
:1019A4000A87130707FC6364F7009CC282807D5595
:1019B4008280411122C406C62A8491372947B3077D
:1019C400E502B2408D83B3D7870222449507B3D78B
:1019D400E70237370040B3C707082316F740410131
:1019E4008280716541111305052006C6D937371762
:1019F40000403E2FB3C7070893F707FCB3C7070897
:101A04003EAFB7370040130710F82381E7400D4776
:101A1400A381E74013070004A380E7400547238719
:101A2400E740B240410182802D4825E7328590216C
:101A34000947631DE604D841411106C61023183333
:101A44002207518F4166130846FE63030703636C44
:101A5400E8007D07054633470708637BE6002390CB
:101A64000600294805A01516E31BC7FE154711A05B
:101A74000547CC4533D6E70A92A297E0FF1FE780DB
:101A840000660148B24042854101828023900600ED
:101A9400054842858280011106CE22CC26CA4AC856
:101AA4004EC680251374040255E083C90500094815
:101AB400AE87639F090903A84500B28436890343AE
:101AC4000800034818002208336868004163130EB5
:101AD40013FE6304C8030D13630E68048D679387B4
:101AE400279029446310F8046244F240D2444249E6
:101AF400B249854705616F40E02029EF0547636DD2
:101B0400D704C8470546A68597E0FF1FE780205DF8
:101B1400814983A7418899C79C4389C74A86A6857A
:101B24004E858297F24022856244D2444249B249AA
:101B34000561828005E305476360D702C84705460F
:101B4400A68597E0FF1FE7808059E1B72144D9BFFC
:101B54000544C9BF2D44F9B73544E9B7C167F9173E
:101B6400630CF502411122C406C685472A84639A90
:101B7400F50022852244B2409385018741016F50CC
:101B8400F05B89476396F5008545EF70000475D1D5
:101B9400B2402244410182808280411122C42A84BD
:101BA4004165938501877D1506C6EF5030591705A9
:101BB40000001305E5FA0588EF60307905C022447A
:101BC400B240970600209386A68A4146C54517056C
:101BD40000201305A58A41016F50B04BB240224446
:101BE40001454101828009C523A2A1880145828063
:101BF400454582801147636EA70697360100938698
:101C0400E6353345D52018414111AE87369706C6CF
:101C1400B285028705476145639AE7000546138547
:101C2400018897E0FF1FE780804B0145B2404101E6
:101C3400828005476145E39BE7FE05461385C1871E
:101C4400CDB705476145E393E7FE054613858187D4
:101C5400C9BF05476145E39BE7FC054613854187FA
:101C6400C9B715476145E393E7FC1546138581869B
:101C74004DBF09458280411122C42E84938501877A
:101C840026C206C6AA84EF400003058919CD97072A
:101C9400002083D7478A1EA0A2852244B24026850D
:101CA4009244014641016F407059B240224492442B
:101CB400494541018280B287411113962500BE85B2
:101CC40006C6793EB240014541018280011122CC11
:101CD40026CA939625002A84B284AA85014605451E
:101CE40006CE36C6EF00D007B2462686A285094541
:101CF400EF001007F2406244D2440145056182803E
:101D0400411122C406C62E849397556063DD0700F3
:101D1400EF00F02519C1EF00F0191315F468B24073
:101D240022444101828093F7150013C51500E5FB99
:101D34008967ED8F99CFEF90100B37F602001306E9
:101D440006E0896503C5C188EF0010541315D468F3
:101D5400F9B711656D8D61D517350100130545215E
:101D6400EF20610513060064916503C5C188EF0087
:101D7400B0511315E46865B75D715D469735010090
:101D84009385451F173501001305054D86C6A2C46A
:101D940097E0FF1FE780A03B01E917350100130519
:101DA400E51EEF20410101A0B7F700E023A40700DE
:101DB400795798CB3D4798C393078008F3B70780BA
:101DC40093F787083EC001000100B71700401307CE
:101DD40070052380E704130780FA2380E7040100D9
:101DE4000100B847B70600C1FD16758FB706000E8F
:101DF400558FB8C7238007048247F3A707800100E3
:101E0400010097F7FF1F9387078823A4F18813071E
:101E140000F8B7E700E0A38AE740130640038145D2
:101E2400680097E0FF1FE780602F970700209387E3
:101E340067A805643EC6930704E0FC80C9472300F5
:101E4400F102B7B703003ECAB7070103938707102F
:101E54003ECCED47FC868547230FF1009707000031
:101E64009387A7E53EDCB7F5030097070000938747
:101E740027E63EDE814697070000938727AE500091
:101E8400E10519453ED6EF00A06D19464C00130537
:101E94003102EFF04FE9B24791C7BC801304F4BF9D
:101EA4006363F40001A06800EF102012AA8501C941
:101EB400173501001305C50EEF10115C01A0B640E3
:101EC400264461618280411117050000130585E3F2
:101ED40006C622C4EF10E00B1384C18808A01128A1
:101EE40008202244B24013060032896541016F0084
:101EF400B039397126DA06DE22DC4AD84ED652D4FD
:101F040093048008F3B7048093F787083EC2010066
:101F140001003714004093097005230034051309A8
:101F240080FA23002405010001008347F40293E7AB
:101F34001700A307F402230004049247F3A70780C1
:101F4400010001001945EFF06FE5138A0189AA85A4
:101F54002320AA001735010013058506EF10D1517F
:101F6400014781467146854581471305507EEFF050
:101F7400AFEF9307803EFC8383270A006800FC824E
:101F8400B707C0A83EC897F7FF1F938707BC3EC694
:101F940097F7FF1F9387E7BC3ECEEF10002EF3B4F4
:101FA400048093F4840826C401000100230034054E
:101FB40023002405010001000100010083471403EC
:101FC40093E70702A308F40223000404A247F3A73B
:101FD400078001000100F2506254B7E700E03707C0
:101FE400001023A0E710D2544259B259225A216159
:101FF40082802A86B305B04017350100130545FDDC
:102004006F1091470DE10111680006CE97E0FF1FA4
:10201400E780E00C17350100130505FDEF10B159F9
:10202400F2400561828082801387C189AE870E23C6
:10203400639CA50052A3173501001305A5FC3E8639
:102044003EA376A36F10514317350100130505FD18
:102054006F1071561387C18956211E236391F604AC
:10206400011106CE22CC1384B1810820C167F9176F
:1020740089451CC323A0018AEF0010420820914522
:10208400EF00904185471306F10085451305503054
:10209400DC87EFD0C01AF2406244056182801735B4
:1020A40001001305A5F76F1011513D897D15954762
:1020B40063E7A71417370100130747023345E520E8
:1020C4001C41411122C4BA9706C626C22E848287B7
:1020D40017350100130505F52244B240924441012D
:1020E4006F10714DBC2119476390E7022E859D370F
:1020F4006C20173501001305E5F3EF10F1371735A0
:1021040001001305E5F4C9BF0D47E38AE7FEB240B9
:102114002244924441018280B8219547E319F7FE95
:102124009387C189962341677917AA25638FE600AF
:10213400EFD0202F17350100130585F2EF10B147BA
:1021440017350100130545F441BFFA259384B18185
:102154008AA3BAA39A29882013060064DAA3BA29A9
:102164008945FAA3DD472398F180EF00F011882018
:10217400096613060690A145EF0010118820056634
:10218400130606C89145EF00301072242E2417352B
:102194000100130525EEEF10312E5DB7B8218D47F0
:1021A40017350100130505EFE313F7F635B7AC2136
:1021B40091476397F50017350100130525EF29BFF3
:1021C4009947639FF500228571356C20173501000E
:1021D400130545E62244B240924441016F10D129CF
:1021E40095476399F5001C30F9F71735010013057D
:1021F400A5EDDDB517350100130585EDE1BF82803E
:10220400011126CA06CE22CCAE849397556063D5BD
:10221400070803C5B181A12B2A8421C11C211307FE
:10222400000B638CE7041307000D6396E7023C215F
:102234004547638BE7026547639FE7000348A500B2
:102244001C351825743170214C31173501001305E4
:1022540065EAEF1071222285B1291395F468F240E2
:102264006244D2440561828070216C3117350100CB
:10227400130545EBEF105120F9BF58219307F007E0
:10228400E31BF7FC0E2517350100130565EB2398B6
:10229400B180EF10711EC1B793F7150091CF17F6F7
:1022A400FF1F1306E634938581A003C5B181EFC0F7
:1022B400505413C5140065B793F72500ADC7130632
:1022C4000064894503C5B181EF00007C930780F861
:1022D4005C8203D701818D4763EBE700173501006A
:1022E400130545E7EF10312D13C524008DBF13846A
:1022F400C1890A208547014781460546ED457C850D
:10230400EF30A0572AC66DD130854C0097E0FF1FEF
:10231400E780E0DC0A202C00B93A79D5ED452800A5
:10232400EF30006DD1B793F7850085C383C7B181C2
:1023340013074006814613064006994503D5C18913
:10234400EFC0304613C5840019BF93F705019DC340
:10235400014789460946814503D5C189EFD0A00EBE
:10236400AA85173501001305E5DFEF10F11013C539
:102374000401F5B513F54500E30305EE03D5C18962
:10238400EFD0E0090566130606C8914503C5B1817F
:10239400EF00806F13C54400D9B5797117050000AB
:1023A400130545E606D622D426D2EF00903E938448
:1023B400B1819947054488A0FC8210089307400620
:1023C400854513055030FC8423088100EFC0306735
:1023D40017F6FF1F13060624F14513057030EFC0EE
:1023E4001066138641819D4513056030EFC030654A
:1023F4005008894513051031EFC0706430088945D1
:1024040013052031EFC0B063930500050945EF20A3
:10241400204A930500050D45EF208049854529454F
:10242400EF200049300891451305704040844086F0
:102434002308810002CC230A0100EFB0C07A3000E7
:10244400854513050040EFB0007A700085451305FB
:102454001040EFB040795008854513052040EFB097
:1024640080781008854513055040EFB0C0777D553E
:10247400EFC0607D7D55EF5040497D55EFF0EFF1A1
:1024840017F6FF1F13068617D5450145EFC0C06A2E
:1024940089475C868D472308F1009147230AF100A0
:1024A400B7070304938717203ECC30009547854532
:1024B4000145230EF1004084EFF0CFF37000854511
:1024C4000545EFF02FF3100885450945EFF08FF22D
:1024D400500885450D45EFF0EFF13008954511455D
:1024E400EFF04FF1C1671387C189F9171385C180D4
:1024F4001CC323220700EFF00FEF13854189EFC0BF
:10250400B07122548820B2509254854545616F3091
:1025140021434111114506C6EFF04F8313056004B2
:1025240097E0FF1FE7802036B7170040214723AC10
:10253400E70A8D452145EFF06FB4EFF08FCA1735E8
:102544000100130565D1EF101107EFF0FF82EFF0E2
:102554009F97EFC0906F913597E0FF1FE78040622F
:1025640001112A8706CE2E8526CCB2854ACA368624
:1025740022C637240040B7E700E0FD5603A9070050
:10258400C44323A0D71823A2D7189307F7FF93F7C0
:10259400F70F894663E0F60AB717004083C757046C
:1025A400B706040093F7070299E3B7C60300F95787
:1025B4006375D5043308C50063E1060589476314D0
:1025C400F704098297E0FF1FE780A06EAA873717F8
:1025D4000040930670052300D704930680FA230075
:1025E400D70483464704C18A2302D70437E700E0AF
:1025F40023202711232297103244F240E244524907
:102604003E85056182808547631FF7008567FD1756
:102614003E96E98F3E96FD777D8E7D8D97E0FF1F78
:10262400E780206F65B797E0FF1FE780A0759307E9
:10263400150071BFB547631AF7001305900B97E0B7
:10264400FF1FE7802079814759B7B1476315F70029
:102654001305B00AEDB799476317F70097E0FF1F1A
:10266400E7806078CDB79D47631BF70023A0050082
:1026740023A2050097E0FF1FE780E07CE9B79147BC
:102684006317F70097E0FF1FE780C07F6DBF8147A6
:102694001DDFF1572DBF23AC05FE1C4191E701005E
:1026A40001000CC18280BA8703A787FF6DFF23ACAA
:1026B400B7FE8280411122C437E400E026C2044000
:1026C4003707200006C6F98C2320E4180F100000F9
:1026D40009E9232094101545B24022449244410153
:1026E40082800347E5FF9307F00F6306F70023207A
:1026F40094101145D5B7EF3021650145232094107E
:10270400E1BF411126C2B7E400E04AC003A90400B6
:10271400B707200006C622C43379F90023A0F418B1
:102724000F10000009E923A02411B240224492446E
:102734000249410182809565938505D0C98D2A841B
:102744002105C2054205C1814181EF30815101CD8E
:10275400FD5723200500231285002303F50023A041
:1027640024112105D9B723A0241101457DBF4111AE
:10277400B7E700E026C284433707200006C622C418
:10278400F98C23A0E7180F1000009387418A904327
:1027940001440147B28789E709E8A165F5292DA01D
:1027A40083C6E7FF639CA6021DCC832684FF631EB9
:1027B400C40223A2D18A7D57232C04FE230FE4FEF6
:1027C400E9DFA165EF30C1172285B2402244B7E7A3
:1027D40000E023A0971092444101828011E03E87DB
:1027E40083A787FF4DBF3E84E5BF232CD7FEE1B707
:1027F40041114AC037E900E022C403240900370725
:10280400200006C626C2798C2320E9180F10000088
:1028140089E523208910154515A0AA84970700206F
:1028240083C797EC2E8563F5F400854763EE970024
:102834005135B7E700E023A087100D45B24022448C
:10284400924402494101828083A785FF99E703C727
:10285400E5FF9307F00F6308F700A93DB7E700E031
:1028640023A087104DBF238F95FE1385418A2535FC
:10287400A1652685EF30C10C0145232089107DBF59
:1028840023A2018A828093F7F50FA5C341114AC0A0
:1028940006C622C426C22E890147A146B357E94081
:1028A400858B9DCF0E05B307E5003145B387A7029D
:1028B4009386C18A844205443314E400420441806F
:1028C400BE949C40C840829723A0040023A2040025
:1028D40033452401B240224492440249410182809A
:1028E4000507E31DD7FA0144E5B7014582800111CC
:1028F400B7E700E022CC80434AC83707200006CE61
:1029040026CA2A892E86798C23A0E7180F10000086
:10291400131506019305F004418132C6EF3061348A
:10292400AA8419C53246CA8597D0FF1FE780207B49
:10293400B7E700E023A08710F240624426854249AD
:10294400D244056182801D898545B395A500C205E1
:102954004111C181014506C6EF20715809C50845DA
:10296400B240410182800145E5BFB7E700E09843EA
:10297400B706200023A0D718758F0F100000970604
:10298400002083C676D66373D5021386818A931694
:102994001500084293C5F5FF369583560500F58D5D
:1029A4002310B50023A0E7100145828023A0E7107F
:1029B4000D458280011137E700E026CA0443B706BB
:1029C400200006CE22CC4AC84EC6F58C2320D71848
:1029D4000F100000130785FF1377F70F9D4763EF70
:1029E400E708B146B306D5029387C18A9843369760
:1029F4001C43C9C705441D893315A40013140501DC
:102A040041802E890545A285EF20714DAA8939C9D7
:102A1400A2850545993F9387018B9C43829797072D
:102A2400002083D7E7CE338727032A848146130601
:102A34000064B3B7270313050732B335E500BE9529
:102A4400EF00F169B3078500970600209386C6CB93
:102A54003E87D44263E4A70063E4D7003387D740BA
:102A640023A4E900B7E700E023A097100145F24052
:102A74006244D2444249B24905618280B7E700E02A
:102A840023A097100945E5B779714AD037E900E0EA
:102A940026D283240900B707200006D622D44ECEBE
:102AA40052CC56CA5AC85EC6FD8C2320F9180F10A2
:102AB40000009707002083C737C36378F500938726
:102AC400018B83AB070063970B00B7E700E023A0FB
:102AD4009710A9A0170B0020130B0BC3832A4B00DC
:102AE400B74736FE938707C82E8A9705002083D5FB
:102AF40025C2BE9AB387C5022A84B2898146B3B57A
:102B0400C50213850732B337F50013060064BE957A
:102B1400EF00F15C63F0AA02232099100145B25042
:102B2400225492540259F249624AD24A424BB24B5D
:102B340045618280829B9705002083D565BDB3875C
:102B440035032A89130600648146B3B5350313851A
:102B54000732B337F500BE95EF007158B30725016E
:102B64003E8903274B0063E4A70063E4E70033894D
:102B7400E740D2852285EF20913609C92324250117
:102B8400B7E700E023A09710054551BF936504F013
:102B9400C205C1814145EF30C10C19E997070020F6
:102BA400938747B19C5795D3A2851145829731BF2E
:102BB4009387C18B9C4399EF23AEA18A23260500FA
:102BC4002324250123114501230085002322050028
:102BD40045BFBA87D84775FFC8C7CDB77971B7E77E
:102BE40000E026D284433707200006D622D44AD0F8
:102BF4004ECE52CC56CA5AC85EC662C466C26AC0B9
:102C0400F98C23A0E7180F10000029CD2144B689C0
:102C1400B28A2E8A2A89B14C138BC18A054D414C44
:102C2400B30B940303270B005E971C43A9EF937522
:102C34007400B315BD00C2055686C1810545A9358A
:102C440039C183270B00DE9723A0270123A2470164
:102C54006384090023808900B7E700E023A097106C
:102C6400014521A023A097100945B2502254925443
:102C74000259F249624AD24A424BB24B224C924C1C
:102C8400024D456182800504E31C84F9B7E700E046
:102C940023A097102145D1BF0111B7E700E04AC82E
:102CA40003A9070022CC4EC63707200006CE26CA49
:102CB400AA892E843379E90023A0E7180F100000B5
:102CC400EF20F121AA8419C123110500A2854E85A4
:102CD40069399707002083C727A1639D37019707A8
:102CE4000020938767A083D767005D8C9707002037
:102CF400239F879EB7E700E023A02711014591E0B9
:102D04001945F2406244D2444249B2490561828085
:102D140001114AC837E900E022CC03240900B707AF
:102D2400200006CE26CA4EC67D8C2320F9180F102B
:102D34000000BD4763E6A704B147B304F5029389D5
:102D4400C18A83A70900A6979C439DCB93777500FE
:102D54008545B395F500C205C1810D81353F83A733
:102D640009000145A69723A0070023A207002320FA
:102D74008910F2406244D2444249B24905618280DA
:102D8400B7E700E023A087100945E5B797070020BF
:102D940093878795944763800610411126C2BE84A9
:102DA4009387818A8C4306C622C44AC01706002032
:102DB40003469693814763CBC70A1707002003474E
:102DC400F7A5954717090020130909A563EAE70841
:102DD40083C70195D1E7170400201304E4925840F7
:102DE4009387018B9C43639BE60882975440B747C3
:102DF40036FE938707C8B6973387A7003A8563647E
:102E0400F7006364D7003305D7408327490191CB8A
:102E14009387819594433707CDFF7D179C46F98F9F
:102E24009CC611E14840970700209387A788DC538C
:102E3400829701ED8327490185C797E0FF1FE7804B
:102E4400200B97E0FF1FE78000068327490189CB09
:102E5400938781959843B70633001C47D58F1CC7C9
:102E6400B2402244924402494101828013971700E0
:102E74002E97035707006DF7850735BF8297944453
:102E84005840B387A6003E8563E4D700E3EFE7F636
:102E94003385E7409DBF8280411106C623ACA18AD9
:102EA4000295B2409707002023A8A7840145410159
:102EB400828023A8A18A014582804111114681455F
:102EC4001385418B06C623AE018A23AC018A23A84D
:102ED400018A97D0FF1FE780602413060002814512
:102EE400170500201305458097D0FF1FE7800023B6
:102EF400EFC0E05EC14785451305001217F7FF1FB9
:102F04002305F77EEF20F15523A6A18A41C19947F5
:102F140017F6FF1F0346667D3306F6028145130646
:102F2400060C97D0FF1FE780601F9387C18A9C43DC
:102F34009387070C23A0F18C17F7FF1F0347E77A49
:102F44000A07BA9723A4F18AEFF09F93092993877C
:102F5400018C984397F7FF1F83C71779939627002F
:102F6400BA96172601001306C67990C293862700E5
:102F7400850793F7F70F8A07BA9717F6FF1FA3057C
:102F8400D676170700001307479098C3B240410153
:102F9400828097F7FF1F83C7377517F7FF1F034713
:102FA400C77463F1E7021387018C184393861700F3
:102FB40017F6FF1FA30AD67293962700369708C305
:102FC4003E8582809307F00FE5BF1C41638807129A
:102FD400370700F07D8FB706002089476311D712A9
:102FE40003574500630D0710411122C419462A8472
:102FF4009305F00F5D0506C6EF20C17F05478D4799
:103004006309E50E1C4491C7585499477DC3185869
:103014006DC313064003814517F5FF1F130585692A
:1030240097D0FF1FE780800F13064003A28517F592
:10303400FF1F1305256897D0FF1FE780400A97F705
:10304400FF1F83D7E76799E79307001017F7FF1F60
:103054002318F76697F7FF1F83C7A76691E785478D
:1030640017F7FF1F230FF76497F7FF1F83D78765B1
:1030740091E7ED4717F7FF1F2316F76497F7FF1F34
:1030840083C7376491E78D4717F7FF1FA30BF762D8
:1030940097F7FF1F83C7276391E7854717F7FF1F3C
:1030A4002303F76297F7FF1F83C7F76199EB97F73D
:1030B400FF1F9387276083C7F70017F7FF1FA30439
:1030C400F76097F7FF1F83C7276091E7C94717F792
:1030D400FF1F230BF75E8347540199E79307C0034F
:1030E40017F7FF1FA302F75EFD57238CF19AF13304
:1030F4008147B24022443E854101828089473E8512
:10310400828001114EC697F9FF1F9389E95F83A757
:10311400090006CE22CC26CA4AC852C48297130993
:103124000064B335250303DA8900814652863305EA
:103134002503EF00C17A97F7FF1F9387E75A804B67
:10314400AA8401456306940233858440636E940027
:1031540003A5490052868146B335A9023305A90265
:10316400EF00E177018D269597F7FF1F23A6975867
:10317400F2406244D2444249B249224A0561828003
:10318400011122CC0A852E8441469725010093859E
:10319400A5DA06CEEFE02FB9180806043A940355D1
:1031A40004FF97F7FF1F83D7C756F2406244AA97DC
:1031B40037450F00130505243355F5020561828058
:1031C40097F7FF1F83D7E75451471D45637CF702E8
:1031D400794719456378F70213072003154563738C
:1031E400F7021307B0041145637EF7001307400686
:1031F4000D456379F7001307600909456374F70007
:1032040013B5B70F8280011122CC06CE2A842EC6B4
:1032140097D0FF1FE780C0E7B245F240818D33A508
:10322400A502229562441375F50F05618280011190
:1032340022CC06CE2A842EC697D0FF1FE78040E515
:10324400B245F240818D33A5A50222956244420520
:10325400418105618280011122CC06CE2A842EC6CA
:1032640097D0FF1FE780C0E2B245F240818D33B5AD
:10327400A5022295624405618280411106C651CDA2
:103284001C41AA850545D9C7DC41C9C783D7850038
:10329400D1C383D7A500BDCF514617F5FF1F130532
:1032A400A54697D0FF1FE78080E397F7FF1F23838E
:1032B400074697F7FF1F938727458843DD3E97F717
:1032C400FF1F83C787408DE79307006417F5FF1F2F
:1032D400035505443305F50237460F00130606244B
:1032E40081468145EF00A15F97F7FF1F238FA73C1D
:1032F40017F7FF1F0347673DAD4763E7E700B14793
:1033040017F7FF1F2303F73C170500001305A5DF7C
:1033140061360145B2404101828097F7FF1F23AF18
:10332400073C97D7FF1F9387070A17F7FF1F232D23
:10333400F73C7D5797F7FF1F23AAE73CB787320076
:10334400938727A197F6FF1F23A4F63C97F7FF1F47
:103354002382073CB7C7004023A4E72699BF011185
:1033640022CC17F4FF1F1304E434084406CE26CA03
:103374004AC801E90545F2406244D2444249056124
:1033840082805C54E5DB185875D7700085458297B8
:103394001844B247E300F7FE9305E00417F5FF1F56
:1033A40003550532EF20F10B17F7FF1F232AA7342B
:1033B40071D117F6FF1F0356A6309305F00F97D06F
:1033C400FF1FE780A0D5814417F9FF1F1309C931F6
:1033D40097F7FF1F83C7E72E0326890163CFF40005
:1033E4003285EF207116014597F7FF1F23AA073096
:1033F40097F7FF1F23A80730BDBF97F5FF1F83D59D
:10340400252CB387950208441858898185043E9574
:1034140008C2029775BF011156C297FAFF1F938A1B
:103424006A2983A78A0022CC4AC84EC606CE26CA79
:1034340052C45AC0AA892E843289638C072003A7F8
:10344400CA02630507141307F01F6363A71497F4F4
:10345400FF1F9384642903AA840163150A0A9565EE
:10346400938515E017F5FF1F03558525EF20617F30
:1034740097F7FF1F23A6A7282A866309051083A7A9
:10348400CA0203A58A0097F5FF1F83D565238981A6
:10349400829783A78A0003AA840117F7FF1F2323B7
:1034A400F7268947639AF908C1476311F40E97F523
:1034B400FF1F83D5E520938505FC9147B3C5F5022D
:1034C4008A05D29503C725009307A005631CF70A54
:1034D40083D705006398370B4A852286910597D0D8
:1034E400FF1FE780C0BF9C4C5285639F4713014573
:1034F400F2406244D2444249B249224A924A024BBF
:1035040005618280D84CE38EE7F89565938525E0C4
:1035140017F5FF1F0355C51AEF20A1742A8A3DC56C
:103524002A8683A7CA0203A58A0097F5FF1F83D5BD
:10353400251989818297B5B78D47639DF900C147E5
:103544006316F40497F5FF1F83D58517938545FD0E
:10355400F19985BF9147639AF9006319340397F58C
:10356400FF1F83D5E515A115E5B793070010639FE9
:10357400F900A14763EC870097F5FF1F83D5451435
:10358400C115F9B79C4C52856392470D29458DB7F7
:103594001D6A568B637D4509130A05E01947334AB2
:1035A400EA0217F7FF1F0357A71197FAFF1F938A21
:1035B400AA13330AEA023E9A83A7CA016395470114
:1035C40083A48A018DE49305E00417F5FF1F0355D6
:1035D400250FEF200169AA8455D98327CB0297F5DB
:1035E400FF1F83D5E50D2A868981528582979145EF
:1035F4001307A005898193972500A69783C6270002
:103604006391E60483D60700639A360385058A0529
:103614002286A6954A8597D0FF1FE78040AC83A7F2
:103624008A01E38697EC2685EF200172C9B52167EC
:103634007917E36DA7F4330A4541A5B783C537006D
:1036440055BF83A78A01E38397F42685EF20C16FD2
:1036540035BF97F7FF1F938727098C4F85D991476B
:103664009306A0058983139727002E970346270006
:10367400E31ED6F003560700631C360185078A074C
:103684002286BE954A8597D0FF1FE78040A585B561
:1036940083473700C1BF97F7FF1F9387A701984758
:1036A40029C79C5BB9C305476311E504411122C4D2
:1036B40017F4FF1F13044403104C06C61DC2484CE4
:1036C40097F5FF1F83D5C5FF89818297084CEF20AA
:1036D400A16797F7FF1F23A5070297F7FF1F23A3EF
:1036E4000702B2402244410182808280011117F70F
:1036F400FF1F130727FC4EC68329870022CC26CA46
:103704004AC806CE52C456C2AA842E84328963871C
:1037140009201C5BBA8A99EB2945F2406244D244E1
:103724004249B249224A924A056182805C57EDD7E8
:103734009307F01F63E8A70E97F9FF1F9389C9FA4F
:1037440083A78901B1CB03A58A0083A7C901639329
:10375400A70689476391F408C147E31FF4FA17F5F4
:10376400FF1F0355E5F59147130505FC3345F502A5
:103774009317250003A589012286CA853E959307E0
:10378400A0052301F50023109500110597D0FF1F14
:10379400E780E094014551B79305E00417F5FF1F56
:1037A400035505F2EF20E14B97F7FF1F23AAA7F477
:1037B40059F99DB783A7CA0203A6890197F5FF1F8C
:1037C40083D505F08981829783A78A0017F7FF1FA5
:1037D400232AF7F2BDBF8D47639EF400C147E31D62
:1037E400F4F217F5FF1F0355A5ED130545FD937777
:1037F400C5FF49B79147639AF400E31F94F017F5A6
:10380400FF1F0355E5EB2115DDB793070010E39582
:10381400F4F0A147E3E287F017F5FF1F035545EAEB
:103824004115F1B79D676379F506930705E01947DC
:10383400B3C7E70217F7FF1F035787E817FAFF1FFD
:10384400130A8AEAB387E702BE9983278A01A1CFC4
:103854008327CA016397370703258A019146130812
:10386400A0059305F00F93D72600139727002A97F6
:1038740003462700631D06078358070003463700E5
:1038840063939806B306D64063CD860485078A07FA
:103894002286CA853E95DDBD21677917E36EA7E6CA
:1038A400B307F54041BF9305E00417F5FF1F035527
:1038B40025E1EF20013B97F7FF1F23A3A7E449F974
:1038C400A1BD83A7CA0203268A0197F5FF1F83D5EA
:1038D40025DF89814E85829797F7FF1F23A437E35D
:1038E400A5BF2310B70093160601C182ADBFB385EF
:1038F400860017F6FF1F0356A6DC9105130606FC87
:10390400E3FCC5E013063400719A1106B296230154
:10391400070123109700A301D7008DBF97F7FF1F5E
:10392400938787DC944FBE89A9C203A58901914678
:103934001308A0059305F00F93D7260013972700CB
:103944002A97034627006316060583580700034693
:10395400370063989800B306D640E3D986F2231063
:10396400B70093160601C182C1BF8357C70017F57C
:10397400FF1F034505D59305E0043305F502420511
:103984004181EF20012E97F7FF1F23ABA7D651FDEE
:1039940061B317F6FF1F0356A6D297F5FF1F83C521
:1039A40045D2B385C502338686001106E3E6C5D643
:1039B40091BF01458280011106CE2EC6EF50A010A2
:1039C40001C9B245F2400355250005616F805036A8
:1039D400F240494505618280A382018E2382018ED3
:1039E40023AA018C23AC018C23A8018C23A6018C6F
:1039F40097F7FF1F938787D23707B40098C3370719
:103A0400A0001307070AD8C337C70700130707B86E
:103A140098C741674107D8C737077F0098CB370756
:103A240081FFD8CB7D57239CE7008280011126CAF1
:103A3400AA84214522CC06CE2E8432C636C43AC28C
:103A4400EFE03FCC1DC9A24612473246930700FD62
:103A54002300F5009947A30095002301F5002303F3
:103A6400D500A303E5002312C500AA85228562447C
:103A7400F240D24405616FE0BFD7F2406244D244C1
:103A84000561828023AAA18C828023ACA18C8280D0
:103A9400011122CC4AC806CE26CA2A890144B3049D
:103AA40089006368B400F2406244D244424905612B
:103AB40082802EC697C0FF1FE780805D93170501A3
:103AC400C183A183B2452380F4009307140093F7C4
:103AD400F70F850463F9B700CA9709042380A70088
:103AE4001374F40F6DBF3E846DBFC16717F5FF1FDC
:103AF400035545C5FD176302F502411103C6C19282
:103B04009385C18D06C6EF40705FB240FD5717F72D
:103B1400FF1F2319F7C24101828082802390050090
:103B2400ADC28147130E000C63FDC7043387F60052
:103B3400034807001387170042079318080193D816
:103B440008014183638F08023A98634C0603338863
:103B5400E6000348080063060802130328FC1373F5
:103B6400F30F63706E021383F8FF239065006316EE
:103B7400A8001305170036958280C697C207C18333
:103B840065B701458280411126C2AE8422C497F7ED
:103B9400FF1F23A5C7BA97F7FF1F23AFB7B897F73F
:103BA400FF1F23A9A7B82A8441469305F00F268551
:103BB4004AC006C60549EF10F143631E250397F773
:103BC400FF1F938727B7C843C145D935414693059D
:103BD400F00F2285EF1011428544631695022244AA
:103BE40097F7FF1F938707B5B24092440249884371
:103BF400C145410171BD414681452685EF10913F84
:103C0400E31625FD6DBF414681452285EF10913EA7
:103C1400E30795FCB2402244924402494101828068
:103C2400411122C426C22E84AA847146814517F507
:103C3400FF1F130525B006C697C0FF1FE780004E7F
:103C440097F7FF1FA38F97AE23888192EF80D00F41
:103C5400854719C181474945B240224417F7FF1FE0
:103C64002300F7AE924441018280814781CD19C976
:103C74008547631BF50083C7550093E707FCA382C0
:103C8400F50085473E85828009478547E31CE5FEAC
:103C940003C755001377F703A382E500E5B781470F
:103CA40081CD19C903C755009306000C85471377C6
:103CB400070C6303D70089473E858280411122C4E3
:103CC400005D06C626C21DC0AA84085019C1EF2093
:103CD400A107485019C1EF202107085419C1EF204A
:103CE400A1062285EF20410623AC0402B2402244FF
:103CF40092444101828009ED97F7FF1F83C767A4AF
:103D040017F5FF1F130545A481CB1385418C8280D1
:103D140017F5FF1F130545A3828017F5FF1F034501
:103D240045A2828097F7FF1F9387C7A088438280AC
:103D340097F7FF1F938707A0C843828097F7FF1F59
:103D44009387479F9C478843828097F7FF1F9387F9
:103D5400679E98471C4385071CC317F5FF1F03453F
:103D6400559E9307F00F6305F50091656F10513D63
:103D74008280011122CC32C606CE2E84EF407063BD
:103D8400914732466310F5029387818D9C4399CB0A
:103D940003A307006308030022856244F240B2854E
:103DA40005610283F2406244054505618280011188
:103DB40022CC2A840355450006CE26CA4AC84EC6DC
:103DC400EF4050402DC52A89834405008349C5002E
:103DD400F5354A85EF50400D03554400EF40F05847
:103DE40083C7418EA9CB6398970483C5518E2685DA
:103DF400D93619E12382018E03554400EF40705BEC
:103E04009147631FF5000357440097F7FF1F83D7BB
:103E140067936317F700FD5717F7FF1F2314F792F3
:103E2400F2406244D2444249B249056182808149E8
:103E34009304F00F75B79307F00FE38FF4FA8346FA
:103E4400640003564400034524004E87A685F93ECA
:103E540065B717F7FF1F0347D78E9307F00F630566
:103E6400F706411126C2AA84294522C406C6EFE0FA
:103E74005F892A8429C5930700FD2300F500A14723
:103E8400A30095002301F50097F7FF1F9387878A06
:103E940083C7E7009385418C1105A30FF5FE1946EE
:103EA40097C0FF1FE780A023A2852244B24092441A
:103EB40017F5FF1F0345F58841016FE07F93B2407A
:103EC4002244924441018280828079715EC6AA8B29
:103ED4002E8552CC56CA5AC806D622D426D24AD0E7
:103EE4004ECEAE8A328B368AEF40D02D7DC1045D32
:103EF4002A89E5C09C50614599C3130540039C542D
:103F040081C751054205418163050A0071054205D7
:103F14004181DC5081C75D0542054181EFE06FFEC0
:103F24002A8445C96146814597C0FF1FE780001F69
:103F340097E9FF1F83C9897F6394090083490900B6
:103F4400930700FD2300F400A947A3007401230193
:103F5400F400230364018C502312540113058401DB
:103F640091C908C47146930A440397C0FF1FE780B0
:103F7400001756858C5491C948C45146930A45018B
:103F840097C0FF1FE780A0155685630C0A0008C878
:103F94007146D285930AC50197C0FF1FE78020149C
:103FA4005685CC5099C548C85D4697C0FF1FE78029
:103FB4000013A2854E85EFE0BF832254B250925481
:103FC400F249624AD24A424BB24B4A850259456190
:103FD400F5B1B250225492540259F249624AD24A7B
:103FE400424BB24B4561828001114EC6AA892E858F
:103FF4004AC806CE22CC26CA2E89EF40B01C21C95D
:1040040097E4FF1F83C4847299E083440500194533
:10401400EFE02FEF2A8405CD8145194697C0FF1F95
:10402400E780C00F930700FD2300F400B947A30005
:1040340034012301F40023122401A2856244F240D6
:104044004249B2492685D24405616FE06FFAF240D5
:104054006244D2444249B2490561828039715ECEDC
:10406400AA8B2E8526DA4ED652D456D25AD006DEE4
:1040740022DC4AD8AE84328BB68A3A8ABE8942C6DA
:10408400EF40501421CD2A894145EFE08FE72A847F
:1040940031C54146814597C0FF1FE780200817E5D9
:1040A400FF1F0345A56819E103450900930700FDB7
:1040B4002300F400BD472301F400B247A3007401B8
:1040C4002312940023046401A3045401230544012E
:1040D400A30534015CC4A285EFE08FF1F250625471
:1040E400D2544259B259225A925A025BF24B21617C
:1040F400828017E7FF1F0347D7649307F00F630D10
:10410400F706411126C2AA84394522C406C64AC00C
:10411400EFE02FDF2A8439C9930700FD2300F5005F
:10412400A30095002301050097E5FF1F9385C56152
:104134000D05194697C0FF1FE78060FA17E9FF1FB6
:104144001309495F83572901A2852315F400834786
:10415400D9002306F4002244B2409244024917E5F0
:10416400FF1F0345155E41016FE08FE8B240224412
:104174009244024941018280828001115AC02A8BF3
:10418400314526CA4EC652C456C206CE22CC4AC8AF
:10419400AE84B28A368ABA89EFE0AFD63DC52A84A6
:1041A4002685EF40300229CD03C91193631C0B000F
:1041B4009387019A9C439C4791C7CE865286D685A5
:1041C40026858297930700FD2300F4009D47A300F2
:1041D40064012301F40023129400231354012314D3
:1041E400440123153401A2856244F240D244B24909
:1041F400224A924A024B4A85424905616FE04FDFE9
:1042040017E9FF1F0349F95375BFF2406244D244D2
:104214004249B249224A924A024B05618280011105
:1042240022CC2A84214506CE2EC6EFE08FCD21C1B3
:10423400B245930700FD2300F500C5472301F500AF
:1042440083C73500A301F50083D745002312F50089
:1042540083C765002303F50083C77500AA85A303FC
:10426400F50022856244F24005616FE06FD8F240A8
:10427400624405618280397162CC2A8C594526DA00
:104284004AD84ED652D456D25AD05ECE06DE22DC5E
:10429400AE8432C636C4BA8B3E8BC28A468A8359F0
:1042A400010403494104EFE0CFC525C93246930711
:1042B40000FDA2462300F5009547A301C500A30015
:1042C40085012301F5002A8419461105A9C2B68582
:1042D40097C0FF1FE780A0E023066401230A24019E
:1042E400231574012317540123184401231934019D
:1042F400A2856254F2504259B259225A925A025B30
:10430400F24B624C2685D25421616FE06FCE814519
:1043140097C0FF1FE78080E0C1B7F2506254D254C7
:104324004259B259225A925A025BF24B624C2161B1
:104334008280797126D206D622D44AD04ECE52CC6F
:10434400894449C52A84035505002E8AD144EF4087
:1043540060672A8925CD1C5DC544ADEB91659385C5
:1043640045711305C002EF10D10F232CA902AA89AD
:10437400CD4429CD1306C002814597C0FF1FE780B5
:10438400E0D9835704009386490036852391F900C8
:1043940071469305440036C697C0FF1FE78020D4BA
:1043A40089472380F900B2460356040083C5C192AD
:1043B4000145EF500047AA8463060A00D2854A8566
:1043C400EF40F05281C44A85EFF05F8FB25022541F
:1043D400268502599254F249624A4561828039CA5B
:1043E400411122C426C24AC006C6B2842E89EF40B7
:1043F400605D2A84D1470DC5485519C1EF10D11409
:10440400F1452685EFE0AFCE48D4CD4711C98347A7
:104414004400630E090093E767002302F400814718
:10442400B2402244924402493E854101828093E78E
:104434004700E5B789473E858280AD4763EBA70017
:1044440097E7FF1F9387872D06053E9503550500C3
:10445400828041657D158280011122CC2A842E85BB
:1044640026CA06CEAE84EF40E0551DCDB7470F00F7
:104474009387F723094563E4870281450A8541460A
:1044840097C0FF1FE78080C9A685231081000A8595
:10449400418023018100A3010100EF50202CF24050
:1044A4006244D244056182804945D5BF2387A192E5
:1044B4008280797152CC2A8A328522D426D24AD07B
:1044C4004ECE56CA5AC85EC606D662C4AE8BB28AEF
:1044D400368BBA843E89C2894684EF40A04E15C902
:1044E4002A8C63140A0213774B008347450015CFC7
:1044F40093E727012302FC008DEC631C0902639AF5
:10450400090205E8ED9B2302FC00832B8C03639BCB
:104514000B06B250225492540259F249624AD24ACA
:10452400424BB24B224C45618280F59B93E70701D5
:10453400D1B793E747002302FC0001CC1C48414655
:10454400A2852324FC0213058C0197C0FF1FE7807A
:1045540000B9639F0B00D5D80325CC0219C1EF1015
:10456400A17EF1452685EFE08FB82326AC0271BF0A
:10457400E30D09F80325CC0219C1EF10E17CF145E4
:104584004A85D5B78DC483A70B0289EB91659385C2
:1045940035717145EF10E16C23A0AB0203A50B024A
:1045A40019C57146A68597C0FF1FE78040B363868F
:1045B400090283A74B0289EB9165938525715D45BB
:1045C400EF10216A23A2AB0203A54B0219C55D4675
:1045D400CE8597C0FF1FE78080B00DC483A78B02F0
:1045E40089EB9165938515715145EF10816723A47B
:1045F400AB0203A58B0219C55146A28597C0FF1FC4
:10460400E780E0AD2254B2509254F249B24B224CAE
:10461400CA865A860259424BD6855285D24A624A84
:1046240045616FF09F8A011126CA52C406CE22CC7E
:104634004AC84EC62A8AAE84EF40C03825C5AA8926
:104644003945EFE00F8C2A8431CD17E9FF1F034968
:10465400E90D6314090003C909009307000D231031
:10466400F400AD472301F400938569001305340079
:10467400194697C0FF1FE78080A693F71400858032
:1046840085882306F400A306940023154401A2851B
:104694006244F240D244B249224A4A854249056101
:1046A4006FE00F95F2406244D2444249B249224A33
:1046B400056182809387C18C884311C9411106C664
:1046C400EF108168B24023A6018C41018280828070
:1046D400011106CE22CC26CA4AC82EC6EF40802E2F
:1046E40039CDB24517E9FF1F03494904AA840CD503
:1046F40063140900034905004145EFE08F802A84D3
:104704001DCD9307000D2310F500A5472301F500E7
:1047140083C75400938564001105A30FF5FE194661
:1047240097C0FF1FE780A09B9C54A285F2405CC405
:104734006244D2444A85424905616FE06F8BF2407E
:104744006244D244424905618280C16717E8FF1F71
:10475400035848FFFD17630AF8024111239EB18CE8
:10476400239FC18C9385C18D03C6C19206C6239134
:10477400E18E2390D18EEF406018B240FD5717E7C9
:10478400FF1F2311F7FC410182808280797122D4BA
:1047940006D62A842EC6EF40E02205CD8346C50006
:1047A4001147AA8749456392E6029C5FB24599C3C3
:1047B40083C567012308B100975600009386C65647
:1047C400100889452285EF409009B2502254456172
:1047D40082805145DDBF31C6411122C426C24AC080
:1047E40006C6B2842E89EF40E01D2A84514505C4D3
:1047F400630809008347440093E727002302F40079
:10480400130584014146A68597C0FF1FE780208DCC
:104814009C4801451CD4B2402244924402494101BF
:10482400828009458280797122D406D62A842EC6D4
:10483400EF40401901CDB2452285230EB1006C082A
:10484400EF407007B2502254456182805145DDBF6C
:104854006F40602C4111C16726C24AC006C622C4FB
:10486400FD172A89B2846390F502B285EFF0AF9404
:1048740009E52382218FA382918EB240224492447F
:104884000249410182802E852E84EF40A01319CD68
:10489400834705000D45E39227FF22852244B24059
:1048A4000249A685924441016F7090484945F1B789
:1048B4002D47AA876361A70241677D170945638D68
:1048C400E50017E5FF1F130565E58607AA97239002
:1048D400B7000145828009458280011122CC06CEB1
:1048E40026CA4AC8114609446392C5023EC63A899B
:1048F400B684EFF0EFB22A84324609E9CA852685E8
:10490400EFF06FA8EF003053EF00902F2285F240B4
:104914006244D244424905618280411106C622C4E0
:1049240026C22A8497E4FF1F9384C4E0EFF0CF8A61
:10493400EF00B02FEFA0100026858145714697B097
:10494400FF1FE780A07D930700F02397F4007D57B5
:104954009387C1922381E700238087002285224424
:10496400B2409244954541016F30C05E1D719397EA
:104974000501CAC886CEA2CCA6CACEC6D2C4D6C2A7
:10498400DAC05EDE62DC66DAC1872E8963D507444D
:1049940003C5C192EFD0BFDD8964C169056A797B23
:1049A4002A84938BD400FD19250A130CABFF0DE068
:1049B40021653345A900F6406644D6444649B649C4
:1049C400264A964A064BF25B625CD25C2561828081
:1049D400834704001307200A639DE700035524005E
:1049E40097EAFF1F83CAFAD52286CE85EFF06FB807
:1049F40085A21307100983CAE1926399E73A8347B2
:104A040014001547639EE7002285EFF04FBA228514
:104A1400EFD05FCA03C5C192EFD07FD52A8441BFCE
:104A24003947639AE71283574400639B47050C4454
:104A340083CC0500639D0C00850591C9194617E5D3
:104A4400FF1F130565D097B0FF1FE780406917E784
:104A5400FF1F0347E7CE8547631AF734638A0C00C8
:104A640097E7FF1F238E07CC6685EFF08FE845B7E5
:104A7400894717E7FF1F2305F7CCEF70903241BF3A
:104A840013872400639AE706832C840063800C3226
:104A940083C70C008DE383C72C0003C71C00A20747
:104AA400D98F17E7FF1F2310F7CA83C73C0017E706
:104AB400FF1FA307F7C817E7FF1F034767C8894706
:104AC4006316F72E83C70C0081CB97E7FF1F23895A
:104AD40007C603C50C0051BF8D4797E5FF1F83C56B
:104AE40035C617E5FF1F035505C617E7FF1F230942
:104AF400F7C4EF302049F1BF138754006398E700EF
:104B04001C4403C50700EFF0CFB411B73387870106
:104B140042074183914663F3E6021307ABFCBA975D
:104B2400C207C18371476363F72837070018130767
:104B3400F770B357F700858B638A07269387418DF7
:104B44009C43E38607EC9C43E38307EC228582972E
:104B5400E31F05EAA1AC3D476390E7048357440093
:104B6400E38777EB13879401E383E7EA1387340140
:104B7400639EE72297E7FF1F83D7C7BCE38937E922
:104B84009387818D9C43E38407E89C43E38107E892
:104B9400A2853A8582976DBF1307E0036398E720E7
:104BA4008347240005476396E70C9387418D9C4314
:104BB40097ECFF1F83CCFCB891C7DC4381C78145C8
:104BC4000145829703457400930A8400D685EFF06B
:104BD4000F8D83474401A303A400835804010358A1
:104BE400E400035744002A86034534003EC2835739
:104BF4002401D686E6853EC09147EFF0CFE7834790
:104C0400340095E7DD47835804010358E4008346E4
:104C14007400835544003EC28357240156870546D9
:104C24003EC066859147EF40000EA301A400938720
:104C3400C18C9C4381C71145EFF0DFA703C5418EAA
:104C4400E30705DC83C5518EEFE0FFD6E30105DC05
:104C54008346340093071003638AF6000356440026
:104C6400114783C5418E3685EFE05FDC2382018ED8
:104C740079BB29476399E7089387418D9C4397EA59
:104C8400FF1F83CA1AAC91C7DC4381C78145014524
:104C94008297034574009306840093772500A1CF7F
:104CA40013761500930C4401834704028358C4010E
:104CB4000358A40103574400034534003EC28357FC
:104CC400E401D6853EC09147EFF0EFDA8347340024
:104CD400B9FFDD478358C4010358A4018346740017
:104CE400835544003EC28357E401668705463EC0AF
:104CF400568591470DBFB68536CEEFE05FFAF24692
:104D04002A86B68C55B70D476397E70022868D45F2
:104D140003554400E1B919476395E7066C10130580
:104D24001031EFA040459305E10213052031EFA0B7
:104D34008044035664008357E1020355440063E84A
:104D4400C700835684000357C10263F7E600930546
:104D54000002EF70701665B96374E6002313E40073
:104D640063F4D7002314F4000357C4008356A4004B
:104D7400035684008355640001488147EF70D010C6
:104D840079B11D476384E70231476395E7002286C2
:104D9400B145BDBF49476394E7029387418D9C4366
:104DA40091C7DC4381C78145054582979307F00F7E
:104DB400E38FFAC4A2855685EFD09FA3A1B94D47CE
:104DC400E396E7FE9387418D9C43EDD3DC43F9DF03
:104DD400A2850945D9BF93F725000145E38D07BC9A
:104DE4009387418D9C4391C7DC4381C78145054529
:104DF400829713452900C1B61D71A6CA9384018DFB
:104E04009840A2CC86CECAC8CEC6054441C3034549
:104E1400370097E7FF1F83C7C792B337F0009305A6
:104E240047003EDEEFE07FE498402ADC09458345F5
:104E340027002EDAEFF06FE02AD80D45EFF0EFDF10
:104E440084402AD6254503C7A40083C9B4003AD4B4
:104E5400EFF0AFDE2A892945EFF02FDE62096258B0
:104E6400F2572257B2564256D2551375F50F1359BD
:104E740089412ACC22C402CA02C802C64AC24EC010
:104E8400938844000545EF70500A2A842285F64031
:104E94006644D6444649B649256182809387018D8C
:104EA400884311C9411106C6EF00116AB24023A814
:104EB400018C410182808280011122CC06CE8D4773
:104EC4002E846316F50603C73500E94703D545006C
:104ED4006318F70097E7FF1F83D7C7866385A70684
:104EE400EF30502E09C5835764002317F50003578C
:104EF400A40083568400035664008355440003458C
:104F04003400EFF08FA70357440097E7FF1F83D7C0
:104F140067836308F7008547F24062443E85056174
:104F24008280FD5717E7FF1F231EF780EDB78967BF
:104F3400CD07631DF50083C7250031476385E7006E
:104F44004547E39AE7FCEFE05FBAF1B7B14763176F
:104F5400F50003C51193EFF08FAC75BF41677D1762
:104F64008147E31BE5FA83C655004947E396E6FA11
:104F740083C5450003552400300023140100EF309D
:104F8400D01651BF411122C406C626C283C7618E02
:104F94001307E00F2E846383E7041307F00F63877E
:104FA400E7021145EFD0EFF515C1930700FD23008B
:104FB400F50089472301F5008547A3008500A30177
:104FC400F500AA8503C5618EEFD09F82F95723832C
:104FD400F18EB2402244924441018280AA84114558
:104FE400EFD02FF27DD5930700FD2300F50089470C
:104FF400A30085002301F500A30195002244B240DB
:105004009244AA8503C5718E41016FD06FFE0111D0
:105014004AC81389018D8327090006CE22CC26CAEB
:10502400C9EBAE849165A383A18E2A84938575719F
:105034003145EF001143AA8723A8A18C4D45B9C37C
:1050440023808700A3800700138527002946A685AF
:1050540097B0FF1FE780A00883270900914603C784
:10506400270063ECE6000DE74D472381E70003C703
:105074002700136707012381E700BD3B01C52AC64A
:10508400313D3245F2406244D24442490561828056
:1050940085466314D7007547C9BF89466314D70092
:1050A4004947E1B78D466314D70041477DBF554753
:1050B4006DBF4545C1BF011126CA9384018D9C4033
:1050C40022CC06CE49449DCF83C707000D44639B81
:1050D400A702894503C5C192EFD01FBC914503C502
:1050E400C192EFD07FBB9C4001478146A3808700DB
:1050F4001306F100854785450145A307F100EF70CC
:10510400606C2A842285F2406244D2440561828024
:1051140041114AC006C61389018D22C426C205471F
:1051240083270900631BE500C9CB2244B2409244A3
:10513400024903C507004101BDBFC1C38947AE840D
:105144006312F5062D45EFD0CFDB2A843DC59307C6
:1051540000FD2300F500E547A30005002301F50049
:1051640083C7340015051946230FF5FE83C7440091
:1051740093855400A30FF5FE97B0FF1FE78020F638
:1051840003C511939307F00F6316F50083270900F5
:1051940003C50700A2852244B2409244024941015A
:1051A4006FD00FE5894503C5C192EFD0FFAE22440D
:1051B400B240924402494101D5B1B24022449244E2
:1051C400024941018280FD4763FCA70009458280B2
:1051D4000945F2406244D2444249B24905618280A1
:1051E4004DC1011122CC2A8421054EC64205AE8947
:1051F40091659385657141814AC806CE26CAEF0040
:1052040051262A8971D59384C18E884019C1EF0033
:10521400B133130589002320A9002286814523A6E2
:10522400218F97B0FF1FE78060EF9C402286CE85D8
:10523400884397B0FF1FE78080EA9C402392870051
:105244009387018D9C4395CB83C70193918B85CB29
:105254009387C18E9C4399CF984383D64700624479
:10526400F240D2444249B24905468D45054505619F
:105274006F70C05001478146DDB7014599BF49456C
:1052840089BF9387018D9C439DC383C70193918BF1
:105294008DC39387C18E9C4381CB984383D64700AB
:1052A40005468D450545E9B701478146D5BF01450A
:1052B400828049458280FD4763FCA70009458280BE
:1052C4000945F2406244D2444249B24905618280B0
:1052D4004DC1011122CC2A8421054EC64205AE8956
:1052E40091659385557141814AC806CE26CAEF005F
:1052F40051172A8971D59384018F884019C1EF0011
:10530400B124130589002320A9002286814523A8FE
:10531400218F97B0FF1FE78060E09C402286CE85F6
:10532400884397B0FF1FE78080DB9C40239287006F
:105334009387018D9C4395CB83C70193918B85CB38
:105344009387018F9C4399CF984383D64700624447
:10535400F240D2444249B24905468D4505450561AE
:105364006F70004401478146DDB7014599BF494547
:1053740089BF9387018D9C439DC383C70193918B00
:105384008DC39387018F9C4381CB984383D6470079
:1053940005468D450545E9B701478146D5BF014519
:1053A4008280494582809387C18E9C4391CF03D6E6
:1053B40047008C43411106C697B0FF1FE78020D2F7
:1053C400B240014541018280094582809387C18EA4
:1053D4009C4385C79387018F9843894705C3035628
:1053E40047000C43411106C697B0FF1FE78020CF4A
:1053F400B24081473E854101828089473E85828053
:1054040083C70193918B99CF41111385818E06C671
:10541400EFE0AFE7B240FD5717D7FF1F2314F73271
:105424004101828001456FE04FE6FD57A383F18E71
:10543400F9572383F18E23A6018E23A8018E97D7D3
:10544400FF1F9387E730170700001307C70798C3A8
:1054540017070000130707CCD8C31707000013076A
:10546400E79998C797070000938747A523A4F18E6F
:105474008280411126C29384018D9C4006C622C4B9
:1054840085CF2A840D45EFD0CFA7AA8519CD9307E0
:1054940000FD2300F5008D47A30085002301F500DE
:1054A4009C4003C50700EFD0AFB419C42244B240F6
:1054B400924441016FF09F9EB240224492444101C4
:1054C4008280835645000111896706CE22CC26CA04
:1054D4004AC8138767036390E6021C45014583C5E8
:1054E4000700EFF03FAA8547F2406244D2444249A4
:1054F4003E8505618280138777036397E6001C4528
:10550400054583C50700F1BF138787036393E60846
:105514001C451307E00F03C4070083C7618E638E25
:10552400E7021307F00F6386E7021145EFD06F9D82
:10553400AA8505C1930700FD2300F5008947A30050
:1055440085002301F500A301050003C5618EEFD09A
:105554002FAAF9572383F18E79B79387018D984346
:10556400814759D305E4854723170100A300F700B9
:105574009306E1001307D100700085450545230615
:10558400F100A3060100EF70E023B1BF2285D535F9
:1055940099BF138797038147E398E6F41384018D39
:1055A4001840228931D31C450347170083C40700E0
:1055B40085476308F7020D45EFD0AF94AA8519CD4E
:1055C400930700FD2300F5009147A30095002301F4
:1055D400F5001C4003C50700EFD08FA1EFF01F8C2E
:1055E40019B79387C18E9C4395E30145EFE0FFE42F
:1055F40019C52A86894503C5C192EFD0EFC8832710
:10560400090009472685A380E70051B7944303D6D0
:1056140047009305E1000545EFE04FD079D5834776
:105624000500858BF9D30545EFE03FE113060064DF
:105634003305C50275BF411183C7019306C6918B1B
:1056440099CB17D5FF1F1305A510EFE0AFC34D4548
:10565400B240410182800145EFE0CFC20145CDBF98
:10566400BD47638CF50663E9B702A5476387F50672
:1056740063EDB7009947638CF5049D47638FF50488
:105684009547638CF50401458280B5476387F5042B
:1056940063E1B704AD47F5B7DD47638EF50263EA0E
:1056A400B700C947638BF502D9476386F502C5473E
:1056B400C9BFF5476383F50263E4B700ED47D1B78B
:1056C40093072005638BF5009307200D5DBF4845C4
:1056D4008280084182800845828048418280930705
:1056E400F00F630EF506011126CAAA841305000201
:1056F40022CC4AC84EC652C456C206CE3A89B6898E
:10570400B28A2E8AEFC0FFFF2A844D4515C893073D
:1057140000FB2300F400A3005401231144012302DD
:10572400340113058400614663050902CA8597B0F4
:10573400FF1FE780C09AA2852685EFD06F8B0145B5
:10574400F2406244D2444249B249224A924A056133
:105754008280814597B0FF1FE780409CE9BF0945DF
:105764008280011122CC06CE2A842306B100A3062E
:10577400C100EF30202509C978009306E0070146EF
:10578400A28503C51193A13FF24062440561828062
:10579400930700643306F6026FD04FC405C903476C
:1057A400050085469307270093F7F70F63F0F60289
:1057B400411122C42A843A8506C6EFD06FD5FD571D
:1057C4002300F400B24022444101828082800357C6
:1057D40005009307000B6313F7028347450049470D
:1057E400639CE7000347150185476399E700035568
:1057F400250085456F20E0756D47C5BF8280011186
:1058040022CC2EC632C406CE2A8436C2EF30801B88
:1058140012472246B24511C9B2862E86A285624439
:10582400F24003C5119305615DBDF2406244054534
:105834000561828023ACA18E8280011122CC26CA0C
:1058440006CE2A84AE84EF30E017A6852285EF9039
:10585400F06A19ED228523169100EF30A01609C9CC
:1058640078009306F0070146A28503C51193853D90
:10587400F2406244D24405618280011126CA06CEF8
:10588400B68422CCDD4663E2B608D94663FED50A67
:10589400A5466381D50A63EEB6049546638CD508A4
:1058A40099466387D50A054441687D18631606093D
:1058B4003AC6EF907068330685403247420641820B
:1058C400420441803305C4004205BA85418132C691
:1058D400EF20206DAA8749C181C432462390C400B9
:1058E400B30580406244F240D2443E8505616F9026
:1058F4001046C5466380D504C9460D44E395D5FAE0
:10590400C167FD17E31EF6FA65B7F5466380D50453
:1059140063E4B600ED46D5B7930620056388D50247
:105924009306200DE391D5F8C167FD170D44631963
:10593400F600BDBF09448DBF9306200DE392D5F850
:10594400310642064182ADBF15445DBF0D444DBFD3
:10595400C167FD171D447DB7F2406244D24405611E
:10596400828079714ECEAE89C16526D20147AA8460
:105974008946170601001306E6D5FD15054522D410
:1059840006D64AD0EF00B05B054439C92A8913070B
:10599400300281461146F5452685C5352AC655444B
:1059A40021C18357A900CE8601462314F1009147F3
:1059B4002315F10085472300F500B2472C00268506
:1059C400A38007003247FD572301F7003247A301A4
:1059D400F700EF00904C2A8401C53245EF00C13630
:1059E4002285B250225492540259F2494561828070
:1059F400411106C6EFF0DFC609C5B24041016F0090
:105A0400A134B24041018280011106CE2AC6EF9032
:105A1400B0393245914523AA018E23AC018EA38669
:105A2400A192EF202053F24005616F10F07A939712
:105A34000501C18763D40712797103C5D19222D4B9
:105A44004AD006D626D22E89EFC07FD22A8459C9DD
:105A5400034705009307000A6313F70885474C08BA
:105A6400A305F100EF905040AA8405ED834761013E
:105A740071476372F708138717FE1377F70F9306BE
:105A8400000263F1E608858BD5C39387418F9C435D
:105A9400994481CB035524001306B1004C08829726
:105AA400AA848347B10089C7084419C1EF00C129FA
:105AB40095E05247B7070001938707F07D8FB7073A
:105AC400120093870710630CF70003476101ED4749
:105AD4006317F700035524008545EF20804722858E
